{
  "contractName": "CompoundInteractor",
  "abi": [
    {
      "inputs": [
        {
          "internalType": "address",
          "name": "_underlying",
          "type": "address"
        },
        {
          "internalType": "address",
          "name": "_ctoken",
          "type": "address"
        },
        {
          "internalType": "address",
          "name": "_comptroller",
          "type": "address"
        }
      ],
      "payable": false,
      "stateMutability": "nonpayable",
      "type": "constructor"
    },
    {
      "payable": true,
      "stateMutability": "payable",
      "type": "fallback"
    },
    {
      "constant": true,
      "inputs": [],
      "name": "_weth",
      "outputs": [
        {
          "internalType": "contract IERC20",
          "name": "",
          "type": "address"
        }
      ],
      "payable": false,
      "stateMutability": "view",
      "type": "function"
    },
    {
      "constant": true,
      "inputs": [],
      "name": "comptroller",
      "outputs": [
        {
          "internalType": "contract ComptrollerInterface",
          "name": "",
          "type": "address"
        }
      ],
      "payable": false,
      "stateMutability": "view",
      "type": "function"
    },
    {
      "constant": true,
      "inputs": [],
      "name": "ctoken",
      "outputs": [
        {
          "internalType": "contract CompleteCToken",
          "name": "",
          "type": "address"
        }
      ],
      "payable": false,
      "stateMutability": "view",
      "type": "function"
    },
    {
      "constant": true,
      "inputs": [],
      "name": "underlying",
      "outputs": [
        {
          "internalType": "contract IERC20",
          "name": "",
          "type": "address"
        }
      ],
      "payable": false,
      "stateMutability": "view",
      "type": "function"
    },
    {
      "constant": false,
      "inputs": [],
      "name": "claimComp",
      "outputs": [],
      "payable": false,
      "stateMutability": "nonpayable",
      "type": "function"
    }
  ],
  "bytecode": "0x6080604052600180546001600160a01b03191673c02aaa39b223fe8d0a0e5c4f27ead9083c756cc217905534801561003657600080fd5b506040516104113803806104118339818101604052606081101561005957600080fd5b50805160208083015160409384015160008054600380546001600160a01b03199081166001600160a01b038087169190911790925560ff199092166001908117610100600160a81b031916610100838a1602179093556002805490921690851617905585518181528087019096529394919390926060929190828101908038833901905050905082816000815181106100ee57fe5b6001600160a01b03928316602091820292909201810191909152600354604051631853304760e31b815260048101838152855160248301528551929094169363c299823893869391928392604490910191858101910280838360005b8381101561016257818101518382015260200161014a565b5050505090500192505050600060405180830381600087803b15801561018757600080fd5b505af115801561019b573d6000803e3d6000fd5b505050506040513d6000823e601f3d908101601f1916820160405260208110156101c457600080fd5b81019080805160405193929190846401000000008211156101e457600080fd5b9083019060208201858111156101f957600080fd5b825186602082028301116401000000008211171561021657600080fd5b82525081516020918201928201910280838360005b8381101561024357818101518382015260200161022b565b5050505090500160405250505050505050506101ad806102646000396000f3fe60806040526004361061004a5760003560e01c80631bd85bdb1461004c5780635fe3b567146100615780636f307dc314610092578063a1764595146100a7578063ccf3eb9f146100bc575b005b34801561005857600080fd5b5061004a6100d1565b34801561006d57600080fd5b50610076610137565b604080516001600160a01b039092168252519081900360200190f35b34801561009e57600080fd5b50610076610146565b3480156100b357600080fd5b5061007661015a565b3480156100c857600080fd5b50610076610169565b600354604080516374d7814960e11b815230600482015290516001600160a01b039092169163e9af02929160248082019260009290919082900301818387803b15801561011d57600080fd5b505af1158015610131573d6000803e3d6000fd5b50505050565b6003546001600160a01b031681565b60005461010090046001600160a01b031681565b6001546001600160a01b031681565b6002546001600160a01b03168156fea265627a7a723158200a4b4629d59d3c915c291c75de9b160a0dfdc773bbe10f525566dc231749dfb164736f6c63430005100032",
  "source": "pragma solidity 0.5.16;\n\nimport \"@openzeppelin/contracts/math/Math.sol\";\nimport \"@openzeppelin/contracts/token/ERC20/SafeERC20.sol\";\nimport \"@openzeppelin/contracts/token/ERC20/IERC20.sol\";\nimport \"@openzeppelin/contracts/ownership/Ownable.sol\";\nimport \"@openzeppelin/contracts/math/SafeMath.sol\";\nimport \"@openzeppelin/contracts/utils/ReentrancyGuard.sol\";\nimport \"./CompleteCToken.sol\";\nimport \"../../hardworkInterface/IStrategy.sol\";\nimport \"../../weth/WETH9.sol\";\nimport \"@studydefi/money-legos/compound/contracts/ICEther.sol\";\n\ncontract CompoundInteractor is ReentrancyGuard {\n\n  using SafeMath for uint256;\n  using SafeERC20 for IERC20;\n\n  IERC20 public underlying;\n  IERC20 public _weth = IERC20(0xC02aaA39b223FE8D0A0e5C4F27eAD9083C756Cc2);\n  CompleteCToken public ctoken;\n  ComptrollerInterface public comptroller;\n\n  constructor(\n    address _underlying,\n    address _ctoken,\n    address _comptroller\n  ) public {\n    // Comptroller:\n    comptroller = ComptrollerInterface(_comptroller);\n\n    underlying = IERC20(_underlying);\n    ctoken = CompleteCToken(_ctoken);\n\n    // Enter the market\n    address[] memory cTokens = new address[](1);\n    cTokens[0] = _ctoken;\n    comptroller.enterMarkets(cTokens);\n  }\n\n  /**\n  * Supplies Ether to Compound\n  * Unwraps WETH to Ether, then invoke the special mint for cEther\n  * We ask to supply \"amount\", if the \"amount\" we asked to supply is\n  * more than balance (what we really have), then only supply balance.\n  * If we the \"amount\" we want to supply is less than balance, then\n  * only supply that amount.\n  */\n  function _supplyEtherInWETH(uint256 amountInWETH) internal nonReentrant {\n    // underlying here is WETH\n    uint256 balance = underlying.balanceOf(address(this)); // supply at most \"balance\"\n    if (amountInWETH < balance) {\n      balance = amountInWETH; // only supply the \"amount\" if its less than what we have\n    }\n    WETH9 weth = WETH9(address(_weth));\n    weth.withdraw(balance); // Unwrapping\n    ICEther(address(ctoken)).mint.value(balance)();\n  }\n\n  /**\n  * Redeems Ether from Compound\n  * receives Ether. Wrap all the ether that is in this contract.\n  */\n  function _redeemEtherInCTokens(uint256 amountCTokens) internal nonReentrant {\n    _redeemInCTokens(amountCTokens);\n    WETH9 weth = WETH9(address(_weth));\n    weth.deposit.value(address(this).balance)();\n  }\n\n  /**\n  * Supplies to Compound\n  */\n  function _supply(uint256 amount) internal returns(uint256) {\n    uint256 balance = underlying.balanceOf(address(this));\n    if (amount < balance) {\n      balance = amount;\n    }\n    underlying.safeApprove(address(ctoken), 0);\n    underlying.safeApprove(address(ctoken), balance);\n    uint256 mintResult = ctoken.mint(balance);\n    require(mintResult == 0, \"Supplying failed\");\n    return balance;\n  }\n\n  /**\n  * Borrows against the collateral\n  */\n  function _borrow(\n    uint256 amountUnderlying\n  ) internal {\n    // Borrow DAI, check the DAI balance for this contract's address\n    uint256 result = ctoken.borrow(amountUnderlying);\n    require(result == 0, \"Borrow failed\");\n  }\n\n  /**\n  * Repays a loan\n  */\n  function _repay(uint256 amountUnderlying) internal {\n    underlying.safeApprove(address(ctoken), 0);\n    underlying.safeApprove(address(ctoken), amountUnderlying);\n    ctoken.repayBorrow(amountUnderlying);\n    underlying.safeApprove(address(ctoken), 0);\n  }\n\n  /**\n  * Redeem liquidity in cTokens\n  */\n  function _redeemInCTokens(uint256 amountCTokens) internal {\n    if(amountCTokens > 0){\n      ctoken.redeem(amountCTokens);\n    }\n  }\n\n  /**\n  * Redeem liquidity in underlying\n  */\n  function _redeemUnderlying(uint256 amountUnderlying) internal {\n    if (amountUnderlying > 0) {\n      ctoken.redeemUnderlying(amountUnderlying);\n    }\n  }\n\n  /**\n  * Redeem liquidity in underlying\n  */\n  function redeemUnderlyingInWeth(uint256 amountUnderlying) internal {\n    _redeemUnderlying(amountUnderlying);\n    WETH9 weth = WETH9(address(_weth));\n    weth.deposit.value(address(this).balance)();\n  }\n\n  /**\n  * Get COMP\n  */\n  function claimComp() public {\n    comptroller.claimComp(address(this));\n  }\n\n  /**\n  * Redeem the minimum of the WETH we own, and the WETH that the cToken can\n  * immediately retrieve. Ensures that `redeemMaximum` doesn't fail silently\n  */\n  function redeemMaximumWeth() internal {\n      // amount of WETH in contract\n      uint256 available = ctoken.getCash();\n      // amount of WETH we own\n      uint256 owned = ctoken.balanceOfUnderlying(address(this));\n\n      // redeem the most we can redeem\n      redeemUnderlyingInWeth(available < owned ? available : owned);\n  }\n\n  function () external payable {} // this is needed for the WETH unwrapping\n}\n",
  "sourcePath": "/home/jawaher/tmp/harvest/contracts/strategies/compound/CompoundInteractor.sol",
  "compiler": {
    "name": "solc",
    "version": "0.5.16+commit.9c3226ce.Emscripten.clang"
  },
  "schemaVersion": "3.2.5",
  "updatedAt": "2020-10-19T08:25:32.223Z",
  "devdoc": {
    "methods": {}
  },
  "userdoc": {
    "methods": {
      "claimComp()": {
        "notice": "Get COMP"
      }
    }
  }
}