{
  "contractName": "Controller",
  "abi": [
    {
      "inputs": [
        {
          "internalType": "address",
          "name": "_storage",
          "type": "address"
        },
        {
          "internalType": "address",
          "name": "_feeRewardForwarder",
          "type": "address"
        }
      ],
      "payable": false,
      "stateMutability": "nonpayable",
      "type": "constructor"
    },
    {
      "anonymous": false,
      "inputs": [
        {
          "indexed": true,
          "internalType": "address",
          "name": "vault",
          "type": "address"
        },
        {
          "indexed": true,
          "internalType": "address",
          "name": "strategy",
          "type": "address"
        },
        {
          "indexed": false,
          "internalType": "uint256",
          "name": "oldSharePrice",
          "type": "uint256"
        },
        {
          "indexed": false,
          "internalType": "uint256",
          "name": "newSharePrice",
          "type": "uint256"
        },
        {
          "indexed": false,
          "internalType": "uint256",
          "name": "timestamp",
          "type": "uint256"
        }
      ],
      "name": "SharePriceChangeLog",
      "type": "event"
    },
    {
      "constant": true,
      "inputs": [],
      "name": "feeRewardForwarder",
      "outputs": [
        {
          "internalType": "address",
          "name": "",
          "type": "address"
        }
      ],
      "payable": false,
      "stateMutability": "view",
      "type": "function"
    },
    {
      "constant": true,
      "inputs": [],
      "name": "governance",
      "outputs": [
        {
          "internalType": "address",
          "name": "",
          "type": "address"
        }
      ],
      "payable": false,
      "stateMutability": "view",
      "type": "function"
    },
    {
      "constant": true,
      "inputs": [
        {
          "internalType": "address",
          "name": "",
          "type": "address"
        }
      ],
      "name": "greyList",
      "outputs": [
        {
          "internalType": "bool",
          "name": "",
          "type": "bool"
        }
      ],
      "payable": false,
      "stateMutability": "view",
      "type": "function"
    },
    {
      "constant": true,
      "inputs": [],
      "name": "hardRewards",
      "outputs": [
        {
          "internalType": "contract HardRewards",
          "name": "",
          "type": "address"
        }
      ],
      "payable": false,
      "stateMutability": "view",
      "type": "function"
    },
    {
      "constant": true,
      "inputs": [
        {
          "internalType": "address",
          "name": "",
          "type": "address"
        }
      ],
      "name": "hardWorkers",
      "outputs": [
        {
          "internalType": "bool",
          "name": "",
          "type": "bool"
        }
      ],
      "payable": false,
      "stateMutability": "view",
      "type": "function"
    },
    {
      "constant": true,
      "inputs": [],
      "name": "profitSharingDenominator",
      "outputs": [
        {
          "internalType": "uint256",
          "name": "",
          "type": "uint256"
        }
      ],
      "payable": false,
      "stateMutability": "view",
      "type": "function"
    },
    {
      "constant": true,
      "inputs": [],
      "name": "profitSharingNumerator",
      "outputs": [
        {
          "internalType": "uint256",
          "name": "",
          "type": "uint256"
        }
      ],
      "payable": false,
      "stateMutability": "view",
      "type": "function"
    },
    {
      "constant": false,
      "inputs": [
        {
          "internalType": "address",
          "name": "_store",
          "type": "address"
        }
      ],
      "name": "setStorage",
      "outputs": [],
      "payable": false,
      "stateMutability": "nonpayable",
      "type": "function"
    },
    {
      "constant": true,
      "inputs": [],
      "name": "store",
      "outputs": [
        {
          "internalType": "contract Storage",
          "name": "",
          "type": "address"
        }
      ],
      "payable": false,
      "stateMutability": "view",
      "type": "function"
    },
    {
      "constant": true,
      "inputs": [
        {
          "internalType": "address",
          "name": "",
          "type": "address"
        }
      ],
      "name": "vaults",
      "outputs": [
        {
          "internalType": "bool",
          "name": "",
          "type": "bool"
        }
      ],
      "payable": false,
      "stateMutability": "view",
      "type": "function"
    },
    {
      "constant": false,
      "inputs": [
        {
          "internalType": "address",
          "name": "_worker",
          "type": "address"
        }
      ],
      "name": "addHardWorker",
      "outputs": [],
      "payable": false,
      "stateMutability": "nonpayable",
      "type": "function"
    },
    {
      "constant": false,
      "inputs": [
        {
          "internalType": "address",
          "name": "_worker",
          "type": "address"
        }
      ],
      "name": "removeHardWorker",
      "outputs": [],
      "payable": false,
      "stateMutability": "nonpayable",
      "type": "function"
    },
    {
      "constant": false,
      "inputs": [
        {
          "internalType": "address",
          "name": "_vault",
          "type": "address"
        }
      ],
      "name": "hasVault",
      "outputs": [
        {
          "internalType": "bool",
          "name": "",
          "type": "bool"
        }
      ],
      "payable": false,
      "stateMutability": "nonpayable",
      "type": "function"
    },
    {
      "constant": false,
      "inputs": [
        {
          "internalType": "address",
          "name": "_target",
          "type": "address"
        }
      ],
      "name": "addToGreyList",
      "outputs": [],
      "payable": false,
      "stateMutability": "nonpayable",
      "type": "function"
    },
    {
      "constant": false,
      "inputs": [
        {
          "internalType": "address",
          "name": "_target",
          "type": "address"
        }
      ],
      "name": "removeFromGreyList",
      "outputs": [],
      "payable": false,
      "stateMutability": "nonpayable",
      "type": "function"
    },
    {
      "constant": false,
      "inputs": [
        {
          "internalType": "address",
          "name": "_feeRewardForwarder",
          "type": "address"
        }
      ],
      "name": "setFeeRewardForwarder",
      "outputs": [],
      "payable": false,
      "stateMutability": "nonpayable",
      "type": "function"
    },
    {
      "constant": false,
      "inputs": [
        {
          "internalType": "address",
          "name": "_vault",
          "type": "address"
        },
        {
          "internalType": "address",
          "name": "_strategy",
          "type": "address"
        }
      ],
      "name": "addVaultAndStrategy",
      "outputs": [],
      "payable": false,
      "stateMutability": "nonpayable",
      "type": "function"
    },
    {
      "constant": false,
      "inputs": [
        {
          "internalType": "address",
          "name": "_vault",
          "type": "address"
        }
      ],
      "name": "doHardWork",
      "outputs": [],
      "payable": false,
      "stateMutability": "nonpayable",
      "type": "function"
    },
    {
      "constant": false,
      "inputs": [
        {
          "internalType": "address",
          "name": "_vault",
          "type": "address"
        }
      ],
      "name": "rebalance",
      "outputs": [],
      "payable": false,
      "stateMutability": "nonpayable",
      "type": "function"
    },
    {
      "constant": false,
      "inputs": [
        {
          "internalType": "address",
          "name": "_hardRewards",
          "type": "address"
        }
      ],
      "name": "setHardRewards",
      "outputs": [],
      "payable": false,
      "stateMutability": "nonpayable",
      "type": "function"
    },
    {
      "constant": false,
      "inputs": [
        {
          "internalType": "address",
          "name": "_token",
          "type": "address"
        },
        {
          "internalType": "uint256",
          "name": "_amount",
          "type": "uint256"
        }
      ],
      "name": "salvage",
      "outputs": [],
      "payable": false,
      "stateMutability": "nonpayable",
      "type": "function"
    },
    {
      "constant": false,
      "inputs": [
        {
          "internalType": "address",
          "name": "_strategy",
          "type": "address"
        },
        {
          "internalType": "address",
          "name": "_token",
          "type": "address"
        },
        {
          "internalType": "uint256",
          "name": "_amount",
          "type": "uint256"
        }
      ],
      "name": "salvageStrategy",
      "outputs": [],
      "payable": false,
      "stateMutability": "nonpayable",
      "type": "function"
    },
    {
      "constant": false,
      "inputs": [
        {
          "internalType": "address",
          "name": "underlying",
          "type": "address"
        },
        {
          "internalType": "uint256",
          "name": "fee",
          "type": "uint256"
        }
      ],
      "name": "notifyFee",
      "outputs": [],
      "payable": false,
      "stateMutability": "nonpayable",
      "type": "function"
    }
  ],
  "bytecode": "0x608060405234801561001057600080fd5b50604051611c2a380380611c2a8339818101604052604081101561003357600080fd5b508051602090910151816001600160a01b038116610098576040805162461bcd60e51b815260206004820152601e60248201527f6e65772073746f726167652073686f756c646e277420626520656d7074790000604482015290519081900360640190fd5b600080546001600160a01b0319166001600160a01b0392831617905581166100f15760405162461bcd60e51b8152600401808060200182810382526026815260200180611c046026913960400191505060405180910390fd5b600180546001600160a01b0319166001600160a01b039290921691909117905550611ae3806101216000396000f3fe608060405234801561001057600080fd5b506004361061014d5760003560e01c80635aa6e675116100c3578063ae28d1281161007c578063ae28d128146103d8578063b60f151a146103e0578063b8393eaf146103e8578063d0fc3e831461040e578063ed32fa3314610416578063f706bf28146104445761014d565b80635aa6e675146103145780636e4af83e14610338578063818601701461035e5780639137c1a714610384578063975057e7146103aa578063a622ee7c146103b25761014d565b806330e412ad1161011557806330e412ad1461021a5780633259eeb61461024057806338dd98761461026657806338f5a5e41461028c5780633e3309cc146102b257806358d94fbc146102de5761014d565b8063026a0dd0146101525780630af210a11461016c5780630d453efb1461019457806321c28191146101ce578063301153f1146101f4575b600080fd5b61015a610470565b60408051918252519081900360200190f35b6101926004803603602081101561018257600080fd5b50356001600160a01b0316610475565b005b6101ba600480360360208110156101aa57600080fd5b50356001600160a01b03166107c6565b604080519115158252519081900360200190f35b610192600480360360208110156101e457600080fd5b50356001600160a01b03166107e4565b6101926004803603602081101561020a57600080fd5b50356001600160a01b0316610928565b6101ba6004803603602081101561023057600080fd5b50356001600160a01b0316610a5a565b6101926004803603602081101561025657600080fd5b50356001600160a01b0316610a6f565b6101926004803603602081101561027c57600080fd5b50356001600160a01b0316610b9e565b610192600480360360208110156102a257600080fd5b50356001600160a01b0316610c79565b610192600480360360408110156102c857600080fd5b506001600160a01b038135169060200135610d56565b610192600480360360608110156102f457600080fd5b506001600160a01b03813581169160208101359091169060400135610e35565b61031c610f77565b604080516001600160a01b039092168252519081900360200190f35b6101926004803603602081101561034e57600080fd5b50356001600160a01b0316610ff7565b6101926004803603602081101561037457600080fd5b50356001600160a01b03166110d1565b6101926004803603602081101561039a57600080fd5b50356001600160a01b03166111f1565b61031c611327565b6101ba600480360360208110156103c857600080fd5b50356001600160a01b0316611336565b61031c61134b565b61015a61135a565b6101ba600480360360208110156103fe57600080fd5b50356001600160a01b031661135f565b61031c611374565b6101926004803603604081101561042c57600080fd5b506001600160a01b0381358116916020013516611383565b6101926004803603604081101561045a57600080fd5b506001600160a01b0381351690602001356115b5565b606481565b3360009081526005602052604090205460ff16806104ab5750610496610f77565b6001600160a01b0316336001600160a01b0316145b6104fc576040805162461bcd60e51b815260206004820152601e60248201527f6f6e6c79206861726420776f726b65722063616e2063616c6c20746869730000604482015290519081900360640190fd5b6001600160a01b038116600090815260036020526040902054819060ff16610562576040805162461bcd60e51b81526020600482015260146024820152731d985d5b1d08191bd95cc81b9bdd08195e1a5cdd60621b604482015290519081900360640190fd5b6000826001600160a01b03166377c7b8fc6040518163ffffffff1660e01b815260040160206040518083038186803b15801561059d57600080fd5b505afa1580156105b1573d6000803e3d6000fd5b505050506040513d60208110156105c757600080fd5b5051604080516313e9761560e21b815290519192506001600160a01b03851691634fa5d8549160048082019260009290919082900301818387803b15801561060e57600080fd5b505af1158015610622573d6000803e3d6000fd5b50506004546001600160a01b03161591506106a790505760048054604080516333b54be160e01b815233938101939093526001600160a01b03868116602485015290519116916333b54be191604480830192600092919082900301818387803b15801561068e57600080fd5b505af11580156106a2573d6000803e3d6000fd5b505050505b826001600160a01b031663a8c62e766040518163ffffffff1660e01b815260040160206040518083038186803b1580156106e057600080fd5b505afa1580156106f4573d6000803e3d6000fd5b505050506040513d602081101561070a57600080fd5b505160408051631df1ee3f60e21b815290516001600160a01b03928316928616917f43ffccb0abea5304f42c5d67d56e479f21f76ecc142c39a770725e99125243bc91859184916377c7b8fc91600480820192602092909190829003018186803b15801561077757600080fd5b505afa15801561078b573d6000803e3d6000fd5b505050506040513d60208110156107a157600080fd5b50516040805192835260208301919091524282820152519081900360600190a3505050565b6001600160a01b031660009081526003602052604090205460ff1690565b3360009081526005602052604090205460ff168061081a5750610805610f77565b6001600160a01b0316336001600160a01b0316145b61086b576040805162461bcd60e51b815260206004820152601e60248201527f6f6e6c79206861726420776f726b65722063616e2063616c6c20746869730000604482015290519081900360640190fd5b6001600160a01b038116600090815260036020526040902054819060ff166108d1576040805162461bcd60e51b81526020600482015260146024820152731d985d5b1d08191bd95cc81b9bdd08195e1a5cdd60621b604482015290519081900360640190fd5b816001600160a01b0316637d7c2a1c6040518163ffffffff1660e01b8152600401600060405180830381600087803b15801561090c57600080fd5b505af1158015610920573d6000803e3d6000fd5b505050505050565b600054604080516337b87c3960e21b815233600482015290516001600160a01b039092169163dee1f0e491602480820192602092909190829003018186803b15801561097357600080fd5b505afa158015610987573d6000803e3d6000fd5b505050506040513d602081101561099d57600080fd5b50516109e1576040805162461bcd60e51b815260206004820152600e60248201526d4e6f7420676f7665726e616e636560901b604482015290519081900360640190fd5b6001600160a01b038116610a36576040805162461bcd60e51b815260206004820152601760248201527617dddbdc9ad95c881b5d5cdd081899481919599a5b9959604a1b604482015290519081900360640190fd5b6001600160a01b03166000908152600560205260409020805460ff19166001179055565b60026020526000908152604090205460ff1681565b600054604080516337b87c3960e21b815233600482015290516001600160a01b039092169163dee1f0e491602480820192602092909190829003018186803b158015610aba57600080fd5b505afa158015610ace573d6000803e3d6000fd5b505050506040513d6020811015610ae457600080fd5b5051610b28576040805162461bcd60e51b815260206004820152600e60248201526d4e6f7420676f7665726e616e636560901b604482015290519081900360640190fd5b6001600160a01b038116610b7d576040805162461bcd60e51b815260206004820152601760248201527617dddbdc9ad95c881b5d5cdd081899481919599a5b9959604a1b604482015290519081900360640190fd5b6001600160a01b03166000908152600560205260409020805460ff19169055565b600054604080516337b87c3960e21b815233600482015290516001600160a01b039092169163dee1f0e491602480820192602092909190829003018186803b158015610be957600080fd5b505afa158015610bfd573d6000803e3d6000fd5b505050506040513d6020811015610c1357600080fd5b5051610c57576040805162461bcd60e51b815260206004820152600e60248201526d4e6f7420676f7665726e616e636560901b604482015290519081900360640190fd5b600480546001600160a01b0319166001600160a01b0392909216919091179055565b600054604080516337b87c3960e21b815233600482015290516001600160a01b039092169163dee1f0e491602480820192602092909190829003018186803b158015610cc457600080fd5b505afa158015610cd8573d6000803e3d6000fd5b505050506040513d6020811015610cee57600080fd5b5051610d32576040805162461bcd60e51b815260206004820152600e60248201526d4e6f7420676f7665726e616e636560901b604482015290519081900360640190fd5b6001600160a01b03166000908152600260205260409020805460ff19166001179055565b600054604080516337b87c3960e21b815233600482015290516001600160a01b039092169163dee1f0e491602480820192602092909190829003018186803b158015610da157600080fd5b505afa158015610db5573d6000803e3d6000fd5b505050506040513d6020811015610dcb57600080fd5b5051610e0f576040805162461bcd60e51b815260206004820152600e60248201526d4e6f7420676f7665726e616e636560901b604482015290519081900360640190fd5b610e31610e1a610f77565b6001600160a01b038416908363ffffffff61166c16565b5050565b600054604080516337b87c3960e21b815233600482015290516001600160a01b039092169163dee1f0e491602480820192602092909190829003018186803b158015610e8057600080fd5b505afa158015610e94573d6000803e3d6000fd5b505050506040513d6020811015610eaa57600080fd5b5051610eee576040805162461bcd60e51b815260206004820152600e60248201526d4e6f7420676f7665726e616e636560901b604482015290519081900360640190fd5b826001600160a01b0316631113ef52610f05610f77565b604080516001600160e01b031960e085901b1681526001600160a01b03928316600482015291861660248301526044820185905251606480830192600092919082900301818387803b158015610f5a57600080fd5b505af1158015610f6e573d6000803e3d6000fd5b50505050505050565b60008060009054906101000a90046001600160a01b03166001600160a01b0316635aa6e6756040518163ffffffff1660e01b815260040160206040518083038186803b158015610fc657600080fd5b505afa158015610fda573d6000803e3d6000fd5b505050506040513d6020811015610ff057600080fd5b5051905090565b600054604080516337b87c3960e21b815233600482015290516001600160a01b039092169163dee1f0e491602480820192602092909190829003018186803b15801561104257600080fd5b505afa158015611056573d6000803e3d6000fd5b505050506040513d602081101561106c57600080fd5b50516110b0576040805162461bcd60e51b815260206004820152600e60248201526d4e6f7420676f7665726e616e636560901b604482015290519081900360640190fd5b6001600160a01b03166000908152600260205260409020805460ff19169055565b600054604080516337b87c3960e21b815233600482015290516001600160a01b039092169163dee1f0e491602480820192602092909190829003018186803b15801561111c57600080fd5b505afa158015611130573d6000803e3d6000fd5b505050506040513d602081101561114657600080fd5b505161118a576040805162461bcd60e51b815260206004820152600e60248201526d4e6f7420676f7665726e616e636560901b604482015290519081900360640190fd5b6001600160a01b0381166111cf5760405162461bcd60e51b8152600401808060200182810382526028815260200180611a276028913960400191505060405180910390fd5b600180546001600160a01b0319166001600160a01b0392909216919091179055565b600054604080516337b87c3960e21b815233600482015290516001600160a01b039092169163dee1f0e491602480820192602092909190829003018186803b15801561123c57600080fd5b505afa158015611250573d6000803e3d6000fd5b505050506040513d602081101561126657600080fd5b50516112aa576040805162461bcd60e51b815260206004820152600e60248201526d4e6f7420676f7665726e616e636560901b604482015290519081900360640190fd5b6001600160a01b038116611305576040805162461bcd60e51b815260206004820152601e60248201527f6e65772073746f726167652073686f756c646e277420626520656d7074790000604482015290519081900360640190fd5b600080546001600160a01b0319166001600160a01b0392909216919091179055565b6000546001600160a01b031681565b60036020526000908152604090205460ff1681565b6001546001600160a01b031681565b600581565b60056020526000908152604090205460ff1681565b6004546001600160a01b031681565b600054604080516337b87c3960e21b815233600482015290516001600160a01b039092169163dee1f0e491602480820192602092909190829003018186803b1580156113ce57600080fd5b505afa1580156113e2573d6000803e3d6000fd5b505050506040513d60208110156113f857600080fd5b505161143c576040805162461bcd60e51b815260206004820152600e60248201526d4e6f7420676f7665726e616e636560901b604482015290519081900360640190fd5b6001600160a01b038216611497576040805162461bcd60e51b815260206004820152601c60248201527f6e6577207661756c742073686f756c646e277420626520656d70747900000000604482015290519081900360640190fd5b6001600160a01b03821660009081526003602052604090205460ff16156114fc576040805162461bcd60e51b81526020600482015260146024820152737661756c7420616c72656164792065786973747360601b604482015290519081900360640190fd5b6001600160a01b038116611557576040805162461bcd60e51b815260206004820152601f60248201527f6e65772073747261746567792073686f756c646e277420626520656d70747900604482015290519081900360640190fd5b6001600160a01b03808316600081815260036020526040808220805460ff1916600117905580516319d0806560e11b815293851660048501525191926333a100ca926024808301939282900301818387803b15801561090c57600080fd5b8015610e31576115d66001600160a01b03831633308463ffffffff6116c316565b6001546115f7906001600160a01b038481169116600063ffffffff61172316565b600154611617906001600160a01b0384811691168363ffffffff61172316565b60015460408051632106bc9160e21b81526001600160a01b038581166004830152602482018590529151919092169163841af24491604480830192600092919082900301818387803b15801561090c57600080fd5b604080516001600160a01b038416602482015260448082018490528251808303909101815260649091019091526020810180516001600160e01b031663a9059cbb60e01b1790526116be908490611832565b505050565b604080516001600160a01b0385811660248301528416604482015260648082018490528251808303909101815260849091019091526020810180516001600160e01b03166323b872dd60e01b17905261171d908590611832565b50505050565b8015806117a9575060408051636eb1769f60e11b81523060048201526001600160a01b03848116602483015291519185169163dd62ed3e91604480820192602092909190829003018186803b15801561177b57600080fd5b505afa15801561178f573d6000803e3d6000fd5b505050506040513d60208110156117a557600080fd5b5051155b6117e45760405162461bcd60e51b8152600401808060200182810382526036815260200180611a796036913960400191505060405180910390fd5b604080516001600160a01b038416602482015260448082018490528251808303909101815260649091019091526020810180516001600160e01b031663095ea7b360e01b1790526116be9084905b611844826001600160a01b03166119ea565b611895576040805162461bcd60e51b815260206004820152601f60248201527f5361666545524332303a2063616c6c20746f206e6f6e2d636f6e747261637400604482015290519081900360640190fd5b60006060836001600160a01b0316836040518082805190602001908083835b602083106118d35780518252601f1990920191602091820191016118b4565b6001836020036101000a0380198251168184511680821785525050505050509050019150506000604051808303816000865af19150503d8060008114611935576040519150601f19603f3d011682016040523d82523d6000602084013e61193a565b606091505b509150915081611991576040805162461bcd60e51b815260206004820181905260248201527f5361666545524332303a206c6f772d6c6576656c2063616c6c206661696c6564604482015290519081900360640190fd5b80511561171d578080602001905160208110156119ad57600080fd5b505161171d5760405162461bcd60e51b815260040180806020018281038252602a815260200180611a4f602a913960400191505060405180910390fd5b6000813f7fc5d2460186f7233c927e7db2dcc703c0e500b653ca82273b7bfad8045d85a470818114801590611a1e57508115155b94935050505056fe6e65772072657761726420666f727761726465722073686f756c64206e6f7420626520656d7074795361666545524332303a204552433230206f7065726174696f6e20646964206e6f7420737563636565645361666545524332303a20617070726f76652066726f6d206e6f6e2d7a65726f20746f206e6f6e2d7a65726f20616c6c6f77616e6365a265627a7a723158200ee77f12eb8ddb8dfc69d5642b958011af93335ae4f8a76717d0e781d44b25b164736f6c63430005100032666565526577617264466f727761726465722073686f756c64206e6f7420626520656d707479",
  "source": "pragma solidity 0.5.16;\n\nimport \"@openzeppelin/contracts/utils/Address.sol\";\nimport \"@openzeppelin/contracts/math/SafeMath.sol\";\nimport \"@openzeppelin/contracts/token/ERC20/SafeERC20.sol\";\nimport \"@openzeppelin/contracts/token/ERC20/IERC20.sol\";\nimport \"./hardworkInterface/IController.sol\";\nimport \"./hardworkInterface/IStrategy.sol\";\nimport \"./hardworkInterface/IVault.sol\";\nimport \"./FeeRewardForwarder.sol\";\nimport \"./Governable.sol\";\nimport \"./HardRewards.sol\";\n\ncontract Controller is IController, Governable {\n\n    using SafeERC20 for IERC20;\n    using Address for address;\n    using SafeMath for uint256;\n\n    // external parties\n    address public feeRewardForwarder;\n\n    // [Grey list]\n    // An EOA can safely interact with the system no matter what.\n    // If you're using Metamask, you're using an EOA.\n    // Only smart contracts may be affected by this grey list.\n    //\n    // This contract will not be able to ban any EOA from the system\n    // even if an EOA is being added to the greyList, he/she will still be able\n    // to interact with the whole system as if nothing happened.\n    // Only smart contracts will be affected by being added to the greyList.\n    mapping (address => bool) public greyList;\n\n    // All vaults that we have\n    mapping (address => bool) public vaults;\n\n    // Rewards for hard work. Nullable.\n    HardRewards public hardRewards;\n\n    uint256 public constant profitSharingNumerator = 5;\n    uint256 public constant profitSharingDenominator = 100;\n\n    event SharePriceChangeLog(\n      address indexed vault,\n      address indexed strategy,\n      uint256 oldSharePrice,\n      uint256 newSharePrice,\n      uint256 timestamp\n    );\n\n    modifier validVault(address _vault){\n        require(vaults[_vault], \"vault does not exist\");\n        _;\n    }\n\n    mapping (address => bool) public hardWorkers;\n\n    modifier onlyHardWorkerOrGovernance() {\n        require(hardWorkers[msg.sender] || (msg.sender == governance()),\n        \"only hard worker can call this\");\n        _;\n    }\n\n    constructor(address _storage, address _feeRewardForwarder)\n    Governable(_storage) public {\n        require(_feeRewardForwarder != address(0), \"feeRewardForwarder should not be empty\");\n        feeRewardForwarder = _feeRewardForwarder;\n    }\n\n    function addHardWorker(address _worker) public onlyGovernance {\n      require(_worker != address(0), \"_worker must be defined\");\n      hardWorkers[_worker] = true;\n    }\n\n    function removeHardWorker(address _worker) public onlyGovernance {\n      require(_worker != address(0), \"_worker must be defined\");\n      hardWorkers[_worker] = false;\n    }\n\n    function hasVault(address _vault) external returns (bool) {\n      return vaults[_vault];\n    }\n\n    // Only smart contracts will be affected by the greyList.\n    function addToGreyList(address _target) public onlyGovernance {\n        greyList[_target] = true;\n    }\n\n    function removeFromGreyList(address _target) public onlyGovernance {\n        greyList[_target] = false;\n    }\n\n    function setFeeRewardForwarder(address _feeRewardForwarder) public onlyGovernance {\n      require(_feeRewardForwarder != address(0), \"new reward forwarder should not be empty\");\n      feeRewardForwarder = _feeRewardForwarder;\n    }\n\n    function addVaultAndStrategy(address _vault, address _strategy) external onlyGovernance {\n        require(_vault != address(0), \"new vault shouldn't be empty\");\n        require(!vaults[_vault], \"vault already exists\");\n        require(_strategy != address(0), \"new strategy shouldn't be empty\");\n\n        vaults[_vault] = true;\n        // adding happens while setting\n        IVault(_vault).setStrategy(_strategy);\n    }\n\n    function doHardWork(address _vault) external onlyHardWorkerOrGovernance validVault(_vault) {\n        uint256 oldSharePrice = IVault(_vault).getPricePerFullShare();\n        IVault(_vault).doHardWork();\n        if (address(hardRewards) != address(0)) {\n            // rewards are an option now\n            hardRewards.rewardMe(msg.sender, _vault);\n        }\n        emit SharePriceChangeLog(\n          _vault,\n          IVault(_vault).strategy(),\n          oldSharePrice,\n          IVault(_vault).getPricePerFullShare(),\n          block.timestamp\n        );\n    }\n\n    function rebalance(address _vault) external onlyHardWorkerOrGovernance validVault(_vault) {\n        IVault(_vault).rebalance();\n    }\n\n    function setHardRewards(address _hardRewards) external onlyGovernance {\n        hardRewards = HardRewards(_hardRewards);\n    }\n\n    // transfers token in the controller contract to the governance\n    function salvage(address _token, uint256 _amount) external onlyGovernance {\n        IERC20(_token).safeTransfer(governance(), _amount);\n    }\n\n    function salvageStrategy(address _strategy, address _token, uint256 _amount) external onlyGovernance {\n        // the strategy is responsible for maintaining the list of\n        // salvagable tokens, to make sure that governance cannot come\n        // in and take away the coins\n        IStrategy(_strategy).salvage(governance(), _token, _amount);\n    }\n\n    function notifyFee(address underlying, uint256 fee) external {\n      if (fee > 0) {\n        IERC20(underlying).safeTransferFrom(msg.sender, address(this), fee);\n        IERC20(underlying).safeApprove(feeRewardForwarder, 0);\n        IERC20(underlying).safeApprove(feeRewardForwarder, fee);\n        FeeRewardForwarder(feeRewardForwarder).poolNotifyFixedTarget(underlying, fee);\n      }\n    }\n}\n",
  "sourcePath": "/home/jawaher/tmp/harvest/contracts/Controller.sol",
  "compiler": {
    "name": "solc",
    "version": "0.5.16+commit.9c3226ce.Emscripten.clang"
  },
  "schemaVersion": "3.2.5",
  "updatedAt": "2020-11-18T14:21:44.295Z",
  "networkType": "ethereum",
  "devdoc": {
    "methods": {}
  },
  "userdoc": {
    "methods": {}
  }
}