{
  "contractName": "CRVStrategyYCRV",
  "abi": [
    {
      "inputs": [
        {
          "internalType": "address",
          "name": "_storage",
          "type": "address"
        },
        {
          "internalType": "address",
          "name": "_vault",
          "type": "address"
        },
        {
          "internalType": "address",
          "name": "_underlying",
          "type": "address"
        },
        {
          "internalType": "address",
          "name": "_gauge",
          "type": "address"
        },
        {
          "internalType": "address",
          "name": "_mintr",
          "type": "address"
        },
        {
          "internalType": "address",
          "name": "_crv",
          "type": "address"
        },
        {
          "internalType": "address",
          "name": "_curve",
          "type": "address"
        },
        {
          "internalType": "address",
          "name": "_weth",
          "type": "address"
        },
        {
          "internalType": "address",
          "name": "_dai",
          "type": "address"
        },
        {
          "internalType": "address",
          "name": "_yDai",
          "type": "address"
        },
        {
          "internalType": "address",
          "name": "_uniswap",
          "type": "address"
        }
      ],
      "payable": false,
      "stateMutability": "nonpayable",
      "type": "constructor"
    },
    {
      "anonymous": false,
      "inputs": [
        {
          "indexed": false,
          "internalType": "uint256",
          "name": "amount",
          "type": "uint256"
        }
      ],
      "name": "Liquidating",
      "type": "event"
    },
    {
      "anonymous": false,
      "inputs": [
        {
          "indexed": false,
          "internalType": "uint256",
          "name": "oldBalance",
          "type": "uint256"
        },
        {
          "indexed": false,
          "internalType": "uint256",
          "name": "newBalance",
          "type": "uint256"
        },
        {
          "indexed": false,
          "internalType": "uint256",
          "name": "feeAmount",
          "type": "uint256"
        },
        {
          "indexed": false,
          "internalType": "uint256",
          "name": "timestamp",
          "type": "uint256"
        }
      ],
      "name": "ProfitLog",
      "type": "event"
    },
    {
      "constant": true,
      "inputs": [],
      "name": "controller",
      "outputs": [
        {
          "internalType": "address",
          "name": "",
          "type": "address"
        }
      ],
      "payable": false,
      "stateMutability": "view",
      "type": "function"
    },
    {
      "constant": true,
      "inputs": [],
      "name": "crv",
      "outputs": [
        {
          "internalType": "address",
          "name": "",
          "type": "address"
        }
      ],
      "payable": false,
      "stateMutability": "view",
      "type": "function"
    },
    {
      "constant": true,
      "inputs": [],
      "name": "curve",
      "outputs": [
        {
          "internalType": "address",
          "name": "",
          "type": "address"
        }
      ],
      "payable": false,
      "stateMutability": "view",
      "type": "function"
    },
    {
      "constant": true,
      "inputs": [],
      "name": "dai",
      "outputs": [
        {
          "internalType": "address",
          "name": "",
          "type": "address"
        }
      ],
      "payable": false,
      "stateMutability": "view",
      "type": "function"
    },
    {
      "constant": true,
      "inputs": [],
      "name": "governance",
      "outputs": [
        {
          "internalType": "address",
          "name": "",
          "type": "address"
        }
      ],
      "payable": false,
      "stateMutability": "view",
      "type": "function"
    },
    {
      "constant": true,
      "inputs": [],
      "name": "mintr",
      "outputs": [
        {
          "internalType": "address",
          "name": "",
          "type": "address"
        }
      ],
      "payable": false,
      "stateMutability": "view",
      "type": "function"
    },
    {
      "constant": true,
      "inputs": [],
      "name": "pool",
      "outputs": [
        {
          "internalType": "address",
          "name": "",
          "type": "address"
        }
      ],
      "payable": false,
      "stateMutability": "view",
      "type": "function"
    },
    {
      "constant": true,
      "inputs": [],
      "name": "profitSharingDenominator",
      "outputs": [
        {
          "internalType": "uint256",
          "name": "",
          "type": "uint256"
        }
      ],
      "payable": false,
      "stateMutability": "view",
      "type": "function"
    },
    {
      "constant": true,
      "inputs": [],
      "name": "profitSharingNumerator",
      "outputs": [
        {
          "internalType": "uint256",
          "name": "",
          "type": "uint256"
        }
      ],
      "payable": false,
      "stateMutability": "view",
      "type": "function"
    },
    {
      "constant": false,
      "inputs": [
        {
          "internalType": "address",
          "name": "_store",
          "type": "address"
        }
      ],
      "name": "setStorage",
      "outputs": [],
      "payable": false,
      "stateMutability": "nonpayable",
      "type": "function"
    },
    {
      "constant": true,
      "inputs": [],
      "name": "store",
      "outputs": [
        {
          "internalType": "contract Storage",
          "name": "",
          "type": "address"
        }
      ],
      "payable": false,
      "stateMutability": "view",
      "type": "function"
    },
    {
      "constant": true,
      "inputs": [],
      "name": "underlying",
      "outputs": [
        {
          "internalType": "address",
          "name": "",
          "type": "address"
        }
      ],
      "payable": false,
      "stateMutability": "view",
      "type": "function"
    },
    {
      "constant": true,
      "inputs": [],
      "name": "uni",
      "outputs": [
        {
          "internalType": "address",
          "name": "",
          "type": "address"
        }
      ],
      "payable": false,
      "stateMutability": "view",
      "type": "function"
    },
    {
      "constant": true,
      "inputs": [
        {
          "internalType": "uint256",
          "name": "",
          "type": "uint256"
        }
      ],
      "name": "uniswap_CRV2DAI",
      "outputs": [
        {
          "internalType": "address",
          "name": "",
          "type": "address"
        }
      ],
      "payable": false,
      "stateMutability": "view",
      "type": "function"
    },
    {
      "constant": true,
      "inputs": [
        {
          "internalType": "address",
          "name": "",
          "type": "address"
        }
      ],
      "name": "unsalvagableTokens",
      "outputs": [
        {
          "internalType": "bool",
          "name": "",
          "type": "bool"
        }
      ],
      "payable": false,
      "stateMutability": "view",
      "type": "function"
    },
    {
      "constant": true,
      "inputs": [],
      "name": "vault",
      "outputs": [
        {
          "internalType": "address",
          "name": "",
          "type": "address"
        }
      ],
      "payable": false,
      "stateMutability": "view",
      "type": "function"
    },
    {
      "constant": true,
      "inputs": [],
      "name": "weth",
      "outputs": [
        {
          "internalType": "address",
          "name": "",
          "type": "address"
        }
      ],
      "payable": false,
      "stateMutability": "view",
      "type": "function"
    },
    {
      "constant": true,
      "inputs": [],
      "name": "yDai",
      "outputs": [
        {
          "internalType": "address",
          "name": "",
          "type": "address"
        }
      ],
      "payable": false,
      "stateMutability": "view",
      "type": "function"
    },
    {
      "constant": true,
      "inputs": [],
      "name": "depositArbCheck",
      "outputs": [
        {
          "internalType": "bool",
          "name": "",
          "type": "bool"
        }
      ],
      "payable": false,
      "stateMutability": "view",
      "type": "function"
    },
    {
      "constant": false,
      "inputs": [
        {
          "internalType": "address",
          "name": "recipient",
          "type": "address"
        },
        {
          "internalType": "address",
          "name": "token",
          "type": "address"
        },
        {
          "internalType": "uint256",
          "name": "amount",
          "type": "uint256"
        }
      ],
      "name": "salvage",
      "outputs": [],
      "payable": false,
      "stateMutability": "nonpayable",
      "type": "function"
    },
    {
      "constant": false,
      "inputs": [
        {
          "internalType": "uint256",
          "name": "amountUnderlying",
          "type": "uint256"
        }
      ],
      "name": "withdrawToVault",
      "outputs": [],
      "payable": false,
      "stateMutability": "nonpayable",
      "type": "function"
    },
    {
      "constant": false,
      "inputs": [],
      "name": "withdrawAllToVault",
      "outputs": [],
      "payable": false,
      "stateMutability": "nonpayable",
      "type": "function"
    },
    {
      "constant": false,
      "inputs": [],
      "name": "investAllUnderlying",
      "outputs": [],
      "payable": false,
      "stateMutability": "nonpayable",
      "type": "function"
    },
    {
      "constant": false,
      "inputs": [],
      "name": "doHardWork",
      "outputs": [],
      "payable": false,
      "stateMutability": "nonpayable",
      "type": "function"
    },
    {
      "constant": true,
      "inputs": [],
      "name": "investedUnderlyingBalance",
      "outputs": [
        {
          "internalType": "uint256",
          "name": "",
          "type": "uint256"
        }
      ],
      "payable": false,
      "stateMutability": "view",
      "type": "function"
    },
    {
      "constant": false,
      "inputs": [],
      "name": "yCurveFromDai",
      "outputs": [],
      "payable": false,
      "stateMutability": "nonpayable",
      "type": "function"
    }
  ],
  "bytecode": "0x6080604052600c80546001600160a01b031916737a250d5630b4cf539739df2c5dacb4c659f2488d179055600019600f553480156200003d57600080fd5b506040516200230a3803806200230a83398181016040526101608110156200006457600080fd5b508051602082015160408301516060840151608085015160a086015160c087015160e08801516101008901516101208a0151610140909a0151989997989697959694959394929391929091908a8381806001600160a01b03811662000110576040805162461bcd60e51b815260206004820152601e60248201527f6e65772073746f726167652073686f756c646e277420626520656d7074790000604482015290519081900360640190fd5b600080546001600160a01b03199081166001600160a01b039384161790915560038054909116918416919091179055506200014a62000469565b6001600160a01b031663b60f151a6040518163ffffffff1660e01b815260040160206040518083038186803b1580156200018357600080fd5b505afa15801562000198573d6000803e3d6000fd5b505050506040513d6020811015620001af57600080fd5b5051600155620001c76001600160e01b036200046916565b6001600160a01b031663026a0dd06040518163ffffffff1660e01b815260040160206040518083038186803b1580156200020057600080fd5b505afa15801562000215573d6000803e3d6000fd5b505050506040513d60208110156200022c57600080fd5b505160028190556001541062000289576040805162461bcd60e51b815260206004820152601460248201527f696e76616c69642070726f666974207368617265000000000000000000000000604482015290519081900360640190fd5b5050886001600160a01b03168a6001600160a01b0316636f307dc36040518163ffffffff1660e01b815260040160206040518083038186803b158015620002cf57600080fd5b505afa158015620002e4573d6000803e3d6000fd5b505050506040513d6020811015620002fb57600080fd5b50516001600160a01b03161462000359576040805162461bcd60e51b815260206004820152601b60248201527f7661756c7420646f6573206e6f7420737570706f727420794352560000000000604482015290519081900360640190fd5b600e80546001600160a01b03199081166001600160a01b038d8116919091179092556004805483166000908152600d60209081526040808320805460ff19908116600190811790925560078054891686529483902080549091169091179055835485168f8716179093556005805485168e87161790556006805485168d8716179055815484168b861617918290556008805485168b87161790556009805485168a87161790819055600a805486168a88161790819055600b805487168a8916179055600c80549096168888161790955583516060810185529286168352851690820152919092169181019190915262000457906010906003620004ed565b5050505050505050505050506200057e565b60008060009054906101000a90046001600160a01b03166001600160a01b031663f77c47916040518163ffffffff1660e01b815260040160206040518083038186803b158015620004b957600080fd5b505afa158015620004ce573d6000803e3d6000fd5b505050506040513d6020811015620004e557600080fd5b505190505b90565b82805482825590600052602060002090810192821562000545579160200282015b828111156200054557825182546001600160a01b0319166001600160a01b039091161782556020909201916001909101906200050e565b506200055392915062000557565b5090565b620004ea91905b80821115620005535780546001600160a01b03191681556001016200055e565b611d7c806200058e6000396000f3fe608060405234801561001057600080fd5b506004361061018e5760003560e01c8063975057e7116100de578063ce8c42e811610097578063f1af3af411610071578063f1af3af414610306578063f4b9fa7514610323578063f77c47911461032b578063fbfa77cf146103335761018e565b8063ce8c42e8146102d9578063d1e61dcb146102f6578063edc9af95146102fe5761018e565b8063975057e7146102a9578063aef52e3f146102b1578063b60f151a146102b9578063bfd131f1146102c1578063c2a2a07b146102c9578063c594df75146102d15761018e565b80634fa5d8541161014b5780636a4874a1116101255780636a4874a11461026b5780636f307dc3146102735780637165485d1461027b5780639137c1a7146102835761018e565b80634fa5d8541461022157806350185946146102295780635aa6e675146102635761018e565b8063026a0dd0146101935780631113ef52146101ad57806316f0115b146101e55780633fc8cef31461020957806345d01e4a146102115780634a8cfa6914610219575b600080fd5b61019b61033b565b60408051918252519081900360200190f35b6101e3600480360360608110156101c357600080fd5b506001600160a01b03813581169160208101359091169060400135610341565b005b6101ed610471565b604080516001600160a01b039092168252519081900360200190f35b6101ed610480565b61019b61048f565b6101e3610595565b6101e36106c8565b61024f6004803603602081101561023f57600080fd5b50356001600160a01b0316610769565b604080519115158252519081900360200190f35b6101ed61077e565b6101ed6107fe565b6101ed61080d565b6101ed61081c565b6101e36004803603602081101561029957600080fd5b50356001600160a01b031661082b565b6101ed610961565b6101ed610970565b61019b61097f565b6101e3610985565b61024f610ac8565b6101e3610acd565b6101e3600480360360208110156102ef57600080fd5b5035610d74565b6101ed610f3e565b6101ed610f4d565b6101ed6004803603602081101561031c57600080fd5b5035610f5c565b6101ed610f83565b6101ed610f92565b6101ed610fe1565b60025481565b600054604080516337b87c3960e21b815233600482015290516001600160a01b039092169163dee1f0e491602480820192602092909190829003018186803b15801561038c57600080fd5b505afa1580156103a0573d6000803e3d6000fd5b505050506040513d60208110156103b657600080fd5b50516103fa576040805162461bcd60e51b815260206004820152600e60248201526d4e6f7420676f7665726e616e636560901b604482015290519081900360640190fd5b6001600160a01b0382166000908152600d602052604090205460ff16156104525760405162461bcd60e51b8152600401808060200182810382526023815260200180611ca46023913960400191505060405180910390fd5b61046c6001600160a01b038316848363ffffffff610ff016565b505050565b6005546001600160a01b031681565b6009546001600160a01b031681565b60048054604080516370a0823160e01b8152309381019390935251600092610590926001600160a01b0316916370a0823191602480820192602092909190829003018186803b1580156104e157600080fd5b505afa1580156104f5573d6000803e3d6000fd5b505050506040513d602081101561050b57600080fd5b5051600554604080516370a0823160e01b815230600482015290516001600160a01b03909216916370a0823191602480820192602092909190829003018186803b15801561055857600080fd5b505afa15801561056c573d6000803e3d6000fd5b505050506040513d602081101561058257600080fd5b50519063ffffffff61104216565b905090565b60048054604080516370a0823160e01b81523093810193909352516000926001600160a01b03909216916370a08231916024808301926020929190829003018186803b1580156105e457600080fd5b505afa1580156105f8573d6000803e3d6000fd5b505050506040513d602081101561060e57600080fd5b5051905080156106c55760055460045461063c916001600160a01b039182169116600063ffffffff6110a516565b60055460045461065f916001600160a01b0391821691168363ffffffff6110a516565b6005546040805163b6b55f2560e01b81526004810184905290516001600160a01b039092169163b6b55f259160248082019260009290919082900301818387803b1580156106ac57600080fd5b505af11580156106c0573d6000803e3d6000fd5b505050505b50565b600e546001600160a01b03163314806106f957506106e4610f92565b6001600160a01b0316336001600160a01b0316145b8061071c575061070761077e565b6001600160a01b0316336001600160a01b0316145b6107575760405162461bcd60e51b8152600401808060200182810382526039815260200180611c6b6039913960400191505060405180910390fd5b61075f6111b8565b610767610595565b565b600d6020526000908152604090205460ff1681565b60008060009054906101000a90046001600160a01b03166001600160a01b0316635aa6e6756040518163ffffffff1660e01b815260040160206040518083038186803b1580156107cd57600080fd5b505afa1580156107e1573d6000803e3d6000fd5b505050506040513d60208110156107f757600080fd5b5051905090565b6007546001600160a01b031681565b6004546001600160a01b031681565b6008546001600160a01b031681565b600054604080516337b87c3960e21b815233600482015290516001600160a01b039092169163dee1f0e491602480820192602092909190829003018186803b15801561087657600080fd5b505afa15801561088a573d6000803e3d6000fd5b505050506040513d60208110156108a057600080fd5b50516108e4576040805162461bcd60e51b815260206004820152600e60248201526d4e6f7420676f7665726e616e636560901b604482015290519081900360640190fd5b6001600160a01b03811661093f576040805162461bcd60e51b815260206004820152601e60248201527f6e65772073746f726167652073686f756c646e277420626520656d7074790000604482015290519081900360640190fd5b600080546001600160a01b0319166001600160a01b0392909216919091179055565b6000546001600160a01b031681565b600b546001600160a01b031681565b60015481565b600e546001600160a01b03163314806109b657506109a1610f92565b6001600160a01b0316336001600160a01b0316145b806109d957506109c461077e565b6001600160a01b0316336001600160a01b0316145b610a145760405162461bcd60e51b8152600401808060200182810382526039815260200180611c6b6039913960400191505060405180910390fd5b610a1c6111b8565b610a27600f54611624565b60048054604080516370a0823160e01b81523093810193909352516000926001600160a01b03909216916370a08231916024808301926020929190829003018186803b158015610a7657600080fd5b505afa158015610a8a573d6000803e3d6000fd5b505050506040513d6020811015610aa057600080fd5b5051600e546004549192506106c5916001600160a01b0390811691168363ffffffff610ff016565b600190565b600a54604080516370a0823160e01b815230600482015290516000926001600160a01b0316916370a08231916024808301926020929190829003018186803b158015610b1857600080fd5b505afa158015610b2c573d6000803e3d6000fd5b505050506040513d6020811015610b4257600080fd5b505190508015610bf957600b54600a54610b70916001600160a01b039182169116600063ffffffff6110a516565b600b54600a54610b93916001600160a01b0391821691168363ffffffff6110a516565b600b546040805163b6b55f2560e01b81526004810184905290516001600160a01b039092169163b6b55f259160248082019260009290919082900301818387803b158015610be057600080fd5b505af1158015610bf4573d6000803e3d6000fd5b505050505b600b54604080516370a0823160e01b815230600482015290516000926001600160a01b0316916370a08231916024808301926020929190829003018186803b158015610c4457600080fd5b505afa158015610c58573d6000803e3d6000fd5b505050506040513d6020811015610c6e57600080fd5b505190508015610d7057600854600b54610c9c916001600160a01b039182169116600063ffffffff6110a516565b600854600b54610cbf916001600160a01b0391821691168363ffffffff6110a516565b600854604080516080808201835284825260006020830181905282840181905260608301819052925162a6cbcd60e21b815292936001600160a01b03169263029b2f34929185916004019081908490808383875b83811015610d2b578181015183820152602001610d13565b5050505090500182815260200192505050600060405180830381600087803b158015610d5657600080fd5b505af1158015610d6a573d6000803e3d6000fd5b50505050505b5050565b600e546001600160a01b0316331480610da55750610d90610f92565b6001600160a01b0316336001600160a01b0316145b80610dc85750610db361077e565b6001600160a01b0316336001600160a01b0316145b610e035760405162461bcd60e51b8152600401808060200182810382526039815260200180611c6b6039913960400191505060405180910390fd5b610e0c81611624565b60048054604080516370a0823160e01b815230938101939093525183926001600160a01b03909216916370a08231916024808301926020929190829003018186803b158015610e5a57600080fd5b505afa158015610e6e573d6000803e3d6000fd5b505050506040513d6020811015610e8457600080fd5b50511015610e9457610e946111b8565b60048054604080516370a0823160e01b8152309381019390935251600092610f18926001600160a01b0316916370a0823191602480820192602092909190829003018186803b158015610ee657600080fd5b505afa158015610efa573d6000803e3d6000fd5b505050506040513d6020811015610f1057600080fd5b5051836116e2565b600e54600454919250610d70916001600160a01b0390811691168363ffffffff610ff016565b6006546001600160a01b031681565b600c546001600160a01b031681565b60108181548110610f6957fe5b6000918252602090912001546001600160a01b0316905081565b600a546001600160a01b031681565b60008060009054906101000a90046001600160a01b03166001600160a01b031663f77c47916040518163ffffffff1660e01b815260040160206040518083038186803b1580156107cd57600080fd5b600e546001600160a01b031681565b604080516001600160a01b038416602482015260448082018490528251808303909101815260649091019091526020810180516001600160e01b031663a9059cbb60e01b17905261046c9084906116f8565b60008282018381101561109c576040805162461bcd60e51b815260206004820152601b60248201527f536166654d6174683a206164646974696f6e206f766572666c6f770000000000604482015290519081900360640190fd5b90505b92915050565b80158061112b575060408051636eb1769f60e11b81523060048201526001600160a01b03848116602483015291519185169163dd62ed3e91604480820192602092909190829003018186803b1580156110fd57600080fd5b505afa158015611111573d6000803e3d6000fd5b505050506040513d602081101561112757600080fd5b5051155b6111665760405162461bcd60e51b8152600401808060200182810382526036815260200180611d126036913960400191505060405180910390fd5b604080516001600160a01b038416602482015260448082018490528251808303909101815260649091019091526020810180516001600160e01b031663095ea7b360e01b17905261046c9084906116f8565b600654600554604080516335313c2160e11b81526001600160a01b03928316600482015290519190921691636a62784291602480830192600092919082900301818387803b15801561120957600080fd5b505af115801561121d573d6000803e3d6000fd5b5050600754604080516370a0823160e01b81523060048201529051600094506001600160a01b0390921692506370a08231916024808301926020929190829003018186803b15801561126e57600080fd5b505afa158015611282573d6000803e3d6000fd5b505050506040513d602081101561129857600080fd5b50516040805182815290519192507f875c79c14f0ec82c9ae01b82cfab0d1c5c4079f1500682832fb877a7dec614fb919081900360200190a180156106c557600a54604080516370a0823160e01b815230600482015290516000926001600160a01b0316916370a08231916024808301926020929190829003018186803b15801561132257600080fd5b505afa158015611336573d6000803e3d6000fd5b505050506040513d602081101561134c57600080fd5b5051600c54600754919250611375916001600160a01b039081169116600063ffffffff6110a516565b600c54600754611398916001600160a01b0391821691168463ffffffff6110a516565b600c546040516338ed173960e01b8152600481018481526001602483018190523060648401819052426084850181905260a0604486019081526010805460a488018190526001600160a01b03909816976338ed1739978b97929594939160c4909101908690801561143257602002820191906000526020600020905b81546001600160a01b03168152600190910190602001808311611414575b50509650505050505050600060405180830381600087803b15801561145657600080fd5b505af115801561146a573d6000803e3d6000fd5b505050506040513d6000823e601f3d908101601f19168201604052602081101561149357600080fd5b81019080805160405193929190846401000000008211156114b357600080fd5b9083019060208201858111156114c857600080fd5b82518660208202830111640100000000821117156114e557600080fd5b82525081516020918201928201910280838360005b838110156115125781810151838201526020016114fa565b50505050919091016040818152600a546370a0823160e01b8352306004840152905161159f97508896506001600160a01b0390911694506370a08231935060248083019350602092829003018186803b15801561156e57600080fd5b505afa158015611582573d6000803e3d6000fd5b505050506040513d602081101561159857600080fd5b50516118b6565b600a54604080516370a0823160e01b815230600482015290516000926001600160a01b0316916370a08231916024808301926020929190829003018186803b1580156115ea57600080fd5b505afa1580156115fe573d6000803e3d6000fd5b505050506040513d602081101561161457600080fd5b50511115610d7057610d70610acd565b600554604080516370a0823160e01b815230600482015290516001600160a01b0390921691632e1a7d4d916116ac9184916370a08231916024808301926020929190829003018186803b15801561167a57600080fd5b505afa15801561168e573d6000803e3d6000fd5b505050506040513d60208110156116a457600080fd5b5051846116e2565b6040518263ffffffff1660e01b815260040180828152602001915050600060405180830381600087803b1580156106ac57600080fd5b60008183106116f1578161109c565b5090919050565b61170a826001600160a01b0316611a55565b61175b576040805162461bcd60e51b815260206004820152601f60248201527f5361666545524332303a2063616c6c20746f206e6f6e2d636f6e747261637400604482015290519081900360640190fd5b60006060836001600160a01b0316836040518082805190602001908083835b602083106117995780518252601f19909201916020918201910161177a565b6001836020036101000a0380198251168184511680821785525050505050509050019150506000604051808303816000865af19150503d80600081146117fb576040519150601f19603f3d011682016040523d82523d6000602084013e611800565b606091505b509150915081611857576040805162461bcd60e51b815260206004820181905260248201527f5361666545524332303a206c6f772d6c6576656c2063616c6c206661696c6564604482015290519081900360640190fd5b8051156118b05780806020019051602081101561187357600080fd5b50516118b05760405162461bcd60e51b815260040180806020018281038252602a815260200180611ce8602a913960400191505060405180910390fd5b50505050565b81811115611a0b5760006118d0828463ffffffff611a9116565b905060006118fb6002546118ef60015485611ad390919063ffffffff16565b9063ffffffff611b2c16565b604080518681526020810186905280820183905242606082015290519192507f0b34b93979d93253da0e9e54841c680c66377f129a340ef2a37e802865e40588919081900360800190a161196a611950610f92565b6003546001600160a01b031690600063ffffffff6110a516565b61198e611975610f92565b6003546001600160a01b0316908363ffffffff6110a516565b611996610f92565b60035460408051631ee0d7e560e31b81526001600160a01b039283166004820152602481018590529051929091169163f706bf289160448082019260009290919082900301818387803b1580156119ec57600080fd5b505af1158015611a00573d6000803e3d6000fd5b505050505050610d70565b604080518381526020810183905260008183015242606082015290517f0b34b93979d93253da0e9e54841c680c66377f129a340ef2a37e802865e405889181900360800190a15050565b6000813f7fc5d2460186f7233c927e7db2dcc703c0e500b653ca82273b7bfad8045d85a470818114801590611a8957508115155b949350505050565b600061109c83836040518060400160405280601e81526020017f536166654d6174683a207375627472616374696f6e206f766572666c6f770000815250611b6e565b600082611ae25750600061109f565b82820282848281611aef57fe5b041461109c5760405162461bcd60e51b8152600401808060200182810382526021815260200180611cc76021913960400191505060405180910390fd5b600061109c83836040518060400160405280601a81526020017f536166654d6174683a206469766973696f6e206279207a65726f000000000000815250611c05565b60008184841115611bfd5760405162461bcd60e51b81526004018080602001828103825283818151815260200191508051906020019080838360005b83811015611bc2578181015183820152602001611baa565b50505050905090810190601f168015611bef5780820380516001836020036101000a031916815260200191505b509250505060405180910390fd5b505050900390565b60008183611c545760405162461bcd60e51b8152602060048201818152835160248401528351909283926044909101919085019080838360008315611bc2578181015183820152602001611baa565b506000838581611c6057fe5b049594505050505056fe5468652073656e6465722068617320746f2062652074686520636f6e74726f6c6c65722c20676f7665726e616e63652c206f72207661756c74746f6b656e20697320646566696e6564206173206e6f742073616c7661676561626c65536166654d6174683a206d756c7469706c69636174696f6e206f766572666c6f775361666545524332303a204552433230206f7065726174696f6e20646964206e6f7420737563636565645361666545524332303a20617070726f76652066726f6d206e6f6e2d7a65726f20746f206e6f6e2d7a65726f20616c6c6f77616e6365a265627a7a723158208c886cd757a87ba7f7b8e705d3313cdae2d46fd0e3a70d109ab95e178ea97ab164736f6c63430005100032",
  "source": "pragma solidity 0.5.16;\n\nimport \"@openzeppelin/contracts/token/ERC20/IERC20.sol\";\nimport \"@openzeppelin/contracts/math/Math.sol\";\nimport \"@openzeppelin/contracts/math/SafeMath.sol\";\nimport \"@openzeppelin/contracts/utils/Address.sol\";\nimport \"@openzeppelin/contracts/token/ERC20/SafeERC20.sol\";\nimport \"./interfaces/Gauge.sol\";\nimport \"./interfaces/ICurveFi.sol\";\nimport \"./interfaces/yVault.sol\";\nimport \"../../uniswap/interfaces/IUniswapV2Router02.sol\";\nimport \"../../hardworkInterface/IStrategy.sol\";\nimport \"../../hardworkInterface/IVault.sol\";\nimport \"../../Controllable.sol\";\nimport \"../ProfitNotifier.sol\";\n\n\n/**\n* This strategy is for the yCRV vault, i.e., the underlying token is yCRV. It is not to accept\n* stable coins. It will farm the CRV crop. For liquidation, it swaps CRV into DAI and uses DAI\n* to produce yCRV.\n*/\ncontract CRVStrategyYCRV is IStrategy, ProfitNotifier {\n\n  using SafeERC20 for IERC20;\n  using Address for address;\n  using SafeMath for uint256;\n\n  event Liquidating(uint256 amount);\n\n  // yDAIyUSDCyUSDTyTUSD (yCRV)\n  address public underlying;\n  address public pool;\n  address public mintr;\n  address public crv;\n\n  address public curve;\n  address public weth;\n  address public dai;\n  address public yDai;\n\n  address public uni = address(0x7a250d5630B4cF539739dF2C5dAcb4c659F2488D);\n\n  // these tokens cannot be claimed by the governance\n  mapping(address => bool) public unsalvagableTokens;\n\n  // our vault holding the underlying token (yCRV)\n  address public vault;\n\n  uint256 maxUint = uint256(~0);\n  address[] public uniswap_CRV2DAI;\n\n  modifier restricted() {\n    require(msg.sender == vault || msg.sender == controller()\n      || msg.sender == governance(),\n      \"The sender has to be the controller, governance, or vault\");\n    _;\n  }\n\n  constructor(\n    address _storage,\n    address _vault,\n    address _underlying,\n    address _gauge,\n    address _mintr,\n    address _crv,\n    address _curve,\n    address _weth,\n    address _dai,\n    address _yDai,\n    address _uniswap\n  )\n  ProfitNotifier(_storage, _dai) public {\n    require(IVault(_vault).underlying() == _underlying, \"vault does not support yCRV\");\n    vault = _vault;\n    // set these tokens to be not salvageable\n    unsalvagableTokens[underlying] = true;\n    unsalvagableTokens[crv] = true;\n    underlying = _underlying;\n    pool = _gauge;\n    mintr = _mintr;\n    crv = _crv;\n    curve = _curve;\n    weth = _weth;\n    dai = _dai;\n    yDai = _yDai;\n    uni = _uniswap;\n    uniswap_CRV2DAI = [crv, weth, dai];\n  }\n\n  function depositArbCheck() public view returns(bool) {\n    return true;\n  }\n\n  /**\n  * Salvages a token. We should not be able to salvage CRV and yCRV (underlying).\n  */\n  function salvage(address recipient, address token, uint256 amount) public onlyGovernance {\n    // To make sure that governance cannot come in and take away the coins\n    require(!unsalvagableTokens[token], \"token is defined as not salvageable\");\n    IERC20(token).safeTransfer(recipient, amount);\n  }\n\n  /**\n  * Withdraws yCRV from the investment pool that mints crops.\n  */\n  function withdrawYCrvFromPool(uint256 amount) internal {\n    Gauge(pool).withdraw(\n      Math.min(Gauge(pool).balanceOf(address(this)), amount)\n    );\n  }\n\n  /**\n  * Withdraws the yCRV tokens to the pool in the specified amount.\n  */\n  function withdrawToVault(uint256 amountUnderlying) external restricted {\n    withdrawYCrvFromPool(amountUnderlying);\n    if (IERC20(underlying).balanceOf(address(this)) < amountUnderlying) {\n      claimAndLiquidateCrv();\n    }\n    uint256 toTransfer = Math.min(IERC20(underlying).balanceOf(address(this)), amountUnderlying);\n    IERC20(underlying).safeTransfer(vault, toTransfer);\n  }\n\n  /**\n  * Withdraws all the yCRV tokens to the pool.\n  */\n  function withdrawAllToVault() external restricted {\n    claimAndLiquidateCrv();\n    withdrawYCrvFromPool(maxUint);\n    uint256 balance = IERC20(underlying).balanceOf(address(this));\n    IERC20(underlying).safeTransfer(vault, balance);\n  }\n\n  /**\n  * Invests all the underlying yCRV into the pool that mints crops (CRV_.\n  */\n  function investAllUnderlying() public {\n    uint256 underlyingBalance = IERC20(underlying).balanceOf(address(this));\n    if (underlyingBalance > 0) {\n      IERC20(underlying).safeApprove(pool, 0);\n      IERC20(underlying).safeApprove(pool, underlyingBalance);\n      Gauge(pool).deposit(underlyingBalance);\n    }\n  }\n\n  /**\n  * Claims the CRV crop, converts it to DAI on Uniswap, and then uses DAI to mint yCRV using the\n  * Curve protocol.\n  */\n  function claimAndLiquidateCrv() internal {\n    Mintr(mintr).mint(pool);\n    // claiming rewards and sending them to the master strategy\n    uint256 crvBalance = IERC20(crv).balanceOf(address(this));\n    emit Liquidating(crvBalance);\n    if (crvBalance > 0) {\n      uint256 daiBalanceBefore = IERC20(dai).balanceOf(address(this));\n      IERC20(crv).safeApprove(uni, 0);\n      IERC20(crv).safeApprove(uni, crvBalance);\n      // we can accept 1 as the minimum because this will be called only by a trusted worker\n      // todo: check if this can be 0\n      IUniswapV2Router02(uni).swapExactTokensForTokens(\n        crvBalance, 1, uniswap_CRV2DAI, address(this), block.timestamp\n      );\n      // now we have DAI\n      // pay fee before making yCRV\n      notifyProfit(daiBalanceBefore, IERC20(dai).balanceOf(address(this)));\n\n      // liquidate if there is any DAI left\n      if(IERC20(dai).balanceOf(address(this)) > 0) {\n        yCurveFromDai();\n      }\n      // now we have yCRV\n    }\n  }\n\n  /**\n  * Claims and liquidates CRV into yCRV, and then invests all underlying.\n  */\n  function doHardWork() public restricted {\n    claimAndLiquidateCrv();\n    investAllUnderlying();\n  }\n\n  /**\n  * Investing all underlying.\n  */\n  function investedUnderlyingBalance() public view returns (uint256) {\n    return Gauge(pool).balanceOf(address(this)).add(\n      IERC20(underlying).balanceOf(address(this))\n    );\n  }\n\n  /**\n  * Converts all DAI to yCRV using the CRV protocol.\n  */\n  function yCurveFromDai() public {\n    uint256 daiBalance = IERC20(dai).balanceOf(address(this));\n    if (daiBalance > 0) {\n      IERC20(dai).safeApprove(yDai, 0);\n      IERC20(dai).safeApprove(yDai, daiBalance);\n      yERC20(yDai).deposit(daiBalance);\n    }\n    uint256 yDaiBalance = IERC20(yDai).balanceOf(address(this));\n    if (yDaiBalance > 0) {\n      IERC20(yDai).safeApprove(curve, 0);\n      IERC20(yDai).safeApprove(curve, yDaiBalance);\n      // we can accept 0 as minimum, this will be called only by trusted roles\n      uint256 minimum = 0;\n      ICurveFi(curve).add_liquidity([yDaiBalance, 0, 0, 0], minimum);\n    }\n    // now we have yCRV\n  }\n}\n",
  "sourcePath": "/home/jawaher/tmp/harvest/contracts/strategies/curve/CRVStrategyYCRV.sol",
  "compiler": {
    "name": "solc",
    "version": "0.5.16+commit.9c3226ce.Emscripten.clang"
  },
  "schemaVersion": "3.2.5",
  "updatedAt": "2020-11-18T14:21:44.350Z",
  "networkType": "ethereum",
  "devdoc": {
    "methods": {}
  },
  "userdoc": {
    "methods": {
      "doHardWork()": {
        "notice": "Claims and liquidates CRV into yCRV, and then invests all underlying."
      },
      "investAllUnderlying()": {
        "notice": "Invests all the underlying yCRV into the pool that mints crops (CRV_."
      },
      "investedUnderlyingBalance()": {
        "notice": "Investing all underlying."
      },
      "salvage(address,address,uint256)": {
        "notice": "Salvages a token. We should not be able to salvage CRV and yCRV (underlying)."
      },
      "withdrawAllToVault()": {
        "notice": "Withdraws all the yCRV tokens to the pool."
      },
      "withdrawToVault(uint256)": {
        "notice": "Withdraws the yCRV tokens to the pool in the specified amount."
      },
      "yCurveFromDai()": {
        "notice": "Converts all DAI to yCRV using the CRV protocol."
      }
    },
    "notice": "This strategy is for the yCRV vault, i.e., the underlying token is yCRV. It is not to accept stable coins. It will farm the CRV crop. For liquidation, it swaps CRV into DAI and uses DAI to produce yCRV."
  }
}