{
  "contractName": "CRVStrategyYCRVMainnet",
  "abi": [
    {
      "inputs": [
        {
          "internalType": "address",
          "name": "_storage",
          "type": "address"
        },
        {
          "internalType": "address",
          "name": "_vault",
          "type": "address"
        }
      ],
      "payable": false,
      "stateMutability": "nonpayable",
      "type": "constructor"
    },
    {
      "anonymous": false,
      "inputs": [
        {
          "indexed": false,
          "internalType": "uint256",
          "name": "amount",
          "type": "uint256"
        }
      ],
      "name": "Liquidating",
      "type": "event"
    },
    {
      "anonymous": false,
      "inputs": [
        {
          "indexed": false,
          "internalType": "uint256",
          "name": "oldBalance",
          "type": "uint256"
        },
        {
          "indexed": false,
          "internalType": "uint256",
          "name": "newBalance",
          "type": "uint256"
        },
        {
          "indexed": false,
          "internalType": "uint256",
          "name": "feeAmount",
          "type": "uint256"
        },
        {
          "indexed": false,
          "internalType": "uint256",
          "name": "timestamp",
          "type": "uint256"
        }
      ],
      "name": "ProfitLog",
      "type": "event"
    },
    {
      "constant": true,
      "inputs": [],
      "name": "controller",
      "outputs": [
        {
          "internalType": "address",
          "name": "",
          "type": "address"
        }
      ],
      "payable": false,
      "stateMutability": "view",
      "type": "function"
    },
    {
      "constant": true,
      "inputs": [],
      "name": "crv",
      "outputs": [
        {
          "internalType": "address",
          "name": "",
          "type": "address"
        }
      ],
      "payable": false,
      "stateMutability": "view",
      "type": "function"
    },
    {
      "constant": true,
      "inputs": [],
      "name": "curve",
      "outputs": [
        {
          "internalType": "address",
          "name": "",
          "type": "address"
        }
      ],
      "payable": false,
      "stateMutability": "view",
      "type": "function"
    },
    {
      "constant": true,
      "inputs": [],
      "name": "dai",
      "outputs": [
        {
          "internalType": "address",
          "name": "",
          "type": "address"
        }
      ],
      "payable": false,
      "stateMutability": "view",
      "type": "function"
    },
    {
      "constant": true,
      "inputs": [],
      "name": "depositArbCheck",
      "outputs": [
        {
          "internalType": "bool",
          "name": "",
          "type": "bool"
        }
      ],
      "payable": false,
      "stateMutability": "view",
      "type": "function"
    },
    {
      "constant": false,
      "inputs": [],
      "name": "doHardWork",
      "outputs": [],
      "payable": false,
      "stateMutability": "nonpayable",
      "type": "function"
    },
    {
      "constant": true,
      "inputs": [],
      "name": "governance",
      "outputs": [
        {
          "internalType": "address",
          "name": "",
          "type": "address"
        }
      ],
      "payable": false,
      "stateMutability": "view",
      "type": "function"
    },
    {
      "constant": false,
      "inputs": [],
      "name": "investAllUnderlying",
      "outputs": [],
      "payable": false,
      "stateMutability": "nonpayable",
      "type": "function"
    },
    {
      "constant": true,
      "inputs": [],
      "name": "investedUnderlyingBalance",
      "outputs": [
        {
          "internalType": "uint256",
          "name": "",
          "type": "uint256"
        }
      ],
      "payable": false,
      "stateMutability": "view",
      "type": "function"
    },
    {
      "constant": true,
      "inputs": [],
      "name": "mintr",
      "outputs": [
        {
          "internalType": "address",
          "name": "",
          "type": "address"
        }
      ],
      "payable": false,
      "stateMutability": "view",
      "type": "function"
    },
    {
      "constant": true,
      "inputs": [],
      "name": "pool",
      "outputs": [
        {
          "internalType": "address",
          "name": "",
          "type": "address"
        }
      ],
      "payable": false,
      "stateMutability": "view",
      "type": "function"
    },
    {
      "constant": true,
      "inputs": [],
      "name": "profitSharingDenominator",
      "outputs": [
        {
          "internalType": "uint256",
          "name": "",
          "type": "uint256"
        }
      ],
      "payable": false,
      "stateMutability": "view",
      "type": "function"
    },
    {
      "constant": true,
      "inputs": [],
      "name": "profitSharingNumerator",
      "outputs": [
        {
          "internalType": "uint256",
          "name": "",
          "type": "uint256"
        }
      ],
      "payable": false,
      "stateMutability": "view",
      "type": "function"
    },
    {
      "constant": false,
      "inputs": [
        {
          "internalType": "address",
          "name": "recipient",
          "type": "address"
        },
        {
          "internalType": "address",
          "name": "token",
          "type": "address"
        },
        {
          "internalType": "uint256",
          "name": "amount",
          "type": "uint256"
        }
      ],
      "name": "salvage",
      "outputs": [],
      "payable": false,
      "stateMutability": "nonpayable",
      "type": "function"
    },
    {
      "constant": false,
      "inputs": [
        {
          "internalType": "address",
          "name": "_store",
          "type": "address"
        }
      ],
      "name": "setStorage",
      "outputs": [],
      "payable": false,
      "stateMutability": "nonpayable",
      "type": "function"
    },
    {
      "constant": true,
      "inputs": [],
      "name": "store",
      "outputs": [
        {
          "internalType": "contract Storage",
          "name": "",
          "type": "address"
        }
      ],
      "payable": false,
      "stateMutability": "view",
      "type": "function"
    },
    {
      "constant": true,
      "inputs": [],
      "name": "underlying",
      "outputs": [
        {
          "internalType": "address",
          "name": "",
          "type": "address"
        }
      ],
      "payable": false,
      "stateMutability": "view",
      "type": "function"
    },
    {
      "constant": true,
      "inputs": [],
      "name": "uni",
      "outputs": [
        {
          "internalType": "address",
          "name": "",
          "type": "address"
        }
      ],
      "payable": false,
      "stateMutability": "view",
      "type": "function"
    },
    {
      "constant": true,
      "inputs": [
        {
          "internalType": "uint256",
          "name": "",
          "type": "uint256"
        }
      ],
      "name": "uniswap_CRV2DAI",
      "outputs": [
        {
          "internalType": "address",
          "name": "",
          "type": "address"
        }
      ],
      "payable": false,
      "stateMutability": "view",
      "type": "function"
    },
    {
      "constant": true,
      "inputs": [
        {
          "internalType": "address",
          "name": "",
          "type": "address"
        }
      ],
      "name": "unsalvagableTokens",
      "outputs": [
        {
          "internalType": "bool",
          "name": "",
          "type": "bool"
        }
      ],
      "payable": false,
      "stateMutability": "view",
      "type": "function"
    },
    {
      "constant": true,
      "inputs": [],
      "name": "vault",
      "outputs": [
        {
          "internalType": "address",
          "name": "",
          "type": "address"
        }
      ],
      "payable": false,
      "stateMutability": "view",
      "type": "function"
    },
    {
      "constant": true,
      "inputs": [],
      "name": "weth",
      "outputs": [
        {
          "internalType": "address",
          "name": "",
          "type": "address"
        }
      ],
      "payable": false,
      "stateMutability": "view",
      "type": "function"
    },
    {
      "constant": false,
      "inputs": [],
      "name": "withdrawAllToVault",
      "outputs": [],
      "payable": false,
      "stateMutability": "nonpayable",
      "type": "function"
    },
    {
      "constant": false,
      "inputs": [
        {
          "internalType": "uint256",
          "name": "amountUnderlying",
          "type": "uint256"
        }
      ],
      "name": "withdrawToVault",
      "outputs": [],
      "payable": false,
      "stateMutability": "nonpayable",
      "type": "function"
    },
    {
      "constant": false,
      "inputs": [],
      "name": "yCurveFromDai",
      "outputs": [],
      "payable": false,
      "stateMutability": "nonpayable",
      "type": "function"
    },
    {
      "constant": true,
      "inputs": [],
      "name": "yDai",
      "outputs": [
        {
          "internalType": "address",
          "name": "",
          "type": "address"
        }
      ],
      "payable": false,
      "stateMutability": "view",
      "type": "function"
    }
  ],
  "bytecode": "0x6080604052600c80546001600160a01b031916737a250d5630b4cf539739df2c5dacb4c659f2488d179055600019600f553480156200003d57600080fd5b506040516200238738038062002387833981810160405260408110156200006357600080fd5b508051602090910151818173df5e0e81dff6faf3a7e52ba697820c5e32d806a873fa712ee4788c042e2b7bb55e6cb8ec569c4530c173d061d61a4d941c39e5453435b6345dc261c2fce073d533a949740bb3306d119cc777fa900ba034cd527345f783cce6b7ff23b2ab2d70e416cdb7d6055f5173c02aaa39b223fe8d0a0e5c4f27ead9083c756cc2736b175474e89094c44da98b954eedeac495271d0f7316de59092dae5ccf4a1e6439d611fd0653f0bd01737a250d5630b4cf539739df2c5dacb4c659f2488d8a8381806001600160a01b0381166200018b576040805162461bcd60e51b815260206004820152601e60248201527f6e65772073746f726167652073686f756c646e277420626520656d7074790000604482015290519081900360640190fd5b600080546001600160a01b03199081166001600160a01b03938416179091556003805490911691841691909117905550620001c5620004e6565b6001600160a01b031663b60f151a6040518163ffffffff1660e01b815260040160206040518083038186803b158015620001fe57600080fd5b505afa15801562000213573d6000803e3d6000fd5b505050506040513d60208110156200022a57600080fd5b5051600155620002426001600160e01b03620004e616565b6001600160a01b031663026a0dd06040518163ffffffff1660e01b815260040160206040518083038186803b1580156200027b57600080fd5b505afa15801562000290573d6000803e3d6000fd5b505050506040513d6020811015620002a757600080fd5b505160028190556001541062000304576040805162461bcd60e51b815260206004820152601460248201527f696e76616c69642070726f666974207368617265000000000000000000000000604482015290519081900360640190fd5b5050886001600160a01b03168a6001600160a01b0316636f307dc36040518163ffffffff1660e01b815260040160206040518083038186803b1580156200034a57600080fd5b505afa1580156200035f573d6000803e3d6000fd5b505050506040513d60208110156200037657600080fd5b50516001600160a01b031614620003d4576040805162461bcd60e51b815260206004820152601b60248201527f7661756c7420646f6573206e6f7420737570706f727420794352560000000000604482015290519081900360640190fd5b600e80546001600160a01b03199081166001600160a01b038d8116919091179092556004805483166000908152600d60209081526040808320805460ff19908116600190811790925560078054891686529483902080549091169091179055835485168f8716179093556005805485168e87161790556006805485168d8716179055815484168b861617918290556008805485168b87161790556009805485168a87161790819055600a805486168a88161790819055600b805487168a8916179055600c805490961688881617909555835160608101855292861683528516908201529190921691810191909152620004d29060109060036200056a565b5050505050505050505050505050620005fb565b60008060009054906101000a90046001600160a01b03166001600160a01b031663f77c47916040518163ffffffff1660e01b815260040160206040518083038186803b1580156200053657600080fd5b505afa1580156200054b573d6000803e3d6000fd5b505050506040513d60208110156200056257600080fd5b505190505b90565b828054828255906000526020600020908101928215620005c2579160200282015b82811115620005c257825182546001600160a01b0319166001600160a01b039091161782556020909201916001909101906200058b565b50620005d0929150620005d4565b5090565b6200056791905b80821115620005d05780546001600160a01b0319168155600101620005db565b611d7c806200060b6000396000f3fe608060405234801561001057600080fd5b506004361061018e5760003560e01c8063975057e7116100de578063ce8c42e811610097578063f1af3af411610071578063f1af3af414610306578063f4b9fa7514610323578063f77c47911461032b578063fbfa77cf146103335761018e565b8063ce8c42e8146102d9578063d1e61dcb146102f6578063edc9af95146102fe5761018e565b8063975057e7146102a9578063aef52e3f146102b1578063b60f151a146102b9578063bfd131f1146102c1578063c2a2a07b146102c9578063c594df75146102d15761018e565b80634fa5d8541161014b5780636a4874a1116101255780636a4874a11461026b5780636f307dc3146102735780637165485d1461027b5780639137c1a7146102835761018e565b80634fa5d8541461022157806350185946146102295780635aa6e675146102635761018e565b8063026a0dd0146101935780631113ef52146101ad57806316f0115b146101e55780633fc8cef31461020957806345d01e4a146102115780634a8cfa6914610219575b600080fd5b61019b61033b565b60408051918252519081900360200190f35b6101e3600480360360608110156101c357600080fd5b506001600160a01b03813581169160208101359091169060400135610341565b005b6101ed610471565b604080516001600160a01b039092168252519081900360200190f35b6101ed610480565b61019b61048f565b6101e3610595565b6101e36106c8565b61024f6004803603602081101561023f57600080fd5b50356001600160a01b0316610769565b604080519115158252519081900360200190f35b6101ed61077e565b6101ed6107fe565b6101ed61080d565b6101ed61081c565b6101e36004803603602081101561029957600080fd5b50356001600160a01b031661082b565b6101ed610961565b6101ed610970565b61019b61097f565b6101e3610985565b61024f610ac8565b6101e3610acd565b6101e3600480360360208110156102ef57600080fd5b5035610d74565b6101ed610f3e565b6101ed610f4d565b6101ed6004803603602081101561031c57600080fd5b5035610f5c565b6101ed610f83565b6101ed610f92565b6101ed610fe1565b60025481565b600054604080516337b87c3960e21b815233600482015290516001600160a01b039092169163dee1f0e491602480820192602092909190829003018186803b15801561038c57600080fd5b505afa1580156103a0573d6000803e3d6000fd5b505050506040513d60208110156103b657600080fd5b50516103fa576040805162461bcd60e51b815260206004820152600e60248201526d4e6f7420676f7665726e616e636560901b604482015290519081900360640190fd5b6001600160a01b0382166000908152600d602052604090205460ff16156104525760405162461bcd60e51b8152600401808060200182810382526023815260200180611ca46023913960400191505060405180910390fd5b61046c6001600160a01b038316848363ffffffff610ff016565b505050565b6005546001600160a01b031681565b6009546001600160a01b031681565b60048054604080516370a0823160e01b8152309381019390935251600092610590926001600160a01b0316916370a0823191602480820192602092909190829003018186803b1580156104e157600080fd5b505afa1580156104f5573d6000803e3d6000fd5b505050506040513d602081101561050b57600080fd5b5051600554604080516370a0823160e01b815230600482015290516001600160a01b03909216916370a0823191602480820192602092909190829003018186803b15801561055857600080fd5b505afa15801561056c573d6000803e3d6000fd5b505050506040513d602081101561058257600080fd5b50519063ffffffff61104216565b905090565b60048054604080516370a0823160e01b81523093810193909352516000926001600160a01b03909216916370a08231916024808301926020929190829003018186803b1580156105e457600080fd5b505afa1580156105f8573d6000803e3d6000fd5b505050506040513d602081101561060e57600080fd5b5051905080156106c55760055460045461063c916001600160a01b039182169116600063ffffffff6110a516565b60055460045461065f916001600160a01b0391821691168363ffffffff6110a516565b6005546040805163b6b55f2560e01b81526004810184905290516001600160a01b039092169163b6b55f259160248082019260009290919082900301818387803b1580156106ac57600080fd5b505af11580156106c0573d6000803e3d6000fd5b505050505b50565b600e546001600160a01b03163314806106f957506106e4610f92565b6001600160a01b0316336001600160a01b0316145b8061071c575061070761077e565b6001600160a01b0316336001600160a01b0316145b6107575760405162461bcd60e51b8152600401808060200182810382526039815260200180611c6b6039913960400191505060405180910390fd5b61075f6111b8565b610767610595565b565b600d6020526000908152604090205460ff1681565b60008060009054906101000a90046001600160a01b03166001600160a01b0316635aa6e6756040518163ffffffff1660e01b815260040160206040518083038186803b1580156107cd57600080fd5b505afa1580156107e1573d6000803e3d6000fd5b505050506040513d60208110156107f757600080fd5b5051905090565b6007546001600160a01b031681565b6004546001600160a01b031681565b6008546001600160a01b031681565b600054604080516337b87c3960e21b815233600482015290516001600160a01b039092169163dee1f0e491602480820192602092909190829003018186803b15801561087657600080fd5b505afa15801561088a573d6000803e3d6000fd5b505050506040513d60208110156108a057600080fd5b50516108e4576040805162461bcd60e51b815260206004820152600e60248201526d4e6f7420676f7665726e616e636560901b604482015290519081900360640190fd5b6001600160a01b03811661093f576040805162461bcd60e51b815260206004820152601e60248201527f6e65772073746f726167652073686f756c646e277420626520656d7074790000604482015290519081900360640190fd5b600080546001600160a01b0319166001600160a01b0392909216919091179055565b6000546001600160a01b031681565b600b546001600160a01b031681565b60015481565b600e546001600160a01b03163314806109b657506109a1610f92565b6001600160a01b0316336001600160a01b0316145b806109d957506109c461077e565b6001600160a01b0316336001600160a01b0316145b610a145760405162461bcd60e51b8152600401808060200182810382526039815260200180611c6b6039913960400191505060405180910390fd5b610a1c6111b8565b610a27600f54611624565b60048054604080516370a0823160e01b81523093810193909352516000926001600160a01b03909216916370a08231916024808301926020929190829003018186803b158015610a7657600080fd5b505afa158015610a8a573d6000803e3d6000fd5b505050506040513d6020811015610aa057600080fd5b5051600e546004549192506106c5916001600160a01b0390811691168363ffffffff610ff016565b600190565b600a54604080516370a0823160e01b815230600482015290516000926001600160a01b0316916370a08231916024808301926020929190829003018186803b158015610b1857600080fd5b505afa158015610b2c573d6000803e3d6000fd5b505050506040513d6020811015610b4257600080fd5b505190508015610bf957600b54600a54610b70916001600160a01b039182169116600063ffffffff6110a516565b600b54600a54610b93916001600160a01b0391821691168363ffffffff6110a516565b600b546040805163b6b55f2560e01b81526004810184905290516001600160a01b039092169163b6b55f259160248082019260009290919082900301818387803b158015610be057600080fd5b505af1158015610bf4573d6000803e3d6000fd5b505050505b600b54604080516370a0823160e01b815230600482015290516000926001600160a01b0316916370a08231916024808301926020929190829003018186803b158015610c4457600080fd5b505afa158015610c58573d6000803e3d6000fd5b505050506040513d6020811015610c6e57600080fd5b505190508015610d7057600854600b54610c9c916001600160a01b039182169116600063ffffffff6110a516565b600854600b54610cbf916001600160a01b0391821691168363ffffffff6110a516565b600854604080516080808201835284825260006020830181905282840181905260608301819052925162a6cbcd60e21b815292936001600160a01b03169263029b2f34929185916004019081908490808383875b83811015610d2b578181015183820152602001610d13565b5050505090500182815260200192505050600060405180830381600087803b158015610d5657600080fd5b505af1158015610d6a573d6000803e3d6000fd5b50505050505b5050565b600e546001600160a01b0316331480610da55750610d90610f92565b6001600160a01b0316336001600160a01b0316145b80610dc85750610db361077e565b6001600160a01b0316336001600160a01b0316145b610e035760405162461bcd60e51b8152600401808060200182810382526039815260200180611c6b6039913960400191505060405180910390fd5b610e0c81611624565b60048054604080516370a0823160e01b815230938101939093525183926001600160a01b03909216916370a08231916024808301926020929190829003018186803b158015610e5a57600080fd5b505afa158015610e6e573d6000803e3d6000fd5b505050506040513d6020811015610e8457600080fd5b50511015610e9457610e946111b8565b60048054604080516370a0823160e01b8152309381019390935251600092610f18926001600160a01b0316916370a0823191602480820192602092909190829003018186803b158015610ee657600080fd5b505afa158015610efa573d6000803e3d6000fd5b505050506040513d6020811015610f1057600080fd5b5051836116e2565b600e54600454919250610d70916001600160a01b0390811691168363ffffffff610ff016565b6006546001600160a01b031681565b600c546001600160a01b031681565b60108181548110610f6957fe5b6000918252602090912001546001600160a01b0316905081565b600a546001600160a01b031681565b60008060009054906101000a90046001600160a01b03166001600160a01b031663f77c47916040518163ffffffff1660e01b815260040160206040518083038186803b1580156107cd57600080fd5b600e546001600160a01b031681565b604080516001600160a01b038416602482015260448082018490528251808303909101815260649091019091526020810180516001600160e01b031663a9059cbb60e01b17905261046c9084906116f8565b60008282018381101561109c576040805162461bcd60e51b815260206004820152601b60248201527f536166654d6174683a206164646974696f6e206f766572666c6f770000000000604482015290519081900360640190fd5b90505b92915050565b80158061112b575060408051636eb1769f60e11b81523060048201526001600160a01b03848116602483015291519185169163dd62ed3e91604480820192602092909190829003018186803b1580156110fd57600080fd5b505afa158015611111573d6000803e3d6000fd5b505050506040513d602081101561112757600080fd5b5051155b6111665760405162461bcd60e51b8152600401808060200182810382526036815260200180611d126036913960400191505060405180910390fd5b604080516001600160a01b038416602482015260448082018490528251808303909101815260649091019091526020810180516001600160e01b031663095ea7b360e01b17905261046c9084906116f8565b600654600554604080516335313c2160e11b81526001600160a01b03928316600482015290519190921691636a62784291602480830192600092919082900301818387803b15801561120957600080fd5b505af115801561121d573d6000803e3d6000fd5b5050600754604080516370a0823160e01b81523060048201529051600094506001600160a01b0390921692506370a08231916024808301926020929190829003018186803b15801561126e57600080fd5b505afa158015611282573d6000803e3d6000fd5b505050506040513d602081101561129857600080fd5b50516040805182815290519192507f875c79c14f0ec82c9ae01b82cfab0d1c5c4079f1500682832fb877a7dec614fb919081900360200190a180156106c557600a54604080516370a0823160e01b815230600482015290516000926001600160a01b0316916370a08231916024808301926020929190829003018186803b15801561132257600080fd5b505afa158015611336573d6000803e3d6000fd5b505050506040513d602081101561134c57600080fd5b5051600c54600754919250611375916001600160a01b039081169116600063ffffffff6110a516565b600c54600754611398916001600160a01b0391821691168463ffffffff6110a516565b600c546040516338ed173960e01b8152600481018481526001602483018190523060648401819052426084850181905260a0604486019081526010805460a488018190526001600160a01b03909816976338ed1739978b97929594939160c4909101908690801561143257602002820191906000526020600020905b81546001600160a01b03168152600190910190602001808311611414575b50509650505050505050600060405180830381600087803b15801561145657600080fd5b505af115801561146a573d6000803e3d6000fd5b505050506040513d6000823e601f3d908101601f19168201604052602081101561149357600080fd5b81019080805160405193929190846401000000008211156114b357600080fd5b9083019060208201858111156114c857600080fd5b82518660208202830111640100000000821117156114e557600080fd5b82525081516020918201928201910280838360005b838110156115125781810151838201526020016114fa565b50505050919091016040818152600a546370a0823160e01b8352306004840152905161159f97508896506001600160a01b0390911694506370a08231935060248083019350602092829003018186803b15801561156e57600080fd5b505afa158015611582573d6000803e3d6000fd5b505050506040513d602081101561159857600080fd5b50516118b6565b600a54604080516370a0823160e01b815230600482015290516000926001600160a01b0316916370a08231916024808301926020929190829003018186803b1580156115ea57600080fd5b505afa1580156115fe573d6000803e3d6000fd5b505050506040513d602081101561161457600080fd5b50511115610d7057610d70610acd565b600554604080516370a0823160e01b815230600482015290516001600160a01b0390921691632e1a7d4d916116ac9184916370a08231916024808301926020929190829003018186803b15801561167a57600080fd5b505afa15801561168e573d6000803e3d6000fd5b505050506040513d60208110156116a457600080fd5b5051846116e2565b6040518263ffffffff1660e01b815260040180828152602001915050600060405180830381600087803b1580156106ac57600080fd5b60008183106116f1578161109c565b5090919050565b61170a826001600160a01b0316611a55565b61175b576040805162461bcd60e51b815260206004820152601f60248201527f5361666545524332303a2063616c6c20746f206e6f6e2d636f6e747261637400604482015290519081900360640190fd5b60006060836001600160a01b0316836040518082805190602001908083835b602083106117995780518252601f19909201916020918201910161177a565b6001836020036101000a0380198251168184511680821785525050505050509050019150506000604051808303816000865af19150503d80600081146117fb576040519150601f19603f3d011682016040523d82523d6000602084013e611800565b606091505b509150915081611857576040805162461bcd60e51b815260206004820181905260248201527f5361666545524332303a206c6f772d6c6576656c2063616c6c206661696c6564604482015290519081900360640190fd5b8051156118b05780806020019051602081101561187357600080fd5b50516118b05760405162461bcd60e51b815260040180806020018281038252602a815260200180611ce8602a913960400191505060405180910390fd5b50505050565b81811115611a0b5760006118d0828463ffffffff611a9116565b905060006118fb6002546118ef60015485611ad390919063ffffffff16565b9063ffffffff611b2c16565b604080518681526020810186905280820183905242606082015290519192507f0b34b93979d93253da0e9e54841c680c66377f129a340ef2a37e802865e40588919081900360800190a161196a611950610f92565b6003546001600160a01b031690600063ffffffff6110a516565b61198e611975610f92565b6003546001600160a01b0316908363ffffffff6110a516565b611996610f92565b60035460408051631ee0d7e560e31b81526001600160a01b039283166004820152602481018590529051929091169163f706bf289160448082019260009290919082900301818387803b1580156119ec57600080fd5b505af1158015611a00573d6000803e3d6000fd5b505050505050610d70565b604080518381526020810183905260008183015242606082015290517f0b34b93979d93253da0e9e54841c680c66377f129a340ef2a37e802865e405889181900360800190a15050565b6000813f7fc5d2460186f7233c927e7db2dcc703c0e500b653ca82273b7bfad8045d85a470818114801590611a8957508115155b949350505050565b600061109c83836040518060400160405280601e81526020017f536166654d6174683a207375627472616374696f6e206f766572666c6f770000815250611b6e565b600082611ae25750600061109f565b82820282848281611aef57fe5b041461109c5760405162461bcd60e51b8152600401808060200182810382526021815260200180611cc76021913960400191505060405180910390fd5b600061109c83836040518060400160405280601a81526020017f536166654d6174683a206469766973696f6e206279207a65726f000000000000815250611c05565b60008184841115611bfd5760405162461bcd60e51b81526004018080602001828103825283818151815260200191508051906020019080838360005b83811015611bc2578181015183820152602001611baa565b50505050905090810190601f168015611bef5780820380516001836020036101000a031916815260200191505b509250505060405180910390fd5b505050900390565b60008183611c545760405162461bcd60e51b8152602060048201818152835160248401528351909283926044909101919085019080838360008315611bc2578181015183820152602001611baa565b506000838581611c6057fe5b049594505050505056fe5468652073656e6465722068617320746f2062652074686520636f6e74726f6c6c65722c20676f7665726e616e63652c206f72207661756c74746f6b656e20697320646566696e6564206173206e6f742073616c7661676561626c65536166654d6174683a206d756c7469706c69636174696f6e206f766572666c6f775361666545524332303a204552433230206f7065726174696f6e20646964206e6f7420737563636565645361666545524332303a20617070726f76652066726f6d206e6f6e2d7a65726f20746f206e6f6e2d7a65726f20616c6c6f77616e6365a265627a7a723158202bd7071dabf86dd2a4d5a49bb7e6ba203523ec30a6ac5f639b1c09f8a05c1d8264736f6c63430005100032",
  "source": "pragma solidity 0.5.16;\n\nimport \"./CRVStrategyYCRV.sol\";\n\n\n/**\n* This strategy is for the yCRV vault, i.e., the underlying token is yCRV. It is not to accept\n* stable coins. It will farm the CRV crop. For liquidation, it swaps CRV into DAI and uses DAI\n* to produce yCRV.\n*/\ncontract CRVStrategyYCRVMainnet is CRVStrategyYCRV {\n\n  constructor(\n    address _storage,\n    address _vault\n  ) CRVStrategyYCRV(\n    _storage,\n    _vault,\n    address(0xdF5e0e81Dff6FAF3A7e52BA697820c5e32D806A8), // yCRV underlying\n    address(0xFA712EE4788C042e2B7BB55E6cb8ec569C4530c1), // _gauge\n    address(0xd061D61a4d941c39E5453435B6345Dc261C2fcE0), // _mintr\n    address(0xD533a949740bb3306d119CC777fa900bA034cd52), // _crv\n    address(0x45F783CCE6B7FF23B2ab2D70e416cdb7D6055f51), // _curve\n    address(0xC02aaA39b223FE8D0A0e5C4F27eAD9083C756Cc2), // _weth\n    address(0x6B175474E89094C44Da98b954EedeAC495271d0F), // _dai\n    address(0x16de59092dAE5CcF4A1E6439D611fd0653f0Bd01), // _yDai\n    address(0x7a250d5630B4cF539739dF2C5dAcb4c659F2488D) // _uniswap\n  ) public {\n  }\n}\n",
  "sourcePath": "/home/jawaher/tmp/harvest/contracts/strategies/curve/CRVStrategyYCRVMainnet.sol",
  "compiler": {
    "name": "solc",
    "version": "0.5.16+commit.9c3226ce.Emscripten.clang"
  },
  "schemaVersion": "3.2.5",
  "updatedAt": "2020-10-24T09:31:43.470Z",
  "devdoc": {
    "methods": {}
  },
  "userdoc": {
    "methods": {
      "doHardWork()": {
        "notice": "Claims and liquidates CRV into yCRV, and then invests all underlying."
      },
      "investAllUnderlying()": {
        "notice": "Invests all the underlying yCRV into the pool that mints crops (CRV_."
      },
      "investedUnderlyingBalance()": {
        "notice": "Investing all underlying."
      },
      "salvage(address,address,uint256)": {
        "notice": "Salvages a token. We should not be able to salvage CRV and yCRV (underlying)."
      },
      "withdrawAllToVault()": {
        "notice": "Withdraws all the yCRV tokens to the pool."
      },
      "withdrawToVault(uint256)": {
        "notice": "Withdraws the yCRV tokens to the pool in the specified amount."
      },
      "yCurveFromDai()": {
        "notice": "Converts all DAI to yCRV using the CRV protocol."
      }
    },
    "notice": "This strategy is for the yCRV vault, i.e., the underlying token is yCRV. It is not to accept stable coins. It will farm the CRV crop. For liquidation, it swaps CRV into DAI and uses DAI to produce yCRV."
  }
}