{
  "contractName": "CRVStrategySwerve",
  "abi": [
    {
      "inputs": [
        {
          "internalType": "address",
          "name": "_storage",
          "type": "address"
        },
        {
          "internalType": "address",
          "name": "_wbtc",
          "type": "address"
        },
        {
          "internalType": "address",
          "name": "_vault",
          "type": "address"
        },
        {
          "internalType": "uint256",
          "name": "_tokenIndex",
          "type": "uint256"
        },
        {
          "internalType": "address",
          "name": "_mixToken",
          "type": "address"
        },
        {
          "internalType": "address",
          "name": "_curvePool",
          "type": "address"
        },
        {
          "internalType": "address",
          "name": "_crv",
          "type": "address"
        },
        {
          "internalType": "address",
          "name": "_weth",
          "type": "address"
        },
        {
          "internalType": "address",
          "name": "_gauge",
          "type": "address"
        },
        {
          "internalType": "address",
          "name": "_mintr",
          "type": "address"
        },
        {
          "internalType": "address",
          "name": "_uniswap",
          "type": "address"
        }
      ],
      "payable": false,
      "stateMutability": "nonpayable",
      "type": "constructor"
    },
    {
      "anonymous": false,
      "inputs": [
        {
          "indexed": false,
          "internalType": "uint256",
          "name": "amount",
          "type": "uint256"
        }
      ],
      "name": "Liquidating",
      "type": "event"
    },
    {
      "anonymous": false,
      "inputs": [
        {
          "indexed": false,
          "internalType": "uint256",
          "name": "oldBalance",
          "type": "uint256"
        },
        {
          "indexed": false,
          "internalType": "uint256",
          "name": "newBalance",
          "type": "uint256"
        },
        {
          "indexed": false,
          "internalType": "uint256",
          "name": "feeAmount",
          "type": "uint256"
        },
        {
          "indexed": false,
          "internalType": "uint256",
          "name": "timestamp",
          "type": "uint256"
        }
      ],
      "name": "ProfitLog",
      "type": "event"
    },
    {
      "anonymous": false,
      "inputs": [],
      "name": "ProfitsNotCollected",
      "type": "event"
    },
    {
      "constant": true,
      "inputs": [],
      "name": "arbTolerance",
      "outputs": [
        {
          "internalType": "uint256",
          "name": "",
          "type": "uint256"
        }
      ],
      "payable": false,
      "stateMutability": "view",
      "type": "function"
    },
    {
      "constant": true,
      "inputs": [],
      "name": "controller",
      "outputs": [
        {
          "internalType": "address",
          "name": "",
          "type": "address"
        }
      ],
      "payable": false,
      "stateMutability": "view",
      "type": "function"
    },
    {
      "constant": true,
      "inputs": [],
      "name": "crv",
      "outputs": [
        {
          "internalType": "address",
          "name": "",
          "type": "address"
        }
      ],
      "payable": false,
      "stateMutability": "view",
      "type": "function"
    },
    {
      "constant": true,
      "inputs": [],
      "name": "curve",
      "outputs": [
        {
          "internalType": "address",
          "name": "",
          "type": "address"
        }
      ],
      "payable": false,
      "stateMutability": "view",
      "type": "function"
    },
    {
      "constant": true,
      "inputs": [],
      "name": "gauge",
      "outputs": [
        {
          "internalType": "address",
          "name": "",
          "type": "address"
        }
      ],
      "payable": false,
      "stateMutability": "view",
      "type": "function"
    },
    {
      "constant": true,
      "inputs": [],
      "name": "governance",
      "outputs": [
        {
          "internalType": "address",
          "name": "",
          "type": "address"
        }
      ],
      "payable": false,
      "stateMutability": "view",
      "type": "function"
    },
    {
      "constant": true,
      "inputs": [],
      "name": "mintr",
      "outputs": [
        {
          "internalType": "address",
          "name": "",
          "type": "address"
        }
      ],
      "payable": false,
      "stateMutability": "view",
      "type": "function"
    },
    {
      "constant": true,
      "inputs": [],
      "name": "mixToken",
      "outputs": [
        {
          "internalType": "address",
          "name": "",
          "type": "address"
        }
      ],
      "payable": false,
      "stateMutability": "view",
      "type": "function"
    },
    {
      "constant": true,
      "inputs": [],
      "name": "mixTokenUnit",
      "outputs": [
        {
          "internalType": "uint256",
          "name": "",
          "type": "uint256"
        }
      ],
      "payable": false,
      "stateMutability": "view",
      "type": "function"
    },
    {
      "constant": true,
      "inputs": [],
      "name": "mixVault",
      "outputs": [
        {
          "internalType": "address",
          "name": "",
          "type": "address"
        }
      ],
      "payable": false,
      "stateMutability": "view",
      "type": "function"
    },
    {
      "constant": true,
      "inputs": [],
      "name": "profitSharingDenominator",
      "outputs": [
        {
          "internalType": "uint256",
          "name": "",
          "type": "uint256"
        }
      ],
      "payable": false,
      "stateMutability": "view",
      "type": "function"
    },
    {
      "constant": true,
      "inputs": [],
      "name": "profitSharingNumerator",
      "outputs": [
        {
          "internalType": "uint256",
          "name": "",
          "type": "uint256"
        }
      ],
      "payable": false,
      "stateMutability": "view",
      "type": "function"
    },
    {
      "constant": true,
      "inputs": [],
      "name": "sell",
      "outputs": [
        {
          "internalType": "bool",
          "name": "",
          "type": "bool"
        }
      ],
      "payable": false,
      "stateMutability": "view",
      "type": "function"
    },
    {
      "constant": true,
      "inputs": [],
      "name": "sellFloor",
      "outputs": [
        {
          "internalType": "uint256",
          "name": "",
          "type": "uint256"
        }
      ],
      "payable": false,
      "stateMutability": "view",
      "type": "function"
    },
    {
      "constant": false,
      "inputs": [
        {
          "internalType": "address",
          "name": "_store",
          "type": "address"
        }
      ],
      "name": "setStorage",
      "outputs": [],
      "payable": false,
      "stateMutability": "nonpayable",
      "type": "function"
    },
    {
      "constant": true,
      "inputs": [],
      "name": "store",
      "outputs": [
        {
          "internalType": "contract Storage",
          "name": "",
          "type": "address"
        }
      ],
      "payable": false,
      "stateMutability": "view",
      "type": "function"
    },
    {
      "constant": true,
      "inputs": [],
      "name": "underlying",
      "outputs": [
        {
          "internalType": "address",
          "name": "",
          "type": "address"
        }
      ],
      "payable": false,
      "stateMutability": "view",
      "type": "function"
    },
    {
      "constant": true,
      "inputs": [],
      "name": "uni",
      "outputs": [
        {
          "internalType": "address",
          "name": "",
          "type": "address"
        }
      ],
      "payable": false,
      "stateMutability": "view",
      "type": "function"
    },
    {
      "constant": true,
      "inputs": [
        {
          "internalType": "uint256",
          "name": "",
          "type": "uint256"
        }
      ],
      "name": "uniswap_CRV2WBTC",
      "outputs": [
        {
          "internalType": "address",
          "name": "",
          "type": "address"
        }
      ],
      "payable": false,
      "stateMutability": "view",
      "type": "function"
    },
    {
      "constant": true,
      "inputs": [
        {
          "internalType": "address",
          "name": "",
          "type": "address"
        }
      ],
      "name": "unsalvagableTokens",
      "outputs": [
        {
          "internalType": "bool",
          "name": "",
          "type": "bool"
        }
      ],
      "payable": false,
      "stateMutability": "view",
      "type": "function"
    },
    {
      "constant": true,
      "inputs": [],
      "name": "vault",
      "outputs": [
        {
          "internalType": "address",
          "name": "",
          "type": "address"
        }
      ],
      "payable": false,
      "stateMutability": "view",
      "type": "function"
    },
    {
      "constant": true,
      "inputs": [],
      "name": "wbtc",
      "outputs": [
        {
          "internalType": "address",
          "name": "",
          "type": "address"
        }
      ],
      "payable": false,
      "stateMutability": "view",
      "type": "function"
    },
    {
      "constant": true,
      "inputs": [],
      "name": "wbtcPriceCheckpoint",
      "outputs": [
        {
          "internalType": "uint256",
          "name": "",
          "type": "uint256"
        }
      ],
      "payable": false,
      "stateMutability": "view",
      "type": "function"
    },
    {
      "constant": true,
      "inputs": [],
      "name": "depositArbCheck",
      "outputs": [
        {
          "internalType": "bool",
          "name": "",
          "type": "bool"
        }
      ],
      "payable": false,
      "stateMutability": "view",
      "type": "function"
    },
    {
      "constant": false,
      "inputs": [
        {
          "internalType": "uint256",
          "name": "tolerance",
          "type": "uint256"
        }
      ],
      "name": "setArbTolerance",
      "outputs": [],
      "payable": false,
      "stateMutability": "nonpayable",
      "type": "function"
    },
    {
      "constant": false,
      "inputs": [
        {
          "internalType": "uint256",
          "name": "amountWbtc",
          "type": "uint256"
        }
      ],
      "name": "withdrawToVault",
      "outputs": [],
      "payable": false,
      "stateMutability": "nonpayable",
      "type": "function"
    },
    {
      "constant": false,
      "inputs": [],
      "name": "withdrawAllToVault",
      "outputs": [],
      "payable": false,
      "stateMutability": "nonpayable",
      "type": "function"
    },
    {
      "constant": false,
      "inputs": [],
      "name": "doHardWork",
      "outputs": [],
      "payable": false,
      "stateMutability": "nonpayable",
      "type": "function"
    },
    {
      "constant": false,
      "inputs": [
        {
          "internalType": "address",
          "name": "recipient",
          "type": "address"
        },
        {
          "internalType": "address",
          "name": "token",
          "type": "address"
        },
        {
          "internalType": "uint256",
          "name": "amount",
          "type": "uint256"
        }
      ],
      "name": "salvage",
      "outputs": [],
      "payable": false,
      "stateMutability": "nonpayable",
      "type": "function"
    },
    {
      "constant": true,
      "inputs": [],
      "name": "investedUnderlyingBalance",
      "outputs": [
        {
          "internalType": "uint256",
          "name": "",
          "type": "uint256"
        }
      ],
      "payable": false,
      "stateMutability": "view",
      "type": "function"
    },
    {
      "constant": true,
      "inputs": [
        {
          "internalType": "uint256",
          "name": "mixTokenBalance",
          "type": "uint256"
        }
      ],
      "name": "wbtcValueFromMixToken",
      "outputs": [
        {
          "internalType": "uint256",
          "name": "",
          "type": "uint256"
        }
      ],
      "payable": false,
      "stateMutability": "view",
      "type": "function"
    },
    {
      "constant": false,
      "inputs": [
        {
          "internalType": "bool",
          "name": "s",
          "type": "bool"
        }
      ],
      "name": "setSell",
      "outputs": [],
      "payable": false,
      "stateMutability": "nonpayable",
      "type": "function"
    },
    {
      "constant": false,
      "inputs": [
        {
          "internalType": "uint256",
          "name": "floor",
          "type": "uint256"
        }
      ],
      "name": "setSellFloor",
      "outputs": [],
      "payable": false,
      "stateMutability": "nonpayable",
      "type": "function"
    },
    {
      "constant": false,
      "inputs": [
        {
          "internalType": "address",
          "name": "lockToken",
          "type": "address"
        },
        {
          "internalType": "address",
          "name": "escrow",
          "type": "address"
        },
        {
          "internalType": "uint256",
          "name": "value",
          "type": "uint256"
        },
        {
          "internalType": "uint256",
          "name": "unlockTime",
          "type": "uint256"
        }
      ],
      "name": "createLock",
      "outputs": [],
      "payable": false,
      "stateMutability": "nonpayable",
      "type": "function"
    },
    {
      "constant": false,
      "inputs": [
        {
          "internalType": "address",
          "name": "_gauge",
          "type": "address"
        }
      ],
      "name": "checkpoint",
      "outputs": [],
      "payable": false,
      "stateMutability": "nonpayable",
      "type": "function"
    },
    {
      "constant": false,
      "inputs": [
        {
          "internalType": "address",
          "name": "lockToken",
          "type": "address"
        },
        {
          "internalType": "address",
          "name": "escrow",
          "type": "address"
        },
        {
          "internalType": "uint256",
          "name": "value",
          "type": "uint256"
        }
      ],
      "name": "increaseAmount",
      "outputs": [],
      "payable": false,
      "stateMutability": "nonpayable",
      "type": "function"
    },
    {
      "constant": false,
      "inputs": [
        {
          "internalType": "address",
          "name": "escrow",
          "type": "address"
        },
        {
          "internalType": "uint256",
          "name": "unlock_time",
          "type": "uint256"
        }
      ],
      "name": "increaseUnlockTime",
      "outputs": [],
      "payable": false,
      "stateMutability": "nonpayable",
      "type": "function"
    },
    {
      "constant": false,
      "inputs": [
        {
          "internalType": "address",
          "name": "lockToken",
          "type": "address"
        },
        {
          "internalType": "address",
          "name": "escrow",
          "type": "address"
        }
      ],
      "name": "withdrawLock",
      "outputs": [],
      "payable": false,
      "stateMutability": "nonpayable",
      "type": "function"
    }
  ],
  "bytecode": "0x608060405260036010556012805460ff191660011790556801a055690d9db800006013553480156200003057600080fd5b50604051620031593803806200315983398181016040526101608110156200005757600080fd5b508051602082015160408301516060840151608085015160a086015160c087015160e08801516101008901516101208a0151610140909a0151989997989697959694959394929391929091908a8a81806001600160a01b03811662000103576040805162461bcd60e51b815260206004820152601e60248201527f6e65772073746f726167652073686f756c646e277420626520656d7074790000604482015290519081900360640190fd5b600080546001600160a01b03199081166001600160a01b039384161790915560038054909116918416919091179055506200013d620003e3565b6001600160a01b031663b60f151a6040518163ffffffff1660e01b815260040160206040518083038186803b1580156200017657600080fd5b505afa1580156200018b573d6000803e3d6000fd5b505050506040513d6020811015620001a257600080fd5b5051600155620001ba6001600160e01b03620003e316565b6001600160a01b031663026a0dd06040518163ffffffff1660e01b815260040160206040518083038186803b158015620001f357600080fd5b505afa15801562000208573d6000803e3d6000fd5b505050506040513d60208110156200021f57600080fd5b50516002819055600154106200027c576040805162461bcd60e51b815260206004820152601460248201527f696e76616c69642070726f666974207368617265000000000000000000000000604482015290519081900360640190fd5b5050600580546001600160a01b03808c166001600160a01b03199283161790925560048054928d1692909116919091179055876003811115620002bb57fe5b6004805460ff60a01b1916600160a01b836003811115620002d857fe5b0217905550600780546001600160a01b03199081166001600160a01b038a811691909117909255600880548216898416179055600a80548216868416179055600c80548216888416908117909155600d80548316858516179055600b805490921685841617909155604080516060810182529182528683166020830152918c16918101919091526200036f90601190600362000467565b50506004546001600160a01b039081166000908152600960205260408082208054600160ff199182168117909255600754851684528284208054821683179055600c549094168352912080549092161790555050670de0b6b3a7640000600f819055600e5550620004f89650505050505050565b60008060009054906101000a90046001600160a01b03166001600160a01b031663f77c47916040518163ffffffff1660e01b815260040160206040518083038186803b1580156200043357600080fd5b505afa15801562000448573d6000803e3d6000fd5b505050506040513d60208110156200045f57600080fd5b505190505b90565b828054828255906000526020600020908101928215620004bf579160200282015b82811115620004bf57825182546001600160a01b0319166001600160a01b0390911617825560209092019160019091019062000488565b50620004cd929150620004d1565b5090565b6200046491905b80821115620004cd5780546001600160a01b0319168155600101620004d8565b612c5180620005086000396000f3fe608060405234801561001057600080fd5b50600436106102325760003560e01c80639246896511610130578063bfd131f1116100b8578063edc9af951161007c578063edc9af95146104ee578063f03312ff146104f6578063f6a8d50a14610513578063f77c47911461054f578063fbfa77cf1461055757610232565b8063bfd131f11461048d578063c2a2a07b14610495578063cb5f06cd1461049d578063ce8c42e8146104c9578063d1e61dcb146104e657610232565b8063a972985e116100ff578063a972985e1461041b578063b076a53a14610441578063b60f151a14610460578063ba09591e14610468578063be85ba331461048557610232565b806392468965146103fb578063975057e714610403578063a1dab23e1461040b578063a6f19c841461041357610232565b80635009ae4b116101be5780636f307dc3116101825780636f307dc3146103615780637165485d1461036957806372216367146103715780638e39520c1461039f5780639137c1a7146103d557610232565b80635009ae4b14610306578063501859461461030e578063554a16ba146103345780635aa6e675146103515780636a4874a11461035957610232565b80632e3f1474116102055780632e3f1474146102995780633cdc5389146102b657806345710074146102da57806345d01e4a146102f65780634fa5d854146102fe57610232565b8063026a0dd0146102375780630a9de2e1146102515780631113ef52146102595780631c13e96e14610291575b600080fd5b61023f61055f565b60408051918252519081900360200190f35b61023f610565565b61028f6004803603606081101561026f57600080fd5b506001600160a01b0381358116916020810135909116906040013561056b565b005b61023f61069b565b61028f600480360360208110156102af57600080fd5b50356106a1565b6102be6107a3565b604080516001600160a01b039092168252519081900360200190f35b6102e26107b2565b604080519115158252519081900360200190f35b61023f6107bb565b61028f6108eb565b6102be61099a565b6102e26004803603602081101561032457600080fd5b50356001600160a01b03166109a9565b61023f6004803603602081101561034a57600080fd5b50356109be565b6102be610a61565b6102be610ae1565b6102be610af0565b6102be610aff565b61028f6004803603604081101561038757600080fd5b506001600160a01b0381358116916020013516610b0e565b61028f600480360360608110156103b557600080fd5b506001600160a01b03813581169160208101359091169060400135610d4b565b61028f600480360360208110156103eb57600080fd5b50356001600160a01b0316610e9c565b61023f610fd2565b6102be610fd8565b61023f610fe7565b6102be610fed565b61028f6004803603602081101561043157600080fd5b50356001600160a01b0316610ffc565b61028f6004803603602081101561045757600080fd5b50351515611117565b61023f6111e3565b61028f6004803603602081101561047e57600080fd5b50356111e9565b6102be6112a7565b61028f6112b6565b6102e26114ce565b61028f600480360360408110156104b357600080fd5b506001600160a01b038135169060200135611546565b61028f600480360360208110156104df57600080fd5b5035611661565b6102be611890565b6102be61189f565b6102be6004803603602081101561050c57600080fd5b50356118ae565b61028f6004803603608081101561052957600080fd5b506001600160a01b038135811691602081013590911690604081013590606001356118d5565b6102be611a2f565b6102be611a7e565b60025481565b600e5481565b600054604080516337b87c3960e21b815233600482015290516001600160a01b039092169163dee1f0e491602480820192602092909190829003018186803b1580156105b657600080fd5b505afa1580156105ca573d6000803e3d6000fd5b505050506040513d60208110156105e057600080fd5b5051610624576040805162461bcd60e51b815260206004820152600e60248201526d4e6f7420676f7665726e616e636560901b604482015290519081900360640190fd5b6001600160a01b03821660009081526009602052604090205460ff161561067c5760405162461bcd60e51b8152600401808060200182810382526023815260200180612b796023913960400191505060405180910390fd5b6106966001600160a01b038316848363ffffffff611a8d16565b505050565b60105481565b600054604080516337b87c3960e21b815233600482015290516001600160a01b039092169163dee1f0e491602480820192602092909190829003018186803b1580156106ec57600080fd5b505afa158015610700573d6000803e3d6000fd5b505050506040513d602081101561071657600080fd5b505161075a576040805162461bcd60e51b815260206004820152600e60248201526d4e6f7420676f7665726e616e636560901b604482015290519081900360640190fd5b606481111561079e576040805162461bcd60e51b815260206004820152600b60248201526a06174206d6f7374203130360ac1b604482015290519081900360640190fd5b601055565b6004546001600160a01b031681565b60125460ff1681565b600a54604080516370a0823160e01b8152306004820152905160009283926001600160a01b03909116916370a0823191602480820192602092909190829003018186803b15801561080b57600080fd5b505afa15801561081f573d6000803e3d6000fd5b505050506040513d602081101561083557600080fd5b505160048054604080516370a0823160e01b81523093810193909352519293506000926001600160a01b03909116916370a08231916024808301926020929190829003018186803b15801561088957600080fd5b505afa15801561089d573d6000803e3d6000fd5b505050506040513d60208110156108b357600080fd5b50519050816108c55791506108e89050565b60006108d0836109be565b90506108e2818363ffffffff611adf16565b93505050505b90565b6005546001600160a01b031633148061091c5750610907611a2f565b6001600160a01b0316336001600160a01b0316145b8061093f575061092a610a61565b6001600160a01b0316336001600160a01b0316145b61097a5760405162461bcd60e51b8152600401808060200182810382526039815260200180612b406039913960400191505060405180910390fd5b610982611b42565b61098a611f6d565b610995600f546109be565b600e55565b6006546001600160a01b031681565b60096020526000908152604090205460ff1681565b6008546004546000916001600160a01b03169063cc2b27d7908490600160a01b900460ff1660038111156109ee57fe5b6040518363ffffffff1660e01b81526004018083815260200182600f0b600f0b81526020019250505060206040518083038186803b158015610a2f57600080fd5b505afa158015610a43573d6000803e3d6000fd5b505050506040513d6020811015610a5957600080fd5b505192915050565b60008060009054906101000a90046001600160a01b03166001600160a01b0316635aa6e6756040518163ffffffff1660e01b815260040160206040518083038186803b158015610ab057600080fd5b505afa158015610ac4573d6000803e3d6000fd5b505050506040513d6020811015610ada57600080fd5b5051905090565b600c546001600160a01b031681565b6003546001600160a01b031681565b6008546001600160a01b031681565b600054604080516337b87c3960e21b815233600482015290516001600160a01b039092169163dee1f0e491602480820192602092909190829003018186803b158015610b5957600080fd5b505afa158015610b6d573d6000803e3d6000fd5b505050506040513d6020811015610b8357600080fd5b5051610bc7576040805162461bcd60e51b815260206004820152600e60248201526d4e6f7420676f7665726e616e636560901b604482015290519081900360640190fd5b604080516370a0823160e01b815230600482015290516000916001600160a01b038516916370a0823191602480820192602092909190829003018186803b158015610c1157600080fd5b505afa158015610c25573d6000803e3d6000fd5b505050506040513d6020811015610c3b57600080fd5b505160408051633ccfd60b60e01b815290519192506001600160a01b03841691633ccfd60b9160048082019260009290919082900301818387803b158015610c8257600080fd5b505af1158015610c96573d6000803e3d6000fd5b5050604080516370a0823160e01b81523060048201529051600093506001600160a01b03871692506370a0823191602480820192602092909190829003018186803b158015610ce457600080fd5b505afa158015610cf8573d6000803e3d6000fd5b505050506040513d6020811015610d0e57600080fd5b5051905081811115610d4557610d4533610d2e838563ffffffff61208816565b6001600160a01b038716919063ffffffff611a8d16565b50505050565b600054604080516337b87c3960e21b815233600482015290516001600160a01b039092169163dee1f0e491602480820192602092909190829003018186803b158015610d9657600080fd5b505afa158015610daa573d6000803e3d6000fd5b505050506040513d6020811015610dc057600080fd5b5051610e04576040805162461bcd60e51b815260206004820152600e60248201526d4e6f7420676f7665726e616e636560901b604482015290519081900360640190fd5b610e1f6001600160a01b03841683600063ffffffff6120ca16565b610e396001600160a01b038416838363ffffffff6120ca16565b816001600160a01b0316634957677c826040518263ffffffff1660e01b815260040180828152602001915050600060405180830381600087803b158015610e7f57600080fd5b505af1158015610e93573d6000803e3d6000fd5b50505050505050565b600054604080516337b87c3960e21b815233600482015290516001600160a01b039092169163dee1f0e491602480820192602092909190829003018186803b158015610ee757600080fd5b505afa158015610efb573d6000803e3d6000fd5b505050506040513d6020811015610f1157600080fd5b5051610f55576040805162461bcd60e51b815260206004820152600e60248201526d4e6f7420676f7665726e616e636560901b604482015290519081900360640190fd5b6001600160a01b038116610fb0576040805162461bcd60e51b815260206004820152601e60248201527f6e65772073746f726167652073686f756c646e277420626520656d7074790000604482015290519081900360640190fd5b600080546001600160a01b0319166001600160a01b0392909216919091179055565b600f5481565b6000546001600160a01b031681565b60135481565b600a546001600160a01b031681565b600054604080516337b87c3960e21b815233600482015290516001600160a01b039092169163dee1f0e491602480820192602092909190829003018186803b15801561104757600080fd5b505afa15801561105b573d6000803e3d6000fd5b505050506040513d602081101561107157600080fd5b50516110b5576040805162461bcd60e51b815260206004820152600e60248201526d4e6f7420676f7665726e616e636560901b604482015290519081900360640190fd5b60408051634b82009360e01b815230600482015290516001600160a01b03831691634b82009391602480830192600092919082900301818387803b1580156110fc57600080fd5b505af1158015611110573d6000803e3d6000fd5b5050505050565b600054604080516337b87c3960e21b815233600482015290516001600160a01b039092169163dee1f0e491602480820192602092909190829003018186803b15801561116257600080fd5b505afa158015611176573d6000803e3d6000fd5b505050506040513d602081101561118c57600080fd5b50516111d0576040805162461bcd60e51b815260206004820152600e60248201526d4e6f7420676f7665726e616e636560901b604482015290519081900360640190fd5b6012805460ff1916911515919091179055565b60015481565b600054604080516337b87c3960e21b815233600482015290516001600160a01b039092169163dee1f0e491602480820192602092909190829003018186803b15801561123457600080fd5b505afa158015611248573d6000803e3d6000fd5b505050506040513d602081101561125e57600080fd5b50516112a2576040805162461bcd60e51b815260206004820152600e60248201526d4e6f7420676f7665726e616e636560901b604482015290519081900360640190fd5b601355565b6007546001600160a01b031681565b6005546001600160a01b03163314806112e757506112d2611a2f565b6001600160a01b0316336001600160a01b0316145b8061130a57506112f5610a61565b6001600160a01b0316336001600160a01b0316145b6113455760405162461bcd60e51b8152600401808060200182810382526039815260200180612b406039913960400191505060405180910390fd5b600a54604080516370a0823160e01b815230600482015290516001600160a01b0390921691632e1a7d4d9183916370a0823191602480820192602092909190829003018186803b15801561139857600080fd5b505afa1580156113ac573d6000803e3d6000fd5b505050506040513d60208110156113c257600080fd5b5051604080516001600160e01b031960e085901b168152600481019290925251602480830192600092919082900301818387803b15801561140257600080fd5b505af1158015611416573d6000803e3d6000fd5b505050506114256000196121dd565b60048054604080516370a0823160e01b81523093810193909352516000926001600160a01b03909216916370a08231916024808301926020929190829003018186803b15801561147457600080fd5b505afa158015611488573d6000803e3d6000fd5b505050506040513d602081101561149e57600080fd5b5051905080156114cb576005546004546114cb916001600160a01b0391821691168363ffffffff611a8d16565b50565b6000806114dc600f546109be565b9050600e5481101561151d57601054606403611514600e5461150860648561242890919063ffffffff16565b9063ffffffff61248116565b119150506108e8565b60105460640161153d600e5461150860648561242890919063ffffffff16565b109150506108e8565b600054604080516337b87c3960e21b815233600482015290516001600160a01b039092169163dee1f0e491602480820192602092909190829003018186803b15801561159157600080fd5b505afa1580156115a5573d6000803e3d6000fd5b505050506040513d60208110156115bb57600080fd5b50516115ff576040805162461bcd60e51b815260206004820152600e60248201526d4e6f7420676f7665726e616e636560901b604482015290519081900360640190fd5b816001600160a01b031663eff7a612826040518263ffffffff1660e01b815260040180828152602001915050600060405180830381600087803b15801561164557600080fd5b505af1158015611659573d6000803e3d6000fd5b505050505050565b6005546001600160a01b0316331480611692575061167d611a2f565b6001600160a01b0316336001600160a01b0316145b806116b557506116a0610a61565b6001600160a01b0316336001600160a01b0316145b6116f05760405162461bcd60e51b8152600401808060200182810382526039815260200180612b406039913960400191505060405180910390fd5b600a54604080516370a0823160e01b815230600482015290516001600160a01b0390921691632e1a7d4d9183916370a0823191602480820192602092909190829003018186803b15801561174357600080fd5b505afa158015611757573d6000803e3d6000fd5b505050506040513d602081101561176d57600080fd5b5051604080516001600160e01b031960e085901b168152600481019290925251602480830192600092919082900301818387803b1580156117ad57600080fd5b505af11580156117c1573d6000803e3d6000fd5b505050506117ce816121dd565b60048054604080516370a0823160e01b81523093810193909352516000926001600160a01b03909216916370a08231916024808301926020929190829003018186803b15801561181d57600080fd5b505afa158015611831573d6000803e3d6000fd5b505050506040513d602081101561184757600080fd5b50519050801561188457600554611884906001600160a01b031661186b84846124c3565b6004546001600160a01b0316919063ffffffff611a8d16565b61188c611f6d565b5050565b600b546001600160a01b031681565b600d546001600160a01b031681565b601181815481106118bb57fe5b6000918252602090912001546001600160a01b0316905081565b600054604080516337b87c3960e21b815233600482015290516001600160a01b039092169163dee1f0e491602480820192602092909190829003018186803b15801561192057600080fd5b505afa158015611934573d6000803e3d6000fd5b505050506040513d602081101561194a57600080fd5b505161198e576040805162461bcd60e51b815260206004820152600e60248201526d4e6f7420676f7665726e616e636560901b604482015290519081900360640190fd5b6119a96001600160a01b03851684600063ffffffff6120ca16565b6119c36001600160a01b038516848463ffffffff6120ca16565b826001600160a01b03166365fc387383836040518363ffffffff1660e01b81526004018083815260200182815260200192505050600060405180830381600087803b158015611a1157600080fd5b505af1158015611a25573d6000803e3d6000fd5b5050505050505050565b60008060009054906101000a90046001600160a01b03166001600160a01b031663f77c47916040518163ffffffff1660e01b815260040160206040518083038186803b158015610ab057600080fd5b6005546001600160a01b031681565b604080516001600160a01b038416602482015260448082018490528251808303909101815260649091019091526020810180516001600160e01b031663a9059cbb60e01b1790526106969084906124d9565b600082820183811015611b39576040805162461bcd60e51b815260206004820152601b60248201527f536166654d6174683a206164646974696f6e206f766572666c6f770000000000604482015290519081900360640190fd5b90505b92915050565b60125460ff16611b7a576040517f444bcec8acce9dc46755761662d6262a490b9f61cca73243c5131d98df078ce390600090a1611f6b565b600b54600a54604080516335313c2160e11b81526001600160a01b03928316600482015290519190921691636a62784291602480830192600092919082900301818387803b158015611bcb57600080fd5b505af1158015611bdf573d6000803e3d6000fd5b5050600c54604080516370a0823160e01b81523060048201529051600094506001600160a01b0390921692506370a08231916024808301926020929190829003018186803b158015611c3057600080fd5b505afa158015611c44573d6000803e3d6000fd5b505050506040513d6020811015611c5a57600080fd5b50516013549091508111156114cb576040805182815290517f875c79c14f0ec82c9ae01b82cfab0d1c5c4079f1500682832fb877a7dec614fb9181900360200190a160048054604080516370a0823160e01b81523093810193909352516000926001600160a01b03909216916370a08231916024808301926020929190829003018186803b158015611ceb57600080fd5b505afa158015611cff573d6000803e3d6000fd5b505050506040513d6020811015611d1557600080fd5b5051600d54600c54919250611d3e916001600160a01b039081169116600063ffffffff6120ca16565b600d54600c54611d61916001600160a01b0391821691168463ffffffff6120ca16565b600d546040516338ed173960e01b8152600481018481526001602483018190523060648401819052426084850181905260a0604486019081526011805460a488018190526001600160a01b03909816976338ed1739978b97929594939160c49091019086908015611dfb57602002820191906000526020600020905b81546001600160a01b03168152600190910190602001808311611ddd575b50509650505050505050600060405180830381600087803b158015611e1f57600080fd5b505af1158015611e33573d6000803e3d6000fd5b505050506040513d6000823e601f3d908101601f191682016040526020811015611e5c57600080fd5b8101908080516040519392919084640100000000821115611e7c57600080fd5b908301906020820185811115611e9157600080fd5b8251866020820283011164010000000082111715611eae57600080fd5b82525081516020918201928201910280838360005b83811015611edb578181015183820152602001611ec3565b50505050919091016040818152600480546370a0823160e01b84523091840191909152905161188c97508896506001600160a01b0390911694506370a08231935060248083019350602092829003018186803b158015611f3a57600080fd5b505afa158015611f4e573d6000803e3d6000fd5b505050506040513d6020811015611f6457600080fd5b5051612691565b565b611f75612824565b600754604080516370a0823160e01b815230600482015290516000926001600160a01b0316916370a08231916024808301926020929190829003018186803b158015611fc057600080fd5b505afa158015611fd4573d6000803e3d6000fd5b505050506040513d6020811015611fea57600080fd5b5051905080156114cb57600a54600754612018916001600160a01b039182169116600063ffffffff6120ca16565b600a5460075461203b916001600160a01b0391821691168363ffffffff6120ca16565b600a546040805163b6b55f2560e01b81526004810184905290516001600160a01b039092169163b6b55f259160248082019260009290919082900301818387803b1580156110fc57600080fd5b6000611b3983836040518060400160405280601e81526020017f536166654d6174683a207375627472616374696f6e206f766572666c6f770000815250612977565b801580612150575060408051636eb1769f60e11b81523060048201526001600160a01b03848116602483015291519185169163dd62ed3e91604480820192602092909190829003018186803b15801561212257600080fd5b505afa158015612136573d6000803e3d6000fd5b505050506040513d602081101561214c57600080fd5b5051155b61218b5760405162461bcd60e51b8152600401808060200182810382526036815260200180612be76036913960400191505060405180910390fd5b604080516001600160a01b038416602482015260448082018490528251808303909101815260649091019091526020810180516001600160e01b031663095ea7b360e01b1790526106969084906124d9565b600754604080516370a0823160e01b815230600482015290516000926001600160a01b0316916370a08231916024808301926020929190829003018186803b15801561222857600080fd5b505afa15801561223c573d6000803e3d6000fd5b505050506040513d602081101561225257600080fd5b505190506000612261826109be565b90508061226f5750506114cb565b808310156123665761227f612b21565b61228884612a0e565b6008546007549192506122af916001600160a01b039081169116600063ffffffff6120ca16565b6008546007546122d2916001600160a01b0391821691168563ffffffff6120ca16565b600854604051630c53debb60e11b81526001600160a01b03909116906318a7bd7690839086906004018083608080838360005b8381101561231d578181015183820152602001612305565b5050505090500182815260200192505050600060405180830381600087803b15801561234857600080fd5b505af115801561235c573d6000803e3d6000fd5b5050505050610696565b60085460075461238a916001600160a01b039182169116600063ffffffff6120ca16565b6008546007546123ad916001600160a01b0391821691168463ffffffff6120ca16565b6008546004546001600160a01b0390911690631a4d01d2908490600160a01b900460ff1660038111156123dc57fe5b60006040518463ffffffff1660e01b81526004018084815260200183600f0b600f0b81526020018281526020019350505050600060405180830381600087803b158015610e7f57600080fd5b60008261243757506000611b3c565b8282028284828161244457fe5b0414611b395760405162461bcd60e51b8152600401808060200182810382526021815260200180612b9c6021913960400191505060405180910390fd5b6000611b3983836040518060400160405280601a81526020017f536166654d6174683a206469766973696f6e206279207a65726f000000000000815250612a80565b60008183106124d25781611b39565b5090919050565b6124eb826001600160a01b0316612ae5565b61253c576040805162461bcd60e51b815260206004820152601f60248201527f5361666545524332303a2063616c6c20746f206e6f6e2d636f6e747261637400604482015290519081900360640190fd5b60006060836001600160a01b0316836040518082805190602001908083835b6020831061257a5780518252601f19909201916020918201910161255b565b6001836020036101000a0380198251168184511680821785525050505050509050019150506000604051808303816000865af19150503d80600081146125dc576040519150601f19603f3d011682016040523d82523d6000602084013e6125e1565b606091505b509150915081612638576040805162461bcd60e51b815260206004820181905260248201527f5361666545524332303a206c6f772d6c6576656c2063616c6c206661696c6564604482015290519081900360640190fd5b805115610d455780806020019051602081101561265457600080fd5b5051610d455760405162461bcd60e51b815260040180806020018281038252602a815260200180612bbd602a913960400191505060405180910390fd5b818111156127da5760006126ab828463ffffffff61208816565b905060006126ca6002546115086001548561242890919063ffffffff16565b604080518681526020810186905280820183905242606082015290519192507f0b34b93979d93253da0e9e54841c680c66377f129a340ef2a37e802865e40588919081900360800190a161273961271f611a2f565b6003546001600160a01b031690600063ffffffff6120ca16565b61275d612744611a2f565b6003546001600160a01b0316908363ffffffff6120ca16565b612765611a2f565b60035460408051631ee0d7e560e31b81526001600160a01b039283166004820152602481018590529051929091169163f706bf289160448082019260009290919082900301818387803b1580156127bb57600080fd5b505af11580156127cf573d6000803e3d6000fd5b50505050505061188c565b604080518381526020810183905260008183015242606082015290517f0b34b93979d93253da0e9e54841c680c66377f129a340ef2a37e802865e405889181900360800190a15050565b60048054604080516370a0823160e01b81523093810193909352516000926001600160a01b03909216916370a08231916024808301926020929190829003018186803b15801561287357600080fd5b505afa158015612887573d6000803e3d6000fd5b505050506040513d602081101561289d57600080fd5b5051905080156114cb576008546004546128cb916001600160a01b039182169116600063ffffffff6120ca16565b6008546004546128ee916001600160a01b0391821691168363ffffffff6120ca16565b60006128f8612b21565b61290183612a0e565b60085460405162a6cbcd60e21b81529192506001600160a01b03169063029b2f3490839085906004018083608080838360005b8381101561294c578181015183820152602001612934565b5050505090500182815260200192505050600060405180830381600087803b158015610e7f57600080fd5b60008184841115612a065760405162461bcd60e51b81526004018080602001828103825283818151815260200191508051906020019080838360005b838110156129cb5781810151838201526020016129b3565b50505050905090810190601f1680156129f85780820380516001836020036101000a031916815260200191505b509250505060405180910390fd5b505050900390565b612a16612b21565b612a1e612b21565b6040518060800160405280600081526020016000815260200160008152602001600081525090508281600460149054906101000a900460ff166003811115612a6257fe5b66ffffffffffffff1660048110612a7557fe5b602002015292915050565b60008183612acf5760405162461bcd60e51b81526020600482018181528351602484015283519092839260449091019190850190808383600083156129cb5781810151838201526020016129b3565b506000838581612adb57fe5b0495945050505050565b6000813f7fc5d2460186f7233c927e7db2dcc703c0e500b653ca82273b7bfad8045d85a470818114801590612b1957508115155b949350505050565b6040518060800160405280600490602082028038833950919291505056fe5468652073656e6465722068617320746f2062652074686520636f6e74726f6c6c65722c20676f7665726e616e63652c206f72207661756c74746f6b656e20697320646566696e6564206173206e6f742073616c7661676561626c65536166654d6174683a206d756c7469706c69636174696f6e206f766572666c6f775361666545524332303a204552433230206f7065726174696f6e20646964206e6f7420737563636565645361666545524332303a20617070726f76652066726f6d206e6f6e2d7a65726f20746f206e6f6e2d7a65726f20616c6c6f77616e6365a265627a7a72315820c11a66ab1e22a7c0d063e2c6d1b7cea55973ff9f30d7941e1d5487ae515d47ba64736f6c63430005100032",
  "source": "pragma solidity 0.5.16;\n\nimport \"@openzeppelin/contracts/math/Math.sol\";\nimport \"@openzeppelin/contracts/math/SafeMath.sol\";\nimport \"@openzeppelin/contracts/token/ERC20/IERC20.sol\";\nimport \"@openzeppelin/contracts/utils/Address.sol\";\nimport \"@openzeppelin/contracts/token/ERC20/SafeERC20.sol\";\nimport \"@openzeppelin/contracts/token/ERC20/ERC20Detailed.sol\";\nimport \"./interfaces/Gauge.sol\";\nimport \"./interfaces/ISwerveFi.sol\";\nimport \"./interfaces/yVault.sol\";\nimport \"./interfaces/IPriceConvertor.sol\";\nimport \"../ProfitNotifier.sol\";\nimport \"../../hardworkInterface/IVault.sol\";\nimport \"../../hardworkInterface/IController.sol\";\nimport \"../../hardworkInterface/IStrategy.sol\";\nimport \"../../Controllable.sol\";\nimport \"../../uniswap/interfaces/IUniswapV2Router02.sol\";\n\n// This is an exact clone of the WBTC strategy\n// Naming was not adjusted for easy diff\ncontract CRVStrategySwerve is IStrategy, ProfitNotifier {\n\n  enum TokenIndex {DAI, USDC, USDT, TUSD}\n\n  using SafeERC20 for IERC20;\n  using Address for address;\n  using SafeMath for uint256;\n\n  // wbtc token address (or ren if we want both)\n  address public wbtc;\n\n  // the matching enum record used to determine the index\n  TokenIndex tokenIndex;\n\n  // our vault holding the wbtc asset\n  address public vault;\n\n  // our vault for depositing the mixToken tokens\n  address public mixVault;\n\n  // the address of mixToken token\n  address public mixToken;\n\n  // the address of the Curve protocol's pool for REN + WBTC\n  address public curve;\n\n  // these tokens cannot be claimed by the governance\n  mapping(address => bool) public unsalvagableTokens;\n\n  // the wbtc gauge in Curve\n  address public gauge;\n\n  // the reward minter\n  address public mintr;\n\n  // the address for the CRV token\n  address public crv;\n\n  // uniswap router address\n  address public uni;\n\n  // price checkpoint preventing attacks\n  uint256 public wbtcPriceCheckpoint;\n\n  // a unit for the price checkpoint\n  uint256 public mixTokenUnit;\n\n  // settable arbitrage tolerance\n  uint256 public arbTolerance = 3;\n\n  // liquidation path to be used\n  address[] public uniswap_CRV2WBTC;\n\n  // a flag for disabling selling for simplified emergency exit\n  bool public sell = true;\n\n  // minimum CRV amount to be liquidation\n  uint256 public sellFloor = 30e18;\n\n  event Liquidating(uint256 amount);\n  event ProfitsNotCollected();\n\n\n  modifier restricted() {\n    require(msg.sender == vault || msg.sender == controller()\n      || msg.sender == governance(),\n      \"The sender has to be the controller, governance, or vault\");\n    _;\n  }\n\n  constructor(\n    address _storage,\n    address _wbtc,\n    address _vault,\n    uint256 _tokenIndex,\n    address _mixToken,\n    address _curvePool,\n    address _crv,\n    address _weth,\n    address _gauge,\n    address _mintr,\n    address _uniswap\n  )\n  ProfitNotifier(_storage, _wbtc) public {\n    vault = _vault;\n    wbtc = _wbtc;\n    tokenIndex = TokenIndex(_tokenIndex);\n    mixToken = _mixToken;\n    curve = _curvePool;\n    gauge = _gauge;\n    crv = _crv;\n    uni = _uniswap;\n    mintr = _mintr;\n\n    uniswap_CRV2WBTC = [_crv, _weth, _wbtc];\n\n    // set these tokens to be not salvageable\n    unsalvagableTokens[wbtc] = true;\n    unsalvagableTokens[mixToken] = true;\n    unsalvagableTokens[crv] = true;\n\n    mixTokenUnit = 10 ** 18;\n\n    // starting with a stable price, the mainnet will override this value\n    wbtcPriceCheckpoint = mixTokenUnit;\n  }\n\n  function depositArbCheck() public view returns(bool) {\n    uint256 currentPrice = wbtcValueFromMixToken(mixTokenUnit);\n    if (currentPrice < wbtcPriceCheckpoint) {\n      return currentPrice.mul(100).div(wbtcPriceCheckpoint) > 100 - arbTolerance;\n    } else {\n      return currentPrice.mul(100).div(wbtcPriceCheckpoint) < 100 + arbTolerance;\n    }\n  }\n\n  function setArbTolerance(uint256 tolerance) external onlyGovernance {\n    require(tolerance <= 100, \"at most 100\");\n    arbTolerance = tolerance;\n  }\n\n  /**\n  * Uses the Curve protocol to convert the wbtc asset into to mixed renwbtc token.\n  */\n  function mixFromWBTC() internal {\n    uint256 wbtcBalance = IERC20(wbtc).balanceOf(address(this));\n    if (wbtcBalance > 0) {\n      IERC20(wbtc).safeApprove(curve, 0);\n      IERC20(wbtc).safeApprove(curve, wbtcBalance);\n      // we can accept 0 as minimum because this is called only by a trusted role\n      uint256 minimum = 0;\n      uint256[4] memory coinAmounts = wrapCoinAmount(wbtcBalance);\n      ISwerveFi(curve).add_liquidity(\n        coinAmounts, minimum\n      );\n    }\n    // now we have the mixed token\n  }\n\n  /**\n  * Uses the Curve protocol to convert the mixed token back into the wbtc asset. If it cannot\n  * acquire the limit amount, it will acquire the maximum it can.\n  */\n  function mixToWBTC(uint256 wbtcLimit) internal {\n    uint256 mixTokenBalance = IERC20(mixToken).balanceOf(address(this));\n\n    // this is the maximum number of wbtc we can get for our mixed token\n    uint256 wbtcMaximumAmount = wbtcValueFromMixToken(mixTokenBalance);\n    if (wbtcMaximumAmount == 0) {\n      return;\n    }\n\n    if (wbtcLimit < wbtcMaximumAmount) {\n      // we want less than what we can get, we ask for the exact amount\n      // now we can remove the liquidity\n      uint256[4] memory tokenAmounts = wrapCoinAmount(wbtcLimit);\n      IERC20(mixToken).safeApprove(curve, 0);\n      IERC20(mixToken).safeApprove(curve, mixTokenBalance);\n      ISwerveFi(curve).remove_liquidity_imbalance(\n        tokenAmounts, mixTokenBalance\n      );\n    } else {\n      // we want more than we can get, so we withdraw everything\n      IERC20(mixToken).safeApprove(curve, 0);\n      IERC20(mixToken).safeApprove(curve, mixTokenBalance);\n      ISwerveFi(curve).remove_liquidity_one_coin(mixTokenBalance, int128(tokenIndex), 0);\n    }\n    // now we have wbtc asset\n  }\n\n  /**\n  * Withdraws an wbtc asset from the strategy to the vault in the specified amount by asking\n  * by removing imbalanced liquidity from the Curve protocol. The rest is deposited back to the\n  * Curve protocol pool. If the amount requested cannot be obtained, the method will get as much\n  * as we have.\n  */\n  function withdrawToVault(uint256 amountWbtc) external restricted {\n    // withdraw all from gauge\n    Gauge(gauge).withdraw(Gauge(gauge).balanceOf(address(this)));\n    // convert the mix to WBTC, but get at most amountWbtc\n    mixToWBTC(amountWbtc);\n    // we can transfer the asset to the vault\n    uint256 actualBalance = IERC20(wbtc).balanceOf(address(this));\n    if (actualBalance > 0) {\n      IERC20(wbtc).safeTransfer(vault, Math.min(amountWbtc, actualBalance));\n    }\n\n    // invest back the rest\n    investAllUnderlying();\n  }\n\n  /**\n  * Withdraws all assets from the vault.\n  */\n  function withdrawAllToVault() external restricted {\n    // withdraw all from gauge\n    Gauge(gauge).withdraw(Gauge(gauge).balanceOf(address(this)));\n    // convert the mix to WBTC, we want the entire balance\n    mixToWBTC(uint256(~0));\n    // we can transfer the asset to the vault\n    uint256 actualBalance = IERC20(wbtc).balanceOf(address(this));\n    if (actualBalance > 0) {\n      IERC20(wbtc).safeTransfer(vault, actualBalance);\n    }\n  }\n\n  /**\n  * Invests all wbtc assets into our mixToken vault.\n  */\n  function investAllUnderlying() internal {\n    // convert the entire balance not yet invested into mixToken first\n    mixFromWBTC();\n\n    // then deposit into the mixToken vault\n    uint256 mixTokenBalance = IERC20(mixToken).balanceOf(address(this));\n    if (mixTokenBalance > 0) {\n      IERC20(mixToken).safeApprove(gauge, 0);\n      IERC20(mixToken).safeApprove(gauge, mixTokenBalance);\n      Gauge(gauge).deposit(mixTokenBalance);\n    }\n  }\n\n  /**\n  * The hard work only invests all wbtc assets, and then tells the controller to call hard\n  * work on the mixToken vault.\n  */\n  function doHardWork() public restricted {\n    claimAndLiquidateCrv();\n    investAllUnderlying();\n    wbtcPriceCheckpoint = wbtcValueFromMixToken(mixTokenUnit);\n  }\n\n  /**\n  * Salvages a token. We cannot salvage mixToken tokens, CRV, or wbtc assets.\n  */\n  function salvage(address recipient, address token, uint256 amount) public onlyGovernance {\n    // To make sure that governance cannot come in and take away the coins\n    require(!unsalvagableTokens[token], \"token is defined as not salvageable\");\n    IERC20(token).safeTransfer(recipient, amount);\n  }\n\n  /**\n  * Returns the wbtc invested balance. The is the wbtc amount in this stragey, plus the gauge\n  * amount of the mixed token converted back to wbtc.\n  */\n  function investedUnderlyingBalance() public view returns (uint256) {\n    uint256 gaugeBalance = Gauge(gauge).balanceOf(address(this));\n    uint256 wbtcBalance = IERC20(wbtc).balanceOf(address(this));\n    if (gaugeBalance == 0) {\n      // !!! if we have 0 balance in gauge, the conversion to wbtc reverts in Curve\n      // !!! this if-statement is necessary to avoid transaction reverts\n      return wbtcBalance;\n    }\n    uint256 investedBalance = wbtcValueFromMixToken(gaugeBalance);\n    return investedBalance.add(wbtcBalance);\n  }\n\n  function wbtcValueFromMixToken(uint256 mixTokenBalance) public view returns (uint256) {\n    return ISwerveFi(curve).calc_withdraw_one_coin(mixTokenBalance,\n      int128(tokenIndex));\n  }\n\n  /**\n  * Wraps the coin amount in the array for interacting with the Curve protocol\n  */\n  function wrapCoinAmount(uint256 amount) internal view returns (uint256[4] memory) {\n    uint256[4] memory amounts = [uint256(0), uint256(0), uint256(0), uint256(0)];\n    amounts[uint56(tokenIndex)] = amount;\n    return amounts;\n  }\n\n  /**\n  * Claims the CRV crop, converts it to WBTC/renWBTC on Uniswap\n  */\n  function claimAndLiquidateCrv() internal {\n    if (!sell) {\n      // Profits can be disabled for possible simplified and rapid exit\n      emit ProfitsNotCollected();\n      return;\n    }\n    Mintr(mintr).mint(gauge);\n    // claiming rewards and liquidating them\n    uint256 crvBalance = IERC20(crv).balanceOf(address(this));\n    if (crvBalance > sellFloor) {\n      emit Liquidating(crvBalance);\n      uint256 wbtcBalanceBefore = IERC20(wbtc).balanceOf(address(this));\n      IERC20(crv).safeApprove(uni, 0);\n      IERC20(crv).safeApprove(uni, crvBalance);\n      // we can accept 1 as the minimum because this will be called only by a trusted worker\n      IUniswapV2Router02(uni).swapExactTokensForTokens(\n        crvBalance, 1, uniswap_CRV2WBTC, address(this), block.timestamp\n      );\n\n      // now we have WBTC\n      notifyProfit(wbtcBalanceBefore, IERC20(wbtc).balanceOf(address(this)));\n    }\n  }\n\n  /**\n  * Can completely disable claiming CRV rewards and selling. Good for emergency withdraw in the\n  * simplest possible way.\n  */\n  function setSell(bool s) public onlyGovernance {\n    sell = s;\n  }\n\n  /**\n  * Sets the minimum amount of CRV needed to trigger a sale.\n  */\n  function setSellFloor(uint256 floor) public onlyGovernance {\n    sellFloor = floor;\n  }\n\n  /**\n  * Creates a Swerve lock\n  */\n  function createLock(address lockToken, address escrow, uint256 value,\n    uint256 unlockTime) public onlyGovernance {\n    IERC20(lockToken).safeApprove(escrow, 0);\n    IERC20(lockToken).safeApprove(escrow, value);\n    VotingEscrow(escrow).create_lock(value, unlockTime);\n  }\n\n  /**\n  * Checkpoints the Swerve lock balance\n  */\n  function checkpoint(address _gauge) public onlyGovernance {\n    Gauge(_gauge).user_checkpoint(address(this));\n  }\n\n  /**\n  * Increases the lock amount for Swerve\n  */\n  function increaseAmount(address lockToken, address escrow, uint256 value) public onlyGovernance {\n    IERC20(lockToken).safeApprove(escrow, 0);\n    IERC20(lockToken).safeApprove(escrow, value);\n    VotingEscrow(escrow).increase_amount(value);\n  }\n\n  /**\n  * Increases the unlock time for Swerve\n  */\n  function increaseUnlockTime(address escrow, uint256 unlock_time) public onlyGovernance {\n    VotingEscrow(escrow).increase_unlock_time(unlock_time);\n  }\n\n  /**\n  * Withdraws an expired lock\n  */\n  function withdrawLock(address lockToken, address escrow) public onlyGovernance {\n    uint256 balanceBefore = IERC20(lockToken).balanceOf(address(this));\n    VotingEscrow(escrow).withdraw();\n    uint256 balanceAfter = IERC20(lockToken).balanceOf(address(this));\n    if (balanceAfter > balanceBefore) {\n      IERC20(lockToken).safeTransfer(msg.sender, balanceAfter.sub(balanceBefore));\n    }\n  }\n}\n",
  "sourcePath": "/home/jawaher/tmp/harvest/contracts/strategies/curve/CRVStrategySwerve.sol",
  "compiler": {
    "name": "solc",
    "version": "0.5.16+commit.9c3226ce.Emscripten.clang"
  },
  "schemaVersion": "3.2.5",
  "updatedAt": "2020-10-19T08:25:32.251Z",
  "devdoc": {
    "methods": {}
  },
  "userdoc": {
    "methods": {
      "checkpoint(address)": {
        "notice": "Checkpoints the Swerve lock balance"
      },
      "createLock(address,address,uint256,uint256)": {
        "notice": "Creates a Swerve lock"
      },
      "doHardWork()": {
        "notice": "The hard work only invests all wbtc assets, and then tells the controller to call hard work on the mixToken vault."
      },
      "increaseAmount(address,address,uint256)": {
        "notice": "Increases the lock amount for Swerve"
      },
      "increaseUnlockTime(address,uint256)": {
        "notice": "Increases the unlock time for Swerve"
      },
      "investedUnderlyingBalance()": {
        "notice": "Returns the wbtc invested balance. The is the wbtc amount in this stragey, plus the gauge amount of the mixed token converted back to wbtc."
      },
      "salvage(address,address,uint256)": {
        "notice": "Salvages a token. We cannot salvage mixToken tokens, CRV, or wbtc assets."
      },
      "setSell(bool)": {
        "notice": "Can completely disable claiming CRV rewards and selling. Good for emergency withdraw in the simplest possible way."
      },
      "setSellFloor(uint256)": {
        "notice": "Sets the minimum amount of CRV needed to trigger a sale."
      },
      "withdrawAllToVault()": {
        "notice": "Withdraws all assets from the vault."
      },
      "withdrawLock(address,address)": {
        "notice": "Withdraws an expired lock"
      },
      "withdrawToVault(uint256)": {
        "notice": "Withdraws an wbtc asset from the strategy to the vault in the specified amount by asking by removing imbalanced liquidity from the Curve protocol. The rest is deposited back to the Curve protocol pool. If the amount requested cannot be obtained, the method will get as much as we have."
      }
    }
  }
}