{
  "contractName": "CRVStrategyStable",
  "abi": [
    {
      "inputs": [
        {
          "internalType": "address",
          "name": "_storage",
          "type": "address"
        },
        {
          "internalType": "address",
          "name": "_underlying",
          "type": "address"
        },
        {
          "internalType": "address",
          "name": "_vault",
          "type": "address"
        },
        {
          "internalType": "address",
          "name": "_ycrvVault",
          "type": "address"
        },
        {
          "internalType": "address",
          "name": "_yVault",
          "type": "address"
        },
        {
          "internalType": "uint256",
          "name": "_tokenIndex",
          "type": "uint256"
        },
        {
          "internalType": "address",
          "name": "_ycrv",
          "type": "address"
        },
        {
          "internalType": "address",
          "name": "_curveProtocol",
          "type": "address"
        },
        {
          "internalType": "address",
          "name": "_convertor",
          "type": "address"
        }
      ],
      "payable": false,
      "stateMutability": "nonpayable",
      "type": "constructor"
    },
    {
      "constant": true,
      "inputs": [],
      "name": "arbTolerance",
      "outputs": [
        {
          "internalType": "uint256",
          "name": "",
          "type": "uint256"
        }
      ],
      "payable": false,
      "stateMutability": "view",
      "type": "function"
    },
    {
      "constant": true,
      "inputs": [],
      "name": "controller",
      "outputs": [
        {
          "internalType": "address",
          "name": "",
          "type": "address"
        }
      ],
      "payable": false,
      "stateMutability": "view",
      "type": "function"
    },
    {
      "constant": true,
      "inputs": [],
      "name": "convertor",
      "outputs": [
        {
          "internalType": "address",
          "name": "",
          "type": "address"
        }
      ],
      "payable": false,
      "stateMutability": "view",
      "type": "function"
    },
    {
      "constant": true,
      "inputs": [],
      "name": "curve",
      "outputs": [
        {
          "internalType": "address",
          "name": "",
          "type": "address"
        }
      ],
      "payable": false,
      "stateMutability": "view",
      "type": "function"
    },
    {
      "constant": true,
      "inputs": [],
      "name": "curvePriceCheckpoint",
      "outputs": [
        {
          "internalType": "uint256",
          "name": "",
          "type": "uint256"
        }
      ],
      "payable": false,
      "stateMutability": "view",
      "type": "function"
    },
    {
      "constant": true,
      "inputs": [],
      "name": "governance",
      "outputs": [
        {
          "internalType": "address",
          "name": "",
          "type": "address"
        }
      ],
      "payable": false,
      "stateMutability": "view",
      "type": "function"
    },
    {
      "constant": false,
      "inputs": [
        {
          "internalType": "address",
          "name": "_store",
          "type": "address"
        }
      ],
      "name": "setStorage",
      "outputs": [],
      "payable": false,
      "stateMutability": "nonpayable",
      "type": "function"
    },
    {
      "constant": true,
      "inputs": [],
      "name": "store",
      "outputs": [
        {
          "internalType": "contract Storage",
          "name": "",
          "type": "address"
        }
      ],
      "payable": false,
      "stateMutability": "view",
      "type": "function"
    },
    {
      "constant": true,
      "inputs": [],
      "name": "underlying",
      "outputs": [
        {
          "internalType": "address",
          "name": "",
          "type": "address"
        }
      ],
      "payable": false,
      "stateMutability": "view",
      "type": "function"
    },
    {
      "constant": true,
      "inputs": [
        {
          "internalType": "address",
          "name": "",
          "type": "address"
        }
      ],
      "name": "unsalvagableTokens",
      "outputs": [
        {
          "internalType": "bool",
          "name": "",
          "type": "bool"
        }
      ],
      "payable": false,
      "stateMutability": "view",
      "type": "function"
    },
    {
      "constant": true,
      "inputs": [],
      "name": "vault",
      "outputs": [
        {
          "internalType": "address",
          "name": "",
          "type": "address"
        }
      ],
      "payable": false,
      "stateMutability": "view",
      "type": "function"
    },
    {
      "constant": true,
      "inputs": [],
      "name": "yVault",
      "outputs": [
        {
          "internalType": "address",
          "name": "",
          "type": "address"
        }
      ],
      "payable": false,
      "stateMutability": "view",
      "type": "function"
    },
    {
      "constant": true,
      "inputs": [],
      "name": "ycrv",
      "outputs": [
        {
          "internalType": "address",
          "name": "",
          "type": "address"
        }
      ],
      "payable": false,
      "stateMutability": "view",
      "type": "function"
    },
    {
      "constant": true,
      "inputs": [],
      "name": "ycrvUnit",
      "outputs": [
        {
          "internalType": "uint256",
          "name": "",
          "type": "uint256"
        }
      ],
      "payable": false,
      "stateMutability": "view",
      "type": "function"
    },
    {
      "constant": true,
      "inputs": [],
      "name": "ycrvVault",
      "outputs": [
        {
          "internalType": "address",
          "name": "",
          "type": "address"
        }
      ],
      "payable": false,
      "stateMutability": "view",
      "type": "function"
    },
    {
      "constant": true,
      "inputs": [],
      "name": "depositArbCheck",
      "outputs": [
        {
          "internalType": "bool",
          "name": "",
          "type": "bool"
        }
      ],
      "payable": false,
      "stateMutability": "view",
      "type": "function"
    },
    {
      "constant": false,
      "inputs": [
        {
          "internalType": "uint256",
          "name": "tolerance",
          "type": "uint256"
        }
      ],
      "name": "setArbTolerance",
      "outputs": [],
      "payable": false,
      "stateMutability": "nonpayable",
      "type": "function"
    },
    {
      "constant": false,
      "inputs": [
        {
          "internalType": "uint256",
          "name": "amountUnderlying",
          "type": "uint256"
        }
      ],
      "name": "withdrawToVault",
      "outputs": [],
      "payable": false,
      "stateMutability": "nonpayable",
      "type": "function"
    },
    {
      "constant": false,
      "inputs": [],
      "name": "withdrawAllToVault",
      "outputs": [],
      "payable": false,
      "stateMutability": "nonpayable",
      "type": "function"
    },
    {
      "constant": false,
      "inputs": [],
      "name": "doHardWork",
      "outputs": [],
      "payable": false,
      "stateMutability": "nonpayable",
      "type": "function"
    },
    {
      "constant": false,
      "inputs": [
        {
          "internalType": "address",
          "name": "recipient",
          "type": "address"
        },
        {
          "internalType": "address",
          "name": "token",
          "type": "address"
        },
        {
          "internalType": "uint256",
          "name": "amount",
          "type": "uint256"
        }
      ],
      "name": "salvage",
      "outputs": [],
      "payable": false,
      "stateMutability": "nonpayable",
      "type": "function"
    },
    {
      "constant": true,
      "inputs": [],
      "name": "investedUnderlyingBalance",
      "outputs": [
        {
          "internalType": "uint256",
          "name": "",
          "type": "uint256"
        }
      ],
      "payable": false,
      "stateMutability": "view",
      "type": "function"
    },
    {
      "constant": true,
      "inputs": [
        {
          "internalType": "uint256",
          "name": "ycrvBalance",
          "type": "uint256"
        }
      ],
      "name": "yTokenValueFromYCrv",
      "outputs": [
        {
          "internalType": "uint256",
          "name": "",
          "type": "uint256"
        }
      ],
      "payable": false,
      "stateMutability": "view",
      "type": "function"
    },
    {
      "constant": true,
      "inputs": [
        {
          "internalType": "uint256",
          "name": "ycrvBalance",
          "type": "uint256"
        }
      ],
      "name": "underlyingValueFromYCrv",
      "outputs": [
        {
          "internalType": "uint256",
          "name": "",
          "type": "uint256"
        }
      ],
      "payable": false,
      "stateMutability": "view",
      "type": "function"
    },
    {
      "constant": true,
      "inputs": [
        {
          "internalType": "uint256",
          "name": "amountUnderlying",
          "type": "uint256"
        }
      ],
      "name": "yTokenValueFromUnderlying",
      "outputs": [
        {
          "internalType": "uint256",
          "name": "",
          "type": "uint256"
        }
      ],
      "payable": false,
      "stateMutability": "view",
      "type": "function"
    },
    {
      "constant": false,
      "inputs": [
        {
          "internalType": "address",
          "name": "_convertor",
          "type": "address"
        }
      ],
      "name": "setConvertor",
      "outputs": [],
      "payable": false,
      "stateMutability": "nonpayable",
      "type": "function"
    }
  ],
  "bytecode": "0x60806040526003600b5534801561001557600080fd5b50604051612296380380612296833981810160405261012081101561003957600080fd5b508051602082015160408301516060840151608085015160a086015160c087015160e08801516101009098015196979596949593949293919290919088806001600160a01b0381166100d2576040805162461bcd60e51b815260206004820152601e60248201527f6e65772073746f726167652073686f756c646e277420626520656d7074790000604482015290519081900360640190fd5b600080546001600160a01b03199081166001600160a01b03938416179091556002805482168b84161781556004805483168b851617905560018054909216928c1692909217905585915081111561012557fe5b6001805460ff60a01b1916600160a01b83600281111561014157fe5b0217905550600380546001600160a01b039687166001600160a01b0319918216178255600580549588169582169590951785556006805494881694821694909417909355600780549287169290931691909117909155600180548516600090815260086020526040808220805460ff199081168517909155935487168252808220805485168417905593548616815283812080548416831790556004549095168552919093208054909316179091555050670de0b6b3a7640000600a819055600955505050612081806102156000396000f3fe608060405234801561001057600080fd5b506004361061018e5760003560e01c80639137c1a7116100de578063bfa65d1711610097578063ce8c42e811610071578063ce8c42e81461034e578063f77c47911461036b578063f9137fcd14610373578063fbfa77cf146103905761018e565b8063bfa65d1714610336578063bfd131f11461033e578063c2a2a07b146103465761018e565b80639137c1a7146102d3578063975057e7146102f95780639da1f33014610301578063a47406f014610309578063a950eec214610311578063b50303061461032e5761018e565b806345d01e4a1161014b5780635aa6e675116101255780635aa6e675146102955780636f307dc31461029d5780637165485d146102a55780638335fc21146102ad5761018e565b806345d01e4a1461024b5780634fa5d85414610253578063501859461461025b5761018e565b80631113ef521461019357806317e3a3d5146101cb5780631c13e96e146101ef578063269a08d5146102095780632e3f14741461022657806333303f8e14610243575b600080fd5b6101c9600480360360608110156101a957600080fd5b506001600160a01b03813581169160208101359091169060400135610398565b005b6101d36104c8565b604080516001600160a01b039092168252519081900360200190f35b6101f76104d7565b60408051918252519081900360200190f35b6101f76004803603602081101561021f57600080fd5b50356104dd565b6101c96004803603602081101561023c57600080fd5b503561058f565b6101d3610691565b6101f76106a0565b6101c9610854565b6102816004803603602081101561027157600080fd5b50356001600160a01b03166108fb565b604080519115158252519081900360200190f35b6101d3610910565b6101d3610990565b6101d361099f565b6101c9600480360360208110156102c357600080fd5b50356001600160a01b03166109ae565b6101c9600480360360208110156102e957600080fd5b50356001600160a01b0316610a89565b6101d3610bbf565b6101f7610bce565b6101f7610bd4565b6101f76004803603602081101561032757600080fd5b5035610bda565b6101d3610c71565b6101d3610c80565b6101c9610c8f565b610281610eaf565b6101c96004803603602081101561036457600080fd5b5035610f1b565b6101d361114d565b6101f76004803603602081101561038957600080fd5b503561119c565b6101d3611239565b600054604080516337b87c3960e21b815233600482015290516001600160a01b039092169163dee1f0e491602480820192602092909190829003018186803b1580156103e357600080fd5b505afa1580156103f7573d6000803e3d6000fd5b505050506040513d602081101561040d57600080fd5b5051610451576040805162461bcd60e51b815260206004820152600e60248201526d4e6f7420676f7665726e616e636560901b604482015290519081900360640190fd5b6001600160a01b03821660009081526008602052604090205460ff16156104a95760405162461bcd60e51b8152600401808060200182810382526023815260200180611fa96023913960400191505060405180910390fd5b6104c36001600160a01b038316848363ffffffff61124816565b505050565b6005546001600160a01b031681565b600b5481565b6000610589600360009054906101000a90046001600160a01b03166001600160a01b03166377c7b8fc6040518163ffffffff1660e01b815260040160206040518083038186803b15801561053057600080fd5b505afa158015610544573d6000803e3d6000fd5b505050506040513d602081101561055a57600080fd5b505161057d670de0b6b3a76400006105718661119c565b9063ffffffff61129a16565b9063ffffffff6112fa16565b92915050565b600054604080516337b87c3960e21b815233600482015290516001600160a01b039092169163dee1f0e491602480820192602092909190829003018186803b1580156105da57600080fd5b505afa1580156105ee573d6000803e3d6000fd5b505050506040513d602081101561060457600080fd5b5051610648576040805162461bcd60e51b815260206004820152600e60248201526d4e6f7420676f7665726e616e636560901b604482015290519081900360640190fd5b606481111561068c576040805162461bcd60e51b815260206004820152600b60248201526a06174206d6f7374203130360ac1b604482015290519081900360640190fd5b600b55565b6003546001600160a01b031681565b60048054604080516370a0823160e01b815230938101939093525160009283926001600160a01b0316916370a0823191602480820192602092909190829003018186803b1580156106f057600080fd5b505afa158015610704573d6000803e3d6000fd5b505050506040513d602081101561071a57600080fd5b50516004805460408051631df1ee3f60e21b815290519394506000936001600160a01b03909216926377c7b8fc928282019260209290829003018186803b15801561076457600080fd5b505afa158015610778573d6000803e3d6000fd5b505050506040513d602081101561078e57600080fd5b50519050670de0b6b3a764000060006107b18261057d868663ffffffff61129a16565b905060006107be8261119c565b600154604080516370a0823160e01b81523060048201529051929350610849926001600160a01b03909216916370a0823191602480820192602092909190829003018186803b15801561081057600080fd5b505afa158015610824573d6000803e3d6000fd5b505050506040513d602081101561083a57600080fd5b5051829063ffffffff61133c16565b955050505050505b90565b6002546001600160a01b0316331480610885575061087061114d565b6001600160a01b0316336001600160a01b0316145b806108a85750610893610910565b6001600160a01b0316336001600160a01b0316145b6108e35760405162461bcd60e51b8152600401808060200182810382526039815260200180611f706039913960400191505060405180910390fd5b6108eb611396565b6108f6600a5461119c565b600955565b60086020526000908152604090205460ff1681565b60008060009054906101000a90046001600160a01b03166001600160a01b0316635aa6e6756040518163ffffffff1660e01b815260040160206040518083038186803b15801561095f57600080fd5b505afa158015610973573d6000803e3d6000fd5b505050506040513d602081101561098957600080fd5b5051905090565b6001546001600160a01b031681565b6006546001600160a01b031681565b600054604080516337b87c3960e21b815233600482015290516001600160a01b039092169163dee1f0e491602480820192602092909190829003018186803b1580156109f957600080fd5b505afa158015610a0d573d6000803e3d6000fd5b505050506040513d6020811015610a2357600080fd5b5051610a67576040805162461bcd60e51b815260206004820152600e60248201526d4e6f7420676f7665726e616e636560901b604482015290519081900360640190fd5b600780546001600160a01b0319166001600160a01b0392909216919091179055565b600054604080516337b87c3960e21b815233600482015290516001600160a01b039092169163dee1f0e491602480820192602092909190829003018186803b158015610ad457600080fd5b505afa158015610ae8573d6000803e3d6000fd5b505050506040513d6020811015610afe57600080fd5b5051610b42576040805162461bcd60e51b815260206004820152600e60248201526d4e6f7420676f7665726e616e636560901b604482015290519081900360640190fd5b6001600160a01b038116610b9d576040805162461bcd60e51b815260206004820152601e60248201527f6e65772073746f726167652073686f756c646e277420626520656d7074790000604482015290519081900360640190fd5b600080546001600160a01b0319166001600160a01b0392909216919091179055565b6000546001600160a01b031681565b60095481565b600a5481565b6000610589600360009054906101000a90046001600160a01b03166001600160a01b03166377c7b8fc6040518163ffffffff1660e01b815260040160206040518083038186803b158015610c2d57600080fd5b505afa158015610c41573d6000803e3d6000fd5b505050506040513d6020811015610c5757600080fd5b505161057d84670de0b6b3a764000063ffffffff61129a16565b6007546001600160a01b031681565b6004546001600160a01b031681565b6002546001600160a01b0316331480610cc05750610cab61114d565b6001600160a01b0316336001600160a01b0316145b80610ce35750610cce610910565b6001600160a01b0316336001600160a01b0316145b610d1e5760405162461bcd60e51b8152600401808060200182810382526039815260200180611f706039913960400191505060405180910390fd5b60048054604080516370a0823160e01b81523093810193909352516000926001600160a01b03909216916370a08231916024808301926020929190829003018186803b158015610d6d57600080fd5b505afa158015610d81573d6000803e3d6000fd5b505050506040513d6020811015610d9757600080fd5b50516004805460408051632e1a7d4d60e01b8152928301849052519293506001600160a01b031691632e1a7d4d9160248082019260009290919082900301818387803b158015610de657600080fd5b505af1158015610dfa573d6000803e3d6000fd5b50505050610e096000196114cb565b600154604080516370a0823160e01b815230600482015290516000926001600160a01b0316916370a08231916024808301926020929190829003018186803b158015610e5457600080fd5b505afa158015610e68573d6000803e3d6000fd5b505050506040513d6020811015610e7e57600080fd5b505190508015610eab57600254600154610eab916001600160a01b0391821691168363ffffffff61124816565b5050565b600080610ebd600a5461119c565b9050600954811015610ef257600b54606403610ee960095461057d60648561129a90919063ffffffff16565b11915050610851565b600b54606401610f1260095461057d60648561129a90919063ffffffff16565b10915050610851565b6002546001600160a01b0316331480610f4c5750610f3761114d565b6001600160a01b0316336001600160a01b0316145b80610f6f5750610f5a610910565b6001600160a01b0316336001600160a01b0316145b610faa5760405162461bcd60e51b8152600401808060200182810382526039815260200180611f706039913960400191505060405180910390fd5b60048054604080516370a0823160e01b81523093810193909352516000926001600160a01b03909216916370a08231916024808301926020929190829003018186803b158015610ff957600080fd5b505afa15801561100d573d6000803e3d6000fd5b505050506040513d602081101561102357600080fd5b50516004805460408051632e1a7d4d60e01b8152928301849052519293506001600160a01b031691632e1a7d4d9160248082019260009290919082900301818387803b15801561107257600080fd5b505af1158015611086573d6000803e3d6000fd5b50505050611093826114cb565b600154604080516370a0823160e01b815230600482015290516000926001600160a01b0316916370a08231916024808301926020929190829003018186803b1580156110de57600080fd5b505afa1580156110f2573d6000803e3d6000fd5b505050506040513d602081101561110857600080fd5b50519050801561114557600254611145906001600160a01b031661112c85846117e5565b6001546001600160a01b0316919063ffffffff61124816565b6104c3611396565b60008060009054906101000a90046001600160a01b03166001600160a01b031663f77c47916040518163ffffffff1660e01b815260040160206040518083038186803b15801561095f57600080fd5b6007546001546000916001600160a01b031690638c92b130908490600160a01b900460ff1660028111156111cc57fe5b6040518363ffffffff1660e01b8152600401808381526020018281526020019250505060206040518083038186803b15801561120757600080fd5b505afa15801561121b573d6000803e3d6000fd5b505050506040513d602081101561123157600080fd5b505192915050565b6002546001600160a01b031681565b604080516001600160a01b038416602482015260448082018490528251808303909101815260649091019091526020810180516001600160e01b031663a9059cbb60e01b1790526104c39084906117fb565b6000826112a957506000610589565b828202828482816112b657fe5b04146112f35760405162461bcd60e51b8152600401808060200182810382526021815260200180611fcc6021913960400191505060405180910390fd5b9392505050565b60006112f383836040518060400160405280601a81526020017f536166654d6174683a206469766973696f6e206279207a65726f0000000000008152506119b9565b6000828201838110156112f3576040805162461bcd60e51b815260206004820152601b60248201527f536166654d6174683a206164646974696f6e206f766572666c6f770000000000604482015290519081900360640190fd5b61139e611a5b565b600554604080516370a0823160e01b815230600482015290516000926001600160a01b0316916370a08231916024808301926020929190829003018186803b1580156113e957600080fd5b505afa1580156113fd573d6000803e3d6000fd5b505050506040513d602081101561141357600080fd5b5051905080156114c857600454600554611441916001600160a01b039182169116600063ffffffff611cf416565b600454600554611464916001600160a01b0391821691168363ffffffff611cf416565b600480546040805163b6b55f2560e01b8152928301849052516001600160a01b039091169163b6b55f2591602480830192600092919082900301818387803b1580156114af57600080fd5b505af11580156114c3573d6000803e3d6000fd5b505050505b50565b600554604080516370a0823160e01b815230600482015290516000926001600160a01b0316916370a08231916024808301926020929190829003018186803b15801561151657600080fd5b505afa15801561152a573d6000803e3d6000fd5b505050506040513d602081101561154057600080fd5b50519050600061154f826104dd565b90508061155d5750506114c8565b600060001984146115765761157184610bda565b611578565b815b9050611582611f51565b61159461158f84846117e5565b611e07565b600354604080516370a0823160e01b815230600482015290519293506000926001600160a01b03909216916370a0823191602480820192602092909190829003018186803b1580156115e557600080fd5b505afa1580156115f9573d6000803e3d6000fd5b505050506040513d602081101561160f57600080fd5b5051600654600554919250611638916001600160a01b039081169116600063ffffffff611cf416565b60065460055461165b916001600160a01b0391821691168763ffffffff611cf416565b600654604051630c53debb60e11b81526001600160a01b03909116906318a7bd7690849088906004018083608080838360005b838110156116a657818101518382015260200161168e565b5050505090500182815260200192505050600060405180830381600087803b1580156116d157600080fd5b505af11580156116e5573d6000803e3d6000fd5b5050600354604080516370a0823160e01b81523060048201529051600094506001600160a01b0390921692506370a08231916024808301926020929190829003018186803b15801561173657600080fd5b505afa15801561174a573d6000803e3d6000fd5b505050506040513d602081101561176057600080fd5b50519050818111156117dc576003546001600160a01b0316632e1a7d4d61178d838563ffffffff611e7916565b6040518263ffffffff1660e01b815260040180828152602001915050600060405180830381600087803b1580156117c357600080fd5b505af11580156117d7573d6000803e3d6000fd5b505050505b50505050505050565b60008183106117f457816112f3565b5090919050565b61180d826001600160a01b0316611ebb565b61185e576040805162461bcd60e51b815260206004820152601f60248201527f5361666545524332303a2063616c6c20746f206e6f6e2d636f6e747261637400604482015290519081900360640190fd5b60006060836001600160a01b0316836040518082805190602001908083835b6020831061189c5780518252601f19909201916020918201910161187d565b6001836020036101000a0380198251168184511680821785525050505050509050019150506000604051808303816000865af19150503d80600081146118fe576040519150601f19603f3d011682016040523d82523d6000602084013e611903565b606091505b50915091508161195a576040805162461bcd60e51b815260206004820181905260248201527f5361666545524332303a206c6f772d6c6576656c2063616c6c206661696c6564604482015290519081900360640190fd5b8051156119b35780806020019051602081101561197657600080fd5b50516119b35760405162461bcd60e51b815260040180806020018281038252602a815260200180611fed602a913960400191505060405180910390fd5b50505050565b60008183611a455760405162461bcd60e51b81526004018080602001828103825283818151815260200191508051906020019080838360005b83811015611a0a5781810151838201526020016119f2565b50505050905090810190601f168015611a375780820380516001836020036101000a031916815260200191505b509250505060405180910390fd5b506000838581611a5157fe5b0495945050505050565b600154604080516370a0823160e01b815230600482015290516000926001600160a01b0316916370a08231916024808301926020929190829003018186803b158015611aa657600080fd5b505afa158015611aba573d6000803e3d6000fd5b505050506040513d6020811015611ad057600080fd5b505190508015611b8757600354600154611afe916001600160a01b039182169116600063ffffffff611cf416565b600354600154611b21916001600160a01b0391821691168363ffffffff611cf416565b6003546040805163b6b55f2560e01b81526004810184905290516001600160a01b039092169163b6b55f259160248082019260009290919082900301818387803b158015611b6e57600080fd5b505af1158015611b82573d6000803e3d6000fd5b505050505b600354604080516370a0823160e01b815230600482015290516000926001600160a01b0316916370a08231916024808301926020929190829003018186803b158015611bd257600080fd5b505afa158015611be6573d6000803e3d6000fd5b505050506040513d6020811015611bfc57600080fd5b505190508015610eab57600654600354611c2a916001600160a01b039182169116600063ffffffff611cf416565b600654600354611c4d916001600160a01b0391821691168363ffffffff611cf416565b6000611c57611f51565b611c6083611e07565b60065460405162a6cbcd60e21b81529192506001600160a01b03169063029b2f3490839085906004018083608080838360005b83811015611cab578181015183820152602001611c93565b5050505090500182815260200192505050600060405180830381600087803b158015611cd657600080fd5b505af1158015611cea573d6000803e3d6000fd5b5050505050505050565b801580611d7a575060408051636eb1769f60e11b81523060048201526001600160a01b03848116602483015291519185169163dd62ed3e91604480820192602092909190829003018186803b158015611d4c57600080fd5b505afa158015611d60573d6000803e3d6000fd5b505050506040513d6020811015611d7657600080fd5b5051155b611db55760405162461bcd60e51b81526004018080602001828103825260368152602001806120176036913960400191505060405180910390fd5b604080516001600160a01b038416602482015260448082018490528251808303909101815260649091019091526020810180516001600160e01b031663095ea7b360e01b1790526104c39084906117fb565b611e0f611f51565b611e17611f51565b6040518060800160405280600081526020016000815260200160008152602001600081525090508281600160149054906101000a900460ff166002811115611e5b57fe5b66ffffffffffffff1660048110611e6e57fe5b602002015292915050565b60006112f383836040518060400160405280601e81526020017f536166654d6174683a207375627472616374696f6e206f766572666c6f770000815250611ef7565b6000813f7fc5d2460186f7233c927e7db2dcc703c0e500b653ca82273b7bfad8045d85a470818114801590611eef57508115155b949350505050565b60008184841115611f495760405162461bcd60e51b8152602060048201818152835160248401528351909283926044909101919085019080838360008315611a0a5781810151838201526020016119f2565b505050900390565b6040518060800160405280600490602082028038833950919291505056fe5468652073656e6465722068617320746f2062652074686520636f6e74726f6c6c65722c20676f7665726e616e63652c206f72207661756c74746f6b656e20697320646566696e6564206173206e6f742073616c7661676561626c65536166654d6174683a206d756c7469706c69636174696f6e206f766572666c6f775361666545524332303a204552433230206f7065726174696f6e20646964206e6f7420737563636565645361666545524332303a20617070726f76652066726f6d206e6f6e2d7a65726f20746f206e6f6e2d7a65726f20616c6c6f77616e6365a265627a7a723158204a3f4bb6643ec99cd96f9817e537d173181ca7ecb0fdb8dacf6b2a2eba9c8e5564736f6c63430005100032",
  "source": "pragma solidity 0.5.16;\n\nimport \"@openzeppelin/contracts/math/Math.sol\";\nimport \"@openzeppelin/contracts/math/SafeMath.sol\";\nimport \"@openzeppelin/contracts/token/ERC20/IERC20.sol\";\nimport \"@openzeppelin/contracts/utils/Address.sol\";\nimport \"@openzeppelin/contracts/token/ERC20/SafeERC20.sol\";\nimport \"@openzeppelin/contracts/token/ERC20/ERC20Detailed.sol\";\nimport \"./interfaces/Gauge.sol\";\nimport \"./interfaces/ICurveFi.sol\";\nimport \"./interfaces/yVault.sol\";\nimport \"./interfaces/IPriceConvertor.sol\";\nimport \"../../hardworkInterface/IVault.sol\";\nimport \"../../hardworkInterface/IController.sol\";\nimport \"../../hardworkInterface/IStrategy.sol\";\nimport \"../../Controllable.sol\";\n\n/**\n* The goal of this strategy is to take a stable asset (DAI, USDC, USDT), turn it into ycrv using\n* the curve mechanisms, and supply ycrv into the ycrv vault. The ycrv vault will likely not have\n* a reward token distribution pool to avoid double dipping. All the calls to functions from this\n* strategy will be routed to the controller which should then call the respective methods on the\n* ycrv vault. This strategy will not be liquidating any yield crops (CRV), because the strategy\n* of the ycrv vault will do that for us.\n*/\ncontract CRVStrategyStable is IStrategy, Controllable {\n\n  enum TokenIndex {DAI, USDC, USDT}\n\n  using SafeERC20 for IERC20;\n  using Address for address;\n  using SafeMath for uint256;\n\n  // underlying asset\n  address public underlying;\n\n  // the matching enum record used to determine the index\n  TokenIndex tokenIndex;\n\n  // our vault holding the underlying asset\n  address public vault;\n\n  // the y-vault (yield tokens from Curve) corresponding to our asset\n  address public yVault;\n\n  // our vault for depositing the yCRV tokens\n  address public ycrvVault;\n\n  // the address of yCRV token\n  address public ycrv;\n\n  // the address of the Curve protocol\n  address public curve;\n\n  // the address of the IPriceConvertor\n  address public convertor;\n\n  // these tokens cannot be claimed by the governance\n  mapping(address => bool) public unsalvagableTokens;\n\n  uint256 public curvePriceCheckpoint;\n  uint256 public ycrvUnit;\n  uint256 public arbTolerance = 3;\n\n  modifier restricted() {\n    require(msg.sender == vault || msg.sender == controller()\n      || msg.sender == governance(),\n      \"The sender has to be the controller, governance, or vault\");\n    _;\n  }\n\n  constructor(\n    address _storage,\n    address _underlying,\n    address _vault,\n    address _ycrvVault,\n    address _yVault,\n    uint256 _tokenIndex,\n    address _ycrv,\n    address _curveProtocol,\n    address _convertor\n  )\n  Controllable(_storage) public {\n    vault = _vault;\n    ycrvVault = _ycrvVault;\n    underlying = _underlying;\n    tokenIndex = TokenIndex(_tokenIndex);\n    yVault = _yVault;\n    ycrv = _ycrv;\n    curve = _curveProtocol;\n    convertor = _convertor;\n\n    // set these tokens to be not salvageable\n    unsalvagableTokens[underlying] = true;\n    unsalvagableTokens[yVault] = true;\n    unsalvagableTokens[ycrv] = true;\n    unsalvagableTokens[ycrvVault] = true;\n\n    ycrvUnit = 10 ** 18;\n    // starting with a stable price, the mainnet will override this value\n    curvePriceCheckpoint = ycrvUnit;\n  }\n\n  function depositArbCheck() public view returns(bool) {\n    uint256 currentPrice = underlyingValueFromYCrv(ycrvUnit);\n    if (currentPrice < curvePriceCheckpoint) {\n      return currentPrice.mul(100).div(curvePriceCheckpoint) > 100 - arbTolerance;\n    } else {\n      return currentPrice.mul(100).div(curvePriceCheckpoint) < 100 + arbTolerance;\n    }\n  }\n\n  function setArbTolerance(uint256 tolerance) external onlyGovernance {\n    require(tolerance <= 100, \"at most 100\");\n    arbTolerance = tolerance;\n  }\n\n  /**\n  * Uses the Curve protocol to convert the underlying asset into yAsset and then to yCRV.\n  */\n  function yCurveFromUnderlying() internal {\n    // convert underlying asset to yAsset\n    uint256 underlyingBalance = IERC20(underlying).balanceOf(address(this));\n    if (underlyingBalance > 0) {\n      IERC20(underlying).safeApprove(yVault, 0);\n      IERC20(underlying).safeApprove(yVault, underlyingBalance);\n      yERC20(yVault).deposit(underlyingBalance);\n    }\n    // convert yAsset to yCRV\n    uint256 yBalance = IERC20(yVault).balanceOf(address(this));\n    if (yBalance > 0) {\n      IERC20(yVault).safeApprove(curve, 0);\n      IERC20(yVault).safeApprove(curve, yBalance);\n      // we can accept 0 as minimum because this is called only by a trusted role\n      uint256 minimum = 0;\n      uint256[4] memory coinAmounts = wrapCoinAmount(yBalance);\n      ICurveFi(curve).add_liquidity(\n        coinAmounts, minimum\n      );\n    }\n    // now we have yCRV\n  }\n\n  /**\n  * Uses the Curve protocol to convert the yCRV back into the underlying asset. If it cannot acquire\n  * the limit amount, it will acquire the maximum it can.\n  */\n  function yCurveToUnderlying(uint256 underlyingLimit) internal {\n    uint256 ycrvBalance = IERC20(ycrv).balanceOf(address(this));\n\n    // this is the maximum number of y-tokens we can get for our yCRV\n    uint256 yTokenMaximumAmount = yTokenValueFromYCrv(ycrvBalance);\n    if (yTokenMaximumAmount == 0) {\n      return;\n    }\n\n    // ensure that we will not overflow in the conversion\n    uint256 yTokenDesiredAmount = underlyingLimit == uint256(~0) ?\n      yTokenMaximumAmount : yTokenValueFromUnderlying(underlyingLimit);\n\n    uint256[4] memory yTokenAmounts = wrapCoinAmount(\n      Math.min(yTokenMaximumAmount, yTokenDesiredAmount));\n    uint256 yUnderlyingBalanceBefore = IERC20(yVault).balanceOf(address(this));\n    IERC20(ycrv).safeApprove(curve, 0);\n    IERC20(ycrv).safeApprove(curve, ycrvBalance);\n    ICurveFi(curve).remove_liquidity_imbalance(\n      yTokenAmounts, ycrvBalance\n    );\n    // now we have yUnderlying asset\n    uint256 yUnderlyingBalanceAfter = IERC20(yVault).balanceOf(address(this));\n    if (yUnderlyingBalanceAfter > yUnderlyingBalanceBefore) {\n      // we received new yUnderlying tokens for yCRV\n      yERC20(yVault).withdraw(yUnderlyingBalanceAfter.sub(yUnderlyingBalanceBefore));\n    }\n  }\n\n  /**\n  * Withdraws an underlying asset from the strategy to the vault in the specified amount by asking\n  * the yCRV vault for yCRV (currently all of it), and then removing imbalanced liquidity from\n  * the Curve protocol. The rest is deposited back to the yCRV vault. If the amount requested cannot\n  * be obtained, the method will get as much as we have.\n  */\n  function withdrawToVault(uint256 amountUnderlying) external restricted {\n    // todo: If we want to be more accurate, we need to calculate how much yCRV we will need here\n    uint256 shares = IERC20(ycrvVault).balanceOf(address(this));\n    IVault(ycrvVault).withdraw(shares);\n    yCurveToUnderlying(amountUnderlying);\n    // we can transfer the asset to the vault\n    uint256 actualBalance = IERC20(underlying).balanceOf(address(this));\n    if (actualBalance > 0) {\n      IERC20(underlying).safeTransfer(vault, Math.min(amountUnderlying, actualBalance));\n    }\n\n    // invest back the rest\n    investAllUnderlying();\n  }\n\n  /**\n  * Withdraws all assets from the vault. We ask the yCRV vault to give us our entire yCRV balance\n  * and then convert it to the underlying asset using the Curve protocol.\n  */\n  function withdrawAllToVault() external restricted {\n    uint256 shares = IERC20(ycrvVault).balanceOf(address(this));\n    IVault(ycrvVault).withdraw(shares);\n    // withdraw everything until there is only dust left\n    yCurveToUnderlying(uint256(~0));\n    uint256 actualBalance = IERC20(underlying).balanceOf(address(this));\n    if (actualBalance > 0) {\n      IERC20(underlying).safeTransfer(vault, actualBalance);\n    }\n  }\n\n  /**\n  * Invests all underlying assets into our yCRV vault.\n  */\n  function investAllUnderlying() internal {\n    // convert the entire balance not yet invested into yCRV first\n    yCurveFromUnderlying();\n\n    // then deposit into the yCRV vault\n    uint256 ycrvBalance = IERC20(ycrv).balanceOf(address(this));\n    if (ycrvBalance > 0) {\n      IERC20(ycrv).safeApprove(ycrvVault, 0);\n      IERC20(ycrv).safeApprove(ycrvVault, ycrvBalance);\n      // deposits the entire balance and also asks the vault to invest it (public function)\n      IVault(ycrvVault).deposit(ycrvBalance);\n    }\n  }\n\n  /**\n  * The hard work only invests all underlying assets, and then tells the controller to call hard\n  * work on the yCRV vault.\n  */\n  function doHardWork() public restricted {\n    investAllUnderlying();\n    curvePriceCheckpoint = underlyingValueFromYCrv(ycrvUnit);\n  }\n\n  /**\n  * Salvages a token. We cannot salvage the shares in the yCRV pool, yCRV tokens, or underlying\n  * assets.\n  */\n  function salvage(address recipient, address token, uint256 amount) public onlyGovernance {\n    // To make sure that governance cannot come in and take away the coins\n    require(!unsalvagableTokens[token], \"token is defined as not salvageable\");\n    IERC20(token).safeTransfer(recipient, amount);\n  }\n\n  /**\n  * Returns the underlying invested balance. This is the amount of yCRV that we are entitled to\n  * from the yCRV vault (based on the number of shares we currently have), converted to the\n  * underlying assets by the Curve protocol, plus the current balance of the underlying assets.\n  */\n  function investedUnderlyingBalance() public view returns (uint256) {\n    uint256 shares = IERC20(ycrvVault).balanceOf(address(this));\n    uint256 price = IVault(ycrvVault).getPricePerFullShare();\n    // the price is in yCRV units, because this is a yCRV vault\n    // the multiplication doubles the number of decimals for shares, so we need to divide\n    // the precision is always 10 ** 18 as the yCRV vault has 18 decimals\n    uint256 precision = 10 ** 18;\n    uint256 ycrvBalance = shares.mul(price).div(precision);\n    // now we can convert the balance to the token amount\n    uint256 ycrvValue = underlyingValueFromYCrv(ycrvBalance);\n    return ycrvValue.add(IERC20(underlying).balanceOf(address(this)));\n  }\n\n  /**\n  * Returns the value of yCRV in underlying token accounting for slippage and fees.\n  */\n  function yTokenValueFromYCrv(uint256 ycrvBalance) public view returns (uint256) {\n    return underlyingValueFromYCrv(ycrvBalance) // this is in DAI, we will convert to yDAI\n    .mul(10 ** 18)\n    .div(yERC20(yVault).getPricePerFullShare()); // function getPricePerFullShare() has 18 decimals for all tokens\n  }\n\n  /**\n  * Returns the value of yCRV in y-token (e.g., yCRV -> yDai) accounting for slippage and fees.\n  */\n  function underlyingValueFromYCrv(uint256 ycrvBalance) public view returns (uint256) {\n    return IPriceConvertor(convertor).yCrvToUnderlying(ycrvBalance, uint256(tokenIndex));\n  }\n\n  /**\n  * Returns the value of the underlying token in yToken\n  */\n  function yTokenValueFromUnderlying(uint256 amountUnderlying) public view returns (uint256) {\n    // 1 yToken = this much underlying, 10 ** 18 precision for all tokens\n    return amountUnderlying\n      .mul(10 ** 18)\n      .div(yERC20(yVault).getPricePerFullShare());\n  }\n\n  /**\n  * Wraps the coin amount in the array for interacting with the Curve protocol\n  */\n  function wrapCoinAmount(uint256 amount) internal view returns (uint256[4] memory) {\n    uint256[4] memory amounts = [uint256(0), uint256(0), uint256(0), uint256(0)];\n    amounts[uint56(tokenIndex)] = amount;\n    return amounts;\n  }\n\n  /**\n  * Replaces the price convertor\n  */\n  function setConvertor(address _convertor) public onlyGovernance {\n    // different price conversion from yCurve to yToken can help in emergency recovery situation\n    // or if there is a bug discovered in the price computation\n    convertor = _convertor;\n  }\n}\n",
  "sourcePath": "/home/jawaher/tmp/harvest/contracts/strategies/curve/CRVStrategyStable.sol",
  "compiler": {
    "name": "solc",
    "version": "0.5.16+commit.9c3226ce.Emscripten.clang"
  },
  "schemaVersion": "3.2.5",
  "updatedAt": "2020-10-21T10:56:20.537Z",
  "devdoc": {
    "methods": {}
  },
  "userdoc": {
    "methods": {
      "doHardWork()": {
        "notice": "The hard work only invests all underlying assets, and then tells the controller to call hard work on the yCRV vault."
      },
      "investedUnderlyingBalance()": {
        "notice": "Returns the underlying invested balance. This is the amount of yCRV that we are entitled to from the yCRV vault (based on the number of shares we currently have), converted to the underlying assets by the Curve protocol, plus the current balance of the underlying assets."
      },
      "salvage(address,address,uint256)": {
        "notice": "Salvages a token. We cannot salvage the shares in the yCRV pool, yCRV tokens, or underlying assets."
      },
      "setConvertor(address)": {
        "notice": "Replaces the price convertor"
      },
      "underlyingValueFromYCrv(uint256)": {
        "notice": "Returns the value of yCRV in y-token (e.g., yCRV -> yDai) accounting for slippage and fees."
      },
      "withdrawAllToVault()": {
        "notice": "Withdraws all assets from the vault. We ask the yCRV vault to give us our entire yCRV balance and then convert it to the underlying asset using the Curve protocol."
      },
      "withdrawToVault(uint256)": {
        "notice": "Withdraws an underlying asset from the strategy to the vault in the specified amount by asking the yCRV vault for yCRV (currently all of it), and then removing imbalanced liquidity from the Curve protocol. The rest is deposited back to the yCRV vault. If the amount requested cannot be obtained, the method will get as much as we have."
      },
      "yTokenValueFromUnderlying(uint256)": {
        "notice": "Returns the value of the underlying token in yToken"
      },
      "yTokenValueFromYCrv(uint256)": {
        "notice": "Returns the value of yCRV in underlying token accounting for slippage and fees."
      }
    },
    "notice": "The goal of this strategy is to take a stable asset (DAI, USDC, USDT), turn it into ycrv using the curve mechanisms, and supply ycrv into the ycrv vault. The ycrv vault will likely not have a reward token distribution pool to avoid double dipping. All the calls to functions from this strategy will be routed to the controller which should then call the respective methods on the ycrv vault. This strategy will not be liquidating any yield crops (CRV), because the strategy of the ycrv vault will do that for us."
  }
}