{
  "contractName": "DelayMinter",
  "abi": [
    {
      "inputs": [
        {
          "internalType": "address",
          "name": "_storage",
          "type": "address"
        },
        {
          "internalType": "address",
          "name": "_token",
          "type": "address"
        },
        {
          "internalType": "uint256",
          "name": "_delay",
          "type": "uint256"
        },
        {
          "internalType": "address",
          "name": "_team",
          "type": "address"
        },
        {
          "internalType": "address",
          "name": "_operator",
          "type": "address"
        }
      ],
      "payable": false,
      "stateMutability": "nonpayable",
      "type": "constructor"
    },
    {
      "anonymous": false,
      "inputs": [
        {
          "indexed": false,
          "internalType": "uint256",
          "name": "id",
          "type": "uint256"
        }
      ],
      "name": "CancelMinting",
      "type": "event"
    },
    {
      "anonymous": false,
      "inputs": [
        {
          "indexed": false,
          "internalType": "uint256",
          "name": "id",
          "type": "uint256"
        },
        {
          "indexed": false,
          "internalType": "address",
          "name": "target",
          "type": "address"
        },
        {
          "indexed": false,
          "internalType": "uint256",
          "name": "_amount",
          "type": "uint256"
        },
        {
          "indexed": false,
          "internalType": "uint256",
          "name": "timeActive",
          "type": "uint256"
        }
      ],
      "name": "MintingAnnounced",
      "type": "event"
    },
    {
      "anonymous": false,
      "inputs": [
        {
          "indexed": false,
          "internalType": "address",
          "name": "operator",
          "type": "address"
        }
      ],
      "name": "NewOperator",
      "type": "event"
    },
    {
      "anonymous": false,
      "inputs": [
        {
          "indexed": false,
          "internalType": "address",
          "name": "team",
          "type": "address"
        }
      ],
      "name": "NewTeam",
      "type": "event"
    },
    {
      "constant": true,
      "inputs": [],
      "name": "delay",
      "outputs": [
        {
          "internalType": "uint256",
          "name": "",
          "type": "uint256"
        }
      ],
      "payable": false,
      "stateMutability": "view",
      "type": "function"
    },
    {
      "constant": true,
      "inputs": [],
      "name": "governance",
      "outputs": [
        {
          "internalType": "address",
          "name": "",
          "type": "address"
        }
      ],
      "payable": false,
      "stateMutability": "view",
      "type": "function"
    },
    {
      "constant": true,
      "inputs": [],
      "name": "lpRatio",
      "outputs": [
        {
          "internalType": "uint256",
          "name": "",
          "type": "uint256"
        }
      ],
      "payable": false,
      "stateMutability": "view",
      "type": "function"
    },
    {
      "constant": true,
      "inputs": [],
      "name": "nextId",
      "outputs": [
        {
          "internalType": "uint256",
          "name": "",
          "type": "uint256"
        }
      ],
      "payable": false,
      "stateMutability": "view",
      "type": "function"
    },
    {
      "constant": true,
      "inputs": [],
      "name": "operationRatio",
      "outputs": [
        {
          "internalType": "uint256",
          "name": "",
          "type": "uint256"
        }
      ],
      "payable": false,
      "stateMutability": "view",
      "type": "function"
    },
    {
      "constant": true,
      "inputs": [],
      "name": "operator",
      "outputs": [
        {
          "internalType": "address",
          "name": "",
          "type": "address"
        }
      ],
      "payable": false,
      "stateMutability": "view",
      "type": "function"
    },
    {
      "constant": false,
      "inputs": [
        {
          "internalType": "address",
          "name": "_store",
          "type": "address"
        }
      ],
      "name": "setStorage",
      "outputs": [],
      "payable": false,
      "stateMutability": "nonpayable",
      "type": "function"
    },
    {
      "constant": true,
      "inputs": [],
      "name": "store",
      "outputs": [
        {
          "internalType": "contract Storage",
          "name": "",
          "type": "address"
        }
      ],
      "payable": false,
      "stateMutability": "view",
      "type": "function"
    },
    {
      "constant": true,
      "inputs": [],
      "name": "team",
      "outputs": [
        {
          "internalType": "address",
          "name": "",
          "type": "address"
        }
      ],
      "payable": false,
      "stateMutability": "view",
      "type": "function"
    },
    {
      "constant": true,
      "inputs": [],
      "name": "teamRatio",
      "outputs": [
        {
          "internalType": "uint256",
          "name": "",
          "type": "uint256"
        }
      ],
      "payable": false,
      "stateMutability": "view",
      "type": "function"
    },
    {
      "constant": true,
      "inputs": [],
      "name": "token",
      "outputs": [
        {
          "internalType": "address",
          "name": "",
          "type": "address"
        }
      ],
      "payable": false,
      "stateMutability": "view",
      "type": "function"
    },
    {
      "constant": true,
      "inputs": [],
      "name": "totalRatio",
      "outputs": [
        {
          "internalType": "uint256",
          "name": "",
          "type": "uint256"
        }
      ],
      "payable": false,
      "stateMutability": "view",
      "type": "function"
    },
    {
      "constant": false,
      "inputs": [
        {
          "internalType": "address",
          "name": "_target",
          "type": "address"
        },
        {
          "internalType": "uint256",
          "name": "_amount",
          "type": "uint256"
        }
      ],
      "name": "announceMint",
      "outputs": [],
      "payable": false,
      "stateMutability": "nonpayable",
      "type": "function"
    },
    {
      "constant": false,
      "inputs": [
        {
          "internalType": "uint256",
          "name": "_id",
          "type": "uint256"
        }
      ],
      "name": "executeMint",
      "outputs": [],
      "payable": false,
      "stateMutability": "nonpayable",
      "type": "function"
    },
    {
      "constant": false,
      "inputs": [
        {
          "internalType": "uint256",
          "name": "_id",
          "type": "uint256"
        }
      ],
      "name": "cancelMint",
      "outputs": [],
      "payable": false,
      "stateMutability": "nonpayable",
      "type": "function"
    },
    {
      "constant": false,
      "inputs": [
        {
          "internalType": "address",
          "name": "_team",
          "type": "address"
        }
      ],
      "name": "setTeam",
      "outputs": [],
      "payable": false,
      "stateMutability": "nonpayable",
      "type": "function"
    },
    {
      "constant": false,
      "inputs": [
        {
          "internalType": "address",
          "name": "_operator",
          "type": "address"
        }
      ],
      "name": "setOperator",
      "outputs": [],
      "payable": false,
      "stateMutability": "nonpayable",
      "type": "function"
    },
    {
      "constant": false,
      "inputs": [],
      "name": "renounceMinting",
      "outputs": [],
      "payable": false,
      "stateMutability": "nonpayable",
      "type": "function"
    }
  ],
  "bytecode": "0x608060405260466003556014600455600a600555606460065534801561002457600080fd5b5060405161150b38038061150b833981810160405260a081101561004757600080fd5b50805160208201516040830151606084015160809094015192939192909190846001600160a01b0381166100c2576040805162461bcd60e51b815260206004820152601e60248201527f6e65772073746f726167652073686f756c646e277420626520656d7074790000604482015290519081900360640190fd5b600080546001600160a01b03199081166001600160a01b039384161790915560078054909116868316179081905516610132576040805162461bcd60e51b815260206004820152600d60248201526c1d1bdad95b881b9bdd081cd95d609a1b604482015290519081900360640190fd5b600883905582610179576040805162461bcd60e51b815260206004820152600d60248201526c19195b185e481b9bdd081cd95d609a1b604482015290519081900360640190fd5b600180546001600160a01b0319166001600160a01b038481169190911791829055166101db576040805162461bcd60e51b815260206004820152600c60248201526b1d19585b481b9bdd081cd95d60a21b604482015290519081900360640190fd5b600280546001600160a01b0319166001600160a01b03838116919091179182905516610241576040805162461bcd60e51b815260206004820152601060248201526f1bdc195c985d1bdc881b9bdd081cd95d60821b604482015290519081900360640190fd5b505060006009555050506112b18061025a6000396000f3fe608060405234801561001057600080fd5b50600436106101165760003560e01c80639137c1a7116100a2578063b3ab15fb11610071578063b3ab15fb14610213578063e7a486fb14610239578063f70b6f8c14610256578063fc0c546a1461025e578063ff5528e01461026657610116565b80639137c1a7146101b1578063975057e7146101d75780639ad277f9146101df5780639fc3ab031461020b57610116565b80635aa6e675116100e95780635aa6e6751461018957806361b8ce8c146101915780636a42b8f8146101995780637af2c8ad146101a157806385f2aef2146101a957610116565b8063095cf5c61461011b5780634aee525814610143578063510ffc9b1461015d578063570ca73514610165575b600080fd5b6101416004803603602081101561013157600080fd5b50356001600160a01b0316610283565b005b61014b6103e5565b60408051918252519081900360200190f35b6101416103eb565b61016d61050e565b604080516001600160a01b039092168252519081900360200190f35b61016d61051d565b61014b61059d565b61014b6105a3565b61014b6105a9565b61016d6105af565b610141600480360360208110156101c757600080fd5b50356001600160a01b03166105be565b61016d6106f4565b610141600480360360408110156101f557600080fd5b506001600160a01b038135169060200135610703565b61014b610920565b6101416004803603602081101561022957600080fd5b50356001600160a01b0316610926565b6101416004803603602081101561024f57600080fd5b5035610a88565b61014b610e71565b61016d610e77565b6101416004803603602081101561027c57600080fd5b5035610e86565b600054604080516337b87c3960e21b815233600482015290516001600160a01b039092169163dee1f0e491602480820192602092909190829003018186803b1580156102ce57600080fd5b505afa1580156102e2573d6000803e3d6000fd5b505050506040513d60208110156102f857600080fd5b505161033c576040805162461bcd60e51b815260206004820152600e60248201526d4e6f7420676f7665726e616e636560901b604482015290519081900360640190fd5b6001600160a01b038116610391576040805162461bcd60e51b81526020600482015260176024820152760416464726573732073686f756c64206e6f74206265203604c1b604482015290519081900360640190fd5b600180546001600160a01b0383166001600160a01b0319909116811790915560408051918252517f206d730d55a81bf1fdfee2c0bf4c8464ea157549f83c21c1f2ab1619a2704b5a9181900360200190a150565b60065481565b600054604080516337b87c3960e21b815233600482015290516001600160a01b039092169163dee1f0e491602480820192602092909190829003018186803b15801561043657600080fd5b505afa15801561044a573d6000803e3d6000fd5b505050506040513d602081101561046057600080fd5b50516104a4576040805162461bcd60e51b815260206004820152600e60248201526d4e6f7420676f7665726e616e636560901b604482015290519081900360640190fd5b600760009054906101000a90046001600160a01b03166001600160a01b031663986502756040518163ffffffff1660e01b8152600401600060405180830381600087803b1580156104f457600080fd5b505af1158015610508573d6000803e3d6000fd5b50505050565b6002546001600160a01b031681565b60008060009054906101000a90046001600160a01b03166001600160a01b0316635aa6e6756040518163ffffffff1660e01b815260040160206040518083038186803b15801561056c57600080fd5b505afa158015610580573d6000803e3d6000fd5b505050506040513d602081101561059657600080fd5b5051905090565b60095481565b60085481565b60055481565b6001546001600160a01b031681565b600054604080516337b87c3960e21b815233600482015290516001600160a01b039092169163dee1f0e491602480820192602092909190829003018186803b15801561060957600080fd5b505afa15801561061d573d6000803e3d6000fd5b505050506040513d602081101561063357600080fd5b5051610677576040805162461bcd60e51b815260206004820152600e60248201526d4e6f7420676f7665726e616e636560901b604482015290519081900360640190fd5b6001600160a01b0381166106d2576040805162461bcd60e51b815260206004820152601e60248201527f6e65772073746f726167652073686f756c646e277420626520656d7074790000604482015290519081900360640190fd5b600080546001600160a01b0319166001600160a01b0392909216919091179055565b6000546001600160a01b031681565b600054604080516337b87c3960e21b815233600482015290516001600160a01b039092169163dee1f0e491602480820192602092909190829003018186803b15801561074e57600080fd5b505afa158015610762573d6000803e3d6000fd5b505050506040513d602081101561077857600080fd5b50516107bc576040805162461bcd60e51b815260206004820152600e60248201526d4e6f7420676f7665726e616e636560901b604482015290519081900360640190fd5b6001600160a01b038216610817576040805162461bcd60e51b815260206004820152601c60248201527f7461726765742063616e6e6f7420626520307830206164647265737300000000604482015290519081900360640190fd5b80610869576040805162461bcd60e51b815260206004820152601f60248201527f416d6f756e742073686f756c642062652067726561746572207468616e203000604482015290519081900360640190fd5b60085460408051606080820183526001600160a01b03868116808452602080850188815242909701858701818152600980546000908152600a8552899020975188546001600160a01b03191696169590951787559751600187015596516002909501949094559054845190815292830152818301859052810183905290517f4a83f3d886f3d4f5a11a5c895bb2e5c9b6c6f04f06cfc7b3a4eaa6de3f9c22b4916080908290030190a1505060098054600101905550565b60045481565b600054604080516337b87c3960e21b815233600482015290516001600160a01b039092169163dee1f0e491602480820192602092909190829003018186803b15801561097157600080fd5b505afa158015610985573d6000803e3d6000fd5b505050506040513d602081101561099b57600080fd5b50516109df576040805162461bcd60e51b815260206004820152600e60248201526d4e6f7420676f7665726e616e636560901b604482015290519081900360640190fd5b6001600160a01b038116610a34576040805162461bcd60e51b81526020600482015260176024820152760416464726573732073686f756c64206e6f74206265203604c1b604482015290519081900360640190fd5b600280546001600160a01b0383166001600160a01b0319909116811790915560408051918252517fda12ee837e6978172aaf54b16145ffe08414fd8710092ef033c71b8eb6ec189a9181900360200190a150565b600054604080516337b87c3960e21b815233600482015290516001600160a01b039092169163dee1f0e491602480820192602092909190829003018186803b158015610ad357600080fd5b505afa158015610ae7573d6000803e3d6000fd5b505050506040513d6020811015610afd57600080fd5b5051610b41576040805162461bcd60e51b815260206004820152600e60248201526d4e6f7420676f7665726e616e636560901b604482015290519081900360640190fd5b6000818152600a6020526040902080546001909101546001600160a01b039091169081610b9f5760405162461bcd60e51b815260040180806020018281038252602381526020018061125a6023913960400191505060405180910390fd5b80610bf1576040805162461bcd60e51b815260206004820152601f60248201527f416d6f756e742073686f756c642062652067726561746572207468616e203000604482015290519081900360640190fd5b6000838152600a6020526040902060020154421015610c49576040805162461bcd60e51b815260206004820152600f60248201526e10d85b9b9bdd081b5a5b9d081e595d608a1b604482015290519081900360640190fd5b6000610c72600654610c666003548561105690919063ffffffff16565b9063ffffffff6110b816565b90506000610c91600654610c666005548661105690919063ffffffff16565b90506000610cb582610ca9868663ffffffff6110fa16565b9063ffffffff6110fa16565b600754604080516340c10f1960e01b81526001600160a01b0389811660048301526024820188905291519394509116916340c10f19916044808201926020929091908290030181600087803b158015610d0d57600080fd5b505af1158015610d21573d6000803e3d6000fd5b505050506040513d6020811015610d3757600080fd5b5050600754600254604080516340c10f1960e01b81526001600160a01b03928316600482015260248101869052905191909216916340c10f199160448083019260209291908290030181600087803b158015610d9257600080fd5b505af1158015610da6573d6000803e3d6000fd5b505050506040513d6020811015610dbc57600080fd5b5050600754600154604080516340c10f1960e01b81526001600160a01b03928316600482015260248101859052905191909216916340c10f199160448083019260209291908290030181600087803b158015610e1757600080fd5b505af1158015610e2b573d6000803e3d6000fd5b505050506040513d6020811015610e4157600080fd5b50505060009485525050600a60205250506040812080546001600160a01b03191681556001810182905560020155565b60035481565b6007546001600160a01b031681565b600054604080516337b87c3960e21b815233600482015290516001600160a01b039092169163dee1f0e491602480820192602092909190829003018186803b158015610ed157600080fd5b505afa158015610ee5573d6000803e3d6000fd5b505050506040513d6020811015610efb57600080fd5b5051610f3f576040805162461bcd60e51b815260206004820152600e60248201526d4e6f7420676f7665726e616e636560901b604482015290519081900360640190fd5b6000818152600a60205260409020546001600160a01b0316610f925760405162461bcd60e51b815260040180806020018281038252602381526020018061125a6023913960400191505060405180910390fd5b6000818152600a6020526040902060010154610ff5576040805162461bcd60e51b815260206004820152601f60248201527f416d6f756e742073686f756c642062652067726561746572207468616e203000604482015290519081900360640190fd5b6000818152600a6020908152604080832080546001600160a01b03191681556001810184905560020192909255815183815291517f4b6af408dd68b0f87d2f41327d424da2e11ccf5ce6bc494cc09ab0da6a344c059281900390910190a150565b600082611065575060006110b2565b8282028284828161107257fe5b04146110af5760405162461bcd60e51b81526004018080602001828103825260218152602001806112396021913960400191505060405180910390fd5b90505b92915050565b60006110af83836040518060400160405280601a81526020017f536166654d6174683a206469766973696f6e206279207a65726f00000000000081525061113c565b60006110af83836040518060400160405280601e81526020017f536166654d6174683a207375627472616374696f6e206f766572666c6f7700008152506111de565b600081836111c85760405162461bcd60e51b81526004018080602001828103825283818151815260200191508051906020019080838360005b8381101561118d578181015183820152602001611175565b50505050905090810190601f1680156111ba5780820380516001836020036101000a031916815260200191505b509250505060405180910390fd5b5060008385816111d457fe5b0495945050505050565b600081848411156112305760405162461bcd60e51b815260206004820181815283516024840152835190928392604490910191908501908083836000831561118d578181015183820152602001611175565b50505090039056fe536166654d6174683a206d756c7469706c69636174696f6e206f766572666c6f774d696e74696e67206e6565647320746f20626520666972737420616e6e6f756e636564a265627a7a723158208e10fd67f1fd100f72644b09aff848cac87c1506133ead1246f1f976c620887664736f6c63430005100032",
  "source": "pragma solidity 0.5.16;\n\nimport \"@openzeppelin/contracts/token/ERC20/IERC20.sol\";\nimport \"@openzeppelin/contracts/math/SafeMath.sol\";\nimport \"@openzeppelin/contracts/token/ERC20/ERC20Detailed.sol\";\nimport \"@openzeppelin/contracts/token/ERC20/ERC20Mintable.sol\";\nimport \"./Governable.sol\";\n\n/*\n*   This contract is to ensure our users will not get exit-scammed\n*   while retaining the possibility of providing new rewards.\n*\n*   The governance has to announce the minting first and wait for the\n*   `duration`. Only after that `duration` is passed, can the governance\n*   create new rewards.\n*\n*   The usage of this contract itself does not mean it is free from exit-scam.\n*   Thus we provide some guidance for the user on how to check.\n*\n*   User due diligence guide:\n*     [1] DelayMinter has to be the only type of Minters for the RewardToken\n*\n*     [2] The ownership of RewardToken has to be renounced\n*         (to ensure no new minters can be added)\n*\n*     [3] The duration of all DelayMinters should be set to a reasonable time.\n*         The numbers reported are in seconds.\n*\n*\n*   Only then, the users are free from exit scams.\n*\n*/\n\ncontract DelayMinter is Governable {\n  using SafeMath for uint256;\n\n  struct MintingAnnouncement{\n    address target;\n    uint256 amount;\n    uint256 timeToMint;\n  }\n\n  address public team;\n  address public operator;\n\n  uint256 public lpRatio =        70;\n  uint256 public teamRatio =      20; // not used, but keeping for clarity\n  uint256 public operationRatio = 10;\n  uint256 public totalRatio =     100;\n\n  address public token;\n  uint256 public delay;\n\n  uint256 public nextId;\n\n  // announcements[_id] returns Minting announcement struct\n  mapping (uint256 => MintingAnnouncement) announcements;\n\n  // Note that not all amount goes to the target\n  // it would be distributed according to the predefined ratio\n  // target will get (lpRatio/totalRatio * amount)\n  event MintingAnnounced(uint256 id, address target, uint256 _amount, uint256 timeActive);\n\n  event CancelMinting(uint256 id);\n  event NewTeam(address team);\n  event NewOperator(address operator);\n\n  constructor(address _storage, address _token, uint256 _delay, address _team, address _operator)\n  Governable(_storage) public {\n    token = _token;\n    require(token != address(0), \"token not set\");\n    delay = _delay;\n    require(delay != 0, \"delay not set\");\n    team = _team;\n    require(team != address(0), \"team not set\");\n    operator = _operator;\n    require(operator != address(0), \"operator not set\");\n    nextId = 0;\n  }\n\n  // Note that not all amount goes to the target\n  // it would be distributed according to the predefined ratio\n  // target will get (lpRatio/totalRatio * amount)\n  function announceMint(address _target, uint256 _amount) public onlyGovernance {\n    require(_target != address(0), \"target cannot be 0x0 address\");\n    require(_amount != 0, \"Amount should be greater than 0\");\n\n    uint256 timeToMint = block.timestamp + delay;\n    // set the new minting\n    announcements[nextId] = MintingAnnouncement(\n      _target,\n      _amount,\n      timeToMint\n    );\n    emit MintingAnnounced(nextId, _target, _amount, timeToMint);\n    // Overflow is unlikely to happen\n    // furthermore, we can reuse the id even if it overflowed.\n    nextId++;\n  }\n\n  // Governance can only mint if it is already announced and the delay has passed\n  function executeMint(uint256 _id) public onlyGovernance {\n    address target = announcements[_id].target;\n    uint256 amount = announcements[_id].amount; // now this is the total amount\n\n    require(target != address(0), \"Minting needs to be first announced\");\n    require(amount != 0, \"Amount should be greater than 0\");\n    require(block.timestamp >= announcements[_id].timeToMint, \"Cannot mint yet\");\n\n    uint256 toTarget = amount.mul(lpRatio).div(totalRatio);\n    uint256 toOperator = amount.mul(operationRatio).div(totalRatio);\n    uint256 toTeam = amount.sub(toTarget).sub(toOperator);\n    ERC20Mintable(token).mint(target, toTarget);\n    ERC20Mintable(token).mint(operator, toOperator);\n    ERC20Mintable(token).mint(team, toTeam);\n\n    // clear out so that it prevents governance from reusing the announcement\n    // it also saves gas and we can reuse the announcements even if the id overflowed\n    delete announcements[_id];\n  }\n\n  function cancelMint(uint256 _id) public onlyGovernance {\n    require(announcements[_id].target != address(0), \"Minting needs to be first announced\");\n    require(announcements[_id].amount != 0, \"Amount should be greater than 0\");\n    delete announcements[_id];\n    emit CancelMinting(_id);\n  }\n\n  function setTeam(address _team) public onlyGovernance {\n    require(_team != address(0), \"Address should not be 0\");\n    team = _team;\n    emit NewTeam(_team);\n  }\n\n  function setOperator(address _operator) public onlyGovernance {\n    require(_operator != address(0), \"Address should not be 0\");\n    operator = _operator;\n    emit NewOperator(_operator);\n  }\n\n  function renounceMinting() public onlyGovernance {\n    ERC20Mintable(token).renounceMinter();\n  }\n}\n",
  "sourcePath": "/home/jawaher/tmp/harvest/contracts/DelayMinter.sol",
  "compiler": {
    "name": "solc",
    "version": "0.5.16+commit.9c3226ce.Emscripten.clang"
  },
  "schemaVersion": "3.2.5",
  "updatedAt": "2020-10-19T08:25:32.011Z",
  "devdoc": {
    "methods": {}
  },
  "userdoc": {
    "methods": {}
  }
}