{
  "contractName": "DepositHelper",
  "abi": [
    {
      "inputs": [
        {
          "internalType": "address",
          "name": "_storage",
          "type": "address"
        }
      ],
      "payable": false,
      "stateMutability": "nonpayable",
      "type": "constructor"
    },
    {
      "anonymous": false,
      "inputs": [
        {
          "indexed": false,
          "internalType": "address",
          "name": "holder",
          "type": "address"
        },
        {
          "indexed": false,
          "internalType": "uint256",
          "name": "numberOfTransfers",
          "type": "uint256"
        }
      ],
      "name": "DepositComplete",
      "type": "event"
    },
    {
      "constant": true,
      "inputs": [],
      "name": "controller",
      "outputs": [
        {
          "internalType": "address",
          "name": "",
          "type": "address"
        }
      ],
      "payable": false,
      "stateMutability": "view",
      "type": "function"
    },
    {
      "constant": true,
      "inputs": [],
      "name": "governance",
      "outputs": [
        {
          "internalType": "address",
          "name": "",
          "type": "address"
        }
      ],
      "payable": false,
      "stateMutability": "view",
      "type": "function"
    },
    {
      "constant": false,
      "inputs": [
        {
          "internalType": "address",
          "name": "_store",
          "type": "address"
        }
      ],
      "name": "setStorage",
      "outputs": [],
      "payable": false,
      "stateMutability": "nonpayable",
      "type": "function"
    },
    {
      "constant": true,
      "inputs": [],
      "name": "store",
      "outputs": [
        {
          "internalType": "contract Storage",
          "name": "",
          "type": "address"
        }
      ],
      "payable": false,
      "stateMutability": "view",
      "type": "function"
    },
    {
      "constant": false,
      "inputs": [
        {
          "internalType": "uint256[]",
          "name": "amounts",
          "type": "uint256[]"
        },
        {
          "internalType": "address[]",
          "name": "vaultAddresses",
          "type": "address[]"
        }
      ],
      "name": "depositAll",
      "outputs": [],
      "payable": false,
      "stateMutability": "nonpayable",
      "type": "function"
    }
  ],
  "bytecode": "0x608060405234801561001057600080fd5b50604051610dba380380610dba8339818101604052602081101561003357600080fd5b505180806001600160a01b038116610092576040805162461bcd60e51b815260206004820152601e60248201527f6e65772073746f726167652073686f756c646e277420626520656d7074790000604482015290519081900360640190fd5b600080546001600160a01b039092166001600160a01b03199092169190911790555050610cf6806100c46000396000f3fe608060405234801561001057600080fd5b50600436106100575760003560e01c80633cb972371461005c5780635aa6e675146101855780639137c1a7146101a9578063975057e7146101cf578063f77c4791146101d7575b600080fd5b6101836004803603604081101561007257600080fd5b81019060208101813564010000000081111561008d57600080fd5b82018360208201111561009f57600080fd5b803590602001918460208302840111640100000000831117156100c157600080fd5b919080806020026020016040519081016040528093929190818152602001838360200280828437600092019190915250929594936020810193503591505064010000000081111561011157600080fd5b82018360208201111561012357600080fd5b8035906020019184602083028401116401000000008311171561014557600080fd5b9190808060200260200160405190810160405280939291908181526020018383602002808284376000920191909152509295506101df945050505050565b005b61018d610672565b604080516001600160a01b039092168252519081900360200190f35b610183600480360360208110156101bf57600080fd5b50356001600160a01b03166106f2565b61018d610828565b61018d610837565b333214806102d957506000809054906101000a90046001600160a01b03166001600160a01b031663f77c47916040518163ffffffff1660e01b815260040160206040518083038186803b15801561023557600080fd5b505afa158015610249573d6000803e3d6000fd5b505050506040513d602081101561025f57600080fd5b5051604080516330e412ad60e01b815233600482015290516001600160a01b03909216916330e412ad916024808201926020929091908290030181600087803b1580156102ab57600080fd5b505af11580156102bf573d6000803e3d6000fd5b505050506040513d60208110156102d557600080fd5b5051155b6103145760405162461bcd60e51b815260040180806020018281038252602c815260200180610c96602c913960400191505060405180910390fd5b80518251146103545760405162461bcd60e51b8152600401808060200182810382526026815260200180610c106026913960400191505060405180910390fd5b60005b815181101561066d5782818151811061036c57fe5b60200260200101516000141561038157610665565b6000809054906101000a90046001600160a01b03166001600160a01b031663f77c47916040518163ffffffff1660e01b815260040160206040518083038186803b1580156103ce57600080fd5b505afa1580156103e2573d6000803e3d6000fd5b505050506040513d60208110156103f857600080fd5b505182516001600160a01b0390911690630d453efb9084908490811061041a57fe5b60200260200101516040518263ffffffff1660e01b815260040180826001600160a01b03166001600160a01b03168152602001915050602060405180830381600087803b15801561046a57600080fd5b505af115801561047e573d6000803e3d6000fd5b505050506040513d602081101561049457600080fd5b50516104d15760405162461bcd60e51b8152600401808060200182810382526026815260200180610bea6026913960400191505060405180910390fd5b60008282815181106104df57fe5b602002602001015190506000816001600160a01b0316636f307dc36040518163ffffffff1660e01b815260040160206040518083038186803b15801561052457600080fd5b505afa158015610538573d6000803e3d6000fd5b505050506040513d602081101561054e57600080fd5b5051855190915061058b903390309088908790811061056957fe5b6020026020010151846001600160a01b0316610886909392919063ffffffff16565b6105a66001600160a01b03821683600063ffffffff6108e616565b6105d7828685815181106105b657fe5b6020026020010151836001600160a01b03166108e69092919063ffffffff16565b816001600160a01b03166336efd16f8685815181106105f257fe5b6020026020010151336040518363ffffffff1660e01b815260040180838152602001826001600160a01b03166001600160a01b0316815260200192505050600060405180830381600087803b15801561064a57600080fd5b505af115801561065e573d6000803e3d6000fd5b5050505050505b600101610357565b505050565b60008060009054906101000a90046001600160a01b03166001600160a01b0316635aa6e6756040518163ffffffff1660e01b815260040160206040518083038186803b1580156106c157600080fd5b505afa1580156106d5573d6000803e3d6000fd5b505050506040513d60208110156106eb57600080fd5b5051905090565b600054604080516337b87c3960e21b815233600482015290516001600160a01b039092169163dee1f0e491602480820192602092909190829003018186803b15801561073d57600080fd5b505afa158015610751573d6000803e3d6000fd5b505050506040513d602081101561076757600080fd5b50516107ab576040805162461bcd60e51b815260206004820152600e60248201526d4e6f7420676f7665726e616e636560901b604482015290519081900360640190fd5b6001600160a01b038116610806576040805162461bcd60e51b815260206004820152601e60248201527f6e65772073746f726167652073686f756c646e277420626520656d7074790000604482015290519081900360640190fd5b600080546001600160a01b0319166001600160a01b0392909216919091179055565b6000546001600160a01b031681565b60008060009054906101000a90046001600160a01b03166001600160a01b031663f77c47916040518163ffffffff1660e01b815260040160206040518083038186803b1580156106c157600080fd5b604080516001600160a01b0385811660248301528416604482015260648082018490528251808303909101815260849091019091526020810180516001600160e01b03166323b872dd60e01b1790526108e09085906109f5565b50505050565b80158061096c575060408051636eb1769f60e11b81523060048201526001600160a01b03848116602483015291519185169163dd62ed3e91604480820192602092909190829003018186803b15801561093e57600080fd5b505afa158015610952573d6000803e3d6000fd5b505050506040513d602081101561096857600080fd5b5051155b6109a75760405162461bcd60e51b8152600401808060200182810382526036815260200180610c606036913960400191505060405180910390fd5b604080516001600160a01b038416602482015260448082018490528251808303909101815260649091019091526020810180516001600160e01b031663095ea7b360e01b17905261066d9084905b610a07826001600160a01b0316610bad565b610a58576040805162461bcd60e51b815260206004820152601f60248201527f5361666545524332303a2063616c6c20746f206e6f6e2d636f6e747261637400604482015290519081900360640190fd5b60006060836001600160a01b0316836040518082805190602001908083835b60208310610a965780518252601f199092019160209182019101610a77565b6001836020036101000a0380198251168184511680821785525050505050509050019150506000604051808303816000865af19150503d8060008114610af8576040519150601f19603f3d011682016040523d82523d6000602084013e610afd565b606091505b509150915081610b54576040805162461bcd60e51b815260206004820181905260248201527f5361666545524332303a206c6f772d6c6576656c2063616c6c206661696c6564604482015290519081900360640190fd5b8051156108e057808060200190516020811015610b7057600080fd5b50516108e05760405162461bcd60e51b815260040180806020018281038252602a815260200180610c36602a913960400191505060405180910390fd5b6000813f7fc5d2460186f7233c927e7db2dcc703c0e500b653ca82273b7bfad8045d85a470818114801590610be157508115155b94935050505056fe44483a207661756c74206973206e6f742070726573656e7420696e20636f6e74726f6c6c657244483a20616d6f756e747320616e64207661756c74206c656e67746873206d69736d617463685361666545524332303a204552433230206f7065726174696f6e20646964206e6f7420737563636565645361666545524332303a20617070726f76652066726f6d206e6f6e2d7a65726f20746f206e6f6e2d7a65726f20616c6c6f77616e636544483a205468697320736d61727420636f6e747261637420686173206265656e2067726579206c6973746564a265627a7a723158201f8269c49b383a9aec378b23e503efb2f8487efc5b2f61da90c569d97e2d71d364736f6c63430005100032",
  "source": "pragma solidity 0.5.16;\n\nimport \"@openzeppelin/contracts/utils/Address.sol\";\nimport \"@openzeppelin/contracts/math/SafeMath.sol\";\nimport \"@openzeppelin/contracts/token/ERC20/SafeERC20.sol\";\nimport \"@openzeppelin/contracts/token/ERC20/IERC20.sol\";\nimport \"./Controllable.sol\";\nimport \"./hardworkInterface/IVault.sol\";\nimport \"./hardworkInterface/IController.sol\";\n\ncontract DepositHelper is Controllable {\n  using SafeERC20 for IERC20;\n  using Address for address;\n  using SafeMath for uint256;\n\n  event DepositComplete(\n    address holder,\n    uint numberOfTransfers\n  );\n\n  // Only smart contracts will be affected by this modifier\n  modifier defense() {\n    require(\n      (msg.sender == tx.origin) ||                // If it is a normal user and not smart contract,\n                                                  // then the requirement will pass\n      !IController(store.controller()).greyList(msg.sender),         // If it is a smart contract, then make sure that\n      \"DH: This smart contract has been grey listed\"  // it is not on our greyList.\n    );\n    _;\n  }\n\n  constructor(address _storage)\n  Controllable(_storage) public {}\n\n  /*\n  * Transfers tokens of all kinds\n  */\n  function depositAll(uint256[] memory amounts, address[] memory vaultAddresses) public defense {\n    require(amounts.length == vaultAddresses.length, \"DH: amounts and vault lengths mismatch\");\n    for (uint i = 0; i < vaultAddresses.length; i++) {\n      if (amounts[i] == 0) {\n        continue;\n      }\n      require(IController(store.controller()).hasVault(vaultAddresses[i]), 'DH: vault is not present in controller');\n      IVault currentVault = IVault(vaultAddresses[i]);\n      IERC20 underlying = IERC20(currentVault.underlying());\n\n      underlying.safeTransferFrom(msg.sender, address(this), amounts[i]);\n      underlying.safeApprove(address(currentVault), 0);\n      underlying.safeApprove(address(currentVault), amounts[i]);\n      currentVault.depositFor(amounts[i], msg.sender);\n    }\n  }\n}\n",
  "sourcePath": "/home/jawaher/tmp/harvest/contracts/DepositHelper.sol",
  "compiler": {
    "name": "solc",
    "version": "0.5.16+commit.9c3226ce.Emscripten.clang"
  },
  "schemaVersion": "3.2.5",
  "updatedAt": "2020-10-19T08:25:32.016Z",
  "devdoc": {
    "methods": {}
  },
  "userdoc": {
    "methods": {}
  }
}