{
  "contractName": "FeeRewardForwarder",
  "abi": [
    {
      "inputs": [
        {
          "internalType": "address",
          "name": "_storage",
          "type": "address"
        },
        {
          "internalType": "address",
          "name": "_uniswapRouterV2",
          "type": "address"
        }
      ],
      "payable": false,
      "stateMutability": "nonpayable",
      "type": "constructor"
    },
    {
      "anonymous": false,
      "inputs": [
        {
          "indexed": false,
          "internalType": "address",
          "name": "token",
          "type": "address"
        },
        {
          "indexed": false,
          "internalType": "address",
          "name": "pool",
          "type": "address"
        }
      ],
      "name": "TokenPoolSet",
      "type": "event"
    },
    {
      "constant": true,
      "inputs": [],
      "name": "dai",
      "outputs": [
        {
          "internalType": "address",
          "name": "",
          "type": "address"
        }
      ],
      "payable": false,
      "stateMutability": "view",
      "type": "function"
    },
    {
      "constant": true,
      "inputs": [],
      "name": "governance",
      "outputs": [
        {
          "internalType": "address",
          "name": "",
          "type": "address"
        }
      ],
      "payable": false,
      "stateMutability": "view",
      "type": "function"
    },
    {
      "constant": true,
      "inputs": [],
      "name": "link",
      "outputs": [
        {
          "internalType": "address",
          "name": "",
          "type": "address"
        }
      ],
      "payable": false,
      "stateMutability": "view",
      "type": "function"
    },
    {
      "constant": true,
      "inputs": [],
      "name": "profitSharingPool",
      "outputs": [
        {
          "internalType": "address",
          "name": "",
          "type": "address"
        }
      ],
      "payable": false,
      "stateMutability": "view",
      "type": "function"
    },
    {
      "constant": false,
      "inputs": [
        {
          "internalType": "address",
          "name": "_store",
          "type": "address"
        }
      ],
      "name": "setStorage",
      "outputs": [],
      "payable": false,
      "stateMutability": "nonpayable",
      "type": "function"
    },
    {
      "constant": true,
      "inputs": [],
      "name": "store",
      "outputs": [
        {
          "internalType": "contract Storage",
          "name": "",
          "type": "address"
        }
      ],
      "payable": false,
      "stateMutability": "view",
      "type": "function"
    },
    {
      "constant": true,
      "inputs": [],
      "name": "targetToken",
      "outputs": [
        {
          "internalType": "address",
          "name": "",
          "type": "address"
        }
      ],
      "payable": false,
      "stateMutability": "view",
      "type": "function"
    },
    {
      "constant": true,
      "inputs": [],
      "name": "uniswapRouterV2",
      "outputs": [
        {
          "internalType": "address",
          "name": "",
          "type": "address"
        }
      ],
      "payable": false,
      "stateMutability": "view",
      "type": "function"
    },
    {
      "constant": true,
      "inputs": [
        {
          "internalType": "address",
          "name": "",
          "type": "address"
        },
        {
          "internalType": "address",
          "name": "",
          "type": "address"
        },
        {
          "internalType": "uint256",
          "name": "",
          "type": "uint256"
        }
      ],
      "name": "uniswapRoutes",
      "outputs": [
        {
          "internalType": "address",
          "name": "",
          "type": "address"
        }
      ],
      "payable": false,
      "stateMutability": "view",
      "type": "function"
    },
    {
      "constant": true,
      "inputs": [],
      "name": "weth",
      "outputs": [
        {
          "internalType": "address",
          "name": "",
          "type": "address"
        }
      ],
      "payable": false,
      "stateMutability": "view",
      "type": "function"
    },
    {
      "constant": true,
      "inputs": [],
      "name": "ycrv",
      "outputs": [
        {
          "internalType": "address",
          "name": "",
          "type": "address"
        }
      ],
      "payable": false,
      "stateMutability": "view",
      "type": "function"
    },
    {
      "constant": true,
      "inputs": [],
      "name": "yfi",
      "outputs": [
        {
          "internalType": "address",
          "name": "",
          "type": "address"
        }
      ],
      "payable": false,
      "stateMutability": "view",
      "type": "function"
    },
    {
      "constant": false,
      "inputs": [
        {
          "internalType": "address",
          "name": "_pool",
          "type": "address"
        }
      ],
      "name": "setTokenPool",
      "outputs": [],
      "payable": false,
      "stateMutability": "nonpayable",
      "type": "function"
    },
    {
      "constant": false,
      "inputs": [
        {
          "internalType": "address",
          "name": "from",
          "type": "address"
        },
        {
          "internalType": "address",
          "name": "to",
          "type": "address"
        },
        {
          "internalType": "address[]",
          "name": "_uniswapRoute",
          "type": "address[]"
        }
      ],
      "name": "setConversionPath",
      "outputs": [],
      "payable": false,
      "stateMutability": "nonpayable",
      "type": "function"
    },
    {
      "constant": false,
      "inputs": [
        {
          "internalType": "address",
          "name": "_token",
          "type": "address"
        },
        {
          "internalType": "uint256",
          "name": "_amount",
          "type": "uint256"
        }
      ],
      "name": "poolNotifyFixedTarget",
      "outputs": [],
      "payable": false,
      "stateMutability": "nonpayable",
      "type": "function"
    }
  ],
  "bytecode": "0x60806040523480156200001157600080fd5b50604051620016f4380380620016f4833981810160405260408110156200003757600080fd5b508051602090910151816001600160a01b0381166200009d576040805162461bcd60e51b815260206004820152601e60248201527f6e65772073746f726167652073686f756c646e277420626520656d7074790000604482015290519081900360640190fd5b600080546001600160a01b0319166001600160a01b0392831617905581166200010d576040805162461bcd60e51b815260206004820152601b60248201527f756e6973776170526f757465725632206e6f7420646566696e65640000000000604482015290519081900360640190fd5b600480546001600160a01b0319166001600160a01b0383161790556040805160608101825273df5e0e81dff6faf3a7e52ba697820c5e32d806a8815273c02aaa39b223fe8d0a0e5c4f27ead9083c756cc2602080830191909152736b175474e89094c44da98b954eedeac495271d0f9282018390526000929092527f43d2350ae41ab27626e09089a6fe6f993c772beed834d97ea0d50cc7e62a53f9909152620001db907f66315ded359fef4bf491202aa172f4d03caaa25be4080f78fe068425d469623b906003620003e3565b506040805160608101825273514910771af9ca656af840dff83e8264ecf986ca815273c02aaa39b223fe8d0a0e5c4f27ead9083c756cc2602080830191909152736b175474e89094c44da98b954eedeac495271d0f9282018390526000929092527fe89c7fdde16d73df52123eeeea029dc13aac79541c1e3f4a29a739e9dc0128c79091526200028f907f3fa3eb4f96df3b760fb42061cae810815ebff537a0981911e794199a31a55360906003620003e3565b506040805180820190915273c02aaa39b223fe8d0a0e5c4f27ead9083c756cc28152736b175474e89094c44da98b954eedeac495271d0f60208083018290526000919091527f49e349d4f386739afdf8e55db7675b584d46c3b2a603eef62554e21dc437b5db905262000326907f0204a3a640a053eba5a356a4d62b346ce50ffbc0b20fdce15e9ad73a7d8efc16906002620003e3565b5060408051606081018252730bc529c00c6401aef6d220be8c6ea1667f6ad93e815273c02aaa39b223fe8d0a0e5c4f27ead9083c756cc2602080830191909152736b175474e89094c44da98b954eedeac495271d0f9282018390526000929092527f42091f1481d9d568ab08dce0e8f3911898017e21906034ecd2118d2763b99d9c909152620003da907f568c901b9fc3fbb00bf20db091662e3bdbe66b8b42be940959245d475c3c9d17906003620003e3565b50505062000477565b8280548282559060005260206000209081019282156200043b579160200282015b828111156200043b57825182546001600160a01b0319166001600160a01b0390911617825560209092019160019091019062000404565b50620004499291506200044d565b5090565b6200047491905b80821115620004495780546001600160a01b031916815560010162000454565b90565b61126d80620004876000396000f3fe608060405234801561001057600080fd5b50600436106100e55760003560e01c80637764b4d211610097578063cdeb1ccd11610066578063cdeb1ccd14610274578063e310fa5d146102aa578063ec362d4a146102b2578063f4b9fa75146102ba576100e5565b80637764b4d2146101f4578063841af2441461021a5780639137c1a714610246578063975057e71461026c576100e5565b806317e3a3d5146100ea5780631c4695f41461010e578063327107f7146101165780633fc8cef31461011e57806340c8e2db14610126578063596fa9e3146101e45780635aa6e675146101ec575b600080fd5b6100f26102c2565b604080516001600160a01b039092168252519081900360200190f35b6100f26102da565b6100f26102f2565b6100f2610301565b6101e26004803603606081101561013c57600080fd5b6001600160a01b03823581169260208101359091169181019060608101604082013564010000000081111561017057600080fd5b82018360208201111561018257600080fd5b803590602001918460208302840111640100000000831117156101a457600080fd5b919080806020026020016040519081016040528093929190818152602001838360200280828437600092019190915250929550610319945050505050565b005b6100f26104d8565b6100f26104e7565b6101e26004803603602081101561020a57600080fd5b50356001600160a01b0316610568565b6101e26004803603604081101561023057600080fd5b506001600160a01b0381351690602001356106f2565b6101e26004803603602081101561025c57600080fd5b50356001600160a01b0316610b62565b6100f2610c98565b6100f26004803603606081101561028a57600080fd5b506001600160a01b03813581169160208101359091169060400135610ca7565b6100f2610ce9565b6100f2610d01565b6100f2610d10565b73df5e0e81dff6faf3a7e52ba697820c5e32d806a881565b73514910771af9ca656af840dff83e8264ecf986ca81565b6002546001600160a01b031681565b73c02aaa39b223fe8d0a0e5c4f27ead9083c756cc281565b600054604080516337b87c3960e21b815233600482015290516001600160a01b039092169163dee1f0e491602480820192602092909190829003018186803b15801561036457600080fd5b505afa158015610378573d6000803e3d6000fd5b505050506040513d602081101561038e57600080fd5b50516103d2576040805162461bcd60e51b815260206004820152600e60248201526d4e6f7420676f7665726e616e636560901b604482015290519081900360640190fd5b806000815181106103df57fe5b60200260200101516001600160a01b0316836001600160a01b0316146104365760405162461bcd60e51b815260040180806020018281038252603b815260200180611166603b913960400191505060405180910390fd5b8060018251038151811061044657fe5b60200260200101516001600160a01b0316826001600160a01b03161461049d5760405162461bcd60e51b81526004018080602001828103825260388152602001806111a16038913960400191505060405180910390fd5b6001600160a01b038084166000908152600160209081526040808320938616835292815291902082516104d2928401906110dc565b50505050565b6004546001600160a01b031681565b60008060009054906101000a90046001600160a01b03166001600160a01b0316635aa6e6756040518163ffffffff1660e01b815260040160206040518083038186803b15801561053657600080fd5b505afa15801561054a573d6000803e3d6000fd5b505050506040513d602081101561056057600080fd5b505190505b90565b600054604080516337b87c3960e21b815233600482015290516001600160a01b039092169163dee1f0e491602480820192602092909190829003018186803b1580156105b357600080fd5b505afa1580156105c7573d6000803e3d6000fd5b505050506040513d60208110156105dd57600080fd5b5051610621576040805162461bcd60e51b815260206004820152600e60248201526d4e6f7420676f7665726e616e636560901b604482015290519081900360640190fd5b806001600160a01b031663f7c618c16040518163ffffffff1660e01b815260040160206040518083038186803b15801561065a57600080fd5b505afa15801561066e573d6000803e3d6000fd5b505050506040513d602081101561068457600080fd5b5051600280546001600160a01b039283166001600160a01b031991821617918290556003805485851692168217905560408051929093168252602082015281517f250f0cc7fc2ed10e8df5e112b69b17c584e0a8b07f66ffe24a5d03e1731193ca929181900390910190a150565b6002546001600160a01b031661070757610b5e565b6002546001600160a01b03838116911614156107a95760035461073f906001600160a01b03848116913391168463ffffffff610d2816565b60035460408051633c6b16ab60e01b81526004810184905290516001600160a01b0390921691633c6b16ab9160248082019260009290919082900301818387803b15801561078c57600080fd5b505af11580156107a0573d6000803e3d6000fd5b50505050610b5e565b6001600160a01b0380831660009081526001602081815260408084206002549095168452939052919020541115610b5e576107f56001600160a01b03831633308463ffffffff610d2816565b604080516370a0823160e01b815230600482015290516000916001600160a01b038516916370a0823191602480820192602092909190829003018186803b15801561083f57600080fd5b505afa158015610853573d6000803e3d6000fd5b505050506040513d602081101561086957600080fd5b505160045490915061088f906001600160a01b038581169116600063ffffffff610d8216565b6004546108af906001600160a01b0385811691168363ffffffff610d8216565b600480546001600160a01b038581166000908152600160208181526040808420600254861685529091529182902091516338ed173960e01b8152948501868152602486018290523060648701819052426084880181905260a060448901908152855460a48a0181905296909716976338ed1739978a9795969593949293909160c401908690801561096957602002820191906000526020600020905b81546001600160a01b0316815260019091019060200180831161094b575b50509650505050505050600060405180830381600087803b15801561098d57600080fd5b505af11580156109a1573d6000803e3d6000fd5b505050506040513d6000823e601f3d908101601f1916820160405260208110156109ca57600080fd5b81019080805160405193929190846401000000008211156109ea57600080fd5b9083019060208201858111156109ff57600080fd5b8251866020820283011164010000000082111715610a1c57600080fd5b82525081516020918201928201910280838360005b83811015610a49578181015183820152602001610a31565b505050509190910160408181526002546370a0823160e01b83523060048401529051600097506001600160a01b0390911695506370a08231945060248083019450602093509091829003018186803b158015610aa457600080fd5b505afa158015610ab8573d6000803e3d6000fd5b505050506040513d6020811015610ace57600080fd5b5051600354600254919250610af6916001600160a01b0390811691168363ffffffff610e9a16565b60035460408051633c6b16ab60e01b81526004810184905290516001600160a01b0390921691633c6b16ab9160248082019260009290919082900301818387803b158015610b4357600080fd5b505af1158015610b57573d6000803e3d6000fd5b5050505050505b5050565b600054604080516337b87c3960e21b815233600482015290516001600160a01b039092169163dee1f0e491602480820192602092909190829003018186803b158015610bad57600080fd5b505afa158015610bc1573d6000803e3d6000fd5b505050506040513d6020811015610bd757600080fd5b5051610c1b576040805162461bcd60e51b815260206004820152600e60248201526d4e6f7420676f7665726e616e636560901b604482015290519081900360640190fd5b6001600160a01b038116610c76576040805162461bcd60e51b815260206004820152601e60248201527f6e65772073746f726167652073686f756c646e277420626520656d7074790000604482015290519081900360640190fd5b600080546001600160a01b0319166001600160a01b0392909216919091179055565b6000546001600160a01b031681565b60016020528260005260406000206020528160005260406000208181548110610ccc57fe5b6000918252602090912001546001600160a01b0316925083915050565b730bc529c00c6401aef6d220be8c6ea1667f6ad93e81565b6003546001600160a01b031681565b736b175474e89094c44da98b954eedeac495271d0f81565b604080516001600160a01b0385811660248301528416604482015260648082018490528251808303909101815260849091019091526020810180516001600160e01b03166323b872dd60e01b1790526104d2908590610ee8565b801580610e08575060408051636eb1769f60e11b81523060048201526001600160a01b03848116602483015291519185169163dd62ed3e91604480820192602092909190829003018186803b158015610dda57600080fd5b505afa158015610dee573d6000803e3d6000fd5b505050506040513d6020811015610e0457600080fd5b5051155b610e435760405162461bcd60e51b81526004018080602001828103825260368152602001806112036036913960400191505060405180910390fd5b604080516001600160a01b038416602482015260448082018490528251808303909101815260649091019091526020810180516001600160e01b031663095ea7b360e01b179052610e95908490610ee8565b505050565b604080516001600160a01b038416602482015260448082018490528251808303909101815260649091019091526020810180516001600160e01b031663a9059cbb60e01b179052610e959084905b610efa826001600160a01b03166110a0565b610f4b576040805162461bcd60e51b815260206004820152601f60248201527f5361666545524332303a2063616c6c20746f206e6f6e2d636f6e747261637400604482015290519081900360640190fd5b60006060836001600160a01b0316836040518082805190602001908083835b60208310610f895780518252601f199092019160209182019101610f6a565b6001836020036101000a0380198251168184511680821785525050505050509050019150506000604051808303816000865af19150503d8060008114610feb576040519150601f19603f3d011682016040523d82523d6000602084013e610ff0565b606091505b509150915081611047576040805162461bcd60e51b815260206004820181905260248201527f5361666545524332303a206c6f772d6c6576656c2063616c6c206661696c6564604482015290519081900360640190fd5b8051156104d25780806020019051602081101561106357600080fd5b50516104d25760405162461bcd60e51b815260040180806020018281038252602a8152602001806111d9602a913960400191505060405180910390fd5b6000813f7fc5d2460186f7233c927e7db2dcc703c0e500b653ca82273b7bfad8045d85a4708181148015906110d457508115155b949350505050565b828054828255906000526020600020908101928215611131579160200282015b8281111561113157825182546001600160a01b0319166001600160a01b039091161782556020909201916001909101906110fc565b5061113d929150611141565b5090565b61056591905b8082111561113d5780546001600160a01b031916815560010161114756fe54686520666972737420746f6b656e206f662074686520556e697377617020726f757465206d757374206265207468652066726f6d20746f6b656e546865206c61737420746f6b656e206f662074686520556e697377617020726f757465206d7573742062652074686520746f20746f6b656e5361666545524332303a204552433230206f7065726174696f6e20646964206e6f7420737563636565645361666545524332303a20617070726f76652066726f6d206e6f6e2d7a65726f20746f206e6f6e2d7a65726f20616c6c6f77616e6365a265627a7a723158207f0c594a5fc902d611709d4985010579c7c05511bf49db98a3c8e685ef43552e64736f6c63430005100032",
  "source": "pragma solidity 0.5.16;\n\nimport \"./Governable.sol\";\nimport \"@openzeppelin/contracts/token/ERC20/SafeERC20.sol\";\nimport \"@openzeppelin/contracts/token/ERC20/IERC20.sol\";\nimport \"./hardworkInterface/IRewardPool.sol\";\nimport \"./uniswap/interfaces/IUniswapV2Router02.sol\";\n\ncontract FeeRewardForwarder is Governable {\n  using SafeERC20 for IERC20;\n\n  address constant public ycrv = address(0xdF5e0e81Dff6FAF3A7e52BA697820c5e32D806A8);\n  address constant public weth = address(0xC02aaA39b223FE8D0A0e5C4F27eAD9083C756Cc2);\n  address constant public dai = address(0x6B175474E89094C44Da98b954EedeAC495271d0F);\n  address constant public yfi = address(0x0bc529c00C6401aEF6D220BE8C6Ea1667F6Ad93e);\n  address constant public link = address(0x514910771AF9Ca656af840dff83E8264EcF986CA);\n\n  mapping (address => mapping (address => address[])) public uniswapRoutes;\n\n  // the targeted reward token to convert everything to\n  address public targetToken;\n  address public profitSharingPool;\n\n  address public uniswapRouterV2;\n\n  event TokenPoolSet(address token, address pool);\n\n  constructor(address _storage, address _uniswapRouterV2) public Governable(_storage) {\n    require(_uniswapRouterV2 != address(0), \"uniswapRouterV2 not defined\");\n    uniswapRouterV2 = _uniswapRouterV2;\n    // these are for mainnet, but they won't impact Ropsten\n    uniswapRoutes[ycrv][dai] = [ycrv, weth, dai];\n    uniswapRoutes[link][dai] = [link, weth, dai];\n    uniswapRoutes[weth][dai] = [weth, dai];\n    uniswapRoutes[yfi][dai] = [yfi, weth, dai];\n  }\n\n  /*\n  *   Set the pool that will receive the reward token\n  *   based on the address of the reward Token\n  */\n  function setTokenPool(address _pool) public onlyGovernance {\n    targetToken = IRewardPool(_pool).rewardToken();\n    profitSharingPool = _pool;\n    emit TokenPoolSet(targetToken, _pool);\n  }\n\n  /**\n  * Sets the path for swapping tokens to the to address\n  * The to address is not validated to match the targetToken,\n  * so that we could first update the paths, and then,\n  * set the new target\n  */\n  function setConversionPath(address from, address to, address[] memory _uniswapRoute)\n  public onlyGovernance {\n    require(from == _uniswapRoute[0],\n      \"The first token of the Uniswap route must be the from token\");\n    require(to == _uniswapRoute[_uniswapRoute.length - 1],\n      \"The last token of the Uniswap route must be the to token\");\n    uniswapRoutes[from][to] = _uniswapRoute;\n  }\n\n  // Transfers the funds from the msg.sender to the pool\n  // under normal circumstances, msg.sender is the strategy\n  function poolNotifyFixedTarget(address _token, uint256 _amount) external {\n    if (targetToken == address(0)) {\n      return; // a No-op if target pool is not set yet\n    }\n    if (_token == targetToken) {\n      // this is already the right token\n      IERC20(_token).safeTransferFrom(msg.sender, profitSharingPool, _amount);\n      IRewardPool(profitSharingPool).notifyRewardAmount(_amount);\n    } else {\n      // we need to convert\n      if (uniswapRoutes[_token][targetToken].length > 1) {\n        IERC20(_token).safeTransferFrom(msg.sender, address(this), _amount);\n        uint256 balanceToSwap = IERC20(_token).balanceOf(address(this));\n\n        IERC20(_token).safeApprove(uniswapRouterV2, 0);\n        IERC20(_token).safeApprove(uniswapRouterV2, balanceToSwap);\n\n        IUniswapV2Router02(uniswapRouterV2).swapExactTokensForTokens(\n          balanceToSwap,\n          1, // we will accept any amount\n          uniswapRoutes[_token][targetToken],\n          address(this),\n          block.timestamp\n        );\n        // now we can send this token forward\n        uint256 convertedRewardAmount = IERC20(targetToken).balanceOf(address(this));\n        IERC20(targetToken).safeTransfer(profitSharingPool, convertedRewardAmount);\n        IRewardPool(profitSharingPool).notifyRewardAmount(convertedRewardAmount);\n      }\n      // else the route does not exist for this token\n      // do not take any fees - leave them in the controller\n    }\n  }\n}\n",
  "sourcePath": "/home/jawaher/tmp/harvest/contracts/FeeRewardForwarder.sol",
  "compiler": {
    "name": "solc",
    "version": "0.5.16+commit.9c3226ce.Emscripten.clang"
  },
  "schemaVersion": "3.2.5",
  "updatedAt": "2020-11-18T14:21:44.284Z",
  "networkType": "ethereum",
  "devdoc": {
    "methods": {}
  },
  "userdoc": {
    "methods": {
      "setConversionPath(address,address,address[])": {
        "notice": "Sets the path for swapping tokens to the to address The to address is not validated to match the targetToken, so that we could first update the paths, and then, set the new target"
      }
    }
  }
}