{
  "contractName": "HardRewards",
  "abi": [
    {
      "inputs": [
        {
          "internalType": "address",
          "name": "_storage",
          "type": "address"
        },
        {
          "internalType": "address",
          "name": "_token",
          "type": "address"
        }
      ],
      "payable": false,
      "stateMutability": "nonpayable",
      "type": "constructor"
    },
    {
      "anonymous": false,
      "inputs": [
        {
          "indexed": true,
          "internalType": "address",
          "name": "recipient",
          "type": "address"
        },
        {
          "indexed": true,
          "internalType": "address",
          "name": "vault",
          "type": "address"
        },
        {
          "indexed": false,
          "internalType": "uint256",
          "name": "amount",
          "type": "uint256"
        }
      ],
      "name": "Rewarded",
      "type": "event"
    },
    {
      "constant": true,
      "inputs": [],
      "name": "blockReward",
      "outputs": [
        {
          "internalType": "uint256",
          "name": "",
          "type": "uint256"
        }
      ],
      "payable": false,
      "stateMutability": "view",
      "type": "function"
    },
    {
      "constant": true,
      "inputs": [],
      "name": "controller",
      "outputs": [
        {
          "internalType": "address",
          "name": "",
          "type": "address"
        }
      ],
      "payable": false,
      "stateMutability": "view",
      "type": "function"
    },
    {
      "constant": true,
      "inputs": [],
      "name": "governance",
      "outputs": [
        {
          "internalType": "address",
          "name": "",
          "type": "address"
        }
      ],
      "payable": false,
      "stateMutability": "view",
      "type": "function"
    },
    {
      "constant": true,
      "inputs": [
        {
          "internalType": "address",
          "name": "",
          "type": "address"
        }
      ],
      "name": "lastReward",
      "outputs": [
        {
          "internalType": "uint256",
          "name": "",
          "type": "uint256"
        }
      ],
      "payable": false,
      "stateMutability": "view",
      "type": "function"
    },
    {
      "constant": false,
      "inputs": [
        {
          "internalType": "address",
          "name": "_store",
          "type": "address"
        }
      ],
      "name": "setStorage",
      "outputs": [],
      "payable": false,
      "stateMutability": "nonpayable",
      "type": "function"
    },
    {
      "constant": true,
      "inputs": [],
      "name": "store",
      "outputs": [
        {
          "internalType": "contract Storage",
          "name": "",
          "type": "address"
        }
      ],
      "payable": false,
      "stateMutability": "view",
      "type": "function"
    },
    {
      "constant": true,
      "inputs": [],
      "name": "token",
      "outputs": [
        {
          "internalType": "contract IERC20",
          "name": "",
          "type": "address"
        }
      ],
      "payable": false,
      "stateMutability": "view",
      "type": "function"
    },
    {
      "constant": false,
      "inputs": [
        {
          "internalType": "address",
          "name": "recipient",
          "type": "address"
        },
        {
          "internalType": "address",
          "name": "vault",
          "type": "address"
        }
      ],
      "name": "rewardMe",
      "outputs": [],
      "payable": false,
      "stateMutability": "nonpayable",
      "type": "function"
    },
    {
      "constant": false,
      "inputs": [
        {
          "internalType": "address",
          "name": "_vault",
          "type": "address"
        }
      ],
      "name": "addVault",
      "outputs": [],
      "payable": false,
      "stateMutability": "nonpayable",
      "type": "function"
    },
    {
      "constant": false,
      "inputs": [
        {
          "internalType": "address",
          "name": "_vault",
          "type": "address"
        }
      ],
      "name": "removeVault",
      "outputs": [],
      "payable": false,
      "stateMutability": "nonpayable",
      "type": "function"
    },
    {
      "constant": false,
      "inputs": [
        {
          "internalType": "address",
          "name": "_token",
          "type": "address"
        },
        {
          "internalType": "uint256",
          "name": "_rate",
          "type": "uint256"
        },
        {
          "internalType": "uint256",
          "name": "_amount",
          "type": "uint256"
        }
      ],
      "name": "load",
      "outputs": [],
      "payable": false,
      "stateMutability": "nonpayable",
      "type": "function"
    }
  ],
  "bytecode": "0x608060405234801561001057600080fd5b50604051610f59380380610f598339818101604052604081101561003357600080fd5b50805160209091015181806001600160a01b038116610099576040805162461bcd60e51b815260206004820152601e60248201527f6e65772073746f726167652073686f756c646e277420626520656d7074790000604482015290519081900360640190fd5b600080546001600160a01b039283166001600160a01b03199182161790915560018054949092169316929092179091555050610e7f806100da6000396000f3fe608060405234801561001057600080fd5b50600436106100a95760003560e01c80639137c1a7116100715780639137c1a714610174578063975057e71461019a578063b2158cd3146101a2578063ceb68c23146101c8578063f77c4791146101ee578063fc0c546a146101f6576100a9565b80630a92802c146100ae5780630ac168a1146100e2578063256b5a02146100fc57806333b54be1146101225780635aa6e67514610150575b600080fd5b6100e0600480360360608110156100c457600080fd5b506001600160a01b0381351690602081013590604001356101fe565b005b6100ea610314565b60408051918252519081900360200190f35b6100e06004803603602081101561011257600080fd5b50356001600160a01b031661031a565b6100e06004803603604081101561013857600080fd5b506001600160a01b03813581169160200135166103ef565b6101586106fa565b604080516001600160a01b039092168252519081900360200190f35b6100e06004803603602081101561018a57600080fd5b50356001600160a01b031661077a565b6101586108b0565b6100ea600480360360208110156101b857600080fd5b50356001600160a01b03166108bf565b6100e0600480360360208110156101de57600080fd5b50356001600160a01b03166108d1565b6101586109a4565b6101586109f3565b600054604080516337b87c3960e21b815233600482015290516001600160a01b039092169163dee1f0e491602480820192602092909190829003018186803b15801561024957600080fd5b505afa15801561025d573d6000803e3d6000fd5b505050506040513d602081101561027357600080fd5b50516102b7576040805162461bcd60e51b815260206004820152600e60248201526d4e6f7420676f7665726e616e636560901b604482015290519081900360640190fd5b600180546001600160a01b0319166001600160a01b038581169190911791829055600284905516158015906102ec5750600081115b1561030f5760015461030f906001600160a01b031633308463ffffffff610a0216565b505050565b60025481565b600054604080516337b87c3960e21b815233600482015290516001600160a01b039092169163dee1f0e491602480820192602092909190829003018186803b15801561036557600080fd5b505afa158015610379573d6000803e3d6000fd5b505050506040513d602081101561038f57600080fd5b50516103d3576040805162461bcd60e51b815260206004820152600e60248201526d4e6f7420676f7665726e616e636560901b604482015290519081900360640190fd5b6001600160a01b03166000908152600360205260409020439055565b6000546040805163b429afeb60e01b815233600482015290516001600160a01b039092169163b429afeb91602480820192602092909190829003018186803b15801561043a57600080fd5b505afa15801561044e573d6000803e3d6000fd5b505050506040513d602081101561046457600080fd5b50516104aa576040805162461bcd60e51b815260206004820152601060248201526f2737ba10309031b7b73a3937b63632b960811b604482015290519081900360640190fd5b6001546001600160a01b031615806104c25750600254155b1561050657806001600160a01b0316826001600160a01b0316600080516020610de083398151915260006040518082815260200191505060405180910390a36106f6565b6001600160a01b03811660009081526003602052604090205461056257806001600160a01b0316826001600160a01b0316600080516020610de083398151915260006040518082815260200191505060405180910390a36106f6565b6001600160a01b03811660009081526003602052604081205461058c90439063ffffffff610a6216565b905060006105a582600254610aad90919063ffffffff16565b9050801561069d57600154604080516370a0823160e01b815230600482015290516000926001600160a01b0316916370a08231916024808301926020929190829003018186803b1580156105f857600080fd5b505afa15801561060c573d6000803e3d6000fd5b505050506040513d602081101561062257600080fd5b505190506000828210156106365781610638565b825b9050801561065d5760015461065d906001600160a01b0316878363ffffffff610b0616565b846001600160a01b0316866001600160a01b0316600080516020610de0833981519152836040518082815260200191505060405180910390a350506106d8565b826001600160a01b0316846001600160a01b0316600080516020610de083398151915260006040518082815260200191505060405180910390a35b50506001600160a01b03811660009081526003602052604090204390555b5050565b60008060009054906101000a90046001600160a01b03166001600160a01b0316635aa6e6756040518163ffffffff1660e01b815260040160206040518083038186803b15801561074957600080fd5b505afa15801561075d573d6000803e3d6000fd5b505050506040513d602081101561077357600080fd5b5051905090565b600054604080516337b87c3960e21b815233600482015290516001600160a01b039092169163dee1f0e491602480820192602092909190829003018186803b1580156107c557600080fd5b505afa1580156107d9573d6000803e3d6000fd5b505050506040513d60208110156107ef57600080fd5b5051610833576040805162461bcd60e51b815260206004820152600e60248201526d4e6f7420676f7665726e616e636560901b604482015290519081900360640190fd5b6001600160a01b03811661088e576040805162461bcd60e51b815260206004820152601e60248201527f6e65772073746f726167652073686f756c646e277420626520656d7074790000604482015290519081900360640190fd5b600080546001600160a01b0319166001600160a01b0392909216919091179055565b6000546001600160a01b031681565b60036020526000908152604090205481565b600054604080516337b87c3960e21b815233600482015290516001600160a01b039092169163dee1f0e491602480820192602092909190829003018186803b15801561091c57600080fd5b505afa158015610930573d6000803e3d6000fd5b505050506040513d602081101561094657600080fd5b505161098a576040805162461bcd60e51b815260206004820152600e60248201526d4e6f7420676f7665726e616e636560901b604482015290519081900360640190fd5b6001600160a01b0316600090815260036020526040812055565b60008060009054906101000a90046001600160a01b03166001600160a01b031663f77c47916040518163ffffffff1660e01b815260040160206040518083038186803b15801561074957600080fd5b6001546001600160a01b031681565b604080516001600160a01b0385811660248301528416604482015260648082018490528251808303909101815260849091019091526020810180516001600160e01b03166323b872dd60e01b179052610a5c908590610b54565b50505050565b6000610aa483836040518060400160405280601e81526020017f536166654d6174683a207375627472616374696f6e206f766572666c6f770000815250610d0c565b90505b92915050565b600082610abc57506000610aa7565b82820282848281610ac957fe5b0414610aa45760405162461bcd60e51b8152600401808060200182810382526021815260200180610e006021913960400191505060405180910390fd5b604080516001600160a01b038416602482015260448082018490528251808303909101815260649091019091526020810180516001600160e01b031663a9059cbb60e01b17905261030f9084905b610b66826001600160a01b0316610da3565b610bb7576040805162461bcd60e51b815260206004820152601f60248201527f5361666545524332303a2063616c6c20746f206e6f6e2d636f6e747261637400604482015290519081900360640190fd5b60006060836001600160a01b0316836040518082805190602001908083835b60208310610bf55780518252601f199092019160209182019101610bd6565b6001836020036101000a0380198251168184511680821785525050505050509050019150506000604051808303816000865af19150503d8060008114610c57576040519150601f19603f3d011682016040523d82523d6000602084013e610c5c565b606091505b509150915081610cb3576040805162461bcd60e51b815260206004820181905260248201527f5361666545524332303a206c6f772d6c6576656c2063616c6c206661696c6564604482015290519081900360640190fd5b805115610a5c57808060200190516020811015610ccf57600080fd5b5051610a5c5760405162461bcd60e51b815260040180806020018281038252602a815260200180610e21602a913960400191505060405180910390fd5b60008184841115610d9b5760405162461bcd60e51b81526004018080602001828103825283818151815260200191508051906020019080838360005b83811015610d60578181015183820152602001610d48565b50505050905090810190601f168015610d8d5780820380516001836020036101000a031916815260200191505b509250505060405180910390fd5b505050900390565b6000813f7fc5d2460186f7233c927e7db2dcc703c0e500b653ca82273b7bfad8045d85a470818114801590610dd757508115155b94935050505056fe6876a213a761d9b4f8d7ba3609528ef85da671684271f75fdacb41be8db29f45536166654d6174683a206d756c7469706c69636174696f6e206f766572666c6f775361666545524332303a204552433230206f7065726174696f6e20646964206e6f742073756363656564a265627a7a72315820f9401dc92deb22107e5781de702a3ed7977e69a7aa8d686cdeac06f8a8754ed664736f6c63430005100032",
  "source": "pragma solidity 0.5.16;\n\nimport \"@openzeppelin/contracts/math/SafeMath.sol\";\nimport \"@openzeppelin/contracts/token/ERC20/SafeERC20.sol\";\nimport \"./Governable.sol\";\nimport \"./Controllable.sol\";\n\ncontract HardRewards is Controllable {\n\n  using SafeMath for uint256;\n  using SafeERC20 for IERC20;\n\n  event Rewarded(address indexed recipient, address indexed vault, uint256 amount);\n\n  // token used for rewards\n  IERC20 public token;\n\n  // how many tokens per each block\n  uint256 public blockReward;\n\n  // vault to the last rewarded block\n  mapping(address => uint256) public lastReward;\n\n  constructor(address _storage, address _token)\n  Controllable(_storage) public {\n    token = IERC20(_token);\n  }\n\n  /**\n  * Called from the controller after hard work has been done. Defensively avoid\n  * reverting the transaction in this function.\n  */\n  function rewardMe(address recipient, address vault) external onlyController {\n    if (address(token) == address(0) || blockReward == 0) {\n      // no rewards now\n      emit Rewarded(recipient, vault, 0);\n      return;\n    }\n\n    if (lastReward[vault] == 0) {\n      // vault does not exist\n      emit Rewarded(recipient, vault, 0);\n      return;\n    }\n\n    uint256 span = block.number.sub(lastReward[vault]);\n    uint256 reward = blockReward.mul(span);\n\n    if (reward > 0) {\n      uint256 balance = token.balanceOf(address(this));\n      uint256 realReward = balance >= reward ? reward : balance;\n      if (realReward > 0) {\n        token.safeTransfer(recipient, realReward);\n      }\n      emit Rewarded(recipient, vault, realReward);\n    } else {\n      emit Rewarded(recipient, vault, 0);\n    }\n    lastReward[vault] = block.number;\n  }\n\n  function addVault(address _vault) external onlyGovernance {\n    lastReward[_vault] = block.number;\n  }\n\n  function removeVault(address _vault) external onlyGovernance {\n    delete (lastReward[_vault]);\n  }\n\n  /**\n  * Transfers tokens for the new rewards cycle. Allows for changing the rewards setting\n  * at the same time.\n  */\n  function load(address _token, uint256 _rate, uint256 _amount) external onlyGovernance {\n    token = IERC20(_token);\n    blockReward = _rate;\n    if (address(token) != address(0) && _amount > 0) {\n      token.safeTransferFrom(msg.sender, address(this), _amount);\n    }\n  }\n}\n",
  "sourcePath": "/home/jawaher/tmp/harvest/contracts/HardRewards.sol",
  "compiler": {
    "name": "solc",
    "version": "0.5.16+commit.9c3226ce.Emscripten.clang"
  },
  "schemaVersion": "3.2.5",
  "updatedAt": "2020-10-19T08:25:32.106Z",
  "devdoc": {
    "methods": {}
  },
  "userdoc": {
    "methods": {
      "load(address,uint256,uint256)": {
        "notice": "Transfers tokens for the new rewards cycle. Allows for changing the rewards setting at the same time."
      },
      "rewardMe(address,address)": {
        "notice": "Called from the controller after hard work has been done. Defensively avoid reverting the transaction in this function."
      }
    }
  }
}