{
  "contractName": "LossStrategy",
  "abi": [
    {
      "inputs": [
        {
          "internalType": "address",
          "name": "_storage",
          "type": "address"
        },
        {
          "internalType": "address",
          "name": "_underlying",
          "type": "address"
        },
        {
          "internalType": "address",
          "name": "_vault",
          "type": "address"
        }
      ],
      "payable": false,
      "stateMutability": "nonpayable",
      "type": "constructor"
    },
    {
      "constant": true,
      "inputs": [],
      "name": "balance",
      "outputs": [
        {
          "internalType": "uint256",
          "name": "",
          "type": "uint256"
        }
      ],
      "payable": false,
      "stateMutability": "view",
      "type": "function"
    },
    {
      "constant": true,
      "inputs": [],
      "name": "controller",
      "outputs": [
        {
          "internalType": "address",
          "name": "",
          "type": "address"
        }
      ],
      "payable": false,
      "stateMutability": "view",
      "type": "function"
    },
    {
      "constant": true,
      "inputs": [],
      "name": "governance",
      "outputs": [
        {
          "internalType": "address",
          "name": "",
          "type": "address"
        }
      ],
      "payable": false,
      "stateMutability": "view",
      "type": "function"
    },
    {
      "constant": false,
      "inputs": [
        {
          "internalType": "address",
          "name": "_store",
          "type": "address"
        }
      ],
      "name": "setStorage",
      "outputs": [],
      "payable": false,
      "stateMutability": "nonpayable",
      "type": "function"
    },
    {
      "constant": true,
      "inputs": [],
      "name": "store",
      "outputs": [
        {
          "internalType": "contract Storage",
          "name": "",
          "type": "address"
        }
      ],
      "payable": false,
      "stateMutability": "view",
      "type": "function"
    },
    {
      "constant": true,
      "inputs": [],
      "name": "underlying",
      "outputs": [
        {
          "internalType": "contract IERC20",
          "name": "",
          "type": "address"
        }
      ],
      "payable": false,
      "stateMutability": "view",
      "type": "function"
    },
    {
      "constant": true,
      "inputs": [
        {
          "internalType": "address",
          "name": "",
          "type": "address"
        }
      ],
      "name": "unsalvagableTokens",
      "outputs": [
        {
          "internalType": "bool",
          "name": "",
          "type": "bool"
        }
      ],
      "payable": false,
      "stateMutability": "view",
      "type": "function"
    },
    {
      "constant": true,
      "inputs": [],
      "name": "vault",
      "outputs": [
        {
          "internalType": "contract IVault",
          "name": "",
          "type": "address"
        }
      ],
      "payable": false,
      "stateMutability": "view",
      "type": "function"
    },
    {
      "constant": true,
      "inputs": [],
      "name": "depositArbCheck",
      "outputs": [
        {
          "internalType": "bool",
          "name": "",
          "type": "bool"
        }
      ],
      "payable": false,
      "stateMutability": "view",
      "type": "function"
    },
    {
      "constant": true,
      "inputs": [],
      "name": "investedUnderlyingBalance",
      "outputs": [
        {
          "internalType": "uint256",
          "name": "",
          "type": "uint256"
        }
      ],
      "payable": false,
      "stateMutability": "view",
      "type": "function"
    },
    {
      "constant": false,
      "inputs": [],
      "name": "investAllUnderlying",
      "outputs": [],
      "payable": false,
      "stateMutability": "nonpayable",
      "type": "function"
    },
    {
      "constant": false,
      "inputs": [],
      "name": "withdrawAllToVault",
      "outputs": [],
      "payable": false,
      "stateMutability": "nonpayable",
      "type": "function"
    },
    {
      "constant": false,
      "inputs": [
        {
          "internalType": "uint256",
          "name": "amount",
          "type": "uint256"
        }
      ],
      "name": "withdrawToVault",
      "outputs": [],
      "payable": false,
      "stateMutability": "nonpayable",
      "type": "function"
    },
    {
      "constant": false,
      "inputs": [],
      "name": "doHardWork",
      "outputs": [],
      "payable": false,
      "stateMutability": "nonpayable",
      "type": "function"
    },
    {
      "constant": false,
      "inputs": [
        {
          "internalType": "address",
          "name": "destination",
          "type": "address"
        },
        {
          "internalType": "address",
          "name": "token",
          "type": "address"
        },
        {
          "internalType": "uint256",
          "name": "amount",
          "type": "uint256"
        }
      ],
      "name": "salvage",
      "outputs": [],
      "payable": false,
      "stateMutability": "nonpayable",
      "type": "function"
    }
  ],
  "bytecode": "0x608060405234801561001057600080fd5b506040516110193803806110198339818101604052606081101561003357600080fd5b508051602082015160409092015190919082806001600160a01b0381166100a1576040805162461bcd60e51b815260206004820152601e60248201527f6e65772073746f726167652073686f756c646e277420626520656d7074790000604482015290519081900360640190fd5b600080546001600160a01b0319166001600160a01b03928316179055831615159050610114576040805162461bcd60e51b815260206004820152601b60248201527f5f756e6465726c79696e672063616e6e6f7420626520656d7074790000000000604482015290519081900360640190fd5b6001600160a01b03811661016f576040805162461bcd60e51b815260206004820152601660248201527f5f7661756c742063616e6e6f7420626520656d70747900000000000000000000604482015290519081900360640190fd5b600180546001600160a01b039384166001600160a01b0319918216179091556002805492909316911617905550610e6e806101ab6000396000f3fe608060405234801561001057600080fd5b50600436106100e55760003560e01c80639137c1a711610097578063c2a2a07b11610066578063c2a2a07b146101f0578063ce8c42e8146101f8578063f77c479114610215578063fbfa77cf1461021d576100e5565b80639137c1a7146101b2578063975057e7146101d8578063b69ef8a8146101e0578063bfd131f1146101e8576100e5565b80631113ef52146100ea57806345d01e4a146101225780634a8cfa691461013c5780634fa5d85414610144578063501859461461014c5780635aa6e675146101865780636f307dc3146101aa575b600080fd5b6101206004803603606081101561010057600080fd5b506001600160a01b03813581169160208101359091169060400135610225565b005b61012a6102ff565b60408051918252519081900360200190f35b61012061037b565b61012061052c565b6101726004803603602081101561016257600080fd5b50356001600160a01b0316610595565b604080519115158252519081900360200190f35b61018e6105aa565b604080516001600160a01b039092168252519081900360200190f35b61018e6105f9565b610120600480360360208110156101c857600080fd5b50356001600160a01b0316610608565b61018e61073e565b61012a61074d565b610120610753565b6101726108d3565b6101206004803603602081101561020e57600080fd5b50356108d8565b61018e6109b2565b61018e610a01565b6000546040805163b429afeb60e01b815233600482015290516001600160a01b039092169163b429afeb91602480820192602092909190829003018186803b15801561027057600080fd5b505afa158015610284573d6000803e3d6000fd5b505050506040513d602081101561029a57600080fd5b50516102e0576040805162461bcd60e51b815260206004820152601060248201526f2737ba10309031b7b73a3937b63632b960811b604482015290519081900360640190fd5b6102fa6001600160a01b038316848363ffffffff610a1016565b505050565b600154604080516370a0823160e01b815230600482015290516000926001600160a01b0316916370a08231916024808301926020929190829003018186803b15801561034a57600080fd5b505afa15801561035e573d6000803e3d6000fd5b505050506040513d602081101561037457600080fd5b5051905090565b600354600154604080516370a0823160e01b8152306004820152905160009361040a9390926001600160a01b03909116916370a0823191602480820192602092909190829003018186803b1580156103d257600080fd5b505afa1580156103e6573d6000803e3d6000fd5b505050506040513d60208110156103fc57600080fd5b50519063ffffffff610a6216565b600180549192506001600160a01b039091169063a9059cbb9061043484600a63ffffffff610aab16565b6040518363ffffffff1660e01b815260040180836001600160a01b03166001600160a01b0316815260200182815260200192505050602060405180830381600087803b15801561048357600080fd5b505af1158015610497573d6000803e3d6000fd5b505050506040513d60208110156104ad57600080fd5b5050600154604080516370a0823160e01b815230600482015290516001600160a01b03909216916370a0823191602480820192602092909190829003018186803b1580156104fa57600080fd5b505afa15801561050e573d6000803e3d6000fd5b505050506040513d602081101561052457600080fd5b505160035550565b6002546001600160a01b0316331461058b576040805162461bcd60e51b815260206004820152601c60248201527f5468652063616c6c6572206d75737420626520746865207661756c7400000000604482015290519081900360640190fd5b61059361037b565b565b60046020526000908152604090205460ff1681565b60008060009054906101000a90046001600160a01b03166001600160a01b0316635aa6e6756040518163ffffffff1660e01b815260040160206040518083038186803b15801561034a57600080fd5b6001546001600160a01b031681565b600054604080516337b87c3960e21b815233600482015290516001600160a01b039092169163dee1f0e491602480820192602092909190829003018186803b15801561065357600080fd5b505afa158015610667573d6000803e3d6000fd5b505050506040513d602081101561067d57600080fd5b50516106c1576040805162461bcd60e51b815260206004820152600e60248201526d4e6f7420676f7665726e616e636560901b604482015290519081900360640190fd5b6001600160a01b03811661071c576040805162461bcd60e51b815260206004820152601e60248201527f6e65772073746f726167652073686f756c646e277420626520656d7074790000604482015290519081900360640190fd5b600080546001600160a01b0319166001600160a01b0392909216919091179055565b6000546001600160a01b031681565b60035481565b6002546001600160a01b0316331480610784575061076f6109b2565b6001600160a01b0316336001600160a01b0316145b6107bf5760405162461bcd60e51b815260040180806020018281038252602c815260200180610de4602c913960400191505060405180910390fd5b600254600154604080516370a0823160e01b81523060048201529051610857936001600160a01b039081169316916370a08231916024808301926020929190829003018186803b15801561081257600080fd5b505afa158015610826573d6000803e3d6000fd5b505050506040513d602081101561083c57600080fd5b50516001546001600160a01b0316919063ffffffff610a1016565b600154604080516370a0823160e01b815230600482015290516001600160a01b03909216916370a0823191602480820192602092909190829003018186803b1580156108a257600080fd5b505afa1580156108b6573d6000803e3d6000fd5b505050506040513d60208110156108cc57600080fd5b5051600355565b600190565b6002546001600160a01b031633148061090957506108f46109b2565b6001600160a01b0316336001600160a01b0316145b6109445760405162461bcd60e51b815260040180806020018281038252602c815260200180610de4602c913960400191505060405180910390fd5b600254600154610967916001600160a01b0391821691168363ffffffff610a1016565b600154604080516370a0823160e01b815230600482015290516001600160a01b03909216916370a0823191602480820192602092909190829003018186803b1580156104fa57600080fd5b60008060009054906101000a90046001600160a01b03166001600160a01b031663f77c47916040518163ffffffff1660e01b815260040160206040518083038186803b15801561034a57600080fd5b6002546001600160a01b031681565b604080516001600160a01b038416602482015260448082018490528251808303909101815260649091019091526020810180516001600160e01b031663a9059cbb60e01b1790526102fa908490610aed565b6000610aa483836040518060400160405280601e81526020017f536166654d6174683a207375627472616374696f6e206f766572666c6f770000815250610cab565b9392505050565b6000610aa483836040518060400160405280601a81526020017f536166654d6174683a206469766973696f6e206279207a65726f000000000000815250610d42565b610aff826001600160a01b0316610da7565b610b50576040805162461bcd60e51b815260206004820152601f60248201527f5361666545524332303a2063616c6c20746f206e6f6e2d636f6e747261637400604482015290519081900360640190fd5b60006060836001600160a01b0316836040518082805190602001908083835b60208310610b8e5780518252601f199092019160209182019101610b6f565b6001836020036101000a0380198251168184511680821785525050505050509050019150506000604051808303816000865af19150503d8060008114610bf0576040519150601f19603f3d011682016040523d82523d6000602084013e610bf5565b606091505b509150915081610c4c576040805162461bcd60e51b815260206004820181905260248201527f5361666545524332303a206c6f772d6c6576656c2063616c6c206661696c6564604482015290519081900360640190fd5b805115610ca557808060200190516020811015610c6857600080fd5b5051610ca55760405162461bcd60e51b815260040180806020018281038252602a815260200180610e10602a913960400191505060405180910390fd5b50505050565b60008184841115610d3a5760405162461bcd60e51b81526004018080602001828103825283818151815260200191508051906020019080838360005b83811015610cff578181015183820152602001610ce7565b50505050905090810190601f168015610d2c5780820380516001836020036101000a031916815260200191505b509250505060405180910390fd5b505050900390565b60008183610d915760405162461bcd60e51b8152602060048201818152835160248401528351909283926044909101919085019080838360008315610cff578181015183820152602001610ce7565b506000838581610d9d57fe5b0495945050505050565b6000813f7fc5d2460186f7233c927e7db2dcc703c0e500b653ca82273b7bfad8045d85a470818114801590610ddb57508115155b94935050505056fe5468652073656e6465722068617320746f2062652074686520636f6e74726f6c6c6572206f72207661756c745361666545524332303a204552433230206f7065726174696f6e20646964206e6f742073756363656564a265627a7a723158209436ffa0f8ac99eaceca8527322076ccd313f85321ae1c9a65248378d877cc7264736f6c63430005100032",
  "source": "pragma solidity 0.5.16;\n\nimport \"@openzeppelin/contracts/token/ERC20/IERC20.sol\";\nimport \"@openzeppelin/contracts/utils/Address.sol\";\nimport \"@openzeppelin/contracts/math/SafeMath.sol\";\nimport \"@openzeppelin/contracts/token/ERC20/SafeERC20.sol\";\nimport \"../../hardworkInterface/IStrategy.sol\";\nimport \"../../hardworkInterface/IController.sol\";\nimport \"../../Controllable.sol\";\nimport \"../../Storage.sol\";\nimport \"../../hardworkInterface/IVault.sol\";\n\ncontract LossStrategy is IStrategy, Controllable {\n  using SafeERC20 for IERC20;\n  using Address for address;\n  using SafeMath for uint256;\n\n  IERC20 public underlying;\n  IVault public vault;\n  uint256 public balance;\n\n  // These tokens cannot be claimed by the controller\n  mapping (address => bool) public unsalvagableTokens;\n\n  constructor(address _storage, address _underlying, address _vault) public\n  Controllable(_storage) {\n    require(_underlying != address(0), \"_underlying cannot be empty\");\n    require(_vault != address(0), \"_vault cannot be empty\");\n    underlying = IERC20(_underlying);\n    vault = IVault(_vault);\n  }\n\n  function depositArbCheck() public view returns(bool) {\n    return true;\n  }\n\n  modifier onlyVault() {\n    require(msg.sender == address(vault), \"The caller must be the vault\");\n    _;\n  }\n\n  modifier restricted() {\n    require(msg.sender == address(vault) || msg.sender == address(controller()),\n      \"The sender has to be the controller or vault\");\n    _;\n  }\n\n  /*\n  * Returns the total invested amount.\n  */\n  function investedUnderlyingBalance() view public returns (uint256) {\n    // for real strategies, need to calculate the invested balance\n    return underlying.balanceOf(address(this));\n  }\n\n  /*\n  * Invests all tokens that were accumulated so far\n  */\n  function investAllUnderlying() public {\n    // get rid of 10% forever\n    uint256 contribution = underlying.balanceOf(address(this)).sub(balance);\n    underlying.transfer(address(1), contribution.div(10));\n    balance = underlying.balanceOf(address(this));\n  }\n\n  /*\n  * Cashes everything out and withdraws to the vault\n  */\n  function withdrawAllToVault() external restricted {\n    underlying.safeTransfer(address(vault), underlying.balanceOf(address(this)));\n    balance = underlying.balanceOf(address(this));\n  }\n\n  /*\n  * Cashes some amount out and withdraws to the vault\n  */\n  function withdrawToVault(uint256 amount) external restricted {\n    underlying.safeTransfer(address(vault), amount);\n    balance = underlying.balanceOf(address(this));\n  }\n\n  /*\n  * Honest harvesting. It's not much, but it pays off\n  */\n  function doHardWork() external onlyVault {\n    // a no-op\n    investAllUnderlying();\n  }\n\n  // should only be called by controller\n  function salvage(address destination, address token, uint256 amount) external onlyController {\n    IERC20(token).safeTransfer(destination, amount);\n  }\n}\n",
  "sourcePath": "/home/jawaher/tmp/harvest/contracts/test/strategies/LossStrategy.sol",
  "compiler": {
    "name": "solc",
    "version": "0.5.16+commit.9c3226ce.Emscripten.clang"
  },
  "schemaVersion": "3.2.5",
  "updatedAt": "2020-10-19T08:25:32.380Z",
  "devdoc": {
    "methods": {}
  },
  "userdoc": {
    "methods": {}
  }
}