{
  "contractName": "MockCUSDC",
  "abi": [
    {
      "inputs": [
        {
          "internalType": "address",
          "name": "_underlying",
          "type": "address"
        }
      ],
      "payable": false,
      "stateMutability": "nonpayable",
      "type": "constructor"
    },
    {
      "anonymous": false,
      "inputs": [
        {
          "indexed": true,
          "internalType": "address",
          "name": "owner",
          "type": "address"
        },
        {
          "indexed": true,
          "internalType": "address",
          "name": "spender",
          "type": "address"
        },
        {
          "indexed": false,
          "internalType": "uint256",
          "name": "value",
          "type": "uint256"
        }
      ],
      "name": "Approval",
      "type": "event"
    },
    {
      "anonymous": false,
      "inputs": [
        {
          "indexed": true,
          "internalType": "address",
          "name": "account",
          "type": "address"
        }
      ],
      "name": "MinterAdded",
      "type": "event"
    },
    {
      "anonymous": false,
      "inputs": [
        {
          "indexed": true,
          "internalType": "address",
          "name": "account",
          "type": "address"
        }
      ],
      "name": "MinterRemoved",
      "type": "event"
    },
    {
      "anonymous": false,
      "inputs": [
        {
          "indexed": true,
          "internalType": "address",
          "name": "from",
          "type": "address"
        },
        {
          "indexed": true,
          "internalType": "address",
          "name": "to",
          "type": "address"
        },
        {
          "indexed": false,
          "internalType": "uint256",
          "name": "value",
          "type": "uint256"
        }
      ],
      "name": "Transfer",
      "type": "event"
    },
    {
      "constant": false,
      "inputs": [
        {
          "internalType": "address",
          "name": "account",
          "type": "address"
        }
      ],
      "name": "addMinter",
      "outputs": [],
      "payable": false,
      "stateMutability": "nonpayable",
      "type": "function"
    },
    {
      "constant": true,
      "inputs": [
        {
          "internalType": "address",
          "name": "owner",
          "type": "address"
        },
        {
          "internalType": "address",
          "name": "spender",
          "type": "address"
        }
      ],
      "name": "allowance",
      "outputs": [
        {
          "internalType": "uint256",
          "name": "",
          "type": "uint256"
        }
      ],
      "payable": false,
      "stateMutability": "view",
      "type": "function"
    },
    {
      "constant": false,
      "inputs": [
        {
          "internalType": "address",
          "name": "spender",
          "type": "address"
        },
        {
          "internalType": "uint256",
          "name": "amount",
          "type": "uint256"
        }
      ],
      "name": "approve",
      "outputs": [
        {
          "internalType": "bool",
          "name": "",
          "type": "bool"
        }
      ],
      "payable": false,
      "stateMutability": "nonpayable",
      "type": "function"
    },
    {
      "constant": true,
      "inputs": [
        {
          "internalType": "address",
          "name": "account",
          "type": "address"
        }
      ],
      "name": "balanceOf",
      "outputs": [
        {
          "internalType": "uint256",
          "name": "",
          "type": "uint256"
        }
      ],
      "payable": false,
      "stateMutability": "view",
      "type": "function"
    },
    {
      "constant": true,
      "inputs": [],
      "name": "borrowDenom",
      "outputs": [
        {
          "internalType": "uint256",
          "name": "",
          "type": "uint256"
        }
      ],
      "payable": false,
      "stateMutability": "view",
      "type": "function"
    },
    {
      "constant": true,
      "inputs": [],
      "name": "borrowNum",
      "outputs": [
        {
          "internalType": "uint256",
          "name": "",
          "type": "uint256"
        }
      ],
      "payable": false,
      "stateMutability": "view",
      "type": "function"
    },
    {
      "constant": false,
      "inputs": [
        {
          "internalType": "uint256",
          "name": "amount",
          "type": "uint256"
        }
      ],
      "name": "burn",
      "outputs": [],
      "payable": false,
      "stateMutability": "nonpayable",
      "type": "function"
    },
    {
      "constant": false,
      "inputs": [
        {
          "internalType": "address",
          "name": "account",
          "type": "address"
        },
        {
          "internalType": "uint256",
          "name": "amount",
          "type": "uint256"
        }
      ],
      "name": "burnFrom",
      "outputs": [],
      "payable": false,
      "stateMutability": "nonpayable",
      "type": "function"
    },
    {
      "constant": false,
      "inputs": [
        {
          "internalType": "address",
          "name": "spender",
          "type": "address"
        },
        {
          "internalType": "uint256",
          "name": "subtractedValue",
          "type": "uint256"
        }
      ],
      "name": "decreaseAllowance",
      "outputs": [
        {
          "internalType": "bool",
          "name": "",
          "type": "bool"
        }
      ],
      "payable": false,
      "stateMutability": "nonpayable",
      "type": "function"
    },
    {
      "constant": false,
      "inputs": [
        {
          "internalType": "address",
          "name": "spender",
          "type": "address"
        },
        {
          "internalType": "uint256",
          "name": "addedValue",
          "type": "uint256"
        }
      ],
      "name": "increaseAllowance",
      "outputs": [
        {
          "internalType": "bool",
          "name": "",
          "type": "bool"
        }
      ],
      "payable": false,
      "stateMutability": "nonpayable",
      "type": "function"
    },
    {
      "constant": true,
      "inputs": [
        {
          "internalType": "address",
          "name": "account",
          "type": "address"
        }
      ],
      "name": "isMinter",
      "outputs": [
        {
          "internalType": "bool",
          "name": "",
          "type": "bool"
        }
      ],
      "payable": false,
      "stateMutability": "view",
      "type": "function"
    },
    {
      "constant": true,
      "inputs": [],
      "name": "ratioDenom",
      "outputs": [
        {
          "internalType": "uint256",
          "name": "",
          "type": "uint256"
        }
      ],
      "payable": false,
      "stateMutability": "view",
      "type": "function"
    },
    {
      "constant": true,
      "inputs": [],
      "name": "ratioNum",
      "outputs": [
        {
          "internalType": "uint256",
          "name": "",
          "type": "uint256"
        }
      ],
      "payable": false,
      "stateMutability": "view",
      "type": "function"
    },
    {
      "constant": false,
      "inputs": [],
      "name": "renounceMinter",
      "outputs": [],
      "payable": false,
      "stateMutability": "nonpayable",
      "type": "function"
    },
    {
      "constant": true,
      "inputs": [],
      "name": "supplyDenom",
      "outputs": [
        {
          "internalType": "uint256",
          "name": "",
          "type": "uint256"
        }
      ],
      "payable": false,
      "stateMutability": "view",
      "type": "function"
    },
    {
      "constant": true,
      "inputs": [],
      "name": "supplyNum",
      "outputs": [
        {
          "internalType": "uint256",
          "name": "",
          "type": "uint256"
        }
      ],
      "payable": false,
      "stateMutability": "view",
      "type": "function"
    },
    {
      "constant": true,
      "inputs": [],
      "name": "totalSupply",
      "outputs": [
        {
          "internalType": "uint256",
          "name": "",
          "type": "uint256"
        }
      ],
      "payable": false,
      "stateMutability": "view",
      "type": "function"
    },
    {
      "constant": false,
      "inputs": [
        {
          "internalType": "address",
          "name": "recipient",
          "type": "address"
        },
        {
          "internalType": "uint256",
          "name": "amount",
          "type": "uint256"
        }
      ],
      "name": "transfer",
      "outputs": [
        {
          "internalType": "bool",
          "name": "",
          "type": "bool"
        }
      ],
      "payable": false,
      "stateMutability": "nonpayable",
      "type": "function"
    },
    {
      "constant": false,
      "inputs": [
        {
          "internalType": "address",
          "name": "sender",
          "type": "address"
        },
        {
          "internalType": "address",
          "name": "recipient",
          "type": "address"
        },
        {
          "internalType": "uint256",
          "name": "amount",
          "type": "uint256"
        }
      ],
      "name": "transferFrom",
      "outputs": [
        {
          "internalType": "bool",
          "name": "",
          "type": "bool"
        }
      ],
      "payable": false,
      "stateMutability": "nonpayable",
      "type": "function"
    },
    {
      "constant": true,
      "inputs": [],
      "name": "underlying",
      "outputs": [
        {
          "internalType": "contract IERC20",
          "name": "",
          "type": "address"
        }
      ],
      "payable": false,
      "stateMutability": "view",
      "type": "function"
    },
    {
      "constant": false,
      "inputs": [
        {
          "internalType": "address",
          "name": "account",
          "type": "address"
        },
        {
          "internalType": "uint256",
          "name": "amount",
          "type": "uint256"
        }
      ],
      "name": "mint",
      "outputs": [
        {
          "internalType": "bool",
          "name": "",
          "type": "bool"
        }
      ],
      "payable": false,
      "stateMutability": "nonpayable",
      "type": "function"
    },
    {
      "constant": false,
      "inputs": [
        {
          "internalType": "uint256",
          "name": "amount",
          "type": "uint256"
        }
      ],
      "name": "mint",
      "outputs": [
        {
          "internalType": "uint256",
          "name": "",
          "type": "uint256"
        }
      ],
      "payable": false,
      "stateMutability": "nonpayable",
      "type": "function"
    },
    {
      "constant": false,
      "inputs": [
        {
          "internalType": "uint256",
          "name": "amount",
          "type": "uint256"
        }
      ],
      "name": "redeemUnderlying",
      "outputs": [
        {
          "internalType": "uint256",
          "name": "",
          "type": "uint256"
        }
      ],
      "payable": false,
      "stateMutability": "nonpayable",
      "type": "function"
    },
    {
      "constant": false,
      "inputs": [
        {
          "internalType": "uint256",
          "name": "amount",
          "type": "uint256"
        }
      ],
      "name": "borrow",
      "outputs": [
        {
          "internalType": "uint256",
          "name": "",
          "type": "uint256"
        }
      ],
      "payable": false,
      "stateMutability": "nonpayable",
      "type": "function"
    },
    {
      "constant": false,
      "inputs": [
        {
          "internalType": "uint256",
          "name": "amount",
          "type": "uint256"
        }
      ],
      "name": "repayBorrow",
      "outputs": [
        {
          "internalType": "uint256",
          "name": "",
          "type": "uint256"
        }
      ],
      "payable": false,
      "stateMutability": "nonpayable",
      "type": "function"
    },
    {
      "constant": false,
      "inputs": [
        {
          "internalType": "address",
          "name": "account",
          "type": "address"
        }
      ],
      "name": "balanceOfUnderlying",
      "outputs": [
        {
          "internalType": "uint256",
          "name": "",
          "type": "uint256"
        }
      ],
      "payable": false,
      "stateMutability": "nonpayable",
      "type": "function"
    },
    {
      "constant": false,
      "inputs": [
        {
          "internalType": "address",
          "name": "account",
          "type": "address"
        }
      ],
      "name": "borrowBalanceCurrent",
      "outputs": [
        {
          "internalType": "uint256",
          "name": "",
          "type": "uint256"
        }
      ],
      "payable": false,
      "stateMutability": "nonpayable",
      "type": "function"
    },
    {
      "constant": true,
      "inputs": [],
      "name": "getCash",
      "outputs": [
        {
          "internalType": "uint256",
          "name": "",
          "type": "uint256"
        }
      ],
      "payable": false,
      "stateMutability": "view",
      "type": "function"
    },
    {
      "constant": true,
      "inputs": [],
      "name": "totalBorrows",
      "outputs": [
        {
          "internalType": "uint256",
          "name": "",
          "type": "uint256"
        }
      ],
      "payable": false,
      "stateMutability": "view",
      "type": "function"
    },
    {
      "constant": true,
      "inputs": [],
      "name": "borrowRatePerBlock",
      "outputs": [
        {
          "internalType": "uint256",
          "name": "",
          "type": "uint256"
        }
      ],
      "payable": false,
      "stateMutability": "view",
      "type": "function"
    },
    {
      "constant": true,
      "inputs": [],
      "name": "supplyRatePerBlock",
      "outputs": [
        {
          "internalType": "uint256",
          "name": "",
          "type": "uint256"
        }
      ],
      "payable": false,
      "stateMutability": "view",
      "type": "function"
    },
    {
      "constant": true,
      "inputs": [],
      "name": "totalBorrowsCurrent",
      "outputs": [
        {
          "internalType": "uint256",
          "name": "",
          "type": "uint256"
        }
      ],
      "payable": false,
      "stateMutability": "view",
      "type": "function"
    }
  ],
  "bytecode": "0x60806040523480156200001157600080fd5b50604051620018d1380380620018d1833981810160405260208110156200003757600080fd5b50516200005f620000506001600160e01b036200008516565b6001600160e01b036200008916565b600480546001600160a01b0319166001600160a01b0392909216919091179055620001d1565b3390565b620000a4816003620000db60201b620013501790919060201c565b6040516001600160a01b038216907f6ae172837ea30b801fbfcdd4108aa1d5bf8ff775444fd70256b44e6bf3dfc3f690600090a250565b620000f082826001600160e01b036200016816565b1562000143576040805162461bcd60e51b815260206004820152601f60248201527f526f6c65733a206163636f756e7420616c72656164792068617320726f6c6500604482015290519081900360640190fd5b6001600160a01b0316600090815260209190915260409020805460ff19166001179055565b60006001600160a01b038216620001b15760405162461bcd60e51b8152600401808060200182810382526022815260200180620018af6022913960400191505060405180910390fd5b506001600160a01b03166000908152602091909152604090205460ff1690565b6116ce80620001e16000396000f3fe608060405234801561001057600080fd5b50600436106101f05760003560e01c806379cc67901161010f578063a9059cbb116100a2578063cc91dcbb11610071578063cc91dcbb14610516578063dd62ed3e1461051e578063df7facda14610235578063f8f9da281461054c576101f0565b8063a9059cbb1461049f578063aa271e1a146104cb578063ae9d70b0146104f1578063c5ebeaec146104f9576101f0565b806398650275116100de5780639865027514610446578063a0712d681461044e578063a457c2d71461046b578063a73c854b14610497576101f0565b806379cc6790146103cf578063852a12e3146103fb57806385d61e2a14610418578063983b2d5614610420576101f0565b80633af9e6691161018757806347bd37181161015657806347bd3718146103755780636f307dc31461037d57806370a08231146103a157806373acee98146103c7576101f0565b80633af9e669146102fc5780633b1d21a21461032257806340c10f191461032a57806342966c6814610356576101f0565b806318160ddd116101c357806318160ddd1461029257806323b872dd1461029a5780632a6d08be1461023557806339509351146102d0576101f0565b8063095ea7b3146101f55780630b3ff1cf146102355780630e7527021461024f57806317bfdfbc1461026c575b600080fd5b6102216004803603604081101561020b57600080fd5b506001600160a01b038135169060200135610554565b604080519115158252519081900360200190f35b61023d610572565b60408051918252519081900360200190f35b61023d6004803603602081101561026557600080fd5b5035610577565b61023d6004803603602081101561028257600080fd5b50356001600160a01b0316610639565b61023d610654565b610221600480360360608110156102b057600080fd5b506001600160a01b0381358116916020810135909116906040013561065a565b610221600480360360408110156102e657600080fd5b506001600160a01b0381351690602001356106e7565b61023d6004803603602081101561031257600080fd5b50356001600160a01b031661073b565b61023d610746565b6102216004803603604081101561034057600080fd5b506001600160a01b038135169060200135610750565b6103736004803603602081101561036c57600080fd5b50356107a7565b005b61023d6107bb565b6103856107c5565b604080516001600160a01b039092168252519081900360200190f35b61023d600480360360208110156103b757600080fd5b50356001600160a01b03166107d4565b61023d6107ef565b610373600480360360408110156103e557600080fd5b506001600160a01b0381351690602001356107f8565b61023d6004803603602081101561041157600080fd5b5035610806565b61023d61089a565b6103736004803603602081101561043657600080fd5b50356001600160a01b031661089f565b6103736108ee565b61023d6004803603602081101561046457600080fd5b5035610900565b6102216004803603604081101561048157600080fd5b506001600160a01b0381351690602001356109cd565b61023d610a3b565b610221600480360360408110156104b557600080fd5b506001600160a01b038135169060200135610a40565b610221600480360360208110156104e157600080fd5b50356001600160a01b0316610a54565b61023d610a67565b61023d6004803603602081101561050f57600080fd5b5035610a70565b61023d610bbf565b61023d6004803603604081101561053457600080fd5b506001600160a01b0381358116916020013516610bc4565b61023d610bef565b6000610568610561610bf8565b8484610bfc565b5060015b92915050565b606481565b60048054604080516323b872dd60e01b8152339381019390935230602484015260448301849052516000926001600160a01b03909216916323b872dd91606480830192602092919082900301818787803b1580156105d457600080fd5b505af11580156105e8573d6000803e3d6000fd5b505050506040513d60208110156105fe57600080fd5b505033600090815260056020526040902054610620908363ffffffff610ce816565b3360009081526005602052604081209190915592915050565b6001600160a01b031660009081526005602052604090205490565b60025490565b6000610667848484610d31565b6106dd84610673610bf8565b6106d88560405180606001604052806028815260200161159d602891396001600160a01b038a166000908152600160205260408120906106b1610bf8565b6001600160a01b03168152602081019190915260400160002054919063ffffffff610e8d16565b610bfc565b5060019392505050565b60006105686106f4610bf8565b846106d88560016000610705610bf8565b6001600160a01b03908116825260208083019390935260409182016000908120918c16815292529020549063ffffffff610f2416565b600061056c826107d4565b655f1ca5c7a94690565b600061076261075d610bf8565b610a54565b61079d5760405162461bcd60e51b815260040180806020018281038252603081526020018061152b6030913960400191505060405180910390fd5b6105688383610f7e565b6107b86107b2610bf8565b8261106e565b50565b6540a8f5cc9c4b90565b6004546001600160a01b031681565b6001600160a01b031660009081526020819052604090205490565b64e8d4a5100090565b610802828261116a565b5050565b6000610811826107a7565b600480546040805163a9059cbb60e01b8152339381019390935260248301859052516001600160a01b039091169163a9059cbb9160448083019260209291908290030181600087803b15801561086657600080fd5b505af115801561087a573d6000803e3d6000fd5b505050506040513d602081101561089057600080fd5b5060009392505050565b600581565b6108aa61075d610bf8565b6108e55760405162461bcd60e51b815260040180806020018281038252603081526020018061152b6030913960400191505060405180910390fd5b6107b8816111be565b6108fe6108f9610bf8565b611206565b565b60048054604080516323b872dd60e01b8152339381019390935230602484015260448301849052516000926001600160a01b03909216916323b872dd91606480830192602092919082900301818787803b15801561095d57600080fd5b505af1158015610971573d6000803e3d6000fd5b505050506040513d602081101561098757600080fd5b506109c59050336109c0846109b460646109a883600563ffffffff61124e16565b9063ffffffff6112a716565b9063ffffffff610f2416565b610f7e565b506000919050565b60006105686109da610bf8565b846106d8856040518060600160405280602581526020016116756025913960016000610a04610bf8565b6001600160a01b03908116825260208083019390935260409182016000908120918d1681529252902054919063ffffffff610e8d16565b600a81565b6000610568610a4d610bf8565b8484610d31565b600061056c60038363ffffffff6112e916565b640293aa153990565b6000610a9160646109a8604b610a85336107d4565b9063ffffffff61124e16565b33600090815260056020526040902054610ab1908463ffffffff610f2416565b1115610b04576040805162461bcd60e51b815260206004820152601960248201527f6d6f726520636f6c6c61746572616c206973206e656564656400000000000000604482015290519081900360640190fd5b600480546040805163a9059cbb60e01b8152339381019390935260248301859052516001600160a01b039091169163a9059cbb9160448083019260209291908290030181600087803b158015610b5957600080fd5b505af1158015610b6d573d6000803e3d6000fd5b505050506040513d6020811015610b8357600080fd5b506106209050826109b4610ba360646109a884600a63ffffffff61124e16565b336000908152600560205260409020549063ffffffff610f2416565b604b81565b6001600160a01b03918216600090815260016020908152604080832093909416825291909152205490565b6406fc23ac0090565b3390565b6001600160a01b038316610c415760405162461bcd60e51b81526004018080602001828103825260248152602001806116516024913960400191505060405180910390fd5b6001600160a01b038216610c865760405162461bcd60e51b81526004018080602001828103825260228152602001806114e36022913960400191505060405180910390fd5b6001600160a01b03808416600081815260016020908152604080832094871680845294825291829020859055815185815291517f8c5be1e5ebec7d5bd14f71427d1e84f3dd0314c0f7b2291e5b200ac8c7c3b9259281900390910190a3505050565b6000610d2a83836040518060400160405280601e81526020017f536166654d6174683a207375627472616374696f6e206f766572666c6f770000815250610e8d565b9392505050565b6001600160a01b038316610d765760405162461bcd60e51b815260040180806020018281038252602581526020018061162c6025913960400191505060405180910390fd5b6001600160a01b038216610dbb5760405162461bcd60e51b815260040180806020018281038252602381526020018061149e6023913960400191505060405180910390fd5b610dfe81604051806060016040528060268152602001611505602691396001600160a01b038616600090815260208190526040902054919063ffffffff610e8d16565b6001600160a01b038085166000908152602081905260408082209390935590841681522054610e33908263ffffffff610f2416565b6001600160a01b038084166000818152602081815260409182902094909455805185815290519193928716927fddf252ad1be2c89b69c2b068fc378daa952ba7f163c4a11628f55a4df523b3ef92918290030190a3505050565b60008184841115610f1c5760405162461bcd60e51b81526004018080602001828103825283818151815260200191508051906020019080838360005b83811015610ee1578181015183820152602001610ec9565b50505050905090810190601f168015610f0e5780820380516001836020036101000a031916815260200191505b509250505060405180910390fd5b505050900390565b600082820183811015610d2a576040805162461bcd60e51b815260206004820152601b60248201527f536166654d6174683a206164646974696f6e206f766572666c6f770000000000604482015290519081900360640190fd5b6001600160a01b038216610fd9576040805162461bcd60e51b815260206004820152601f60248201527f45524332303a206d696e7420746f20746865207a65726f206164647265737300604482015290519081900360640190fd5b600254610fec908263ffffffff610f2416565b6002556001600160a01b038216600090815260208190526040902054611018908263ffffffff610f2416565b6001600160a01b0383166000818152602081815260408083209490945583518581529351929391927fddf252ad1be2c89b69c2b068fc378daa952ba7f163c4a11628f55a4df523b3ef9281900390910190a35050565b6001600160a01b0382166110b35760405162461bcd60e51b815260040180806020018281038252602181526020018061160b6021913960400191505060405180910390fd5b6110f6816040518060600160405280602281526020016114c1602291396001600160a01b038516600090815260208190526040902054919063ffffffff610e8d16565b6001600160a01b038316600090815260208190526040902055600254611122908263ffffffff610ce816565b6002556040805182815290516000916001600160a01b038516917fddf252ad1be2c89b69c2b068fc378daa952ba7f163c4a11628f55a4df523b3ef9181900360200190a35050565b611174828261106e565b61080282611180610bf8565b6106d8846040518060600160405280602481526020016115e7602491396001600160a01b0388166000908152600160205260408120906106b1610bf8565b6111cf60038263ffffffff61135016565b6040516001600160a01b038216907f6ae172837ea30b801fbfcdd4108aa1d5bf8ff775444fd70256b44e6bf3dfc3f690600090a250565b61121760038263ffffffff6113d116565b6040516001600160a01b038216907fe94479a9f7e1952cc78f2d6baab678adc1b772d936c6583def489e524cb6669290600090a250565b60008261125d5750600061056c565b8282028284828161126a57fe5b0414610d2a5760405162461bcd60e51b815260040180806020018281038252602181526020018061157c6021913960400191505060405180910390fd5b6000610d2a83836040518060400160405280601a81526020017f536166654d6174683a206469766973696f6e206279207a65726f000000000000815250611438565b60006001600160a01b0382166113305760405162461bcd60e51b81526004018080602001828103825260228152602001806115c56022913960400191505060405180910390fd5b506001600160a01b03166000908152602091909152604090205460ff1690565b61135a82826112e9565b156113ac576040805162461bcd60e51b815260206004820152601f60248201527f526f6c65733a206163636f756e7420616c72656164792068617320726f6c6500604482015290519081900360640190fd5b6001600160a01b0316600090815260209190915260409020805460ff19166001179055565b6113db82826112e9565b6114165760405162461bcd60e51b815260040180806020018281038252602181526020018061155b6021913960400191505060405180910390fd5b6001600160a01b0316600090815260209190915260409020805460ff19169055565b600081836114875760405162461bcd60e51b8152602060048201818152835160248401528351909283926044909101919085019080838360008315610ee1578181015183820152602001610ec9565b50600083858161149357fe5b049594505050505056fe45524332303a207472616e7366657220746f20746865207a65726f206164647265737345524332303a206275726e20616d6f756e7420657863656564732062616c616e636545524332303a20617070726f766520746f20746865207a65726f206164647265737345524332303a207472616e7366657220616d6f756e7420657863656564732062616c616e63654d696e746572526f6c653a2063616c6c657220646f6573206e6f74206861766520746865204d696e74657220726f6c65526f6c65733a206163636f756e7420646f6573206e6f74206861766520726f6c65536166654d6174683a206d756c7469706c69636174696f6e206f766572666c6f7745524332303a207472616e7366657220616d6f756e74206578636565647320616c6c6f77616e6365526f6c65733a206163636f756e7420697320746865207a65726f206164647265737345524332303a206275726e20616d6f756e74206578636565647320616c6c6f77616e636545524332303a206275726e2066726f6d20746865207a65726f206164647265737345524332303a207472616e736665722066726f6d20746865207a65726f206164647265737345524332303a20617070726f76652066726f6d20746865207a65726f206164647265737345524332303a2064656372656173656420616c6c6f77616e63652062656c6f77207a65726fa265627a7a72315820bca4458502eba0ed088ab646f71bd93657293c7b3debdae1c407ac8b0110427164736f6c63430005100032526f6c65733a206163636f756e7420697320746865207a65726f2061646472657373",
  "source": "pragma solidity 0.5.16;\n\nimport \"@openzeppelin/contracts/token/ERC20/IERC20.sol\";\nimport \"@openzeppelin/contracts/token/ERC20/SafeERC20.sol\";\nimport \"@openzeppelin/contracts/token/ERC20/ERC20Mintable.sol\";\nimport \"@openzeppelin/contracts/token/ERC20/ERC20Burnable.sol\";\n\ncontract MockCUSDC is ERC20Mintable, ERC20Burnable {\n\n  using SafeMath for uint256;\n  using SafeERC20 for IERC20;\n\n  uint256 constant public supplyNum = 5; // 5% on supply\n  uint256 constant public supplyDenom = 100;\n  uint256 constant public borrowNum = 10; // 10% on borrow\n  uint256 constant public borrowDenom = 100;\n  uint256 constant public ratioNum = 75;\n  uint256 constant public ratioDenom = 100;\n  IERC20 public underlying;\n  mapping(address => uint256) debt;\n\n  constructor(address _underlying) public {\n    underlying = IERC20(_underlying);\n  }\n\n  function mint(uint256 amount) external returns (uint256) {\n    underlying.transferFrom(msg.sender, address(this), amount);\n    _mint(msg.sender, amount.mul(supplyNum).div(supplyDenom).add(amount));\n    return 0;\n  }\n\n  function redeemUnderlying(uint256 amount) external returns (uint256) {\n    burn(amount);\n    underlying.transfer(msg.sender, amount);\n    return 0;\n  }\n\n  function borrow(uint256 amount) external returns (uint256) {\n    require(debt[msg.sender].add(amount) <= balanceOf(msg.sender).mul(ratioNum).div(ratioDenom),\n      \"more collateral is needed\"\n    );\n    underlying.transfer(msg.sender, amount);\n    debt[msg.sender] = debt[msg.sender].add(amount.mul(borrowNum).div(borrowDenom)).add(amount);\n    return 0;\n  }\n\n  function repayBorrow(uint256 amount) external returns (uint256) {\n    underlying.transferFrom(msg.sender, address(this), amount);\n    debt[msg.sender] = debt[msg.sender].sub(amount);\n    return 0;\n  }\n\n  function balanceOfUnderlying(address account) external returns (uint256) {\n    return balanceOf(account);\n  }\n\n  function borrowBalanceCurrent(address account) external returns (uint256) {\n    return debt[account];\n  }\n\n  function getCash() public view returns (uint256) {\n    // from compound\n    return 104576645048646;\n  }\n\n  function totalBorrows() public view returns (uint256) {\n    // from compound\n    return 71094422510667;\n  }\n\n  function borrowRatePerBlock() public view returns (uint256) {\n    // from compound 28762459275;\n    return 30000000000;\n  }\n\n  function supplyRatePerBlock() public view returns (uint256) {\n    // from compound\n    return 11067331897;\n  }\n\n  function totalBorrowsCurrent() public view returns (uint256) {\n    // 1 million for testing\n    return 1000000000000;\n  }\n}\n",
  "sourcePath": "/home/jawaher/tmp/harvest/contracts/test/MockCUSDC.sol",
  "compiler": {
    "name": "solc",
    "version": "0.5.16+commit.9c3226ce.Emscripten.clang"
  },
  "schemaVersion": "3.2.5",
  "updatedAt": "2020-10-19T08:25:32.308Z",
  "devdoc": {
    "methods": {
      "allowance(address,address)": {
        "details": "See {IERC20-allowance}."
      },
      "approve(address,uint256)": {
        "details": "See {IERC20-approve}.     * Requirements:     * - `spender` cannot be the zero address."
      },
      "balanceOf(address)": {
        "details": "See {IERC20-balanceOf}."
      },
      "burn(uint256)": {
        "details": "Destroys `amount` tokens from the caller.     * See {ERC20-_burn}."
      },
      "burnFrom(address,uint256)": {
        "details": "See {ERC20-_burnFrom}."
      },
      "decreaseAllowance(address,uint256)": {
        "details": "Atomically decreases the allowance granted to `spender` by the caller.     * This is an alternative to {approve} that can be used as a mitigation for problems described in {IERC20-approve}.     * Emits an {Approval} event indicating the updated allowance.     * Requirements:     * - `spender` cannot be the zero address. - `spender` must have allowance for the caller of at least `subtractedValue`."
      },
      "increaseAllowance(address,uint256)": {
        "details": "Atomically increases the allowance granted to `spender` by the caller.     * This is an alternative to {approve} that can be used as a mitigation for problems described in {IERC20-approve}.     * Emits an {Approval} event indicating the updated allowance.     * Requirements:     * - `spender` cannot be the zero address."
      },
      "mint(address,uint256)": {
        "details": "See {ERC20-_mint}.     * Requirements:     * - the caller must have the {MinterRole}."
      },
      "totalSupply()": {
        "details": "See {IERC20-totalSupply}."
      },
      "transfer(address,uint256)": {
        "details": "See {IERC20-transfer}.     * Requirements:     * - `recipient` cannot be the zero address. - the caller must have a balance of at least `amount`."
      },
      "transferFrom(address,address,uint256)": {
        "details": "See {IERC20-transferFrom}.     * Emits an {Approval} event indicating the updated allowance. This is not required by the EIP. See the note at the beginning of {ERC20};     * Requirements: - `sender` and `recipient` cannot be the zero address. - `sender` must have a balance of at least `amount`. - the caller must have allowance for `sender`'s tokens of at least `amount`."
      }
    }
  },
  "userdoc": {
    "methods": {}
  }
}