{
  "contractName": "MockGauge",
  "abi": [
    {
      "inputs": [
        {
          "internalType": "address",
          "name": "_underlying",
          "type": "address"
        }
      ],
      "payable": false,
      "stateMutability": "nonpayable",
      "type": "constructor"
    },
    {
      "constant": true,
      "inputs": [
        {
          "internalType": "address",
          "name": "acct",
          "type": "address"
        }
      ],
      "name": "balanceOf",
      "outputs": [
        {
          "internalType": "uint256",
          "name": "",
          "type": "uint256"
        }
      ],
      "payable": false,
      "stateMutability": "view",
      "type": "function"
    },
    {
      "constant": false,
      "inputs": [
        {
          "internalType": "uint256",
          "name": "_amount",
          "type": "uint256"
        }
      ],
      "name": "deposit",
      "outputs": [],
      "payable": false,
      "stateMutability": "nonpayable",
      "type": "function"
    },
    {
      "constant": false,
      "inputs": [
        {
          "internalType": "uint256",
          "name": "_amount",
          "type": "uint256"
        }
      ],
      "name": "withdraw",
      "outputs": [],
      "payable": false,
      "stateMutability": "nonpayable",
      "type": "function"
    }
  ],
  "bytecode": "0x608060405234801561001057600080fd5b506040516102a83803806102a88339818101604052602081101561003357600080fd5b5051600080546001600160a01b039092166001600160a01b0319909216919091179055610243806100656000396000f3fe608060405234801561001057600080fd5b50600436106100415760003560e01c80632e1a7d4d1461004657806370a0823114610065578063b6b55f251461009d575b600080fd5b6100636004803603602081101561005c57600080fd5b50356100ba565b005b61008b6004803603602081101561007b57600080fd5b50356001600160a01b0316610154565b60408051918252519081900360200190f35b610063600480360360208110156100b357600080fd5b503561016f565b600080546040805163a9059cbb60e01b81523360048201526024810185905290516001600160a01b039092169263a9059cbb926044808401936020939083900390910190829087803b15801561010f57600080fd5b505af1158015610123573d6000803e3d6000fd5b505050506040513d602081101561013957600080fd5b50503360009081526001602052604090208054919091039055565b6001600160a01b031660009081526001602052604090205490565b60008054604080516323b872dd60e01b81523360048201523060248201526044810185905290516001600160a01b03909216926323b872dd926064808401936020939083900390910190829087803b1580156101ca57600080fd5b505af11580156101de573d6000803e3d6000fd5b505050506040513d60208110156101f457600080fd5b50503360009081526001602052604090208054909101905556fea265627a7a72315820fd7006bfebfe10d777a288ab71f04129869e2d7408211930ed067a45ad020f6164736f6c63430005100032",
  "source": "pragma solidity 0.5.16;\n\nimport \"@openzeppelin/contracts/token/ERC20/IERC20.sol\";\n\ncontract MockGauge {\n\n  IERC20 underlying;\n  mapping(address => uint256) balances;\n\n  constructor(address _underlying) public {\n    underlying = IERC20(_underlying);\n  }\n\n  function balanceOf(address acct) public view returns (uint256) {\n    return balances[acct];\n  }\n\n  function deposit(uint256 _amount) external {\n    underlying.transferFrom(msg.sender, address(this), _amount);\n    balances[msg.sender] += _amount;\n  }\n\n  function withdraw(uint256 _amount) external {\n    underlying.transfer(msg.sender, _amount);\n    balances[msg.sender] -= _amount;\n  }\n}\n",
  "sourcePath": "/home/jawaher/tmp/harvest/contracts/test/MockGauge.sol",
  "compiler": {
    "name": "solc",
    "version": "0.5.16+commit.9c3226ce.Emscripten.clang"
  },
  "schemaVersion": "3.2.5",
  "updatedAt": "2020-10-19T08:25:32.318Z",
  "devdoc": {
    "methods": {}
  },
  "userdoc": {
    "methods": {}
  }
}