{
  "contractName": "MockGreyListed",
  "abi": [
    {
      "inputs": [
        {
          "internalType": "address",
          "name": "_vault",
          "type": "address"
        }
      ],
      "payable": false,
      "stateMutability": "nonpayable",
      "type": "constructor"
    },
    {
      "constant": true,
      "inputs": [],
      "name": "vault",
      "outputs": [
        {
          "internalType": "address",
          "name": "",
          "type": "address"
        }
      ],
      "payable": false,
      "stateMutability": "view",
      "type": "function"
    },
    {
      "constant": false,
      "inputs": [
        {
          "internalType": "uint256",
          "name": "_token",
          "type": "uint256"
        },
        {
          "internalType": "uint256",
          "name": "_amount",
          "type": "uint256"
        }
      ],
      "name": "deposit",
      "outputs": [],
      "payable": false,
      "stateMutability": "nonpayable",
      "type": "function"
    }
  ],
  "bytecode": "0x608060405234801561001057600080fd5b506040516102143803806102148339818101604052602081101561003357600080fd5b5051600080546001600160a01b039092166001600160a01b03199092169190911790556101af806100656000396000f3fe608060405234801561001057600080fd5b50600436106100365760003560e01c8063e2bbb1581461003b578063fbfa77cf14610060575b600080fd5b61005e6004803603604081101561005157600080fd5b5080359060200135610084565b005b61006861016b565b604080516001600160a01b039092168252519081900360200190f35b600080546040805163095ea7b360e01b81526001600160a01b0392831660048201526024810185905290519185169263095ea7b3926044808401936020939083900390910190829087803b1580156100db57600080fd5b505af11580156100ef573d6000803e3d6000fd5b505050506040513d602081101561010557600080fd5b5050600080546040805163b6b55f2560e01b81526004810185905290516001600160a01b039092169263b6b55f259260248084019382900301818387803b15801561014f57600080fd5b505af1158015610163573d6000803e3d6000fd5b505050505050565b6000546001600160a01b03168156fea265627a7a72315820a4bd50fc37ddc5e54c0acb666b6ec1a07676fe739fb6d1fa6b4a3ca6cbe06cfc64736f6c63430005100032",
  "source": "pragma solidity 0.5.16;\n\nimport \"../hardworkInterface/IVault.sol\";\nimport \"@openzeppelin/contracts/token/ERC20/IERC20.sol\";\n\ncontract MockGreyListed {\n\n  address public vault;\n\n  constructor(address _vault) public {\n    vault = _vault;\n  }\n\n  function deposit(uint256 _token, uint256 _amount) public {\n    IERC20(_token).approve(vault, _amount);\n    IVault(vault).deposit(_amount);\n  }\n}\n",
  "sourcePath": "/home/jawaher/tmp/harvest/contracts/test/MockGreyListed.sol",
  "compiler": {
    "name": "solc",
    "version": "0.5.16+commit.9c3226ce.Emscripten.clang"
  },
  "schemaVersion": "3.2.5",
  "updatedAt": "2020-10-19T08:25:32.319Z",
  "devdoc": {
    "methods": {}
  },
  "userdoc": {
    "methods": {}
  }
}