{
  "contractName": "NoopStrategy",
  "abi": [
    {
      "inputs": [
        {
          "internalType": "address",
          "name": "_storage",
          "type": "address"
        },
        {
          "internalType": "address",
          "name": "_underlying",
          "type": "address"
        },
        {
          "internalType": "address",
          "name": "_vault",
          "type": "address"
        }
      ],
      "payable": false,
      "stateMutability": "nonpayable",
      "type": "constructor"
    },
    {
      "constant": true,
      "inputs": [],
      "name": "controller",
      "outputs": [
        {
          "internalType": "address",
          "name": "",
          "type": "address"
        }
      ],
      "payable": false,
      "stateMutability": "view",
      "type": "function"
    },
    {
      "constant": true,
      "inputs": [],
      "name": "governance",
      "outputs": [
        {
          "internalType": "address",
          "name": "",
          "type": "address"
        }
      ],
      "payable": false,
      "stateMutability": "view",
      "type": "function"
    },
    {
      "constant": false,
      "inputs": [
        {
          "internalType": "address",
          "name": "_store",
          "type": "address"
        }
      ],
      "name": "setStorage",
      "outputs": [],
      "payable": false,
      "stateMutability": "nonpayable",
      "type": "function"
    },
    {
      "constant": true,
      "inputs": [],
      "name": "store",
      "outputs": [
        {
          "internalType": "contract Storage",
          "name": "",
          "type": "address"
        }
      ],
      "payable": false,
      "stateMutability": "view",
      "type": "function"
    },
    {
      "constant": true,
      "inputs": [],
      "name": "underlying",
      "outputs": [
        {
          "internalType": "contract IERC20",
          "name": "",
          "type": "address"
        }
      ],
      "payable": false,
      "stateMutability": "view",
      "type": "function"
    },
    {
      "constant": true,
      "inputs": [
        {
          "internalType": "address",
          "name": "",
          "type": "address"
        }
      ],
      "name": "unsalvagableTokens",
      "outputs": [
        {
          "internalType": "bool",
          "name": "",
          "type": "bool"
        }
      ],
      "payable": false,
      "stateMutability": "view",
      "type": "function"
    },
    {
      "constant": true,
      "inputs": [],
      "name": "vault",
      "outputs": [
        {
          "internalType": "contract IVault",
          "name": "",
          "type": "address"
        }
      ],
      "payable": false,
      "stateMutability": "view",
      "type": "function"
    },
    {
      "constant": true,
      "inputs": [],
      "name": "depositArbCheck",
      "outputs": [
        {
          "internalType": "bool",
          "name": "",
          "type": "bool"
        }
      ],
      "payable": false,
      "stateMutability": "view",
      "type": "function"
    },
    {
      "constant": true,
      "inputs": [],
      "name": "investedUnderlyingBalance",
      "outputs": [
        {
          "internalType": "uint256",
          "name": "",
          "type": "uint256"
        }
      ],
      "payable": false,
      "stateMutability": "view",
      "type": "function"
    },
    {
      "constant": false,
      "inputs": [],
      "name": "investAllUnderlying",
      "outputs": [],
      "payable": false,
      "stateMutability": "nonpayable",
      "type": "function"
    },
    {
      "constant": false,
      "inputs": [],
      "name": "withdrawAllToVault",
      "outputs": [],
      "payable": false,
      "stateMutability": "nonpayable",
      "type": "function"
    },
    {
      "constant": false,
      "inputs": [
        {
          "internalType": "uint256",
          "name": "amountWei",
          "type": "uint256"
        }
      ],
      "name": "withdrawToVault",
      "outputs": [],
      "payable": false,
      "stateMutability": "nonpayable",
      "type": "function"
    },
    {
      "constant": false,
      "inputs": [],
      "name": "doHardWork",
      "outputs": [],
      "payable": false,
      "stateMutability": "nonpayable",
      "type": "function"
    },
    {
      "constant": false,
      "inputs": [
        {
          "internalType": "address",
          "name": "destination",
          "type": "address"
        },
        {
          "internalType": "address",
          "name": "token",
          "type": "address"
        },
        {
          "internalType": "uint256",
          "name": "amount",
          "type": "uint256"
        }
      ],
      "name": "salvage",
      "outputs": [],
      "payable": false,
      "stateMutability": "nonpayable",
      "type": "function"
    }
  ],
  "bytecode": "0x608060405234801561001057600080fd5b50604051610ba1380380610ba18339818101604052606081101561003357600080fd5b508051602082015160409092015190919082806001600160a01b0381166100a1576040805162461bcd60e51b815260206004820152601e60248201527f6e65772073746f726167652073686f756c646e277420626520656d7074790000604482015290519081900360640190fd5b600080546001600160a01b0319166001600160a01b03928316179055831615159050610114576040805162461bcd60e51b815260206004820152601b60248201527f5f756e6465726c79696e672063616e6e6f7420626520656d7074790000000000604482015290519081900360640190fd5b6001600160a01b03811661016f576040805162461bcd60e51b815260206004820152601660248201527f5f7661756c742063616e6e6f7420626520656d70747900000000000000000000604482015290519081900360640190fd5b600180546001600160a01b039384166001600160a01b03199182161790915560028054929093169116179055506109f6806101ab6000396000f3fe608060405234801561001057600080fd5b50600436106100ca5760003560e01c80639137c1a71161007c5780639137c1a714610197578063975057e7146101bd578063bfd131f1146101c5578063c2a2a07b146101cd578063ce8c42e8146101d5578063f77c4791146101f2578063fbfa77cf146101fa576100ca565b80631113ef52146100cf57806345d01e4a146101075780634a8cfa69146101215780634fa5d8541461012957806350185946146101315780635aa6e6751461016b5780636f307dc31461018f575b600080fd5b610105600480360360608110156100e557600080fd5b506001600160a01b03813581169160208101359091169060400135610202565b005b61010f6102dc565b60408051918252519081900360200190f35b610105610358565b61010561035a565b6101576004803603602081101561014757600080fd5b50356001600160a01b03166103b9565b604080519115158252519081900360200190f35b6101736103ce565b604080516001600160a01b039092168252519081900360200190f35b61017361041d565b610105600480360360208110156101ad57600080fd5b50356001600160a01b031661042c565b610173610562565b610105610571565b610157610668565b610105600480360360208110156101eb57600080fd5b503561066d565b6101736106f2565b610173610741565b6000546040805163b429afeb60e01b815233600482015290516001600160a01b039092169163b429afeb91602480820192602092909190829003018186803b15801561024d57600080fd5b505afa158015610261573d6000803e3d6000fd5b505050506040513d602081101561027757600080fd5b50516102bd576040805162461bcd60e51b815260206004820152601060248201526f2737ba10309031b7b73a3937b63632b960811b604482015290519081900360640190fd5b6102d76001600160a01b038316848363ffffffff61075016565b505050565b600154604080516370a0823160e01b815230600482015290516000926001600160a01b0316916370a08231916024808301926020929190829003018186803b15801561032757600080fd5b505afa15801561033b573d6000803e3d6000fd5b505050506040513d602081101561035157600080fd5b5051905090565b565b6002546001600160a01b03163314610358576040805162461bcd60e51b815260206004820152601c60248201527f5468652063616c6c6572206d75737420626520746865207661756c7400000000604482015290519081900360640190fd5b60036020526000908152604090205460ff1681565b60008060009054906101000a90046001600160a01b03166001600160a01b0316635aa6e6756040518163ffffffff1660e01b815260040160206040518083038186803b15801561032757600080fd5b6001546001600160a01b031681565b600054604080516337b87c3960e21b815233600482015290516001600160a01b039092169163dee1f0e491602480820192602092909190829003018186803b15801561047757600080fd5b505afa15801561048b573d6000803e3d6000fd5b505050506040513d60208110156104a157600080fd5b50516104e5576040805162461bcd60e51b815260206004820152600e60248201526d4e6f7420676f7665726e616e636560901b604482015290519081900360640190fd5b6001600160a01b038116610540576040805162461bcd60e51b815260206004820152601e60248201527f6e65772073746f726167652073686f756c646e277420626520656d7074790000604482015290519081900360640190fd5b600080546001600160a01b0319166001600160a01b0392909216919091179055565b6000546001600160a01b031681565b6002546001600160a01b031633146105d0576040805162461bcd60e51b815260206004820152601c60248201527f5468652063616c6c6572206d75737420626520746865207661756c7400000000604482015290519081900360640190fd5b600254600154604080516370a0823160e01b81523060048201529051610358936001600160a01b039081169316916370a08231916024808301926020929190829003018186803b15801561062357600080fd5b505afa158015610637573d6000803e3d6000fd5b505050506040513d602081101561064d57600080fd5b50516001546001600160a01b0316919063ffffffff61075016565b600190565b6002546001600160a01b031633146106cc576040805162461bcd60e51b815260206004820152601c60248201527f5468652063616c6c6572206d75737420626520746865207661756c7400000000604482015290519081900360640190fd5b6002546001546106ef916001600160a01b0391821691168363ffffffff61075016565b50565b60008060009054906101000a90046001600160a01b03166001600160a01b031663f77c47916040518163ffffffff1660e01b815260040160206040518083038186803b15801561032757600080fd5b6002546001600160a01b031681565b604080516001600160a01b038416602482015260448082018490528251808303909101815260649091019091526020810180516001600160e01b031663a9059cbb60e01b1790526102d79084906107af826001600160a01b031661095b565b610800576040805162461bcd60e51b815260206004820152601f60248201527f5361666545524332303a2063616c6c20746f206e6f6e2d636f6e747261637400604482015290519081900360640190fd5b60006060836001600160a01b0316836040518082805190602001908083835b6020831061083e5780518252601f19909201916020918201910161081f565b6001836020036101000a0380198251168184511680821785525050505050509050019150506000604051808303816000865af19150503d80600081146108a0576040519150601f19603f3d011682016040523d82523d6000602084013e6108a5565b606091505b5091509150816108fc576040805162461bcd60e51b815260206004820181905260248201527f5361666545524332303a206c6f772d6c6576656c2063616c6c206661696c6564604482015290519081900360640190fd5b8051156109555780806020019051602081101561091857600080fd5b50516109555760405162461bcd60e51b815260040180806020018281038252602a815260200180610998602a913960400191505060405180910390fd5b50505050565b6000813f7fc5d2460186f7233c927e7db2dcc703c0e500b653ca82273b7bfad8045d85a47081811480159061098f57508115155b94935050505056fe5361666545524332303a204552433230206f7065726174696f6e20646964206e6f742073756363656564a265627a7a72315820b7c33f15d3a26f0c47da08ceb1c02608cb8c170ab0749280abddb0939a7ba7e664736f6c63430005100032",
  "source": "pragma solidity 0.5.16;\n\nimport \"@openzeppelin/contracts/token/ERC20/IERC20.sol\";\nimport \"@openzeppelin/contracts/utils/Address.sol\";\nimport \"@openzeppelin/contracts/math/SafeMath.sol\";\nimport \"@openzeppelin/contracts/token/ERC20/SafeERC20.sol\";\nimport \"../../hardworkInterface/IStrategy.sol\";\nimport \"../../Controllable.sol\";\nimport \"../../hardworkInterface/IVault.sol\";\n\n\ncontract NoopStrategy is IStrategy, Controllable {\n  using SafeERC20 for IERC20;\n  using Address for address;\n  using SafeMath for uint256;\n\n  IERC20 public underlying;\n  IVault public vault;\n\n  // These tokens cannot be claimed by the controller\n  mapping(address => bool) public unsalvagableTokens;\n\n  constructor(address _storage, address _underlying, address _vault) public\n  Controllable(_storage) {\n    require(_underlying != address(0), \"_underlying cannot be empty\");\n    require(_vault != address(0), \"_vault cannot be empty\");\n    underlying = IERC20(_underlying);\n    vault = IVault(_vault);\n  }\n\n  function depositArbCheck() public view returns(bool) {\n    return true;\n  }\n\n  modifier onlyVault() {\n    require(msg.sender == address(vault), \"The caller must be the vault\");\n    _;\n  }\n\n  /*\n  * Returns the total invested amount.\n  */\n  function investedUnderlyingBalance() view public returns (uint256) {\n    // for real strategies, need to calculate the invested balance\n    return underlying.balanceOf(address(this));\n  }\n\n  /*\n  * Invests all tokens that were accumulated so far\n  */\n  function investAllUnderlying() public {\n    // a no-op\n  }\n\n  /*\n  * Cashes everything out and withdraws to the vault\n  */\n  function withdrawAllToVault() external onlyVault {\n    underlying.safeTransfer(address(vault), underlying.balanceOf(address(this)));\n  }\n\n  /*\n  * Cashes some amount out and withdraws to the vault\n  */\n  function withdrawToVault(uint256 amountWei) external onlyVault {\n    underlying.safeTransfer(address(vault), amountWei);\n  }\n\n  /*\n  * Honest harvesting. It's not much, but it pays off\n  */\n  function doHardWork() external onlyVault {\n    // a no-op\n  }\n\n  // should only be called by controller\n  function salvage(address destination, address token, uint256 amount) external onlyController {\n    IERC20(token).safeTransfer(destination, amount);\n  }\n}\n",
  "sourcePath": "/home/jawaher/tmp/harvest/contracts/test/strategies/NoopStrategy.sol",
  "compiler": {
    "name": "solc",
    "version": "0.5.16+commit.9c3226ce.Emscripten.clang"
  },
  "schemaVersion": "3.2.5",
  "updatedAt": "2020-10-19T08:25:32.385Z",
  "devdoc": {
    "methods": {}
  },
  "userdoc": {
    "methods": {}
  }
}