{
  "contractName": "NotifyHelper",
  "abi": [
    {
      "inputs": [
        {
          "internalType": "address",
          "name": "_storage",
          "type": "address"
        }
      ],
      "payable": false,
      "stateMutability": "nonpayable",
      "type": "constructor"
    },
    {
      "constant": true,
      "inputs": [],
      "name": "controller",
      "outputs": [
        {
          "internalType": "address",
          "name": "",
          "type": "address"
        }
      ],
      "payable": false,
      "stateMutability": "view",
      "type": "function"
    },
    {
      "constant": true,
      "inputs": [],
      "name": "governance",
      "outputs": [
        {
          "internalType": "address",
          "name": "",
          "type": "address"
        }
      ],
      "payable": false,
      "stateMutability": "view",
      "type": "function"
    },
    {
      "constant": false,
      "inputs": [
        {
          "internalType": "address",
          "name": "_store",
          "type": "address"
        }
      ],
      "name": "setStorage",
      "outputs": [],
      "payable": false,
      "stateMutability": "nonpayable",
      "type": "function"
    },
    {
      "constant": true,
      "inputs": [],
      "name": "store",
      "outputs": [
        {
          "internalType": "contract Storage",
          "name": "",
          "type": "address"
        }
      ],
      "payable": false,
      "stateMutability": "view",
      "type": "function"
    },
    {
      "constant": false,
      "inputs": [
        {
          "internalType": "uint256[]",
          "name": "amounts",
          "type": "uint256[]"
        },
        {
          "internalType": "address[]",
          "name": "pools",
          "type": "address[]"
        }
      ],
      "name": "notifyPools",
      "outputs": [],
      "payable": false,
      "stateMutability": "nonpayable",
      "type": "function"
    }
  ],
  "bytecode": "0x608060405234801561001057600080fd5b506040516108803803806108808339818101604052602081101561003357600080fd5b505180806001600160a01b038116610092576040805162461bcd60e51b815260206004820152601e60248201527f6e65772073746f726167652073686f756c646e277420626520656d7074790000604482015290519081900360640190fd5b600080546001600160a01b039092166001600160a01b031990921691909117905550506107bc806100c46000396000f3fe608060405234801561001057600080fd5b50600436106100575760003560e01c80635aa6e6751461005c5780639137c1a71461008057806391d7cc7d146100a8578063975057e7146101cf578063f77c4791146101d7575b600080fd5b6100646101df565b604080516001600160a01b039092168252519081900360200190f35b6100a66004803603602081101561009657600080fd5b50356001600160a01b031661025f565b005b6100a6600480360360408110156100be57600080fd5b8101906020810181356401000000008111156100d957600080fd5b8201836020820111156100eb57600080fd5b8035906020019184602083028401116401000000008311171561010d57600080fd5b919080806020026020016040519081016040528093929190818152602001838360200280828437600092019190915250929594936020810193503591505064010000000081111561015d57600080fd5b82018360208201111561016f57600080fd5b8035906020019184602083028401116401000000008311171561019157600080fd5b919080806020026020016040519081016040528093929190818152602001838360200280828437600092019190915250929550610395945050505050565b610064610707565b610064610716565b60008060009054906101000a90046001600160a01b03166001600160a01b0316635aa6e6756040518163ffffffff1660e01b815260040160206040518083038186803b15801561022e57600080fd5b505afa158015610242573d6000803e3d6000fd5b505050506040513d602081101561025857600080fd5b5051905090565b600054604080516337b87c3960e21b815233600482015290516001600160a01b039092169163dee1f0e491602480820192602092909190829003018186803b1580156102aa57600080fd5b505afa1580156102be573d6000803e3d6000fd5b505050506040513d60208110156102d457600080fd5b5051610318576040805162461bcd60e51b815260206004820152600e60248201526d4e6f7420676f7665726e616e636560901b604482015290519081900360640190fd5b6001600160a01b038116610373576040805162461bcd60e51b815260206004820152601e60248201527f6e65772073746f726167652073686f756c646e277420626520656d7074790000604482015290519081900360640190fd5b600080546001600160a01b0319166001600160a01b0392909216919091179055565b600054604080516337b87c3960e21b815233600482015290516001600160a01b039092169163dee1f0e491602480820192602092909190829003018186803b1580156103e057600080fd5b505afa1580156103f4573d6000803e3d6000fd5b505050506040513d602081101561040a57600080fd5b505161044e576040805162461bcd60e51b815260206004820152600e60248201526d4e6f7420676f7665726e616e636560901b604482015290519081900360640190fd5b805182511461048e5760405162461bcd60e51b81526004018080602001828103825260228152602001806107666022913960400191505060405180910390fd5b60005b81518110156107025760008382815181106104a857fe5b6020026020010151116104f0576040805162461bcd60e51b815260206004820152600b60248201526a4e6f74696679207a65726f60a81b604482015290519081900360640190fd5b60008282815181106104fe57fe5b602002602001015190506000816001600160a01b031663f7c618c16040518163ffffffff1660e01b815260040160206040518083038186803b15801561054357600080fd5b505afa158015610557573d6000803e3d6000fd5b505050506040513d602081101561056d57600080fd5b505184519091506000906001600160a01b038316906370a082319087908790811061059457fe5b60200260200101516040518263ffffffff1660e01b815260040180826001600160a01b03166001600160a01b0316815260200191505060206040518083038186803b1580156105e257600080fd5b505afa1580156105f6573d6000803e3d6000fd5b505050506040513d602081101561060c57600080fd5b50518651909150819087908690811061062157fe5b6020026020010151111561066f576040805162461bcd60e51b815260206004820152601060248201526f139bdd1a599e481b1a5b5a5d081a1a5d60821b604482015290519081900360640190fd5b84848151811061067b57fe5b60200260200101516001600160a01b0316633c6b16ab87868151811061069d57fe5b60200260200101516040518263ffffffff1660e01b815260040180828152602001915050600060405180830381600087803b1580156106db57600080fd5b505af11580156106ef573d6000803e3d6000fd5b5050600190950194506104919350505050565b505050565b6000546001600160a01b031681565b60008060009054906101000a90046001600160a01b03166001600160a01b031663f77c47916040518163ffffffff1660e01b815260040160206040518083038186803b15801561022e57600080fdfe416d6f756e747320616e6420706f6f6c73206c656e67746873206d69736d61746368a265627a7a7231582008fce7adfd2e8a1aa01f5aa8476f66b072fc38410cb512c1cb3e17ce9fbc76db64736f6c63430005100032",
  "source": "pragma solidity 0.5.16;\n\nimport \"./Controllable.sol\";\nimport \"./RewardPool.sol\";\n\ncontract NotifyHelper is Controllable {\n\n  constructor(address _storage)\n  Controllable(_storage) public {}\n\n  /**\n  * Notifies all the pools, safe guarding the notification amount.\n  */\n  function notifyPools(uint256[] memory amounts, address[] memory pools) public onlyGovernance {\n    require(amounts.length == pools.length, \"Amounts and pools lengths mismatch\");\n    for (uint i = 0; i < pools.length; i++) {\n      require(amounts[i] > 0, \"Notify zero\");\n      NoMintRewardPool pool = NoMintRewardPool(pools[i]);\n      IERC20 token = IERC20(pool.rewardToken());\n      uint256 limit = token.balanceOf(pools[i]);\n      require(amounts[i] <= limit, \"Notify limit hit\");\n      NoMintRewardPool(pools[i]).notifyRewardAmount(amounts[i]);\n    }\n  }\n}\n",
  "sourcePath": "/home/jawaher/tmp/harvest/contracts/NotifyHelper.sol",
  "compiler": {
    "name": "solc",
    "version": "0.5.16+commit.9c3226ce.Emscripten.clang"
  },
  "schemaVersion": "3.2.5",
  "updatedAt": "2020-10-19T08:25:32.110Z",
  "devdoc": {
    "methods": {}
  },
  "userdoc": {
    "methods": {
      "notifyPools(uint256[],address[])": {
        "notice": "Notifies all the pools, safe guarding the notification amount."
      }
    }
  }
}