{
  "contractName": "RewardToken",
  "abi": [
    {
      "inputs": [
        {
          "internalType": "address",
          "name": "_storage",
          "type": "address"
        }
      ],
      "payable": false,
      "stateMutability": "nonpayable",
      "type": "constructor"
    },
    {
      "anonymous": false,
      "inputs": [
        {
          "indexed": true,
          "internalType": "address",
          "name": "owner",
          "type": "address"
        },
        {
          "indexed": true,
          "internalType": "address",
          "name": "spender",
          "type": "address"
        },
        {
          "indexed": false,
          "internalType": "uint256",
          "name": "value",
          "type": "uint256"
        }
      ],
      "name": "Approval",
      "type": "event"
    },
    {
      "anonymous": false,
      "inputs": [
        {
          "indexed": true,
          "internalType": "address",
          "name": "account",
          "type": "address"
        }
      ],
      "name": "MinterAdded",
      "type": "event"
    },
    {
      "anonymous": false,
      "inputs": [
        {
          "indexed": true,
          "internalType": "address",
          "name": "account",
          "type": "address"
        }
      ],
      "name": "MinterRemoved",
      "type": "event"
    },
    {
      "anonymous": false,
      "inputs": [
        {
          "indexed": true,
          "internalType": "address",
          "name": "from",
          "type": "address"
        },
        {
          "indexed": true,
          "internalType": "address",
          "name": "to",
          "type": "address"
        },
        {
          "indexed": false,
          "internalType": "uint256",
          "name": "value",
          "type": "uint256"
        }
      ],
      "name": "Transfer",
      "type": "event"
    },
    {
      "constant": true,
      "inputs": [],
      "name": "HARD_CAP",
      "outputs": [
        {
          "internalType": "uint256",
          "name": "",
          "type": "uint256"
        }
      ],
      "payable": false,
      "stateMutability": "view",
      "type": "function"
    },
    {
      "constant": true,
      "inputs": [
        {
          "internalType": "address",
          "name": "owner",
          "type": "address"
        },
        {
          "internalType": "address",
          "name": "spender",
          "type": "address"
        }
      ],
      "name": "allowance",
      "outputs": [
        {
          "internalType": "uint256",
          "name": "",
          "type": "uint256"
        }
      ],
      "payable": false,
      "stateMutability": "view",
      "type": "function"
    },
    {
      "constant": false,
      "inputs": [
        {
          "internalType": "address",
          "name": "spender",
          "type": "address"
        },
        {
          "internalType": "uint256",
          "name": "amount",
          "type": "uint256"
        }
      ],
      "name": "approve",
      "outputs": [
        {
          "internalType": "bool",
          "name": "",
          "type": "bool"
        }
      ],
      "payable": false,
      "stateMutability": "nonpayable",
      "type": "function"
    },
    {
      "constant": true,
      "inputs": [
        {
          "internalType": "address",
          "name": "account",
          "type": "address"
        }
      ],
      "name": "balanceOf",
      "outputs": [
        {
          "internalType": "uint256",
          "name": "",
          "type": "uint256"
        }
      ],
      "payable": false,
      "stateMutability": "view",
      "type": "function"
    },
    {
      "constant": true,
      "inputs": [],
      "name": "cap",
      "outputs": [
        {
          "internalType": "uint256",
          "name": "",
          "type": "uint256"
        }
      ],
      "payable": false,
      "stateMutability": "view",
      "type": "function"
    },
    {
      "constant": true,
      "inputs": [],
      "name": "decimals",
      "outputs": [
        {
          "internalType": "uint8",
          "name": "",
          "type": "uint8"
        }
      ],
      "payable": false,
      "stateMutability": "view",
      "type": "function"
    },
    {
      "constant": false,
      "inputs": [
        {
          "internalType": "address",
          "name": "spender",
          "type": "address"
        },
        {
          "internalType": "uint256",
          "name": "subtractedValue",
          "type": "uint256"
        }
      ],
      "name": "decreaseAllowance",
      "outputs": [
        {
          "internalType": "bool",
          "name": "",
          "type": "bool"
        }
      ],
      "payable": false,
      "stateMutability": "nonpayable",
      "type": "function"
    },
    {
      "constant": true,
      "inputs": [],
      "name": "governance",
      "outputs": [
        {
          "internalType": "address",
          "name": "",
          "type": "address"
        }
      ],
      "payable": false,
      "stateMutability": "view",
      "type": "function"
    },
    {
      "constant": false,
      "inputs": [
        {
          "internalType": "address",
          "name": "spender",
          "type": "address"
        },
        {
          "internalType": "uint256",
          "name": "addedValue",
          "type": "uint256"
        }
      ],
      "name": "increaseAllowance",
      "outputs": [
        {
          "internalType": "bool",
          "name": "",
          "type": "bool"
        }
      ],
      "payable": false,
      "stateMutability": "nonpayable",
      "type": "function"
    },
    {
      "constant": true,
      "inputs": [
        {
          "internalType": "address",
          "name": "account",
          "type": "address"
        }
      ],
      "name": "isMinter",
      "outputs": [
        {
          "internalType": "bool",
          "name": "",
          "type": "bool"
        }
      ],
      "payable": false,
      "stateMutability": "view",
      "type": "function"
    },
    {
      "constant": false,
      "inputs": [
        {
          "internalType": "address",
          "name": "account",
          "type": "address"
        },
        {
          "internalType": "uint256",
          "name": "amount",
          "type": "uint256"
        }
      ],
      "name": "mint",
      "outputs": [
        {
          "internalType": "bool",
          "name": "",
          "type": "bool"
        }
      ],
      "payable": false,
      "stateMutability": "nonpayable",
      "type": "function"
    },
    {
      "constant": true,
      "inputs": [],
      "name": "name",
      "outputs": [
        {
          "internalType": "string",
          "name": "",
          "type": "string"
        }
      ],
      "payable": false,
      "stateMutability": "view",
      "type": "function"
    },
    {
      "constant": false,
      "inputs": [],
      "name": "renounceMinter",
      "outputs": [],
      "payable": false,
      "stateMutability": "nonpayable",
      "type": "function"
    },
    {
      "constant": false,
      "inputs": [
        {
          "internalType": "address",
          "name": "_store",
          "type": "address"
        }
      ],
      "name": "setStorage",
      "outputs": [],
      "payable": false,
      "stateMutability": "nonpayable",
      "type": "function"
    },
    {
      "constant": true,
      "inputs": [],
      "name": "store",
      "outputs": [
        {
          "internalType": "contract Storage",
          "name": "",
          "type": "address"
        }
      ],
      "payable": false,
      "stateMutability": "view",
      "type": "function"
    },
    {
      "constant": true,
      "inputs": [],
      "name": "symbol",
      "outputs": [
        {
          "internalType": "string",
          "name": "",
          "type": "string"
        }
      ],
      "payable": false,
      "stateMutability": "view",
      "type": "function"
    },
    {
      "constant": true,
      "inputs": [],
      "name": "totalSupply",
      "outputs": [
        {
          "internalType": "uint256",
          "name": "",
          "type": "uint256"
        }
      ],
      "payable": false,
      "stateMutability": "view",
      "type": "function"
    },
    {
      "constant": false,
      "inputs": [
        {
          "internalType": "address",
          "name": "recipient",
          "type": "address"
        },
        {
          "internalType": "uint256",
          "name": "amount",
          "type": "uint256"
        }
      ],
      "name": "transfer",
      "outputs": [
        {
          "internalType": "bool",
          "name": "",
          "type": "bool"
        }
      ],
      "payable": false,
      "stateMutability": "nonpayable",
      "type": "function"
    },
    {
      "constant": false,
      "inputs": [
        {
          "internalType": "address",
          "name": "sender",
          "type": "address"
        },
        {
          "internalType": "address",
          "name": "recipient",
          "type": "address"
        },
        {
          "internalType": "uint256",
          "name": "amount",
          "type": "uint256"
        }
      ],
      "name": "transferFrom",
      "outputs": [
        {
          "internalType": "bool",
          "name": "",
          "type": "bool"
        }
      ],
      "payable": false,
      "stateMutability": "nonpayable",
      "type": "function"
    },
    {
      "constant": false,
      "inputs": [
        {
          "internalType": "address",
          "name": "_minter",
          "type": "address"
        }
      ],
      "name": "addMinter",
      "outputs": [],
      "payable": false,
      "stateMutability": "nonpayable",
      "type": "function"
    }
  ],
  "bytecode": "0x60806040523480156200001157600080fd5b506040516200181c3803806200181c833981810160405260208110156200003757600080fd5b505160408051808201825260118152702320a926902932bbb0b932102a37b5b2b760791b6020828101918252835180850190945260048452634641524d60e01b90840152815184936a0422ca8b0a00a42500000093929091601291620000a191600391906200049d565b508151620000b79060049060208501906200049d565b506005805460ff191660ff9290921691909117905550620000ec9050620000dd620001e9565b6001600160e01b03620001ee16565b6000811162000142576040805162461bcd60e51b815260206004820152601560248201527f45524332304361707065643a2063617020697320300000000000000000000000604482015290519081900360640190fd5b6007556001600160a01b038116620001a1576040805162461bcd60e51b815260206004820152601e60248201527f6e65772073746f726167652073686f756c646e277420626520656d7074790000604482015290519081900360640190fd5b600880546001600160a01b0319166001600160a01b0392909216919091179055620001cb62000240565b620001e2620000dd6001600160e01b036200026816565b506200053f565b335b90565b62000209816006620002e160201b620010601790919060201c565b6040516001600160a01b038216907f6ae172837ea30b801fbfcdd4108aa1d5bf8ff775444fd70256b44e6bf3dfc3f690600090a250565b62000266620002576001600160e01b03620001e916565b6001600160e01b036200036e16565b565b60085460408051635aa6e67560e01b815290516000926001600160a01b031691635aa6e675916004808301926020929190829003018186803b158015620002ae57600080fd5b505afa158015620002c3573d6000803e3d6000fd5b505050506040513d6020811015620002da57600080fd5b5051905090565b620002f682826001600160e01b03620003c016565b1562000349576040805162461bcd60e51b815260206004820152601f60248201527f526f6c65733a206163636f756e7420616c72656164792068617320726f6c6500604482015290519081900360640190fd5b6001600160a01b0316600090815260209190915260409020805460ff19166001179055565b620003898160066200042960201b62000ff91790919060201c565b6040516001600160a01b038216907fe94479a9f7e1952cc78f2d6baab678adc1b772d936c6583def489e524cb6669290600090a250565b60006001600160a01b038216620004095760405162461bcd60e51b8152600401808060200182810382526022815260200180620017fa6022913960400191505060405180910390fd5b506001600160a01b03166000908152602091909152604090205460ff1690565b6200043e82826001600160e01b03620003c016565b6200047b5760405162461bcd60e51b8152600401808060200182810382526021815260200180620017d96021913960400191505060405180910390fd5b6001600160a01b0316600090815260209190915260409020805460ff19169055565b828054600181600116156101000203166002900490600052602060002090601f016020900481019282601f10620004e057805160ff191683800117855562000510565b8280016001018555821562000510579182015b8281111562000510578251825591602001919060010190620004f3565b506200051e92915062000522565b5090565b620001eb91905b808211156200051e576000815560010162000529565b61128a806200054f6000396000f3fe608060405234801561001057600080fd5b506004361061012c5760003560e01c806370a08231116100ad5780639865027511610071578063986502751461036c578063a457c2d714610374578063a9059cbb146103a0578063aa271e1a146103cc578063dd62ed3e146103f25761012c565b806370a08231146102e85780639137c1a71461030e57806395d89b4114610336578063975057e71461033e578063983b2d56146103465761012c565b8063355274ea116100f4578063355274ea1461025c57806339509351146102645780633a03171c1461029057806340c10f19146102985780635aa6e675146102c45761012c565b806306fdde0314610131578063095ea7b3146101ae57806318160ddd146101ee57806323b872dd14610208578063313ce5671461023e575b600080fd5b610139610420565b6040805160208082528351818301528351919283929083019185019080838360005b8381101561017357818101518382015260200161015b565b50505050905090810190601f1680156101a05780820380516001836020036101000a031916815260200191505b509250505060405180910390f35b6101da600480360360408110156101c457600080fd5b506001600160a01b0381351690602001356104b6565b604080519115158252519081900360200190f35b6101f66104d3565b60408051918252519081900360200190f35b6101da6004803603606081101561021e57600080fd5b506001600160a01b038135811691602081013590911690604001356104d9565b610246610566565b6040805160ff9092168252519081900360200190f35b6101f661056f565b6101da6004803603604081101561027a57600080fd5b506001600160a01b038135169060200135610575565b6101f66105c9565b6101da600480360360408110156102ae57600080fd5b506001600160a01b0381351690602001356105d8565b6102cc61062f565b604080516001600160a01b039092168252519081900360200190f35b6101f6600480360360208110156102fe57600080fd5b50356001600160a01b03166106a5565b6103346004803603602081101561032457600080fd5b50356001600160a01b03166106c0565b005b6101396107f6565b6102cc610857565b6103346004803603602081101561035c57600080fd5b50356001600160a01b0316610866565b61033461092b565b6101da6004803603604081101561038a57600080fd5b506001600160a01b03813516906020013561093d565b6101da600480360360408110156103b657600080fd5b506001600160a01b0381351690602001356109ab565b6101da600480360360208110156103e257600080fd5b50356001600160a01b03166109bf565b6101f66004803603604081101561040857600080fd5b506001600160a01b03813581169160200135166109d8565b60038054604080516020601f60026000196101006001881615020190951694909404938401819004810282018101909252828152606093909290918301828280156104ac5780601f10610481576101008083540402835291602001916104ac565b820191906000526020600020905b81548152906001019060200180831161048f57829003601f168201915b5050505050905090565b60006104ca6104c3610a03565b8484610a07565b50600192915050565b60025490565b60006104e6848484610af3565b61055c846104f2610a03565b6105578560405180606001604052806028815260200161119e602891396001600160a01b038a16600090815260016020526040812090610530610a03565b6001600160a01b03168152602081019190915260400160002054919063ffffffff610c4f16565b610a07565b5060019392505050565b60055460ff1690565b60075490565b60006104ca610582610a03565b846105578560016000610593610a03565b6001600160a01b03908116825260208083019390935260409182016000908120918c16815292529020549063ffffffff610ce616565b6a0422ca8b0a00a42500000081565b60006105ea6105e5610a03565b6109bf565b6106255760405162461bcd60e51b815260040180806020018281038252603081526020018061114d6030913960400191505060405180910390fd5b6104ca8383610d47565b60085460408051635aa6e67560e01b815290516000926001600160a01b031691635aa6e675916004808301926020929190829003018186803b15801561067457600080fd5b505afa158015610688573d6000803e3d6000fd5b505050506040513d602081101561069e57600080fd5b5051905090565b6001600160a01b031660009081526020819052604090205490565b600854604080516337b87c3960e21b815233600482015290516001600160a01b039092169163dee1f0e491602480820192602092909190829003018186803b15801561070b57600080fd5b505afa15801561071f573d6000803e3d6000fd5b505050506040513d602081101561073557600080fd5b5051610779576040805162461bcd60e51b815260206004820152600e60248201526d4e6f7420676f7665726e616e636560901b604482015290519081900360640190fd5b6001600160a01b0381166107d4576040805162461bcd60e51b815260206004820152601e60248201527f6e65772073746f726167652073686f756c646e277420626520656d7074790000604482015290519081900360640190fd5b600880546001600160a01b0319166001600160a01b0392909216919091179055565b60048054604080516020601f60026000196101006001881615020190951694909404938401819004810282018101909252828152606093909290918301828280156104ac5780601f10610481576101008083540402835291602001916104ac565b6008546001600160a01b031681565b600854604080516337b87c3960e21b815233600482015290516001600160a01b039092169163dee1f0e491602480820192602092909190829003018186803b1580156108b157600080fd5b505afa1580156108c5573d6000803e3d6000fd5b505050506040513d60208110156108db57600080fd5b505161091f576040805162461bcd60e51b815260206004820152600e60248201526d4e6f7420676f7665726e616e636560901b604482015290519081900360640190fd5b61092881610dc3565b50565b61093b610936610a03565b610e12565b565b60006104ca61094a610a03565b84610557856040518060600160405280602581526020016112316025913960016000610974610a03565b6001600160a01b03908116825260208083019390935260409182016000908120918d1681529252902054919063ffffffff610c4f16565b60006104ca6109b8610a03565b8484610af3565b60006109d260068363ffffffff610e5a16565b92915050565b6001600160a01b03918216600090815260016020908152604080832093909416825291909152205490565b3390565b6001600160a01b038316610a4c5760405162461bcd60e51b815260040180806020018281038252602481526020018061120d6024913960400191505060405180910390fd5b6001600160a01b038216610a915760405162461bcd60e51b81526004018080602001828103825260228152602001806111056022913960400191505060405180910390fd5b6001600160a01b03808416600081815260016020908152604080832094871680845294825291829020859055815185815291517f8c5be1e5ebec7d5bd14f71427d1e84f3dd0314c0f7b2291e5b200ac8c7c3b9259281900390910190a3505050565b6001600160a01b038316610b385760405162461bcd60e51b81526004018080602001828103825260258152602001806111e86025913960400191505060405180910390fd5b6001600160a01b038216610b7d5760405162461bcd60e51b81526004018080602001828103825260238152602001806110e26023913960400191505060405180910390fd5b610bc081604051806060016040528060268152602001611127602691396001600160a01b038616600090815260208190526040902054919063ffffffff610c4f16565b6001600160a01b038085166000908152602081905260408082209390935590841681522054610bf5908263ffffffff610ce616565b6001600160a01b038084166000818152602081815260409182902094909455805185815290519193928716927fddf252ad1be2c89b69c2b068fc378daa952ba7f163c4a11628f55a4df523b3ef92918290030190a3505050565b60008184841115610cde5760405162461bcd60e51b81526004018080602001828103825283818151815260200191508051906020019080838360005b83811015610ca3578181015183820152602001610c8b565b50505050905090810190601f168015610cd05780820380516001836020036101000a031916815260200191505b509250505060405180910390fd5b505050900390565b600082820183811015610d40576040805162461bcd60e51b815260206004820152601b60248201527f536166654d6174683a206164646974696f6e206f766572666c6f770000000000604482015290519081900360640190fd5b9392505050565b600754610d6282610d566104d3565b9063ffffffff610ce616565b1115610db5576040805162461bcd60e51b815260206004820152601960248201527f45524332304361707065643a2063617020657863656564656400000000000000604482015290519081900360640190fd5b610dbf8282610ec1565b5050565b610dce6105e5610a03565b610e095760405162461bcd60e51b815260040180806020018281038252603081526020018061114d6030913960400191505060405180910390fd5b61092881610fb1565b610e2360068263ffffffff610ff916565b6040516001600160a01b038216907fe94479a9f7e1952cc78f2d6baab678adc1b772d936c6583def489e524cb6669290600090a250565b60006001600160a01b038216610ea15760405162461bcd60e51b81526004018080602001828103825260228152602001806111c66022913960400191505060405180910390fd5b506001600160a01b03166000908152602091909152604090205460ff1690565b6001600160a01b038216610f1c576040805162461bcd60e51b815260206004820152601f60248201527f45524332303a206d696e7420746f20746865207a65726f206164647265737300604482015290519081900360640190fd5b600254610f2f908263ffffffff610ce616565b6002556001600160a01b038216600090815260208190526040902054610f5b908263ffffffff610ce616565b6001600160a01b0383166000818152602081815260408083209490945583518581529351929391927fddf252ad1be2c89b69c2b068fc378daa952ba7f163c4a11628f55a4df523b3ef9281900390910190a35050565b610fc260068263ffffffff61106016565b6040516001600160a01b038216907f6ae172837ea30b801fbfcdd4108aa1d5bf8ff775444fd70256b44e6bf3dfc3f690600090a250565b6110038282610e5a565b61103e5760405162461bcd60e51b815260040180806020018281038252602181526020018061117d6021913960400191505060405180910390fd5b6001600160a01b0316600090815260209190915260409020805460ff19169055565b61106a8282610e5a565b156110bc576040805162461bcd60e51b815260206004820152601f60248201527f526f6c65733a206163636f756e7420616c72656164792068617320726f6c6500604482015290519081900360640190fd5b6001600160a01b0316600090815260209190915260409020805460ff1916600117905556fe45524332303a207472616e7366657220746f20746865207a65726f206164647265737345524332303a20617070726f766520746f20746865207a65726f206164647265737345524332303a207472616e7366657220616d6f756e7420657863656564732062616c616e63654d696e746572526f6c653a2063616c6c657220646f6573206e6f74206861766520746865204d696e74657220726f6c65526f6c65733a206163636f756e7420646f6573206e6f74206861766520726f6c6545524332303a207472616e7366657220616d6f756e74206578636565647320616c6c6f77616e6365526f6c65733a206163636f756e7420697320746865207a65726f206164647265737345524332303a207472616e736665722066726f6d20746865207a65726f206164647265737345524332303a20617070726f76652066726f6d20746865207a65726f206164647265737345524332303a2064656372656173656420616c6c6f77616e63652062656c6f77207a65726fa265627a7a72315820e2eb8885c73c811046c2b8b056d9d762b3f5d49c713f86886cf60d1a67d002fe64736f6c63430005100032526f6c65733a206163636f756e7420646f6573206e6f74206861766520726f6c65526f6c65733a206163636f756e7420697320746865207a65726f2061646472657373",
  "source": "pragma solidity 0.5.16;\n\nimport \"@openzeppelin/contracts/token/ERC20/ERC20Capped.sol\";\nimport \"@openzeppelin/contracts/token/ERC20/ERC20Detailed.sol\";\nimport \"@openzeppelin/contracts/token/ERC20/ERC20Mintable.sol\";\nimport \"./Governable.sol\";\n\ncontract RewardToken is ERC20, ERC20Detailed, ERC20Capped, Governable {\n\n  uint256 public constant HARD_CAP = 5 * (10 ** 6) * (10 ** 18);\n\n  constructor(address _storage) public\n  ERC20Detailed(\"FARM Reward Token\", \"FARM\", 18)\n  ERC20Capped(HARD_CAP)\n  Governable(_storage) {\n    // msg.sender should not be a minter\n    renounceMinter();\n    // governance will become the only minter\n    _addMinter(governance());\n  }\n\n  /**\n  * Overrides adding new minters so that only governance can authorized them.\n  */\n  function addMinter(address _minter) public onlyGovernance {\n    super.addMinter(_minter);\n  }\n}\n",
  "sourcePath": "/home/jawaher/tmp/harvest/contracts/RewardToken.sol",
  "compiler": {
    "name": "solc",
    "version": "0.5.16+commit.9c3226ce.Emscripten.clang"
  },
  "schemaVersion": "3.2.5",
  "updatedAt": "2020-11-18T14:21:44.343Z",
  "networkType": "ethereum",
  "devdoc": {
    "methods": {
      "allowance(address,address)": {
        "details": "See {IERC20-allowance}."
      },
      "approve(address,uint256)": {
        "details": "See {IERC20-approve}.     * Requirements:     * - `spender` cannot be the zero address."
      },
      "balanceOf(address)": {
        "details": "See {IERC20-balanceOf}."
      },
      "cap()": {
        "details": "Returns the cap on the token's total supply."
      },
      "decimals()": {
        "details": "Returns the number of decimals used to get its user representation. For example, if `decimals` equals `2`, a balance of `505` tokens should be displayed to a user as `5,05` (`505 / 10 ** 2`).     * Tokens usually opt for a value of 18, imitating the relationship between Ether and Wei.     * NOTE: This information is only used for _display_ purposes: it in no way affects any of the arithmetic of the contract, including {IERC20-balanceOf} and {IERC20-transfer}."
      },
      "decreaseAllowance(address,uint256)": {
        "details": "Atomically decreases the allowance granted to `spender` by the caller.     * This is an alternative to {approve} that can be used as a mitigation for problems described in {IERC20-approve}.     * Emits an {Approval} event indicating the updated allowance.     * Requirements:     * - `spender` cannot be the zero address. - `spender` must have allowance for the caller of at least `subtractedValue`."
      },
      "increaseAllowance(address,uint256)": {
        "details": "Atomically increases the allowance granted to `spender` by the caller.     * This is an alternative to {approve} that can be used as a mitigation for problems described in {IERC20-approve}.     * Emits an {Approval} event indicating the updated allowance.     * Requirements:     * - `spender` cannot be the zero address."
      },
      "mint(address,uint256)": {
        "details": "See {ERC20-_mint}.     * Requirements:     * - the caller must have the {MinterRole}."
      },
      "name()": {
        "details": "Returns the name of the token."
      },
      "symbol()": {
        "details": "Returns the symbol of the token, usually a shorter version of the name."
      },
      "totalSupply()": {
        "details": "See {IERC20-totalSupply}."
      },
      "transfer(address,uint256)": {
        "details": "See {IERC20-transfer}.     * Requirements:     * - `recipient` cannot be the zero address. - the caller must have a balance of at least `amount`."
      },
      "transferFrom(address,address,uint256)": {
        "details": "See {IERC20-transferFrom}.     * Emits an {Approval} event indicating the updated allowance. This is not required by the EIP. See the note at the beginning of {ERC20};     * Requirements: - `sender` and `recipient` cannot be the zero address. - `sender` must have a balance of at least `amount`. - the caller must have allowance for `sender`'s tokens of at least `amount`."
      }
    }
  },
  "userdoc": {
    "methods": {
      "addMinter(address)": {
        "notice": "Overrides adding new minters so that only governance can authorized them."
      }
    }
  }
}