{
  "contractName": "SNXRewardStrategy",
  "abi": [
    {
      "inputs": [
        {
          "internalType": "address",
          "name": "_storage",
          "type": "address"
        },
        {
          "internalType": "address",
          "name": "_underlying",
          "type": "address"
        },
        {
          "internalType": "address",
          "name": "_vault",
          "type": "address"
        }
      ],
      "payable": false,
      "stateMutability": "nonpayable",
      "type": "constructor"
    },
    {
      "anonymous": false,
      "inputs": [
        {
          "indexed": false,
          "internalType": "uint256",
          "name": "oldBalance",
          "type": "uint256"
        },
        {
          "indexed": false,
          "internalType": "uint256",
          "name": "newBalance",
          "type": "uint256"
        },
        {
          "indexed": false,
          "internalType": "uint256",
          "name": "feeAmount",
          "type": "uint256"
        },
        {
          "indexed": false,
          "internalType": "uint256",
          "name": "timestamp",
          "type": "uint256"
        }
      ],
      "name": "ProfitLog",
      "type": "event"
    },
    {
      "constant": true,
      "inputs": [],
      "name": "controller",
      "outputs": [
        {
          "internalType": "address",
          "name": "",
          "type": "address"
        }
      ],
      "payable": false,
      "stateMutability": "view",
      "type": "function"
    },
    {
      "constant": true,
      "inputs": [],
      "name": "governance",
      "outputs": [
        {
          "internalType": "address",
          "name": "",
          "type": "address"
        }
      ],
      "payable": false,
      "stateMutability": "view",
      "type": "function"
    },
    {
      "constant": true,
      "inputs": [],
      "name": "profitSharingDenominator",
      "outputs": [
        {
          "internalType": "uint256",
          "name": "",
          "type": "uint256"
        }
      ],
      "payable": false,
      "stateMutability": "view",
      "type": "function"
    },
    {
      "constant": true,
      "inputs": [],
      "name": "profitSharingNumerator",
      "outputs": [
        {
          "internalType": "uint256",
          "name": "",
          "type": "uint256"
        }
      ],
      "payable": false,
      "stateMutability": "view",
      "type": "function"
    },
    {
      "constant": true,
      "inputs": [],
      "name": "rewardPool",
      "outputs": [
        {
          "internalType": "contract SNXRewardInterface",
          "name": "",
          "type": "address"
        }
      ],
      "payable": false,
      "stateMutability": "view",
      "type": "function"
    },
    {
      "constant": true,
      "inputs": [],
      "name": "rewardToken",
      "outputs": [
        {
          "internalType": "address",
          "name": "",
          "type": "address"
        }
      ],
      "payable": false,
      "stateMutability": "view",
      "type": "function"
    },
    {
      "constant": false,
      "inputs": [
        {
          "internalType": "address",
          "name": "_store",
          "type": "address"
        }
      ],
      "name": "setStorage",
      "outputs": [],
      "payable": false,
      "stateMutability": "nonpayable",
      "type": "function"
    },
    {
      "constant": true,
      "inputs": [],
      "name": "store",
      "outputs": [
        {
          "internalType": "contract Storage",
          "name": "",
          "type": "address"
        }
      ],
      "payable": false,
      "stateMutability": "view",
      "type": "function"
    },
    {
      "constant": true,
      "inputs": [],
      "name": "underlying",
      "outputs": [
        {
          "internalType": "contract ERC20Detailed",
          "name": "",
          "type": "address"
        }
      ],
      "payable": false,
      "stateMutability": "view",
      "type": "function"
    },
    {
      "constant": true,
      "inputs": [],
      "name": "uniswapRouterV2",
      "outputs": [
        {
          "internalType": "address",
          "name": "",
          "type": "address"
        }
      ],
      "payable": false,
      "stateMutability": "view",
      "type": "function"
    },
    {
      "constant": true,
      "inputs": [
        {
          "internalType": "address",
          "name": "",
          "type": "address"
        },
        {
          "internalType": "uint256",
          "name": "",
          "type": "uint256"
        }
      ],
      "name": "uniswapRoutes",
      "outputs": [
        {
          "internalType": "address",
          "name": "",
          "type": "address"
        }
      ],
      "payable": false,
      "stateMutability": "view",
      "type": "function"
    },
    {
      "constant": true,
      "inputs": [
        {
          "internalType": "address",
          "name": "",
          "type": "address"
        }
      ],
      "name": "unsalvagableTokens",
      "outputs": [
        {
          "internalType": "bool",
          "name": "",
          "type": "bool"
        }
      ],
      "payable": false,
      "stateMutability": "view",
      "type": "function"
    },
    {
      "constant": true,
      "inputs": [],
      "name": "vault",
      "outputs": [
        {
          "internalType": "address",
          "name": "",
          "type": "address"
        }
      ],
      "payable": false,
      "stateMutability": "view",
      "type": "function"
    },
    {
      "constant": true,
      "inputs": [],
      "name": "depositArbCheck",
      "outputs": [
        {
          "internalType": "bool",
          "name": "",
          "type": "bool"
        }
      ],
      "payable": false,
      "stateMutability": "view",
      "type": "function"
    },
    {
      "constant": false,
      "inputs": [],
      "name": "emergencyExit",
      "outputs": [],
      "payable": false,
      "stateMutability": "nonpayable",
      "type": "function"
    },
    {
      "constant": false,
      "inputs": [],
      "name": "continueInvesting",
      "outputs": [],
      "payable": false,
      "stateMutability": "nonpayable",
      "type": "function"
    },
    {
      "constant": false,
      "inputs": [
        {
          "internalType": "address",
          "name": "_rewardPool",
          "type": "address"
        }
      ],
      "name": "switchRewardSource",
      "outputs": [],
      "payable": false,
      "stateMutability": "nonpayable",
      "type": "function"
    },
    {
      "constant": false,
      "inputs": [
        {
          "internalType": "address",
          "name": "_rewardPool",
          "type": "address"
        },
        {
          "internalType": "address",
          "name": "_rewardToken",
          "type": "address"
        },
        {
          "internalType": "address[]",
          "name": "_uniswapRoute",
          "type": "address[]"
        }
      ],
      "name": "setRewardSource",
      "outputs": [],
      "payable": false,
      "stateMutability": "nonpayable",
      "type": "function"
    },
    {
      "constant": false,
      "inputs": [
        {
          "internalType": "address",
          "name": "_rewardPool",
          "type": "address"
        },
        {
          "internalType": "address",
          "name": "_rewardToken",
          "type": "address"
        },
        {
          "internalType": "address[]",
          "name": "_uniswapRoute",
          "type": "address[]"
        }
      ],
      "name": "setLiquidationRoute",
      "outputs": [],
      "payable": false,
      "stateMutability": "nonpayable",
      "type": "function"
    },
    {
      "constant": false,
      "inputs": [],
      "name": "withdrawAllToVault",
      "outputs": [],
      "payable": false,
      "stateMutability": "nonpayable",
      "type": "function"
    },
    {
      "constant": false,
      "inputs": [
        {
          "internalType": "uint256",
          "name": "amount",
          "type": "uint256"
        }
      ],
      "name": "withdrawToVault",
      "outputs": [],
      "payable": false,
      "stateMutability": "nonpayable",
      "type": "function"
    },
    {
      "constant": true,
      "inputs": [],
      "name": "investedUnderlyingBalance",
      "outputs": [
        {
          "internalType": "uint256",
          "name": "",
          "type": "uint256"
        }
      ],
      "payable": false,
      "stateMutability": "view",
      "type": "function"
    },
    {
      "constant": false,
      "inputs": [
        {
          "internalType": "address",
          "name": "recipient",
          "type": "address"
        },
        {
          "internalType": "address",
          "name": "token",
          "type": "address"
        },
        {
          "internalType": "uint256",
          "name": "amount",
          "type": "uint256"
        }
      ],
      "name": "salvage",
      "outputs": [],
      "payable": false,
      "stateMutability": "nonpayable",
      "type": "function"
    },
    {
      "constant": false,
      "inputs": [],
      "name": "doHardWork",
      "outputs": [],
      "payable": false,
      "stateMutability": "nonpayable",
      "type": "function"
    }
  ],
  "bytecode": "0x60806040526005805460ff60a01b191690553480156200001e57600080fd5b5060405162002a9438038062002a94833981810160405260608110156200004457600080fd5b5080516020820151604090920151909190828281806001600160a01b038116620000b5576040805162461bcd60e51b815260206004820152601e60248201527f6e65772073746f726167652073686f756c646e277420626520656d7074790000604482015290519081900360640190fd5b600080546001600160a01b03199081166001600160a01b03938416179091556003805490911691841691909117905550620000ef62000281565b6001600160a01b031663b60f151a6040518163ffffffff1660e01b815260040160206040518083038186803b1580156200012857600080fd5b505afa1580156200013d573d6000803e3d6000fd5b505050506040513d60208110156200015457600080fd5b50516001556200016c6001600160e01b036200028116565b6001600160a01b031663026a0dd06040518163ffffffff1660e01b815260040160206040518083038186803b158015620001a557600080fd5b505afa158015620001ba573d6000803e3d6000fd5b505050506040513d6020811015620001d157600080fd5b50516002819055600154106200022e576040805162461bcd60e51b815260206004820152601460248201527f696e76616c69642070726f666974207368617265000000000000000000000000604482015290519081900360640190fd5b5050600480546001600160a01b039384166001600160a01b0319918216811790925560058054939094169216919091179091556000908152600960205260409020805460ff191660011790555062000304565b60008060009054906101000a90046001600160a01b03166001600160a01b031663f77c47916040518163ffffffff1660e01b815260040160206040518083038186803b158015620002d157600080fd5b505afa158015620002e6573d6000803e3d6000fd5b505050506040513d6020811015620002fd57600080fd5b5051905090565b61278080620003146000396000f3fe608060405234801561001057600080fd5b50600436106101575760003560e01c80636f307dc3116100c3578063c2a2a07b1161007c578063c2a2a07b14610440578063ce8c42e814610448578063db62048514610465578063f77c47911461046d578063f7c618c114610475578063fbfa77cf1461047d57610157565b80636f307dc3146103405780637c58d2a6146103485780639137c1a714610402578063975057e714610428578063b60f151a14610430578063bfd131f11461043857610157565b80634fa5d854116101155780634fa5d854146102de57806350185946146102e65780635641ec0314610320578063596fa9e3146103285780635aa6e6751461033057806366666aa91461033857610157565b8062b70eb71461015c578063026a0dd0146101a4578063089826fb146101be57806310770215146101e65780631113ef52146102a057806345d01e4a146102d6575b600080fd5b6101886004803603604081101561017257600080fd5b506001600160a01b038135169060200135610485565b604080516001600160a01b039092168252519081900360200190f35b6101ac6104ba565b60408051918252519081900360200190f35b6101e4600480360360208110156101d457600080fd5b50356001600160a01b03166104c0565b005b6101e4600480360360608110156101fc57600080fd5b6001600160a01b038235811692602081013590911691810190606081016040820135600160201b81111561022f57600080fd5b82018360208201111561024157600080fd5b803590602001918460208302840111600160201b8311171561026257600080fd5b919080806020026020016040519081016040528093929190818152602001838360200280828437600092019190915250929550610667945050505050565b6101e4600480360360608110156102b657600080fd5b506001600160a01b0381358116916020810135909116906040013561084b565b6101ac6109ed565b6101e4610b84565b61030c600480360360208110156102fc57600080fd5b50356001600160a01b0316610cd6565b604080519115158252519081900360200190f35b6101e4610ceb565b610188610e21565b610188610e39565b610188610eb9565b610188610ec8565b6101e46004803603606081101561035e57600080fd5b6001600160a01b038235811692602081013590911691810190606081016040820135600160201b81111561039157600080fd5b8201836020820111156103a357600080fd5b803590602001918460208302840111600160201b831117156103c457600080fd5b919080806020026020016040519081016040528093929190818152602001838360200280828437600092019190915250929550610ed7945050505050565b6101e46004803603602081101561041857600080fd5b50356001600160a01b0316611099565b6101886111cf565b6101ac6111de565b6101e46111e4565b61030c611390565b6101e46004803603602081101561045e57600080fd5b5035611395565b6101e461162c565b6101886116f4565b610188611743565b610188611752565b6008602052816000526040600020818154811061049e57fe5b6000918252602090912001546001600160a01b03169150829050565b60025481565b600054604080516337b87c3960e21b815233600482015290516001600160a01b039092169163dee1f0e491602480820192602092909190829003018186803b15801561050b57600080fd5b505afa15801561051f573d6000803e3d6000fd5b505050506040513d602081101561053557600080fd5b5051610579576040805162461bcd60e51b815260206004820152600e60248201526d4e6f7420676f7665726e616e636560901b604482015290519081900360640190fd5b6006546001600160a01b0316156105fa57600660009054906101000a90046001600160a01b03166001600160a01b031663e9fad8ee6040518163ffffffff1660e01b8152600401600060405180830381600087803b1580156105da57600080fd5b505af11580156105ee573d6000803e3d6000fd5b505050506105fa611761565b600680546001600160a01b0319166001600160a01b0383169081179091556000908152600860205260408120805490919061063157fe5b600091825260209091200154600780546001600160a01b0319166001600160a01b03909216919091179055610664611b1d565b50565b600054604080516337b87c3960e21b815233600482015290516001600160a01b039092169163dee1f0e491602480820192602092909190829003018186803b1580156106b257600080fd5b505afa1580156106c6573d6000803e3d6000fd5b505050506040513d60208110156106dc57600080fd5b5051610720576040805162461bcd60e51b815260206004820152600e60248201526d4e6f7420676f7665726e616e636560901b604482015290519081900360640190fd5b6001600160a01b038083166000908152600960209081526040808320805460ff1916600117905592861682526008815291902082516107619284019061250a565b508060008151811061076f57fe5b60200260200101516001600160a01b0316826001600160a01b0316146107c65760405162461bcd60e51b815260040180806020018281038252603d81526020018061261a603d913960400191505060405180910390fd5b60018151111561084657805181906107e590600163ffffffff611dc016565b815181106107ef57fe5b60209081029190910101516004546001600160a01b039081169116146108465760405162461bcd60e51b81526004018080602001828103825260408152602001806126786040913960400191505060405180910390fd5b505050565b6000546040805163b429afeb60e01b815233600482015290516001600160a01b039092169163b429afeb91602480820192602092909190829003018186803b15801561089657600080fd5b505afa1580156108aa573d6000803e3d6000fd5b505050506040513d60208110156108c057600080fd5b5051806109405750600054604080516337b87c3960e21b815233600482015290516001600160a01b039092169163dee1f0e491602480820192602092909190829003018186803b15801561091357600080fd5b505afa158015610927573d6000803e3d6000fd5b505050506040513d602081101561093d57600080fd5b50515b61097b5760405162461bcd60e51b815260040180806020018281038252602b815260200180612594602b913960400191505060405180910390fd5b6001600160a01b03821660009081526009602052604090205460ff16156109d35760405162461bcd60e51b81526004018080602001828103825260228152602001806125bf6022913960400191505060405180910390fd5b6108466001600160a01b038316848363ffffffff611e0b16565b6006546000906001600160a01b0316610a7f5760048054604080516370a0823160e01b81523093810193909352516001600160a01b03909116916370a08231916024808301926020929190829003018186803b158015610a4c57600080fd5b505afa158015610a60573d6000803e3d6000fd5b505050506040513d6020811015610a7657600080fd5b50519050610b81565b60048054604080516370a0823160e01b8152309381019390935251610b7e926001600160a01b03909216916370a08231916024808301926020929190829003018186803b158015610acf57600080fd5b505afa158015610ae3573d6000803e3d6000fd5b505050506040513d6020811015610af957600080fd5b5051600654604080516370a0823160e01b815230600482015290516001600160a01b03909216916370a0823191602480820192602092909190829003018186803b158015610b4657600080fd5b505afa158015610b5a573d6000803e3d6000fd5b505050506040513d6020811015610b7057600080fd5b50519063ffffffff611e5d16565b90505b90565b600554600160a01b900460ff1615610bcd5760405162461bcd60e51b81526004018080602001828103825260348152602001806127186034913960400191505060405180910390fd5b6005546001600160a01b0316331480610bfe5750610be96116f4565b6001600160a01b0316336001600160a01b0316145b80610c215750610c0c610e39565b6001600160a01b0316336001600160a01b0316145b610c5c5760405162461bcd60e51b81526004018080602001828103825260398152602001806125e16039913960400191505060405180910390fd5b600660009054906101000a90046001600160a01b03166001600160a01b0316633d18b9126040518163ffffffff1660e01b8152600401600060405180830381600087803b158015610cac57600080fd5b505af1158015610cc0573d6000803e3d6000fd5b50505050610ccc611761565b610cd4611b1d565b565b60096020526000908152604090205460ff1681565b600054604080516337b87c3960e21b815233600482015290516001600160a01b039092169163dee1f0e491602480820192602092909190829003018186803b158015610d3657600080fd5b505afa158015610d4a573d6000803e3d6000fd5b505050506040513d6020811015610d6057600080fd5b5051610da4576040805162461bcd60e51b815260206004820152600e60248201526d4e6f7420676f7665726e616e636560901b604482015290519081900360640190fd5b600660009054906101000a90046001600160a01b03166001600160a01b031663e9fad8ee6040518163ffffffff1660e01b8152600401600060405180830381600087803b158015610df457600080fd5b505af1158015610e08573d6000803e3d6000fd5b50506005805460ff60a01b1916600160a01b1790555050565b737a250d5630b4cf539739df2c5dacb4c659f2488d81565b60008060009054906101000a90046001600160a01b03166001600160a01b0316635aa6e6756040518163ffffffff1660e01b815260040160206040518083038186803b158015610e8857600080fd5b505afa158015610e9c573d6000803e3d6000fd5b505050506040513d6020811015610eb257600080fd5b5051905090565b6006546001600160a01b031681565b6004546001600160a01b031681565b600054604080516337b87c3960e21b815233600482015290516001600160a01b039092169163dee1f0e491602480820192602092909190829003018186803b158015610f2257600080fd5b505afa158015610f36573d6000803e3d6000fd5b505050506040513d6020811015610f4c57600080fd5b5051610f90576040805162461bcd60e51b815260206004820152600e60248201526d4e6f7420676f7665726e616e636560901b604482015290519081900360640190fd5b80600081518110610f9d57fe5b60200260200101516001600160a01b0316826001600160a01b031614610ff45760405162461bcd60e51b815260040180806020018281038252603d81526020018061261a603d913960400191505060405180910390fd5b8051819061100990600163ffffffff611dc016565b8151811061101357fe5b60209081029190910101516004546001600160a01b0390811691161461106a5760405162461bcd60e51b81526004018080602001828103825260408152602001806126786040913960400191505060405180910390fd5b6001600160a01b038316600090815260086020908152604090912082516110939284019061250a565b50505050565b600054604080516337b87c3960e21b815233600482015290516001600160a01b039092169163dee1f0e491602480820192602092909190829003018186803b1580156110e457600080fd5b505afa1580156110f8573d6000803e3d6000fd5b505050506040513d602081101561110e57600080fd5b5051611152576040805162461bcd60e51b815260206004820152600e60248201526d4e6f7420676f7665726e616e636560901b604482015290519081900360640190fd5b6001600160a01b0381166111ad576040805162461bcd60e51b815260206004820152601e60248201527f6e65772073746f726167652073686f756c646e277420626520656d7074790000604482015290519081900360640190fd5b600080546001600160a01b0319166001600160a01b0392909216919091179055565b6000546001600160a01b031681565b60015481565b6005546001600160a01b031633148061121557506112006116f4565b6001600160a01b0316336001600160a01b0316145b806112385750611223610e39565b6001600160a01b0316336001600160a01b0316145b6112735760405162461bcd60e51b81526004018080602001828103825260398152602001806125e16039913960400191505060405180910390fd5b6006546001600160a01b0316156112ed57600660009054906101000a90046001600160a01b03166001600160a01b031663e9fad8ee6040518163ffffffff1660e01b8152600401600060405180830381600087803b1580156112d457600080fd5b505af11580156112e8573d6000803e3d6000fd5b505050505b6112f5611761565b60055460048054604080516370a0823160e01b8152309381019390935251610cd4936001600160a01b03908116939216916370a08231916024808301926020929190829003018186803b15801561134b57600080fd5b505afa15801561135f573d6000803e3d6000fd5b505050506040513d602081101561137557600080fd5b50516004546001600160a01b0316919063ffffffff611e0b16565b600190565b6005546001600160a01b03163314806113c657506113b16116f4565b6001600160a01b0316336001600160a01b0316145b806113e957506113d4610e39565b6001600160a01b0316336001600160a01b0316145b6114245760405162461bcd60e51b81526004018080602001828103825260398152602001806125e16039913960400191505060405180910390fd5b60048054604080516370a0823160e01b81523093810193909352516001600160a01b03909116916370a08231916024808301926020929190829003018186803b15801561147057600080fd5b505afa158015611484573d6000803e3d6000fd5b505050506040513d602081101561149a57600080fd5b50518111156116095760048054604080516370a0823160e01b815230938101939093525160009261152e926001600160a01b0316916370a0823191602480820192602092909190829003018186803b1580156114f557600080fd5b505afa158015611509573d6000803e3d6000fd5b505050506040513d602081101561151f57600080fd5b5051839063ffffffff611dc016565b600654604080516370a0823160e01b815230600482015290519293506001600160a01b0390911691632e1a7d4d916115b99184916370a08231916024808301926020929190829003018186803b15801561158757600080fd5b505afa15801561159b573d6000803e3d6000fd5b505050506040513d60208110156115b157600080fd5b505184611eb7565b6040518263ffffffff1660e01b815260040180828152602001915050600060405180830381600087803b1580156115ef57600080fd5b505af1158015611603573d6000803e3d6000fd5b50505050505b600554600454610664916001600160a01b0391821691168363ffffffff611e0b16565b600054604080516337b87c3960e21b815233600482015290516001600160a01b039092169163dee1f0e491602480820192602092909190829003018186803b15801561167757600080fd5b505afa15801561168b573d6000803e3d6000fd5b505050506040513d60208110156116a157600080fd5b50516116e5576040805162461bcd60e51b815260206004820152600e60248201526d4e6f7420676f7665726e616e636560901b604482015290519081900360640190fd5b6005805460ff60a01b19169055565b60008060009054906101000a90046001600160a01b03166001600160a01b031663f77c47916040518163ffffffff1660e01b815260040160206040518083038186803b158015610e8857600080fd5b6007546001600160a01b031681565b6005546001600160a01b031681565b60048054604080516370a0823160e01b81523093810193909352516000926001600160a01b03909216916370a08231916024808301926020929190829003018186803b1580156117b057600080fd5b505afa1580156117c4573d6000803e3d6000fd5b505050506040513d60208110156117da57600080fd5b5051600754604080516370a0823160e01b815230600482015290519293506000926001600160a01b03909216916370a0823191602480820192602092909190829003018186803b15801561182d57600080fd5b505afa158015611841573d6000803e3d6000fd5b505050506040513d602081101561185757600080fd5b50519050801580159061188457506006546001600160a01b03166000908152600860205260409020546001105b15611b19576007546001906118be906001600160a01b0316737a250d5630b4cf539739df2c5dacb4c659f2488d600063ffffffff611ecd16565b6007546118ef906001600160a01b0316737a250d5630b4cf539739df2c5dacb4c659f2488d8463ffffffff611ecd16565b6006546001600160a01b03166000908152600860205260409081902090516338ed173960e01b815260048101848152602482018490523060648301819052426084840181905260a060448501908152855460a48601819052737a250d5630b4cf539739df2c5dacb4c659f2488d966338ed1739968a968a9692959294929390929160c40190869080156119ab57602002820191906000526020600020905b81546001600160a01b0316815260019091019060200180831161198d575b50509650505050505050600060405180830381600087803b1580156119cf57600080fd5b505af11580156119e3573d6000803e3d6000fd5b505050506040513d6000823e601f3d908101601f191682016040526020811015611a0c57600080fd5b8101908080516040519392919084600160201b821115611a2b57600080fd5b908301906020820185811115611a4057600080fd5b82518660208202830111600160201b82111715611a5c57600080fd5b82525081516020918201928201910280838360005b83811015611a89578181015183820152602001611a71565b50505050919091016040818152600480546370a0823160e01b84523091840191909152905161084697508a96506001600160a01b0390911694506370a08231935060248083019350602092829003018186803b158015611ae857600080fd5b505afa158015611afc573d6000803e3d6000fd5b505050506040513d6020811015611b1257600080fd5b5051611fe0565b5050565b600554600160a01b900460ff1615611b665760405162461bcd60e51b81526004018080602001828103825260348152602001806127186034913960400191505060405180910390fd5b60048054604080516370a0823160e01b81523093810193909352516000926001600160a01b03909216916370a08231916024808301926020929190829003018186803b158015611bb557600080fd5b505afa158015611bc9573d6000803e3d6000fd5b505050506040513d6020811015611bdf57600080fd5b50511115610cd45760048054600654604080516370a0823160e01b81523094810194909452516001600160a01b039283169363095ea7b3939092169184916370a0823191602480820192602092909190829003018186803b158015611c4357600080fd5b505afa158015611c57573d6000803e3d6000fd5b505050506040513d6020811015611c6d57600080fd5b5051604080516001600160e01b031960e086901b1681526001600160a01b03909316600484015260248301919091525160448083019260209291908290030181600087803b158015611cbe57600080fd5b505af1158015611cd2573d6000803e3d6000fd5b505050506040513d6020811015611ce857600080fd5b505060065460048054604080516370a0823160e01b81523093810193909352516001600160a01b039384169363a694fc3a939216916370a08231916024808301926020929190829003018186803b158015611d4257600080fd5b505afa158015611d56573d6000803e3d6000fd5b505050506040513d6020811015611d6c57600080fd5b5051604080516001600160e01b031960e085901b168152600481019290925251602480830192600092919082900301818387803b158015611dac57600080fd5b505af1158015611093573d6000803e3d6000fd5b6000611e0283836040518060400160405280601e81526020017f536166654d6174683a207375627472616374696f6e206f766572666c6f77000081525061217f565b90505b92915050565b604080516001600160a01b038416602482015260448082018490528251808303909101815260649091019091526020810180516001600160e01b031663a9059cbb60e01b179052610846908490612216565b600082820183811015611e02576040805162461bcd60e51b815260206004820152601b60248201527f536166654d6174683a206164646974696f6e206f766572666c6f770000000000604482015290519081900360640190fd5b6000818310611ec65781611e02565b5090919050565b801580611f53575060408051636eb1769f60e11b81523060048201526001600160a01b03848116602483015291519185169163dd62ed3e91604480820192602092909190829003018186803b158015611f2557600080fd5b505afa158015611f39573d6000803e3d6000fd5b505050506040513d6020811015611f4f57600080fd5b5051155b611f8e5760405162461bcd60e51b81526004018080602001828103825260368152602001806126e26036913960400191505060405180910390fd5b604080516001600160a01b038416602482015260448082018490528251808303909101815260649091019091526020810180516001600160e01b031663095ea7b360e01b179052610846908490612216565b81811115612135576000611ffa828463ffffffff611dc016565b90506000612025600254612019600154856123ce90919063ffffffff16565b9063ffffffff61242716565b604080518681526020810186905280820183905242606082015290519192507f0b34b93979d93253da0e9e54841c680c66377f129a340ef2a37e802865e40588919081900360800190a161209461207a6116f4565b6003546001600160a01b031690600063ffffffff611ecd16565b6120b861209f6116f4565b6003546001600160a01b0316908363ffffffff611ecd16565b6120c06116f4565b60035460408051631ee0d7e560e31b81526001600160a01b039283166004820152602481018590529051929091169163f706bf289160448082019260009290919082900301818387803b15801561211657600080fd5b505af115801561212a573d6000803e3d6000fd5b505050505050611b19565b604080518381526020810183905260008183015242606082015290517f0b34b93979d93253da0e9e54841c680c66377f129a340ef2a37e802865e405889181900360800190a15050565b6000818484111561220e5760405162461bcd60e51b81526004018080602001828103825283818151815260200191508051906020019080838360005b838110156121d35781810151838201526020016121bb565b50505050905090810190601f1680156122005780820380516001836020036101000a031916815260200191505b509250505060405180910390fd5b505050900390565b612228826001600160a01b0316612469565b612279576040805162461bcd60e51b815260206004820152601f60248201527f5361666545524332303a2063616c6c20746f206e6f6e2d636f6e747261637400604482015290519081900360640190fd5b60006060836001600160a01b0316836040518082805190602001908083835b602083106122b75780518252601f199092019160209182019101612298565b6001836020036101000a0380198251168184511680821785525050505050509050019150506000604051808303816000865af19150503d8060008114612319576040519150601f19603f3d011682016040523d82523d6000602084013e61231e565b606091505b509150915081612375576040805162461bcd60e51b815260206004820181905260248201527f5361666545524332303a206c6f772d6c6576656c2063616c6c206661696c6564604482015290519081900360640190fd5b8051156110935780806020019051602081101561239157600080fd5b50516110935760405162461bcd60e51b815260040180806020018281038252602a8152602001806126b8602a913960400191505060405180910390fd5b6000826123dd57506000611e05565b828202828482816123ea57fe5b0414611e025760405162461bcd60e51b81526004018080602001828103825260218152602001806126576021913960400191505060405180910390fd5b6000611e0283836040518060400160405280601a81526020017f536166654d6174683a206469766973696f6e206279207a65726f0000000000008152506124a5565b6000813f7fc5d2460186f7233c927e7db2dcc703c0e500b653ca82273b7bfad8045d85a47081811480159061249d57508115155b949350505050565b600081836124f45760405162461bcd60e51b81526020600482018181528351602484015283519092839260449091019190850190808383600083156121d35781810151838201526020016121bb565b50600083858161250057fe5b0495945050505050565b82805482825590600052602060002090810192821561255f579160200282015b8281111561255f57825182546001600160a01b0319166001600160a01b0390911617825560209092019160019091019061252a565b5061256b92915061256f565b5090565b610b8191905b8082111561256b5780546001600160a01b031916815560010161257556fe5468652063616c6c6572206d75737420626520636f6e74726f6c6c6572206f7220676f7665726e616e6365746f6b656e20697320646566696e6564206173206e6f742073616c76616761626c655468652073656e6465722068617320746f2062652074686520636f6e74726f6c6c65722c20676f7665726e616e63652c206f72207661756c7454686520666972737420746f6b656e206f662074686520556e697377617020726f757465206d757374206265207468652072657761726420746f6b656e536166654d6174683a206d756c7469706c69636174696f6e206f766572666c6f77546865206c61737420746f6b656e206f662074686520556e697377617020726f757465206d7573742062652074686520756e6465726c79696e6720746f6b656e5361666545524332303a204552433230206f7065726174696f6e20646964206e6f7420737563636565645361666545524332303a20617070726f76652066726f6d206e6f6e2d7a65726f20746f206e6f6e2d7a65726f20616c6c6f77616e6365416374696f6e20626c6f636b65642061732074686520737472617465677920697320696e20656d657267656e6379207374617465a265627a7a72315820145aa8f022633b6331db5868acabd7217ffe4b4514571dfa8b90b5a635fd6c5464736f6c63430005100032",
  "source": "pragma solidity 0.5.16;\n\nimport \"@openzeppelin/contracts/math/Math.sol\";\nimport \"@openzeppelin/contracts/math/SafeMath.sol\";\nimport \"@openzeppelin/contracts/token/ERC20/ERC20Detailed.sol\";\nimport \"@openzeppelin/contracts/token/ERC20/SafeERC20.sol\";\nimport \"../../Controllable.sol\";\nimport \"../../uniswap/interfaces/IUniswapV2Router02.sol\";\nimport \"../../hardworkInterface/IStrategy.sol\";\nimport \"../../hardworkInterface/IVault.sol\";\nimport \"./SNXRewardInterface.sol\";\nimport \"../ProfitNotifier.sol\";\n\n/*\n*   This is a general strategy for yields that are based on the synthetix reward contract\n*   for example, yam, spaghetti, ham, shrimp.\n*\n*   One strategy is deployed for one underlying asset, but the design of the contract\n*   should allow it to switch between different reward contracts.\n*\n*   It is important to note that not all SNX reward contracts that are accessible via the same interface are\n*   suitable for this Strategy. One concrete example is CREAM.finance, as it implements a \"Lock\" feature and\n*   would not allow the user to withdraw within some timeframe after the user have deposited.\n*   This would be problematic to user as our \"invest\" function in the vault could be invoked by anyone anytime\n*   and thus locking/reverting on subsequent withdrawals. Another variation is the YFI Governance: it can\n*   activate a vote lock to stop withdrawal.\n*\n*   Ref:\n*   1. CREAM https://etherscan.io/address/0xc29e89845fa794aa0a0b8823de23b760c3d766f5#code\n*   2. YAM https://etherscan.io/address/0x8538E5910c6F80419CD3170c26073Ff238048c9E#code\n*   3. SHRIMP https://etherscan.io/address/0x9f83883FD3cadB7d2A83a1De51F9Bf483438122e#code\n*   4. BASED https://etherscan.io/address/0x5BB622ba7b2F09BF23F1a9b509cd210A818c53d7#code\n*   5. YFII https://etherscan.io/address/0xb81D3cB2708530ea990a287142b82D058725C092#code\n*   6. YFIGovernance https://etherscan.io/address/0xBa37B002AbaFDd8E89a1995dA52740bbC013D992#code\n*\n*\n*\n*   Respecting the current system design of choosing the best strategy under the vault, and also rewarding/funding\n*   the public key that invokes the switch of strategies, this smart contract should be deployed twice and linked\n*   to the same vault. When the governance want to rotate the crop, they would set the reward source on the strategy\n*   that is not active, then set that apy higher and this one lower.\n*\n*   Consequently, in the smart contract we restrict that we can only set a new reward source when it is not active.\n*\n*/\n\ncontract SNXRewardStrategy is IStrategy, Controllable, ProfitNotifier {\n\n  using SafeMath for uint256;\n  using SafeERC20 for IERC20;\n\n  ERC20Detailed public underlying;\n  address public vault;\n  bool pausedInvesting = false; // When this flag is true, the strategy will not be able to invest. But users should be able to withdraw.\n\n  SNXRewardInterface public rewardPool;\n  address public rewardToken; // unfortunately, the interface is not unified for rewardToken for all the variants\n\n  // UniswapV2Router02\n  // https://uniswap.org/docs/v2/smart-contracts/router02/\n  // https://etherscan.io/address/0x7a250d5630B4cF539739dF2C5dAcb4c659F2488D\n  address public constant uniswapRouterV2 = address(0x7a250d5630B4cF539739dF2C5dAcb4c659F2488D);\n\n  mapping (address => address[]) public uniswapRoutes;\n\n  // These tokens cannot be claimed by the controller\n  mapping (address => bool) public unsalvagableTokens;\n\n  modifier restricted() {\n    require(msg.sender == vault || msg.sender == controller()\n      || msg.sender == governance(),\n      \"The sender has to be the controller, governance, or vault\");\n    _;\n  }\n\n  // This is only used in `investAllUnderlying()`\n  // The user can still freely withdraw from the strategy\n  modifier onlyNotPausedInvesting() {\n    require(!pausedInvesting, \"Action blocked as the strategy is in emergency state\");\n    _;\n  }\n\n  constructor(\n    address _storage,\n    address _underlying,\n    address _vault\n  )\n  ProfitNotifier(_storage, _underlying)\n  public {\n    underlying = ERC20Detailed(_underlying);\n    vault = _vault;\n    unsalvagableTokens[_underlying] = true;\n  }\n\n  function depositArbCheck() public view returns(bool) {\n    return true;\n  }\n\n  /*\n  *   In case there are some issues discovered about the pool or underlying asset\n  *   Governance can exit the pool properly\n  *   The function is only used for emergency to exit the pool\n  */\n  function emergencyExit() public onlyGovernance {\n    rewardPool.exit();\n    pausedInvesting = true;\n  }\n\n  /*\n  *   Resumes the ability to invest into the underlying reward pools\n  */\n\n  function continueInvesting() public onlyGovernance {\n    pausedInvesting = false;\n  }\n\n  /*\n  *   Governance can switch the source of rewards of the strategy with this method. In the beginning the reward pool might be empty,\n  *   In this case we directly set to the new reward source. Under other circumstances, we exit the current pool, liquidate the reward,\n  *   then do the switch.\n  *\n  *   The interface for the reward token is not unified for different variations of Synthetix reward contracts\n  *   thus the correctness of rewardToken is not enforced.\n  *\n  *   It is possible that the uniswapRoute was not correct as this cannot be enforced by the smart contract\n  *   However, there is no risk to the funds being managed. If the route itself was not valid, it should revert on Uniswap's side.\n  *   This can be unblocked by having the governance update the reward source information\n  */\n  function switchRewardSource(address _rewardPool) public onlyGovernance {\n\n    if (address(rewardPool) != address(0)) {\n      rewardPool.exit();\n      _liquidateReward();\n    }\n\n    // This strategy is not active, so we could directly update to new reward token & pool\n    rewardPool = SNXRewardInterface(_rewardPool);\n    rewardToken = uniswapRoutes[_rewardPool][0];\n\n    // now invest\n    investAllUnderlying();\n  }\n\n  /*\n  * It is important for the Governance and users to validate the following before adding a reward source:\n  *   (1) the _rewardToken is indeed the rewardToken that we would obtain from the rewardPool.\n  *   (2) there is no \"Lock\" implemented in the withdraw pool that prevents individual users from withdrawing\n  *   (3) there is no flag that could enable any kind of locks.\n  * We recommend to use mainnet fork test and run a simulation first to make sure that this would not happen.\n  *\n  * RewardSource should only be set on a strategy when it is not active.\n  */\n  function setRewardSource(address _rewardPool,\n    address _rewardToken,\n    address[] memory _uniswapRoute) public onlyGovernance {\n    // the route can be empty if it a route is still unknown\n    unsalvagableTokens[_rewardToken] = true;\n    uniswapRoutes[_rewardPool] = _uniswapRoute;\n    require(_rewardToken == _uniswapRoute[0],\n      \"The first token of the Uniswap route must be the reward token\");\n    if (_uniswapRoute.length > 1) {\n      require(address(underlying) == _uniswapRoute[(_uniswapRoute.length).sub(1)],\n        \"The last token of the Uniswap route must be the underlying token\");\n    }\n  }\n\n  /**\n  * Sets the route for liquidating the reward token to the underlying token\n  */\n  function setLiquidationRoute(address _rewardPool,\n    address _rewardToken,\n    address[] memory _uniswapRoute) public onlyGovernance {\n    require(_rewardToken == _uniswapRoute[0],\n      \"The first token of the Uniswap route must be the reward token\");\n    require(address(underlying) == _uniswapRoute[(_uniswapRoute.length).sub(1)],\n      \"The last token of the Uniswap route must be the underlying token\");\n    uniswapRoutes[_rewardPool] = _uniswapRoute;\n  }\n\n  // We assume that all the tradings can be done on Uniswap\n  function _liquidateReward() internal {\n    uint256 oldBalance = underlying.balanceOf(address(this));\n    uint256 rewardAmount = IERC20(rewardToken).balanceOf(address(this));\n\n    if (rewardAmount > 0 // we have tokens to swap\n      && uniswapRoutes[address(rewardPool)].length > 1 // and we have a route to do the swap\n    ) {\n      // we can accept 1 as minimum because this is called only by a trusted role\n      uint256 amountOutMin = 1;\n\n      IERC20(rewardToken).safeApprove(uniswapRouterV2, 0);\n      IERC20(rewardToken).safeApprove(uniswapRouterV2, rewardAmount);\n\n      IUniswapV2Router02(uniswapRouterV2).swapExactTokensForTokens(\n        rewardAmount,\n        amountOutMin,\n        uniswapRoutes[address(rewardPool)],\n        address(this),\n        block.timestamp\n      );\n      // give a profit share to fee forwarder, which re-distributes this to\n      // the profit sharing pools\n      notifyProfit(oldBalance, underlying.balanceOf(address(this)));\n    }\n  }\n\n  /*\n  *   Stakes everything the strategy holds into the reward pool\n  */\n  function investAllUnderlying() internal onlyNotPausedInvesting {\n    // this check is needed, because most of the SNX reward pools will revert if\n    // you try to stake(0).\n    if(underlying.balanceOf(address(this)) > 0) {\n      underlying.approve(address(rewardPool), underlying.balanceOf(address(this)));\n      rewardPool.stake(underlying.balanceOf(address(this)));\n    }\n  }\n\n  /*\n  *   Withdraws all the asset to the vault\n  */\n  function withdrawAllToVault() public restricted {\n    if (address(rewardPool) != address(0)) {\n      rewardPool.exit();\n    }\n    _liquidateReward();\n    IERC20(underlying).safeTransfer(vault, underlying.balanceOf(address(this)));\n  }\n\n  /*\n  *   Withdraws all the asset to the vault\n  */\n  function withdrawToVault(uint256 amount) public restricted {\n    // Typically there wouldn't be any amount here\n    // however, it is possible because of the emergencyExit\n    if(amount > underlying.balanceOf(address(this))){\n      // While we have the check above, we still using SafeMath below\n      // for the peace of mind (in case something gets changed in between)\n      uint256 needToWithdraw = amount.sub(underlying.balanceOf(address(this)));\n      rewardPool.withdraw(Math.min(rewardPool.balanceOf(address(this)), needToWithdraw));\n    }\n\n    IERC20(underlying).safeTransfer(vault, amount);\n  }\n\n  /*\n  *   Note that we currently do not have a mechanism here to include the\n  *   amount of reward that is accrued.\n  */\n  function investedUnderlyingBalance() external view returns (uint256) {\n    if (address(rewardPool) == address(0)) {\n      return underlying.balanceOf(address(this));\n    }\n    // Adding the amount locked in the reward pool and the amount that is somehow in this contract\n    // both are in the units of \"underlying\"\n    // The second part is needed because there is the emergency exit mechanism\n    // which would break the assumption that all the funds are always inside of the reward pool\n    return rewardPool.balanceOf(address(this)).add(underlying.balanceOf(address(this)));\n  }\n\n  /*\n  *   Governance or Controller can claim coins that are somehow transferred into the contract\n  *   Note that they cannot come in take away coins that are used and defined in the strategy itself\n  *   Those are protected by the \"unsalvagableTokens\". To check, see where those are being flagged.\n  */\n  function salvage(address recipient, address token, uint256 amount) external onlyControllerOrGovernance {\n     // To make sure that governance cannot come in and take away the coins\n    require(!unsalvagableTokens[token], \"token is defined as not salvagable\");\n    IERC20(token).safeTransfer(recipient, amount);\n  }\n\n  /*\n  *   Get the reward, sell it in exchange for underlying, invest what you got.\n  *   It's not much, but it's honest work.\n  *\n  *   Note that although `onlyNotPausedInvesting` is not added here,\n  *   calling `investAllUnderlying()` affectively blocks the usage of `doHardWork`\n  *   when the investing is being paused by governance.\n  */\n  function doHardWork() external onlyNotPausedInvesting restricted {\n    rewardPool.getReward();\n    _liquidateReward();\n    investAllUnderlying();\n  }\n\n}\n",
  "sourcePath": "/home/jawaher/tmp/harvest/contracts/strategies/SNXRewards/SNXRewardStrategy.sol",
  "compiler": {
    "name": "solc",
    "version": "0.5.16+commit.9c3226ce.Emscripten.clang"
  },
  "schemaVersion": "3.2.5",
  "updatedAt": "2020-10-19T08:25:32.205Z",
  "devdoc": {
    "methods": {}
  },
  "userdoc": {
    "methods": {
      "setLiquidationRoute(address,address,address[])": {
        "notice": "Sets the route for liquidating the reward token to the underlying token"
      }
    }
  }
}