{
  "contractName": "ThirdPartyContractThatCallsAutoStake",
  "abi": [
    {
      "inputs": [
        {
          "internalType": "address",
          "name": "_autostake",
          "type": "address"
        }
      ],
      "payable": false,
      "stateMutability": "nonpayable",
      "type": "constructor"
    },
    {
      "constant": true,
      "inputs": [],
      "name": "autostake",
      "outputs": [
        {
          "internalType": "address",
          "name": "",
          "type": "address"
        }
      ],
      "payable": false,
      "stateMutability": "view",
      "type": "function"
    },
    {
      "constant": false,
      "inputs": [
        {
          "internalType": "address",
          "name": "_token",
          "type": "address"
        },
        {
          "internalType": "uint256",
          "name": "_amount",
          "type": "uint256"
        }
      ],
      "name": "stake",
      "outputs": [],
      "payable": false,
      "stateMutability": "nonpayable",
      "type": "function"
    },
    {
      "constant": false,
      "inputs": [],
      "name": "exit",
      "outputs": [],
      "payable": false,
      "stateMutability": "nonpayable",
      "type": "function"
    }
  ],
  "bytecode": "0x608060405234801561001057600080fd5b5060405161028b38038061028b8339818101604052602081101561003357600080fd5b5051600080546001600160a01b039092166001600160a01b0319909216919091179055610226806100656000396000f3fe608060405234801561001057600080fd5b50600436106100415760003560e01c806304490c3414610046578063adc9772e1461006a578063e9fad8ee14610098575b600080fd5b61004e6100a0565b604080516001600160a01b039092168252519081900360200190f35b6100966004803603604081101561008057600080fd5b506001600160a01b0381351690602001356100af565b005b610096610196565b6000546001600160a01b031681565b600080546040805163095ea7b360e01b81526001600160a01b0392831660048201526024810185905290519185169263095ea7b3926044808401936020939083900390910190829087803b15801561010657600080fd5b505af115801561011a573d6000803e3d6000fd5b505050506040513d602081101561013057600080fd5b5050600080546040805163534a7e1d60e11b81526004810185905290516001600160a01b039092169263a694fc3a9260248084019382900301818387803b15801561017a57600080fd5b505af115801561018e573d6000803e3d6000fd5b505050505050565b60008054604080516374fd6c7760e11b815290516001600160a01b039092169263e9fad8ee9260048084019382900301818387803b1580156101d757600080fd5b505af11580156101eb573d6000803e3d6000fd5b5050505056fea265627a7a723158207430585fc0c79b69005f7ebb9b1edb83e38193da9a2aea84c3ba265ad776061c64736f6c63430005100032",
  "source": "pragma solidity 0.5.16;\n\nimport \"../AutoStake.sol\";\n\ncontract ThirdPartyContractThatCallsAutoStake {\n\n  address public autostake;\n\n  constructor(address _autostake) public {\n    autostake = _autostake;\n  }\n\n  function stake(address _token, uint256 _amount) public {\n    IERC20(_token).approve(autostake, _amount);\n\n    AutoStake(autostake).stake(_amount);\n  }\n\n  function exit() public {\n    AutoStake(autostake).exit();\n  }\n}",
  "sourcePath": "/home/jawaher/tmp/harvest/contracts/test/ThirdPartyContractThatCallsAutoStake.sol",
  "compiler": {
    "name": "solc",
    "version": "0.5.16+commit.9c3226ce.Emscripten.clang"
  },
  "schemaVersion": "3.2.5",
  "updatedAt": "2020-10-19T08:25:32.337Z",
  "devdoc": {
    "methods": {}
  },
  "userdoc": {
    "methods": {}
  }
}