{
  "contractName": "VaultStrategySwitchLock",
  "abi": [
    {
      "anonymous": false,
      "inputs": [
        {
          "indexed": true,
          "internalType": "address",
          "name": "owner",
          "type": "address"
        },
        {
          "indexed": true,
          "internalType": "address",
          "name": "spender",
          "type": "address"
        },
        {
          "indexed": false,
          "internalType": "uint256",
          "name": "value",
          "type": "uint256"
        }
      ],
      "name": "Approval",
      "type": "event"
    },
    {
      "anonymous": false,
      "inputs": [
        {
          "indexed": true,
          "internalType": "address",
          "name": "beneficiary",
          "type": "address"
        },
        {
          "indexed": false,
          "internalType": "uint256",
          "name": "amount",
          "type": "uint256"
        }
      ],
      "name": "Deposit",
      "type": "event"
    },
    {
      "anonymous": false,
      "inputs": [
        {
          "indexed": false,
          "internalType": "uint256",
          "name": "amount",
          "type": "uint256"
        }
      ],
      "name": "Invest",
      "type": "event"
    },
    {
      "anonymous": false,
      "inputs": [
        {
          "indexed": false,
          "internalType": "address",
          "name": "newStrategy",
          "type": "address"
        },
        {
          "indexed": false,
          "internalType": "uint256",
          "name": "time",
          "type": "uint256"
        }
      ],
      "name": "StrategyAnnounced",
      "type": "event"
    },
    {
      "anonymous": false,
      "inputs": [
        {
          "indexed": false,
          "internalType": "address",
          "name": "newStrategy",
          "type": "address"
        },
        {
          "indexed": false,
          "internalType": "address",
          "name": "oldStrategy",
          "type": "address"
        }
      ],
      "name": "StrategyChanged",
      "type": "event"
    },
    {
      "anonymous": false,
      "inputs": [
        {
          "indexed": true,
          "internalType": "address",
          "name": "from",
          "type": "address"
        },
        {
          "indexed": true,
          "internalType": "address",
          "name": "to",
          "type": "address"
        },
        {
          "indexed": false,
          "internalType": "uint256",
          "name": "value",
          "type": "uint256"
        }
      ],
      "name": "Transfer",
      "type": "event"
    },
    {
      "anonymous": false,
      "inputs": [
        {
          "indexed": true,
          "internalType": "address",
          "name": "beneficiary",
          "type": "address"
        },
        {
          "indexed": false,
          "internalType": "uint256",
          "name": "amount",
          "type": "uint256"
        }
      ],
      "name": "Withdraw",
      "type": "event"
    },
    {
      "constant": true,
      "inputs": [
        {
          "internalType": "address",
          "name": "owner",
          "type": "address"
        },
        {
          "internalType": "address",
          "name": "spender",
          "type": "address"
        }
      ],
      "name": "allowance",
      "outputs": [
        {
          "internalType": "uint256",
          "name": "",
          "type": "uint256"
        }
      ],
      "payable": false,
      "stateMutability": "view",
      "type": "function"
    },
    {
      "constant": false,
      "inputs": [
        {
          "internalType": "address",
          "name": "_strategy",
          "type": "address"
        }
      ],
      "name": "announceStrategyUpdate",
      "outputs": [],
      "payable": false,
      "stateMutability": "nonpayable",
      "type": "function"
    },
    {
      "constant": false,
      "inputs": [
        {
          "internalType": "address",
          "name": "spender",
          "type": "address"
        },
        {
          "internalType": "uint256",
          "name": "amount",
          "type": "uint256"
        }
      ],
      "name": "approve",
      "outputs": [
        {
          "internalType": "bool",
          "name": "",
          "type": "bool"
        }
      ],
      "payable": false,
      "stateMutability": "nonpayable",
      "type": "function"
    },
    {
      "constant": true,
      "inputs": [],
      "name": "availableToInvestOut",
      "outputs": [
        {
          "internalType": "uint256",
          "name": "",
          "type": "uint256"
        }
      ],
      "payable": false,
      "stateMutability": "view",
      "type": "function"
    },
    {
      "constant": true,
      "inputs": [
        {
          "internalType": "address",
          "name": "account",
          "type": "address"
        }
      ],
      "name": "balanceOf",
      "outputs": [
        {
          "internalType": "uint256",
          "name": "",
          "type": "uint256"
        }
      ],
      "payable": false,
      "stateMutability": "view",
      "type": "function"
    },
    {
      "constant": true,
      "inputs": [
        {
          "internalType": "address",
          "name": "_strategy",
          "type": "address"
        }
      ],
      "name": "canUpdateStrategy",
      "outputs": [
        {
          "internalType": "bool",
          "name": "",
          "type": "bool"
        }
      ],
      "payable": false,
      "stateMutability": "view",
      "type": "function"
    },
    {
      "constant": true,
      "inputs": [],
      "name": "controller",
      "outputs": [
        {
          "internalType": "address",
          "name": "",
          "type": "address"
        }
      ],
      "payable": false,
      "stateMutability": "view",
      "type": "function"
    },
    {
      "constant": true,
      "inputs": [],
      "name": "decimals",
      "outputs": [
        {
          "internalType": "uint8",
          "name": "",
          "type": "uint8"
        }
      ],
      "payable": false,
      "stateMutability": "view",
      "type": "function"
    },
    {
      "constant": false,
      "inputs": [
        {
          "internalType": "address",
          "name": "spender",
          "type": "address"
        },
        {
          "internalType": "uint256",
          "name": "subtractedValue",
          "type": "uint256"
        }
      ],
      "name": "decreaseAllowance",
      "outputs": [
        {
          "internalType": "bool",
          "name": "",
          "type": "bool"
        }
      ],
      "payable": false,
      "stateMutability": "nonpayable",
      "type": "function"
    },
    {
      "constant": false,
      "inputs": [
        {
          "internalType": "uint256",
          "name": "amount",
          "type": "uint256"
        }
      ],
      "name": "deposit",
      "outputs": [],
      "payable": false,
      "stateMutability": "nonpayable",
      "type": "function"
    },
    {
      "constant": false,
      "inputs": [
        {
          "internalType": "uint256",
          "name": "amount",
          "type": "uint256"
        },
        {
          "internalType": "address",
          "name": "holder",
          "type": "address"
        }
      ],
      "name": "depositFor",
      "outputs": [],
      "payable": false,
      "stateMutability": "nonpayable",
      "type": "function"
    },
    {
      "constant": false,
      "inputs": [],
      "name": "doHardWork",
      "outputs": [],
      "payable": false,
      "stateMutability": "nonpayable",
      "type": "function"
    },
    {
      "constant": false,
      "inputs": [],
      "name": "finalizeStrategyUpdate",
      "outputs": [],
      "payable": false,
      "stateMutability": "nonpayable",
      "type": "function"
    },
    {
      "constant": false,
      "inputs": [],
      "name": "finalizeUpgrade",
      "outputs": [],
      "payable": false,
      "stateMutability": "nonpayable",
      "type": "function"
    },
    {
      "constant": true,
      "inputs": [],
      "name": "futureStrategy",
      "outputs": [
        {
          "internalType": "address",
          "name": "",
          "type": "address"
        }
      ],
      "payable": false,
      "stateMutability": "view",
      "type": "function"
    },
    {
      "constant": true,
      "inputs": [],
      "name": "getPricePerFullShare",
      "outputs": [
        {
          "internalType": "uint256",
          "name": "",
          "type": "uint256"
        }
      ],
      "payable": false,
      "stateMutability": "view",
      "type": "function"
    },
    {
      "constant": true,
      "inputs": [],
      "name": "governance",
      "outputs": [
        {
          "internalType": "address",
          "name": "",
          "type": "address"
        }
      ],
      "payable": false,
      "stateMutability": "view",
      "type": "function"
    },
    {
      "constant": false,
      "inputs": [
        {
          "internalType": "address",
          "name": "spender",
          "type": "address"
        },
        {
          "internalType": "uint256",
          "name": "addedValue",
          "type": "uint256"
        }
      ],
      "name": "increaseAllowance",
      "outputs": [
        {
          "internalType": "bool",
          "name": "",
          "type": "bool"
        }
      ],
      "payable": false,
      "stateMutability": "nonpayable",
      "type": "function"
    },
    {
      "constant": false,
      "inputs": [
        {
          "internalType": "string",
          "name": "name",
          "type": "string"
        },
        {
          "internalType": "string",
          "name": "symbol",
          "type": "string"
        },
        {
          "internalType": "uint8",
          "name": "decimals",
          "type": "uint8"
        }
      ],
      "name": "initialize",
      "outputs": [],
      "payable": false,
      "stateMutability": "nonpayable",
      "type": "function"
    },
    {
      "constant": false,
      "inputs": [
        {
          "internalType": "address",
          "name": "_underlying",
          "type": "address"
        },
        {
          "internalType": "uint256",
          "name": "_toInvestNumerator",
          "type": "uint256"
        },
        {
          "internalType": "uint256",
          "name": "_toInvestDenominator",
          "type": "uint256"
        },
        {
          "internalType": "uint256",
          "name": "_underlyingUnit",
          "type": "uint256"
        },
        {
          "internalType": "uint256",
          "name": "_implementationChangeDelay",
          "type": "uint256"
        },
        {
          "internalType": "uint256",
          "name": "_strategyChangeDelay",
          "type": "uint256"
        }
      ],
      "name": "initialize",
      "outputs": [],
      "payable": false,
      "stateMutability": "nonpayable",
      "type": "function"
    },
    {
      "constant": false,
      "inputs": [
        {
          "internalType": "address",
          "name": "_storage",
          "type": "address"
        }
      ],
      "name": "initialize",
      "outputs": [],
      "payable": false,
      "stateMutability": "nonpayable",
      "type": "function"
    },
    {
      "constant": false,
      "inputs": [
        {
          "internalType": "address",
          "name": "_storage",
          "type": "address"
        },
        {
          "internalType": "address",
          "name": "_underlying",
          "type": "address"
        },
        {
          "internalType": "uint256",
          "name": "_toInvestNumerator",
          "type": "uint256"
        },
        {
          "internalType": "uint256",
          "name": "_toInvestDenominator",
          "type": "uint256"
        }
      ],
      "name": "initializeVault",
      "outputs": [],
      "payable": false,
      "stateMutability": "nonpayable",
      "type": "function"
    },
    {
      "constant": true,
      "inputs": [],
      "name": "name",
      "outputs": [
        {
          "internalType": "string",
          "name": "",
          "type": "string"
        }
      ],
      "payable": false,
      "stateMutability": "view",
      "type": "function"
    },
    {
      "constant": true,
      "inputs": [],
      "name": "nextImplementation",
      "outputs": [
        {
          "internalType": "address",
          "name": "",
          "type": "address"
        }
      ],
      "payable": false,
      "stateMutability": "view",
      "type": "function"
    },
    {
      "constant": true,
      "inputs": [],
      "name": "nextImplementationDelay",
      "outputs": [
        {
          "internalType": "uint256",
          "name": "",
          "type": "uint256"
        }
      ],
      "payable": false,
      "stateMutability": "view",
      "type": "function"
    },
    {
      "constant": true,
      "inputs": [],
      "name": "nextImplementationTimestamp",
      "outputs": [
        {
          "internalType": "uint256",
          "name": "",
          "type": "uint256"
        }
      ],
      "payable": false,
      "stateMutability": "view",
      "type": "function"
    },
    {
      "constant": false,
      "inputs": [],
      "name": "rebalance",
      "outputs": [],
      "payable": false,
      "stateMutability": "nonpayable",
      "type": "function"
    },
    {
      "constant": false,
      "inputs": [
        {
          "internalType": "address",
          "name": "impl",
          "type": "address"
        }
      ],
      "name": "scheduleUpgrade",
      "outputs": [],
      "payable": false,
      "stateMutability": "nonpayable",
      "type": "function"
    },
    {
      "constant": false,
      "inputs": [
        {
          "internalType": "address",
          "name": "_store",
          "type": "address"
        }
      ],
      "name": "setStorage",
      "outputs": [],
      "payable": false,
      "stateMutability": "nonpayable",
      "type": "function"
    },
    {
      "constant": false,
      "inputs": [
        {
          "internalType": "uint256",
          "name": "numerator",
          "type": "uint256"
        },
        {
          "internalType": "uint256",
          "name": "denominator",
          "type": "uint256"
        }
      ],
      "name": "setVaultFractionToInvest",
      "outputs": [],
      "payable": false,
      "stateMutability": "nonpayable",
      "type": "function"
    },
    {
      "constant": true,
      "inputs": [],
      "name": "shouldUpgrade",
      "outputs": [
        {
          "internalType": "bool",
          "name": "",
          "type": "bool"
        },
        {
          "internalType": "address",
          "name": "",
          "type": "address"
        }
      ],
      "payable": false,
      "stateMutability": "view",
      "type": "function"
    },
    {
      "constant": true,
      "inputs": [],
      "name": "strategy",
      "outputs": [
        {
          "internalType": "address",
          "name": "",
          "type": "address"
        }
      ],
      "payable": false,
      "stateMutability": "view",
      "type": "function"
    },
    {
      "constant": true,
      "inputs": [],
      "name": "strategyTimeLock",
      "outputs": [
        {
          "internalType": "uint256",
          "name": "",
          "type": "uint256"
        }
      ],
      "payable": false,
      "stateMutability": "view",
      "type": "function"
    },
    {
      "constant": true,
      "inputs": [],
      "name": "strategyUpdateTime",
      "outputs": [
        {
          "internalType": "uint256",
          "name": "",
          "type": "uint256"
        }
      ],
      "payable": false,
      "stateMutability": "view",
      "type": "function"
    },
    {
      "constant": true,
      "inputs": [],
      "name": "symbol",
      "outputs": [
        {
          "internalType": "string",
          "name": "",
          "type": "string"
        }
      ],
      "payable": false,
      "stateMutability": "view",
      "type": "function"
    },
    {
      "constant": true,
      "inputs": [],
      "name": "totalSupply",
      "outputs": [
        {
          "internalType": "uint256",
          "name": "",
          "type": "uint256"
        }
      ],
      "payable": false,
      "stateMutability": "view",
      "type": "function"
    },
    {
      "constant": false,
      "inputs": [
        {
          "internalType": "address",
          "name": "recipient",
          "type": "address"
        },
        {
          "internalType": "uint256",
          "name": "amount",
          "type": "uint256"
        }
      ],
      "name": "transfer",
      "outputs": [
        {
          "internalType": "bool",
          "name": "",
          "type": "bool"
        }
      ],
      "payable": false,
      "stateMutability": "nonpayable",
      "type": "function"
    },
    {
      "constant": false,
      "inputs": [
        {
          "internalType": "address",
          "name": "sender",
          "type": "address"
        },
        {
          "internalType": "address",
          "name": "recipient",
          "type": "address"
        },
        {
          "internalType": "uint256",
          "name": "amount",
          "type": "uint256"
        }
      ],
      "name": "transferFrom",
      "outputs": [
        {
          "internalType": "bool",
          "name": "",
          "type": "bool"
        }
      ],
      "payable": false,
      "stateMutability": "nonpayable",
      "type": "function"
    },
    {
      "constant": true,
      "inputs": [],
      "name": "underlying",
      "outputs": [
        {
          "internalType": "address",
          "name": "",
          "type": "address"
        }
      ],
      "payable": false,
      "stateMutability": "view",
      "type": "function"
    },
    {
      "constant": true,
      "inputs": [],
      "name": "underlyingBalanceInVault",
      "outputs": [
        {
          "internalType": "uint256",
          "name": "",
          "type": "uint256"
        }
      ],
      "payable": false,
      "stateMutability": "view",
      "type": "function"
    },
    {
      "constant": true,
      "inputs": [],
      "name": "underlyingBalanceWithInvestment",
      "outputs": [
        {
          "internalType": "uint256",
          "name": "",
          "type": "uint256"
        }
      ],
      "payable": false,
      "stateMutability": "view",
      "type": "function"
    },
    {
      "constant": true,
      "inputs": [
        {
          "internalType": "address",
          "name": "holder",
          "type": "address"
        }
      ],
      "name": "underlyingBalanceWithInvestmentForHolder",
      "outputs": [
        {
          "internalType": "uint256",
          "name": "",
          "type": "uint256"
        }
      ],
      "payable": false,
      "stateMutability": "view",
      "type": "function"
    },
    {
      "constant": true,
      "inputs": [],
      "name": "underlyingUnit",
      "outputs": [
        {
          "internalType": "uint256",
          "name": "",
          "type": "uint256"
        }
      ],
      "payable": false,
      "stateMutability": "view",
      "type": "function"
    },
    {
      "constant": true,
      "inputs": [],
      "name": "vaultFractionToInvestDenominator",
      "outputs": [
        {
          "internalType": "uint256",
          "name": "",
          "type": "uint256"
        }
      ],
      "payable": false,
      "stateMutability": "view",
      "type": "function"
    },
    {
      "constant": true,
      "inputs": [],
      "name": "vaultFractionToInvestNumerator",
      "outputs": [
        {
          "internalType": "uint256",
          "name": "",
          "type": "uint256"
        }
      ],
      "payable": false,
      "stateMutability": "view",
      "type": "function"
    },
    {
      "constant": false,
      "inputs": [
        {
          "internalType": "uint256",
          "name": "numberOfShares",
          "type": "uint256"
        }
      ],
      "name": "withdraw",
      "outputs": [],
      "payable": false,
      "stateMutability": "nonpayable",
      "type": "function"
    },
    {
      "constant": false,
      "inputs": [],
      "name": "withdrawAll",
      "outputs": [],
      "payable": false,
      "stateMutability": "nonpayable",
      "type": "function"
    },
    {
      "constant": false,
      "inputs": [
        {
          "internalType": "address",
          "name": "_strategy",
          "type": "address"
        }
      ],
      "name": "setStrategy",
      "outputs": [],
      "payable": false,
      "stateMutability": "nonpayable",
      "type": "function"
    }
  ],
  "bytecode": "0x608060408190527f656970313936372e7661756c7453746f726167652e756e6465726c79696e670081526001908060236200423982396023019050604051809103902060001c0360001b7fa66bc57d4b4eed7c7687876ca77997588987307cb13ecc23f5e52725192e5fff60001b146200007557fe5b6001604051808062004129603391396033019050604051809103902060001c0360001b7f39122c9adfb653455d0c05043bd52fcfbc2be864e832efd3abc72ce5a3d7ed5a60001b14620000c457fe5b600160405180806200418c603591396035019050604051809103902060001c0360001b7f469a3bad2fab7b936c45eecd1f5da52af89cead3e2ed7f732b6f3fc92ed3230860001b146200011357fe5b600160405180806200425c602791396027019050604051809103902060001c0360001b7fb1acf527cd7cd1668b30e5a9a1c0d845714604de29ce560150922c9d8c0937df60001b146200016257fe5b600160405180806200415c603091396030019050604051809103902060001c0360001b7f3bc747f4b148b37be485de3223c90b4468252967d2ea7f9fcbd8b6e653f434c960001b14620001b157fe5b600160405180806200420d602c9139602c019050604051809103902060001c0360001b7f82ddc3be3f0c1a6870327f78f4979a0b37b21b16736ef5be6a7a7a35e530bcf060001b146200020057fe5b60016040518080620041e8602591396025019050604051809103902060001c0360001b7f6d02338b2e4c913c0f7d380e2798409838a48a2c4d57d52742a808c82d713d8b60001b146200024f57fe5b6001604051808062004283602391396023019050604051809103902060001c0360001b7fb441b53a4e42c2ca9182bc7ede99bedba7a5d9360d9dfbd31fa8ee2dc859061060001b146200029e57fe5b60016040518080620041c1602791396027019050604051809103902060001c0360001b7f56e7c0e75875c6497f0de657009613a32558904b5c10771a825cc330feff7e7260001b14620002ed57fe5b613e2c80620002fd6000396000f3fe608060405234801561001057600080fd5b50600436106102a05760003560e01c80637d7c2a1c11610167578063a8c62e76116100ce578063c4d66de811610087578063c4d66de814610858578063dd62ed3e1461087e578063eda199aa146108ac578063f0cf91e7146108b4578063f2768c1e146108da578063f77c4791146108e2576102a0565b8063a8c62e76146107ef578063a9059cbb146107f7578063aa04462514610823578063b592c3901461082b578063b6b55f2514610833578063c2baf35614610850576102a0565b806395d89b411161012057806395d89b411461075d5780639a508c8e146107655780639d16acfd1461076d578063a457c2d714610798578063a5b1a24d146107c4578063a8365693146107e7576102a0565b80637d7c2a1c146106bd57806382de9c1b146106c5578063853828b6146106cd5780638cb1d67f146106d55780638fc1708c146106fb5780639137c1a714610737576102a0565b806333a100ca1161020b57806353ceb01c116101c457806353ceb01c1461066f5780635aa6e675146106775780635fe51e6d1461067f5780636f307dc31461068757806370a082311461068f57806377c7b8fc146106b5576102a0565b806333a100ca1461059d57806336efd16f146105c357806339509351146105ef57806345ff4c801461061b5780634af1758b1461065f5780634fa5d85414610667576102a0565b80631624f6c61161025d5780631624f6c6146103ee57806318160ddd1461051c5780631bf8e7be1461052457806323b872dd1461052c5780632e1a7d4d14610562578063313ce5671461057f576102a0565b806306fdde03146102a5578063095ea7b31461032257806309ff18f0146103625780630a6bbeb3146103865780630ad2239d146103ae5780630c80447a146103c8575b600080fd5b6102ad6108ea565b6040805160208082528351818301528351919283929083019185019080838360005b838110156102e75781810151838201526020016102cf565b50505050905090810190601f1680156103145780820380516001836020036101000a031916815260200191505b509250505060405180910390f35b61034e6004803603604081101561033857600080fd5b506001600160a01b038135169060200135610981565b604080519115158252519081900360200190f35b61036a61099f565b604080516001600160a01b039092168252519081900360200190f35b6103ac6004803603602081101561039c57600080fd5b50356001600160a01b03166109ae565b005b6103b6610b78565b60408051918252519081900360200190f35b6103ac600480360360208110156103de57600080fd5b50356001600160a01b0316610b82565b6103ac6004803603606081101561040457600080fd5b810190602081018135600160201b81111561041e57600080fd5b82018360208201111561043057600080fd5b803590602001918460018302840111600160201b8311171561045157600080fd5b91908080601f0160208091040260200160405190810160405280939291908181526020018383808284376000920191909152509295949360208101935035915050600160201b8111156104a357600080fd5b8201836020820111156104b557600080fd5b803590602001918460018302840111600160201b831117156104d657600080fd5b91908080601f0160208091040260200160405190810160405280939291908181526020018383808284376000920191909152509295505050903560ff169150610c6c9050565b6103b6610d48565b6103b6610d4e565b61034e6004803603606081101561054257600080fd5b506001600160a01b03813581169160208101359091169060400135610dfa565b6103ac6004803603602081101561057857600080fd5b5035610e87565b6105876110d4565b6040805160ff9092168252519081900360200190f35b6103ac600480360360208110156105b357600080fd5b50356001600160a01b03166110dd565b6103ac600480360360408110156105d957600080fd5b50803590602001356001600160a01b031661127e565b61034e6004803603604081101561060557600080fd5b506001600160a01b03813516906020013561135e565b6103ac600480360360c081101561063157600080fd5b506001600160a01b038135169060208101359060408101359060608101359060808101359060a001356113b2565b6103b66114a4565b6103ac6114ae565b6103b66116c1565b61036a6116cb565b61036a61173e565b61036a611748565b6103b6600480360360208110156106a557600080fd5b50356001600160a01b0316611752565b6103b6611771565b6103ac6117ab565b6103b6611911565b6103ac61191b565b6103b6600480360360208110156106eb57600080fd5b50356001600160a01b0316611b12565b6103ac6004803603608081101561071157600080fd5b506001600160a01b03813581169160208101359091169060408101359060600135611b47565b6103ac6004803603602081101561074d57600080fd5b50356001600160a01b03166120b6565b6102ad6121e5565b6103ac612246565b610775612325565b6040805192151583526001600160a01b0390911660208301528051918290030190f35b61034e600480360360408110156107ae57600080fd5b506001600160a01b038135169060200135612371565b6103ac600480360360408110156107da57600080fd5b50803590602001356123df565b6103b661253a565b61036a612544565b61034e6004803603604081101561080d57600080fd5b506001600160a01b03813516906020013561254e565b6103b6612562565b6103b661256c565b6103ac6004803603602081101561084957600080fd5b5035612645565b6103b6612721565b6103ac6004803603602081101561086e57600080fd5b50356001600160a01b0316612780565b6103b66004803603604081101561089457600080fd5b506001600160a01b038135811691602001351661282b565b6103ac612856565b61034e600480360360208110156108ca57600080fd5b50356001600160a01b03166129be565b6103b6612a1f565b61036a612a29565b60688054604080516020601f60026000196101006001881615020190951694909404938401819004810282018101909252828152606093909290918301828280156109765780601f1061094b57610100808354040283529160200191610976565b820191906000526020600020905b81548152906001019060200180831161095957829003601f168201915b505050505090505b90565b600061099561098e612a6b565b8484612a6f565b5060015b92915050565b60006109a9612b5b565b905090565b6109b6612b86565b6001600160a01b031663b429afeb336040518263ffffffff1660e01b815260040180826001600160a01b03166001600160a01b0316815260200191505060206040518083038186803b158015610a0b57600080fd5b505afa158015610a1f573d6000803e3d6000fd5b505050506040513d6020811015610a3557600080fd5b505180610ac75750610a45612b86565b6001600160a01b031663dee1f0e4336040518263ffffffff1660e01b815260040180826001600160a01b03166001600160a01b0316815260200191505060206040518083038186803b158015610a9a57600080fd5b505afa158015610aae573d6000803e3d6000fd5b505050506040513d6020811015610ac457600080fd5b50515b610b025760405162461bcd60e51b815260040180806020018281038252602b815260200180613b67602b913960400191505060405180910390fd5b6000610b1c610b0f610b78565b429063ffffffff612bab16565b9050610b2781612c0c565b610b3082612c36565b604080516001600160a01b03841681526020810183905281517f7d5e1cfe55788983acd19d248da36a27c9413e8e43445ed36a76ae0e741a04ed929181900390910190a15050565b60006109a9612c60565b610b8a612b86565b6001600160a01b031663dee1f0e4336040518263ffffffff1660e01b815260040180826001600160a01b03166001600160a01b0316815260200191505060206040518083038186803b158015610bdf57600080fd5b505afa158015610bf3573d6000803e3d6000fd5b505050506040513d6020811015610c0957600080fd5b5051610c4d576040805162461bcd60e51b815260206004820152600e60248201526d4e6f7420676f7665726e616e636560901b604482015290519081900360640190fd5b610c5681612c8b565b610c69610c64610b0f61253a565b612cb5565b50565b600054610100900460ff1680610c855750610c85612cdf565b80610c93575060005460ff16155b610cce5760405162461bcd60e51b815260040180806020018281038252602e815260200180613cec602e913960400191505060405180910390fd5b600054610100900460ff16158015610cf9576000805460ff1961ff0019909116610100171660011790555b8351610d0c906068906020870190613ace565b508251610d20906069906020860190613ace565b50606a805460ff191660ff84161790558015610d42576000805461ff00191690555b50505050565b60355490565b600080610d59612544565b6001600160a01b03161415610d7757610d70612721565b905061097e565b6109a9610d82612544565b6001600160a01b03166345d01e4a6040518163ffffffff1660e01b815260040160206040518083038186803b158015610dba57600080fd5b505afa158015610dce573d6000803e3d6000fd5b505050506040513d6020811015610de457600080fd5b5051610dee612721565b9063ffffffff612bab16565b6000610e07848484612ce5565b610e7d84610e13612a6b565b610e7885604051806060016040528060288152602001613cc4602891396001600160a01b038a16600090815260346020526040812090610e51612a6b565b6001600160a01b03168152602081019190915260400160002054919063ffffffff612e4316565b612a6f565b5060019392505050565b6000610e91610d48565b11610ed9576040805162461bcd60e51b81526020600482015260136024820152725661756c7420686173206e6f2073686172657360681b604482015290519081900360640190fd5b60008111610f185760405162461bcd60e51b8152600401808060200182810382526025815260200180613d1a6025913960400191505060405180910390fd5b6000610f22610d48565b9050610f2e3383612eda565b6000610f5882610f4c85610f40610d4e565b9063ffffffff612fd616565b9063ffffffff61302f16565b9050610f62612721565b8111156110765781831415610fd057610f79612544565b6001600160a01b031663bfd131f16040518163ffffffff1660e01b8152600401600060405180830381600087803b158015610fb357600080fd5b505af1158015610fc7573d6000803e3d6000fd5b50505050611053565b6000610fea610fdd612721565b839063ffffffff61307116565b9050610ff4612544565b6001600160a01b031663ce8c42e8826040518263ffffffff1660e01b815260040180828152602001915050600060405180830381600087803b15801561103957600080fd5b505af115801561104d573d6000803e3d6000fd5b50505050505b61107361106683610f4c86610f40610d4e565b61106e612721565b6130b3565b90505b6110993382611083611748565b6001600160a01b0316919063ffffffff6130c916565b60408051828152905133917f884edad9ce6fa2440d8a54cc123490eb96d2768479d49ff9c7366125a9424364919081900360200190a2505050565b606a5460ff1690565b6110e5612b86565b6001600160a01b031663b429afeb336040518263ffffffff1660e01b815260040180826001600160a01b03166001600160a01b0316815260200191505060206040518083038186803b15801561113a57600080fd5b505afa15801561114e573d6000803e3d6000fd5b505050506040513d602081101561116457600080fd5b5051806111f65750611174612b86565b6001600160a01b031663dee1f0e4336040518263ffffffff1660e01b815260040180826001600160a01b03166001600160a01b0316815260200191505060206040518083038186803b1580156111c957600080fd5b505afa1580156111dd573d6000803e3d6000fd5b505050506040513d60208110156111f357600080fd5b50515b6112315760405162461bcd60e51b815260040180806020018281038252602b815260200180613b67602b913960400191505060405180910390fd5b6040805162461bcd60e51b815260206004820152601b60248201527f5374726174656779206368616e6765206e6f7420616c6c6f7765640000000000604482015290519081900360640190fd5b33321480611314575061128f612a29565b6001600160a01b03166330e412ad336040518263ffffffff1660e01b815260040180826001600160a01b03166001600160a01b03168152602001915050602060405180830381600087803b1580156112e657600080fd5b505af11580156112fa573d6000803e3d6000fd5b505050506040513d602081101561131057600080fd5b5051155b61134f5760405162461bcd60e51b8152600401808060200182810382526028815260200180613c7b6028913960400191505060405180910390fd5b61135a823383613120565b5050565b600061099561136b612a6b565b84610e78856034600061137c612a6b565b6001600160a01b03908116825260208083019390935260409182016000908120918c16815292529020549063ffffffff612bab16565b600054610100900460ff16806113cb57506113cb612cdf565b806113d9575060005460ff16155b6114145760405162461bcd60e51b815260040180806020018281038252602e815260200180613cec602e913960400191505060405180910390fd5b600054610100900460ff1615801561143f576000805460ff1961ff0019909116610100171660011790555b6114488761332f565b61145186613359565b61145a85613383565b611463846133ad565b61146c836133d7565b61147582613401565b61147f6000612c0c565b6114896000612c36565b801561149b576000805461ff00191690555b50505050505050565b60006109a961342b565b60006114b8612544565b6001600160a01b0316141561150f576040805162461bcd60e51b815260206004820152601860248201527714dd1c985d1959de481b5d5cdd081899481919599a5b995960421b604482015290519081900360640190fd5b611517612b86565b6001600160a01b031663b429afeb336040518263ffffffff1660e01b815260040180826001600160a01b03166001600160a01b0316815260200191505060206040518083038186803b15801561156c57600080fd5b505afa158015611580573d6000803e3d6000fd5b505050506040513d602081101561159657600080fd5b50518061162857506115a6612b86565b6001600160a01b031663dee1f0e4336040518263ffffffff1660e01b815260040180826001600160a01b03166001600160a01b0316815260200191505060206040518083038186803b1580156115fb57600080fd5b505afa15801561160f573d6000803e3d6000fd5b505050506040513d602081101561162557600080fd5b50515b6116635760405162461bcd60e51b815260040180806020018281038252602b815260200180613b67602b913960400191505060405180910390fd5b61166b613456565b611673612544565b6001600160a01b0316634fa5d8546040518163ffffffff1660e01b8152600401600060405180830381600087803b1580156116ad57600080fd5b505af1158015610d42573d6000803e3d6000fd5b60006109a9613513565b60006116d5612b86565b6001600160a01b0316635aa6e6756040518163ffffffff1660e01b815260040160206040518083038186803b15801561170d57600080fd5b505afa158015611721573d6000803e3d6000fd5b505050506040513d602081101561173757600080fd5b5051905090565b60006109a961353e565b60006109a9613569565b6001600160a01b0381166000908152603360205260409020545b919050565b600061177b610d48565b156117a35761179e61178b610d48565b610f4c611796610d4e565b610f406116c1565b6109a9565b6109a96116c1565b6117b3612b86565b6001600160a01b031663b429afeb336040518263ffffffff1660e01b815260040180826001600160a01b03166001600160a01b0316815260200191505060206040518083038186803b15801561180857600080fd5b505afa15801561181c573d6000803e3d6000fd5b505050506040513d602081101561183257600080fd5b5051806118c45750611842612b86565b6001600160a01b031663dee1f0e4336040518263ffffffff1660e01b815260040180826001600160a01b03166001600160a01b0316815260200191505060206040518083038186803b15801561189757600080fd5b505afa1580156118ab573d6000803e3d6000fd5b505050506040513d60208110156118c157600080fd5b50515b6118ff5760405162461bcd60e51b815260040180806020018281038252602b815260200180613b67602b913960400191505060405180910390fd5b61190761191b565b61190f613456565b565b60006109a9613594565b611923612b86565b6001600160a01b031663b429afeb336040518263ffffffff1660e01b815260040180826001600160a01b03166001600160a01b0316815260200191505060206040518083038186803b15801561197857600080fd5b505afa15801561198c573d6000803e3d6000fd5b505050506040513d60208110156119a257600080fd5b505180611a3457506119b2612b86565b6001600160a01b031663dee1f0e4336040518263ffffffff1660e01b815260040180826001600160a01b03166001600160a01b0316815260200191505060206040518083038186803b158015611a0757600080fd5b505afa158015611a1b573d6000803e3d6000fd5b505050506040513d6020811015611a3157600080fd5b50515b611a6f5760405162461bcd60e51b815260040180806020018281038252602b815260200180613b67602b913960400191505060405180910390fd5b6000611a79612544565b6001600160a01b03161415611ad0576040805162461bcd60e51b815260206004820152601860248201527714dd1c985d1959de481b5d5cdd081899481919599a5b995960421b604482015290519081900360640190fd5b611ad8612544565b6001600160a01b031663bfd131f16040518163ffffffff1660e01b8152600401600060405180830381600087803b1580156116ad57600080fd5b6000611b1c610d48565b611b285750600061176c565b610999611b33610d48565b610f4c611b3f85611752565b610f40610d4e565b600054610100900460ff1680611b605750611b60612cdf565b80611b6e575060005460ff16155b611ba95760405162461bcd60e51b815260040180806020018281038252602e815260200180613cec602e913960400191505060405180910390fd5b600054610100900460ff16158015611bd4576000805460ff1961ff0019909116610100171660011790555b81831115611c29576040805162461bcd60e51b815260206004820152601c60248201527f63616e6e6f7420696e76657374206d6f7265207468616e203130302500000000604482015290519081900360640190fd5b81611c70576040805162461bcd60e51b8152602060048201526012602482015271063616e6e6f742064697669646520627920360741b604482015290519081900360640190fd5b61200d846001600160a01b03166395d89b416040518163ffffffff1660e01b815260040160006040518083038186803b158015611cac57600080fd5b505afa158015611cc0573d6000803e3d6000fd5b505050506040513d6000823e601f3d908101601f191682016040526020811015611ce957600080fd5b8101908080516040519392919084600160201b821115611d0857600080fd5b908301906020820185811115611d1d57600080fd5b8251600160201b811182820188101715611d3657600080fd5b82525081516020918201929091019080838360005b83811015611d63578181015183820152602001611d4b565b50505050905090810190601f168015611d905780820380516001836020036101000a031916815260200191505b506040525050506040516020018080644641524d5f60d81b81525060050182805190602001908083835b60208310611dd95780518252601f199092019160209182019101611dba565b6001836020036101000a038019825116818451168082178552505050505050905001915050604051602081830303815290604052856001600160a01b03166395d89b416040518163ffffffff1660e01b815260040160006040518083038186803b158015611e4657600080fd5b505afa158015611e5a573d6000803e3d6000fd5b505050506040513d6000823e601f3d908101601f191682016040526020811015611e8357600080fd5b8101908080516040519392919084600160201b821115611ea257600080fd5b908301906020820185811115611eb757600080fd5b8251600160201b811182820188101715611ed057600080fd5b82525081516020918201929091019080838360005b83811015611efd578181015183820152602001611ee5565b50505050905090810190601f168015611f2a5780820380516001836020036101000a031916815260200191505b506040525050506040516020018080603360f91b81525060010182805190602001908083835b60208310611f6f5780518252601f199092019160209182019101611f50565b6001836020036101000a038019825116818451168082178552505050505050905001915050604051602081830303815290604052866001600160a01b031663313ce5676040518163ffffffff1660e01b815260040160206040518083038186803b158015611fdc57600080fd5b505afa158015611ff0573d6000803e3d6000fd5b505050506040513d602081101561200657600080fd5b5051610c6c565b61201685612780565b6000846001600160a01b031663313ce5676040518163ffffffff1660e01b815260040160206040518083038186803b15801561205157600080fd5b505afa158015612065573d6000803e3d6000fd5b505050506040513d602081101561207b57600080fd5b505160ff16600a0a90506202a30061a8c061209a8787878686866113b2565b50505080156120af576000805461ff00191690555b5050505050565b6120be612b86565b6001600160a01b031663dee1f0e4336040518263ffffffff1660e01b815260040180826001600160a01b03166001600160a01b0316815260200191505060206040518083038186803b15801561211357600080fd5b505afa158015612127573d6000803e3d6000fd5b505050506040513d602081101561213d57600080fd5b5051612181576040805162461bcd60e51b815260206004820152600e60248201526d4e6f7420676f7665726e616e636560901b604482015290519081900360640190fd5b6001600160a01b0381166121dc576040805162461bcd60e51b815260206004820152601e60248201527f6e65772073746f726167652073686f756c646e277420626520656d7074790000604482015290519081900360640190fd5b610c69816135bf565b60698054604080516020601f60026000196101006001881615020190951694909404938401819004810282018101909252828152606093909290918301828280156109765780601f1061094b57610100808354040283529160200191610976565b61224e612b86565b6001600160a01b031663dee1f0e4336040518263ffffffff1660e01b815260040180826001600160a01b03166001600160a01b0316815260200191505060206040518083038186803b1580156122a357600080fd5b505afa1580156122b7573d6000803e3d6000fd5b505050506040513d60208110156122cd57600080fd5b5051612311576040805162461bcd60e51b815260206004820152600e60248201526d4e6f7420676f7665726e616e636560901b604482015290519081900360640190fd5b61231b6000612c8b565b61190f6000612cb5565b600080612330611911565b158015906123445750612341611911565b42115b80156123615750600061235561099f565b6001600160a01b031614155b61236961099f565b915091509091565b600061099561237e612a6b565b84610e7885604051806060016040528060258152602001613dd360259139603460006123a8612a6b565b6001600160a01b03908116825260208083019390935260409182016000908120918d1681529252902054919063ffffffff612e4316565b6123e7612b86565b6001600160a01b031663dee1f0e4336040518263ffffffff1660e01b815260040180826001600160a01b03166001600160a01b0316815260200191505060206040518083038186803b15801561243c57600080fd5b505afa158015612450573d6000803e3d6000fd5b505050506040513d602081101561246657600080fd5b50516124aa576040805162461bcd60e51b815260206004820152600e60248201526d4e6f7420676f7665726e616e636560901b604482015290519081900360640190fd5b600081116124e95760405162461bcd60e51b8152600401808060200182810382526022815260200180613bb56022913960400191505060405180910390fd5b808211156125285760405162461bcd60e51b815260040180806020018281038252603a815260200180613c1b603a913960400191505060405180910390fd5b61253182613359565b61135a81613383565b60006109a96135e3565b60006109a961360e565b600061099561255b612a6b565b8484612ce5565b60006109a9613639565b60008061258561257a612a1f565b610f4c611b3f6114a4565b90506000612591612544565b6001600160a01b03166345d01e4a6040518163ffffffff1660e01b815260040160206040518083038186803b1580156125c957600080fd5b505afa1580156125dd573d6000803e3d6000fd5b505050506040513d60208110156125f357600080fd5b505190508181106126095760009250505061097e565b600061261b838363ffffffff61307116565b9050612625612721565b81111561263957612634612721565b61263b565b805b935050505061097e565b333214806126db5750612656612a29565b6001600160a01b03166330e412ad336040518263ffffffff1660e01b815260040180826001600160a01b03166001600160a01b03168152602001915050602060405180830381600087803b1580156126ad57600080fd5b505af11580156126c1573d6000803e3d6000fd5b505050506040513d60208110156126d757600080fd5b5051155b6127165760405162461bcd60e51b8152600401808060200182810382526028815260200180613c7b6028913960400191505060405180910390fd5b610c69813333613120565b600061272b611748565b6001600160a01b03166370a08231306040518263ffffffff1660e01b815260040180826001600160a01b03166001600160a01b0316815260200191505060206040518083038186803b15801561170d57600080fd5b600054610100900460ff16806127995750612799612cdf565b806127a7575060005460ff16155b6127e25760405162461bcd60e51b815260040180806020018281038252602e815260200180613cec602e913960400191505060405180910390fd5b600054610100900460ff1615801561280d576000805460ff1961ff0019909116610100171660011790555b61281682613664565b801561135a576000805461ff00191690555050565b6001600160a01b03918216600090815260346020908152604080832093909416825291909152205490565b61285e612b86565b6001600160a01b031663b429afeb336040518263ffffffff1660e01b815260040180826001600160a01b03166001600160a01b0316815260200191505060206040518083038186803b1580156128b357600080fd5b505afa1580156128c7573d6000803e3d6000fd5b505050506040513d60208110156128dd57600080fd5b50518061296f57506128ed612b86565b6001600160a01b031663dee1f0e4336040518263ffffffff1660e01b815260040180826001600160a01b03166001600160a01b0316815260200191505060206040518083038186803b15801561294257600080fd5b505afa158015612956573d6000803e3d6000fd5b505050506040513d602081101561296c57600080fd5b50515b6129aa5760405162461bcd60e51b815260040180806020018281038252602b815260200180613b67602b913960400191505060405180910390fd5b6129b46000612c0c565b61190f6000612c36565b6000806129c9612544565b6001600160a01b0316148061099957506129e161173e565b6001600160a01b0316826001600160a01b0316148015612a075750612a04612562565b42115b801561099957506000612a18612562565b1192915050565b60006109a96136fa565b6000612a33612b86565b6001600160a01b031663f77c47916040518163ffffffff1660e01b815260040160206040518083038186803b15801561170d57600080fd5b3390565b6001600160a01b038316612ab45760405162461bcd60e51b8152600401808060200182810382526024815260200180613d856024913960400191505060405180910390fd5b6001600160a01b038216612af95760405162461bcd60e51b8152600401808060200182810382526022815260200180613bf96022913960400191505060405180910390fd5b6001600160a01b03808416600081815260346020908152604080832094871680845294825291829020859055815185815291517f8c5be1e5ebec7d5bd14f71427d1e84f3dd0314c0f7b2291e5b200ac8c7c3b9259281900390910190a3505050565b60006109a97fb1acf527cd7cd1668b30e5a9a1c0d845714604de29ce560150922c9d8c0937df613721565b7fa7ec62784904ff31cbcc32d09932a58e7f1e4476e1d041995b37c917990b16dc5490565b600082820183811015612c05576040805162461bcd60e51b815260206004820152601b60248201527f536166654d6174683a206164646974696f6e206f766572666c6f770000000000604482015290519081900360640190fd5b9392505050565b610c697f56e7c0e75875c6497f0de657009613a32558904b5c10771a825cc330feff7e7282613725565b610c697fb441b53a4e42c2ca9182bc7ede99bedba7a5d9360d9dfbd31fa8ee2dc859061082613725565b60006109a97f6d02338b2e4c913c0f7d380e2798409838a48a2c4d57d52742a808c82d713d8b613721565b610c697fb1acf527cd7cd1668b30e5a9a1c0d845714604de29ce560150922c9d8c0937df82613725565b610c697f3bc747f4b148b37be485de3223c90b4468252967d2ea7f9fcbd8b6e653f434c982613725565b303b1590565b6001600160a01b038316612d2a5760405162461bcd60e51b8152600401808060200182810382526025815260200180613d606025913960400191505060405180910390fd5b6001600160a01b038216612d6f5760405162461bcd60e51b8152600401808060200182810382526023815260200180613b926023913960400191505060405180910390fd5b612db281604051806060016040528060268152602001613c55602691396001600160a01b038616600090815260336020526040902054919063ffffffff612e4316565b6001600160a01b038085166000908152603360205260408082209390935590841681522054612de7908263ffffffff612bab16565b6001600160a01b0380841660008181526033602090815260409182902094909455805185815290519193928716927fddf252ad1be2c89b69c2b068fc378daa952ba7f163c4a11628f55a4df523b3ef92918290030190a3505050565b60008184841115612ed25760405162461bcd60e51b81526004018080602001828103825283818151815260200191508051906020019080838360005b83811015612e97578181015183820152602001612e7f565b50505050905090810190601f168015612ec45780820380516001836020036101000a031916815260200191505b509250505060405180910390fd5b505050900390565b6001600160a01b038216612f1f5760405162461bcd60e51b8152600401808060200182810382526021815260200180613d3f6021913960400191505060405180910390fd5b612f6281604051806060016040528060228152602001613bd7602291396001600160a01b038516600090815260336020526040902054919063ffffffff612e4316565b6001600160a01b038316600090815260336020526040902055603554612f8e908263ffffffff61307116565b6035556040805182815290516000916001600160a01b038516917fddf252ad1be2c89b69c2b068fc378daa952ba7f163c4a11628f55a4df523b3ef9181900360200190a35050565b600082612fe557506000610999565b82820282848281612ff257fe5b0414612c055760405162461bcd60e51b8152600401808060200182810382526021815260200180613ca36021913960400191505060405180910390fd5b6000612c0583836040518060400160405280601a81526020017f536166654d6174683a206469766973696f6e206279207a65726f000000000000815250613729565b6000612c0583836040518060400160405280601e81526020017f536166654d6174683a207375627472616374696f6e206f766572666c6f770000815250612e43565b60008183106130c25781612c05565b5090919050565b604080516001600160a01b038416602482015260448082018490528251808303909101815260649091019091526020810180516001600160e01b031663a9059cbb60e01b17905261311b90849061378e565b505050565b60008311613168576040805162461bcd60e51b815260206004820152601060248201526f043616e6e6f74206465706f73697420360841b604482015290519081900360640190fd5b6001600160a01b0381166131bc576040805162461bcd60e51b81526020600482015260166024820152751a1bdb19195c881b5d5cdd081899481919599a5b995960521b604482015290519081900360640190fd5b60006131c6612544565b6001600160a01b031614613280576131dc612544565b6001600160a01b031663c2a2a07b6040518163ffffffff1660e01b815260040160206040518083038186803b15801561321457600080fd5b505afa158015613228573d6000803e3d6000fd5b505050506040513d602081101561323e57600080fd5b5051613280576040805162461bcd60e51b815260206004820152600c60248201526b2a37b79036bab1b41030b93160a11b604482015290519081900360640190fd5b600061328a610d48565b156132b7576132b261329a610d4e565b610f4c6132a5610d48565b879063ffffffff612fd616565b6132b9565b835b90506132c58282613946565b6132ea8330866132d3611748565b6001600160a01b031692919063ffffffff613a3816565b6040805185815290516001600160a01b038416917fe1fffcc4923d04b559f4d29a8bfc6cda04eb5b0d3c460751c2402c5c5cc9109c919081900360200190a250505050565b610c697f1994607607e11d53306ef62e45e3bd85762c58d9bf38b5578bc4a258a26a737182613725565b610c697f39122c9adfb653455d0c05043bd52fcfbc2be864e832efd3abc72ce5a3d7ed5a82613725565b610c697f469a3bad2fab7b936c45eecd1f5da52af89cead3e2ed7f732b6f3fc92ed3230882613725565b610c697fa66bc57d4b4eed7c7687876ca77997588987307cb13ecc23f5e52725192e5fff82613725565b610c697f82ddc3be3f0c1a6870327f78f4979a0b37b21b16736ef5be6a7a7a35e530bcf082613725565b610c697f6d02338b2e4c913c0f7d380e2798409838a48a2c4d57d52742a808c82d713d8b82613725565b60006109a97f39122c9adfb653455d0c05043bd52fcfbc2be864e832efd3abc72ce5a3d7ed5a613721565b6000613460612544565b6001600160a01b031614156134b7576040805162461bcd60e51b815260206004820152601860248201527714dd1c985d1959de481b5d5cdd081899481919599a5b995960421b604482015290519081900360640190fd5b60006134c161256c565b90508015610c69576134dd6134d4612544565b82611083611748565b6040805182815290517fa09b7ae452b7bffb9e204c3a016e80caeecf46f554d112644f36fa114dac6ffa9181900360200190a150565b60006109a97fa66bc57d4b4eed7c7687876ca77997588987307cb13ecc23f5e52725192e5fff613721565b60006109a97fb441b53a4e42c2ca9182bc7ede99bedba7a5d9360d9dfbd31fa8ee2dc8590610613721565b60006109a97f1994607607e11d53306ef62e45e3bd85762c58d9bf38b5578bc4a258a26a7371613721565b60006109a97f3bc747f4b148b37be485de3223c90b4468252967d2ea7f9fcbd8b6e653f434c9613721565b7fa7ec62784904ff31cbcc32d09932a58e7f1e4476e1d041995b37c917990b16dc55565b60006109a97f82ddc3be3f0c1a6870327f78f4979a0b37b21b16736ef5be6a7a7a35e530bcf0613721565b60006109a97ff1a169aa0f736c2813818fdfbdc5755c31e0839c8f49831a16543496b28574ea613721565b60006109a97f56e7c0e75875c6497f0de657009613a32558904b5c10771a825cc330feff7e72613721565b600054610100900460ff168061367d575061367d612cdf565b8061368b575060005460ff16155b6136c65760405162461bcd60e51b815260040180806020018281038252602e815260200180613cec602e913960400191505060405180910390fd5b600054610100900460ff161580156136f1576000805460ff1961ff0019909116610100171660011790555b612816826135bf565b60006109a97f469a3bad2fab7b936c45eecd1f5da52af89cead3e2ed7f732b6f3fc92ed323085b5490565b9055565b600081836137785760405162461bcd60e51b8152602060048201818152835160248401528351909283926044909101919085019080838360008315612e97578181015183820152602001612e7f565b50600083858161378457fe5b0495945050505050565b6137a0826001600160a01b0316613a92565b6137f1576040805162461bcd60e51b815260206004820152601f60248201527f5361666545524332303a2063616c6c20746f206e6f6e2d636f6e747261637400604482015290519081900360640190fd5b60006060836001600160a01b0316836040518082805190602001908083835b6020831061382f5780518252601f199092019160209182019101613810565b6001836020036101000a0380198251168184511680821785525050505050509050019150506000604051808303816000865af19150503d8060008114613891576040519150601f19603f3d011682016040523d82523d6000602084013e613896565b606091505b5091509150816138ed576040805162461bcd60e51b815260206004820181905260248201527f5361666545524332303a206c6f772d6c6576656c2063616c6c206661696c6564604482015290519081900360640190fd5b805115610d425780806020019051602081101561390957600080fd5b5051610d425760405162461bcd60e51b815260040180806020018281038252602a815260200180613da9602a913960400191505060405180910390fd5b6001600160a01b0382166139a1576040805162461bcd60e51b815260206004820152601f60248201527f45524332303a206d696e7420746f20746865207a65726f206164647265737300604482015290519081900360640190fd5b6035546139b4908263ffffffff612bab16565b6035556001600160a01b0382166000908152603360205260409020546139e0908263ffffffff612bab16565b6001600160a01b03831660008181526033602090815260408083209490945583518581529351929391927fddf252ad1be2c89b69c2b068fc378daa952ba7f163c4a11628f55a4df523b3ef9281900390910190a35050565b604080516001600160a01b0385811660248301528416604482015260648082018490528251808303909101815260849091019091526020810180516001600160e01b03166323b872dd60e01b179052610d4290859061378e565b6000813f7fc5d2460186f7233c927e7db2dcc703c0e500b653ca82273b7bfad8045d85a470818114801590613ac657508115155b949350505050565b828054600181600116156101000203166002900490600052602060002090601f016020900481019282601f10613b0f57805160ff1916838001178555613b3c565b82800160010185558215613b3c579182015b82811115613b3c578251825591602001919060010190613b21565b50613b48929150613b4c565b5090565b61097e91905b80821115613b485760008155600101613b5256fe5468652063616c6c6572206d75737420626520636f6e74726f6c6c6572206f7220676f7665726e616e636545524332303a207472616e7366657220746f20746865207a65726f206164647265737364656e6f6d696e61746f72206d7573742062652067726561746572207468616e203045524332303a206275726e20616d6f756e7420657863656564732062616c616e636545524332303a20617070726f766520746f20746865207a65726f206164647265737364656e6f6d696e61746f72206d7573742062652067726561746572207468616e206f7220657175616c20746f20746865206e756d657261746f7245524332303a207472616e7366657220616d6f756e7420657863656564732062616c616e63655468697320736d61727420636f6e747261637420686173206265656e2067726579206c6973746564536166654d6174683a206d756c7469706c69636174696f6e206f766572666c6f7745524332303a207472616e7366657220616d6f756e74206578636565647320616c6c6f77616e6365436f6e747261637420696e7374616e63652068617320616c7265616479206265656e20696e697469616c697a65646e756d6265724f66536861726573206d7573742062652067726561746572207468616e203045524332303a206275726e2066726f6d20746865207a65726f206164647265737345524332303a207472616e736665722066726f6d20746865207a65726f206164647265737345524332303a20617070726f76652066726f6d20746865207a65726f20616464726573735361666545524332303a204552433230206f7065726174696f6e20646964206e6f74207375636365656445524332303a2064656372656173656420616c6c6f77616e63652062656c6f77207a65726fa265627a7a723158204d535ade43a4a26f1375c27b8c7349114f221e8f731aa83ebdb761f6133c33fb64736f6c63430005100032656970313936372e7661756c7453746f726167652e7661756c744672616374696f6e546f496e766573744e756d657261746f72656970313936372e7661756c7453746f726167652e6e657874496d706c656d656e746174696f6e54696d657374616d70656970313936372e7661756c7453746f726167652e7661756c744672616374696f6e546f496e7665737444656e6f6d696e61746f72656970313936372e7661756c7453746f726167652e737472617465677955706461746554696d65656970313936372e7661756c7453746f726167652e737472617465677954696d654c6f636b656970313936372e7661756c7453746f726167652e6e657874496d706c656d656e746174696f6e44656c6179656970313936372e7661756c7453746f726167652e756e6465726c79696e67556e6974656970313936372e7661756c7453746f726167652e6e657874496d706c656d656e746174696f6e656970313936372e7661756c7453746f726167652e6675747572655374726174656779",
  "source": "pragma solidity 0.5.16;\n\nimport \"../../Vault.sol\";\n\ncontract VaultStrategySwitchLock is Vault {\n\n  function setStrategy(address _strategy) public onlyControllerOrGovernance {\n    revert(\"Strategy change not allowed\");\n  }\n}\n",
  "sourcePath": "/home/jawaher/tmp/harvest/contracts/test/upgradability/VaultStrategySwitchLock.sol",
  "compiler": {
    "name": "solc",
    "version": "0.5.16+commit.9c3226ce.Emscripten.clang"
  },
  "schemaVersion": "3.2.5",
  "updatedAt": "2020-10-19T08:25:32.511Z",
  "devdoc": {
    "methods": {
      "allowance(address,address)": {
        "details": "See {IERC20-allowance}."
      },
      "approve(address,uint256)": {
        "details": "See {IERC20-approve}.     * Requirements:     * - `spender` cannot be the zero address."
      },
      "balanceOf(address)": {
        "details": "See {IERC20-balanceOf}."
      },
      "decimals()": {
        "details": "Returns the number of decimals used to get its user representation. For example, if `decimals` equals `2`, a balance of `505` tokens should be displayed to a user as `5,05` (`505 / 10 ** 2`).     * Tokens usually opt for a value of 18, imitating the relationship between Ether and Wei.     * NOTE: This information is only used for _display_ purposes: it in no way affects any of the arithmetic of the contract, including {IERC20-balanceOf} and {IERC20-transfer}."
      },
      "decreaseAllowance(address,uint256)": {
        "details": "Atomically decreases the allowance granted to `spender` by the caller.     * This is an alternative to {approve} that can be used as a mitigation for problems described in {IERC20-approve}.     * Emits an {Approval} event indicating the updated allowance.     * Requirements:     * - `spender` cannot be the zero address. - `spender` must have allowance for the caller of at least `subtractedValue`."
      },
      "increaseAllowance(address,uint256)": {
        "details": "Atomically increases the allowance granted to `spender` by the caller.     * This is an alternative to {approve} that can be used as a mitigation for problems described in {IERC20-approve}.     * Emits an {Approval} event indicating the updated allowance.     * Requirements:     * - `spender` cannot be the zero address."
      },
      "initialize(string,string,uint8)": {
        "details": "Sets the values for `name`, `symbol`, and `decimals`. All three of these values are immutable: they can only be set once during construction."
      },
      "name()": {
        "details": "Returns the name of the token."
      },
      "symbol()": {
        "details": "Returns the symbol of the token, usually a shorter version of the name."
      },
      "totalSupply()": {
        "details": "See {IERC20-totalSupply}."
      },
      "transfer(address,uint256)": {
        "details": "See {IERC20-transfer}.     * Requirements:     * - `recipient` cannot be the zero address. - the caller must have a balance of at least `amount`."
      },
      "transferFrom(address,address,uint256)": {
        "details": "See {IERC20-transferFrom}.     * Emits an {Approval} event indicating the updated allowance. This is not required by the EIP. See the note at the beginning of {ERC20};     * Requirements: - `sender` and `recipient` cannot be the zero address. - `sender` must have a balance of at least `amount`. - the caller must have allowance for `sender`'s tokens of at least `amount`."
      }
    }
  },
  "userdoc": {
    "methods": {
      "announceStrategyUpdate(address)": {
        "notice": "Indicates that the strategy update will happen in the future"
      },
      "doHardWork()": {
        "notice": "Chooses the best strategy and re-invests. If the strategy did not change, it just calls doHardWork on the current strategy. Call this through controller to claim hard rewards."
      },
      "finalizeStrategyUpdate()": {
        "notice": "Finalizes (or cancels) the strategy update by resetting the data"
      },
      "scheduleUpgrade(address)": {
        "notice": "Schedules an upgrade for this vault's proxy."
      }
    }
  }
}