{
  "contractName": "Vault",
  "abi": [
    {
      "inputs": [],
      "payable": false,
      "stateMutability": "nonpayable",
      "type": "constructor"
    },
    {
      "anonymous": false,
      "inputs": [
        {
          "indexed": true,
          "internalType": "address",
          "name": "owner",
          "type": "address"
        },
        {
          "indexed": true,
          "internalType": "address",
          "name": "spender",
          "type": "address"
        },
        {
          "indexed": false,
          "internalType": "uint256",
          "name": "value",
          "type": "uint256"
        }
      ],
      "name": "Approval",
      "type": "event"
    },
    {
      "anonymous": false,
      "inputs": [
        {
          "indexed": true,
          "internalType": "address",
          "name": "beneficiary",
          "type": "address"
        },
        {
          "indexed": false,
          "internalType": "uint256",
          "name": "amount",
          "type": "uint256"
        }
      ],
      "name": "Deposit",
      "type": "event"
    },
    {
      "anonymous": false,
      "inputs": [
        {
          "indexed": false,
          "internalType": "uint256",
          "name": "amount",
          "type": "uint256"
        }
      ],
      "name": "Invest",
      "type": "event"
    },
    {
      "anonymous": false,
      "inputs": [
        {
          "indexed": false,
          "internalType": "address",
          "name": "newStrategy",
          "type": "address"
        },
        {
          "indexed": false,
          "internalType": "uint256",
          "name": "time",
          "type": "uint256"
        }
      ],
      "name": "StrategyAnnounced",
      "type": "event"
    },
    {
      "anonymous": false,
      "inputs": [
        {
          "indexed": false,
          "internalType": "address",
          "name": "newStrategy",
          "type": "address"
        },
        {
          "indexed": false,
          "internalType": "address",
          "name": "oldStrategy",
          "type": "address"
        }
      ],
      "name": "StrategyChanged",
      "type": "event"
    },
    {
      "anonymous": false,
      "inputs": [
        {
          "indexed": true,
          "internalType": "address",
          "name": "from",
          "type": "address"
        },
        {
          "indexed": true,
          "internalType": "address",
          "name": "to",
          "type": "address"
        },
        {
          "indexed": false,
          "internalType": "uint256",
          "name": "value",
          "type": "uint256"
        }
      ],
      "name": "Transfer",
      "type": "event"
    },
    {
      "anonymous": false,
      "inputs": [
        {
          "indexed": true,
          "internalType": "address",
          "name": "beneficiary",
          "type": "address"
        },
        {
          "indexed": false,
          "internalType": "uint256",
          "name": "amount",
          "type": "uint256"
        }
      ],
      "name": "Withdraw",
      "type": "event"
    },
    {
      "constant": true,
      "inputs": [
        {
          "internalType": "address",
          "name": "owner",
          "type": "address"
        },
        {
          "internalType": "address",
          "name": "spender",
          "type": "address"
        }
      ],
      "name": "allowance",
      "outputs": [
        {
          "internalType": "uint256",
          "name": "",
          "type": "uint256"
        }
      ],
      "payable": false,
      "stateMutability": "view",
      "type": "function"
    },
    {
      "constant": false,
      "inputs": [
        {
          "internalType": "address",
          "name": "spender",
          "type": "address"
        },
        {
          "internalType": "uint256",
          "name": "amount",
          "type": "uint256"
        }
      ],
      "name": "approve",
      "outputs": [
        {
          "internalType": "bool",
          "name": "",
          "type": "bool"
        }
      ],
      "payable": false,
      "stateMutability": "nonpayable",
      "type": "function"
    },
    {
      "constant": true,
      "inputs": [
        {
          "internalType": "address",
          "name": "account",
          "type": "address"
        }
      ],
      "name": "balanceOf",
      "outputs": [
        {
          "internalType": "uint256",
          "name": "",
          "type": "uint256"
        }
      ],
      "payable": false,
      "stateMutability": "view",
      "type": "function"
    },
    {
      "constant": true,
      "inputs": [],
      "name": "controller",
      "outputs": [
        {
          "internalType": "address",
          "name": "",
          "type": "address"
        }
      ],
      "payable": false,
      "stateMutability": "view",
      "type": "function"
    },
    {
      "constant": true,
      "inputs": [],
      "name": "decimals",
      "outputs": [
        {
          "internalType": "uint8",
          "name": "",
          "type": "uint8"
        }
      ],
      "payable": false,
      "stateMutability": "view",
      "type": "function"
    },
    {
      "constant": false,
      "inputs": [
        {
          "internalType": "address",
          "name": "spender",
          "type": "address"
        },
        {
          "internalType": "uint256",
          "name": "subtractedValue",
          "type": "uint256"
        }
      ],
      "name": "decreaseAllowance",
      "outputs": [
        {
          "internalType": "bool",
          "name": "",
          "type": "bool"
        }
      ],
      "payable": false,
      "stateMutability": "nonpayable",
      "type": "function"
    },
    {
      "constant": true,
      "inputs": [],
      "name": "governance",
      "outputs": [
        {
          "internalType": "address",
          "name": "",
          "type": "address"
        }
      ],
      "payable": false,
      "stateMutability": "view",
      "type": "function"
    },
    {
      "constant": false,
      "inputs": [
        {
          "internalType": "address",
          "name": "spender",
          "type": "address"
        },
        {
          "internalType": "uint256",
          "name": "addedValue",
          "type": "uint256"
        }
      ],
      "name": "increaseAllowance",
      "outputs": [
        {
          "internalType": "bool",
          "name": "",
          "type": "bool"
        }
      ],
      "payable": false,
      "stateMutability": "nonpayable",
      "type": "function"
    },
    {
      "constant": false,
      "inputs": [
        {
          "internalType": "string",
          "name": "name",
          "type": "string"
        },
        {
          "internalType": "string",
          "name": "symbol",
          "type": "string"
        },
        {
          "internalType": "uint8",
          "name": "decimals",
          "type": "uint8"
        }
      ],
      "name": "initialize",
      "outputs": [],
      "payable": false,
      "stateMutability": "nonpayable",
      "type": "function"
    },
    {
      "constant": false,
      "inputs": [
        {
          "internalType": "address",
          "name": "_underlying",
          "type": "address"
        },
        {
          "internalType": "uint256",
          "name": "_toInvestNumerator",
          "type": "uint256"
        },
        {
          "internalType": "uint256",
          "name": "_toInvestDenominator",
          "type": "uint256"
        },
        {
          "internalType": "uint256",
          "name": "_underlyingUnit",
          "type": "uint256"
        },
        {
          "internalType": "uint256",
          "name": "_implementationChangeDelay",
          "type": "uint256"
        },
        {
          "internalType": "uint256",
          "name": "_strategyChangeDelay",
          "type": "uint256"
        }
      ],
      "name": "initialize",
      "outputs": [],
      "payable": false,
      "stateMutability": "nonpayable",
      "type": "function"
    },
    {
      "constant": false,
      "inputs": [
        {
          "internalType": "address",
          "name": "_storage",
          "type": "address"
        }
      ],
      "name": "initialize",
      "outputs": [],
      "payable": false,
      "stateMutability": "nonpayable",
      "type": "function"
    },
    {
      "constant": true,
      "inputs": [],
      "name": "name",
      "outputs": [
        {
          "internalType": "string",
          "name": "",
          "type": "string"
        }
      ],
      "payable": false,
      "stateMutability": "view",
      "type": "function"
    },
    {
      "constant": false,
      "inputs": [
        {
          "internalType": "address",
          "name": "_store",
          "type": "address"
        }
      ],
      "name": "setStorage",
      "outputs": [],
      "payable": false,
      "stateMutability": "nonpayable",
      "type": "function"
    },
    {
      "constant": true,
      "inputs": [],
      "name": "symbol",
      "outputs": [
        {
          "internalType": "string",
          "name": "",
          "type": "string"
        }
      ],
      "payable": false,
      "stateMutability": "view",
      "type": "function"
    },
    {
      "constant": true,
      "inputs": [],
      "name": "totalSupply",
      "outputs": [
        {
          "internalType": "uint256",
          "name": "",
          "type": "uint256"
        }
      ],
      "payable": false,
      "stateMutability": "view",
      "type": "function"
    },
    {
      "constant": false,
      "inputs": [
        {
          "internalType": "address",
          "name": "recipient",
          "type": "address"
        },
        {
          "internalType": "uint256",
          "name": "amount",
          "type": "uint256"
        }
      ],
      "name": "transfer",
      "outputs": [
        {
          "internalType": "bool",
          "name": "",
          "type": "bool"
        }
      ],
      "payable": false,
      "stateMutability": "nonpayable",
      "type": "function"
    },
    {
      "constant": false,
      "inputs": [
        {
          "internalType": "address",
          "name": "sender",
          "type": "address"
        },
        {
          "internalType": "address",
          "name": "recipient",
          "type": "address"
        },
        {
          "internalType": "uint256",
          "name": "amount",
          "type": "uint256"
        }
      ],
      "name": "transferFrom",
      "outputs": [
        {
          "internalType": "bool",
          "name": "",
          "type": "bool"
        }
      ],
      "payable": false,
      "stateMutability": "nonpayable",
      "type": "function"
    },
    {
      "constant": false,
      "inputs": [
        {
          "internalType": "address",
          "name": "_storage",
          "type": "address"
        },
        {
          "internalType": "address",
          "name": "_underlying",
          "type": "address"
        },
        {
          "internalType": "uint256",
          "name": "_toInvestNumerator",
          "type": "uint256"
        },
        {
          "internalType": "uint256",
          "name": "_toInvestDenominator",
          "type": "uint256"
        }
      ],
      "name": "initializeVault",
      "outputs": [],
      "payable": false,
      "stateMutability": "nonpayable",
      "type": "function"
    },
    {
      "constant": true,
      "inputs": [],
      "name": "strategy",
      "outputs": [
        {
          "internalType": "address",
          "name": "",
          "type": "address"
        }
      ],
      "payable": false,
      "stateMutability": "view",
      "type": "function"
    },
    {
      "constant": true,
      "inputs": [],
      "name": "underlying",
      "outputs": [
        {
          "internalType": "address",
          "name": "",
          "type": "address"
        }
      ],
      "payable": false,
      "stateMutability": "view",
      "type": "function"
    },
    {
      "constant": true,
      "inputs": [],
      "name": "underlyingUnit",
      "outputs": [
        {
          "internalType": "uint256",
          "name": "",
          "type": "uint256"
        }
      ],
      "payable": false,
      "stateMutability": "view",
      "type": "function"
    },
    {
      "constant": true,
      "inputs": [],
      "name": "vaultFractionToInvestNumerator",
      "outputs": [
        {
          "internalType": "uint256",
          "name": "",
          "type": "uint256"
        }
      ],
      "payable": false,
      "stateMutability": "view",
      "type": "function"
    },
    {
      "constant": true,
      "inputs": [],
      "name": "vaultFractionToInvestDenominator",
      "outputs": [
        {
          "internalType": "uint256",
          "name": "",
          "type": "uint256"
        }
      ],
      "payable": false,
      "stateMutability": "view",
      "type": "function"
    },
    {
      "constant": true,
      "inputs": [],
      "name": "nextImplementation",
      "outputs": [
        {
          "internalType": "address",
          "name": "",
          "type": "address"
        }
      ],
      "payable": false,
      "stateMutability": "view",
      "type": "function"
    },
    {
      "constant": true,
      "inputs": [],
      "name": "nextImplementationTimestamp",
      "outputs": [
        {
          "internalType": "uint256",
          "name": "",
          "type": "uint256"
        }
      ],
      "payable": false,
      "stateMutability": "view",
      "type": "function"
    },
    {
      "constant": true,
      "inputs": [],
      "name": "nextImplementationDelay",
      "outputs": [
        {
          "internalType": "uint256",
          "name": "",
          "type": "uint256"
        }
      ],
      "payable": false,
      "stateMutability": "view",
      "type": "function"
    },
    {
      "constant": false,
      "inputs": [],
      "name": "doHardWork",
      "outputs": [],
      "payable": false,
      "stateMutability": "nonpayable",
      "type": "function"
    },
    {
      "constant": true,
      "inputs": [],
      "name": "underlyingBalanceInVault",
      "outputs": [
        {
          "internalType": "uint256",
          "name": "",
          "type": "uint256"
        }
      ],
      "payable": false,
      "stateMutability": "view",
      "type": "function"
    },
    {
      "constant": true,
      "inputs": [],
      "name": "underlyingBalanceWithInvestment",
      "outputs": [
        {
          "internalType": "uint256",
          "name": "",
          "type": "uint256"
        }
      ],
      "payable": false,
      "stateMutability": "view",
      "type": "function"
    },
    {
      "constant": true,
      "inputs": [],
      "name": "getPricePerFullShare",
      "outputs": [
        {
          "internalType": "uint256",
          "name": "",
          "type": "uint256"
        }
      ],
      "payable": false,
      "stateMutability": "view",
      "type": "function"
    },
    {
      "constant": true,
      "inputs": [
        {
          "internalType": "address",
          "name": "holder",
          "type": "address"
        }
      ],
      "name": "underlyingBalanceWithInvestmentForHolder",
      "outputs": [
        {
          "internalType": "uint256",
          "name": "",
          "type": "uint256"
        }
      ],
      "payable": false,
      "stateMutability": "view",
      "type": "function"
    },
    {
      "constant": true,
      "inputs": [],
      "name": "futureStrategy",
      "outputs": [
        {
          "internalType": "address",
          "name": "",
          "type": "address"
        }
      ],
      "payable": false,
      "stateMutability": "view",
      "type": "function"
    },
    {
      "constant": true,
      "inputs": [],
      "name": "strategyUpdateTime",
      "outputs": [
        {
          "internalType": "uint256",
          "name": "",
          "type": "uint256"
        }
      ],
      "payable": false,
      "stateMutability": "view",
      "type": "function"
    },
    {
      "constant": true,
      "inputs": [],
      "name": "strategyTimeLock",
      "outputs": [
        {
          "internalType": "uint256",
          "name": "",
          "type": "uint256"
        }
      ],
      "payable": false,
      "stateMutability": "view",
      "type": "function"
    },
    {
      "constant": true,
      "inputs": [
        {
          "internalType": "address",
          "name": "_strategy",
          "type": "address"
        }
      ],
      "name": "canUpdateStrategy",
      "outputs": [
        {
          "internalType": "bool",
          "name": "",
          "type": "bool"
        }
      ],
      "payable": false,
      "stateMutability": "view",
      "type": "function"
    },
    {
      "constant": false,
      "inputs": [
        {
          "internalType": "address",
          "name": "_strategy",
          "type": "address"
        }
      ],
      "name": "announceStrategyUpdate",
      "outputs": [],
      "payable": false,
      "stateMutability": "nonpayable",
      "type": "function"
    },
    {
      "constant": false,
      "inputs": [],
      "name": "finalizeStrategyUpdate",
      "outputs": [],
      "payable": false,
      "stateMutability": "nonpayable",
      "type": "function"
    },
    {
      "constant": false,
      "inputs": [
        {
          "internalType": "address",
          "name": "_strategy",
          "type": "address"
        }
      ],
      "name": "setStrategy",
      "outputs": [],
      "payable": false,
      "stateMutability": "nonpayable",
      "type": "function"
    },
    {
      "constant": false,
      "inputs": [
        {
          "internalType": "uint256",
          "name": "numerator",
          "type": "uint256"
        },
        {
          "internalType": "uint256",
          "name": "denominator",
          "type": "uint256"
        }
      ],
      "name": "setVaultFractionToInvest",
      "outputs": [],
      "payable": false,
      "stateMutability": "nonpayable",
      "type": "function"
    },
    {
      "constant": false,
      "inputs": [],
      "name": "rebalance",
      "outputs": [],
      "payable": false,
      "stateMutability": "nonpayable",
      "type": "function"
    },
    {
      "constant": true,
      "inputs": [],
      "name": "availableToInvestOut",
      "outputs": [
        {
          "internalType": "uint256",
          "name": "",
          "type": "uint256"
        }
      ],
      "payable": false,
      "stateMutability": "view",
      "type": "function"
    },
    {
      "constant": false,
      "inputs": [
        {
          "internalType": "uint256",
          "name": "amount",
          "type": "uint256"
        }
      ],
      "name": "deposit",
      "outputs": [],
      "payable": false,
      "stateMutability": "nonpayable",
      "type": "function"
    },
    {
      "constant": false,
      "inputs": [
        {
          "internalType": "uint256",
          "name": "amount",
          "type": "uint256"
        },
        {
          "internalType": "address",
          "name": "holder",
          "type": "address"
        }
      ],
      "name": "depositFor",
      "outputs": [],
      "payable": false,
      "stateMutability": "nonpayable",
      "type": "function"
    },
    {
      "constant": false,
      "inputs": [],
      "name": "withdrawAll",
      "outputs": [],
      "payable": false,
      "stateMutability": "nonpayable",
      "type": "function"
    },
    {
      "constant": false,
      "inputs": [
        {
          "internalType": "uint256",
          "name": "numberOfShares",
          "type": "uint256"
        }
      ],
      "name": "withdraw",
      "outputs": [],
      "payable": false,
      "stateMutability": "nonpayable",
      "type": "function"
    },
    {
      "constant": false,
      "inputs": [
        {
          "internalType": "address",
          "name": "impl",
          "type": "address"
        }
      ],
      "name": "scheduleUpgrade",
      "outputs": [],
      "payable": false,
      "stateMutability": "nonpayable",
      "type": "function"
    },
    {
      "constant": true,
      "inputs": [],
      "name": "shouldUpgrade",
      "outputs": [
        {
          "internalType": "bool",
          "name": "",
          "type": "bool"
        },
        {
          "internalType": "address",
          "name": "",
          "type": "address"
        }
      ],
      "payable": false,
      "stateMutability": "view",
      "type": "function"
    },
    {
      "constant": false,
      "inputs": [],
      "name": "finalizeUpgrade",
      "outputs": [],
      "payable": false,
      "stateMutability": "nonpayable",
      "type": "function"
    }
  ],
  "bytecode": "0x60806040523480156200001157600080fd5b50604080517f656970313936372e676f7665726e61626c65496e69742e73746f7261676500008152905190819003601e0190207fa7ec62784904ff31cbcc32d09932a58e7f1e4476e1d041995b37c917990b16dc600019909101146200007357fe5b604080517f656970313936372e7661756c7453746f726167652e73747261746567790000008152905190819003601d0190207ff1a169aa0f736c2813818fdfbdc5755c31e0839c8f49831a16543496b28574ea60001990910114620000d457fe5b604080517f656970313936372e7661756c7453746f726167652e756e6465726c79696e67008152905190819003601f0190207f1994607607e11d53306ef62e45e3bd85762c58d9bf38b5578bc4a258a26a7371600019909101146200013557fe5b600160405180806200484e602391396023019050604051809103902060001c0360001b7fa66bc57d4b4eed7c7687876ca77997588987307cb13ecc23f5e52725192e5fff60001b146200018457fe5b600160405180806200473e603391396033019050604051809103902060001c0360001b7f39122c9adfb653455d0c05043bd52fcfbc2be864e832efd3abc72ce5a3d7ed5a60001b14620001d357fe5b60016040518080620047a1603591396035019050604051809103902060001c0360001b7f469a3bad2fab7b936c45eecd1f5da52af89cead3e2ed7f732b6f3fc92ed3230860001b146200022257fe5b6001604051808062004871602791396027019050604051809103902060001c0360001b7fb1acf527cd7cd1668b30e5a9a1c0d845714604de29ce560150922c9d8c0937df60001b146200027157fe5b6001604051808062004771603091396030019050604051809103902060001c0360001b7f3bc747f4b148b37be485de3223c90b4468252967d2ea7f9fcbd8b6e653f434c960001b14620002c057fe5b6001604051808062004822602c9139602c019050604051809103902060001c0360001b7f82ddc3be3f0c1a6870327f78f4979a0b37b21b16736ef5be6a7a7a35e530bcf060001b146200030f57fe5b60016040518080620047fd602591396025019050604051809103902060001c0360001b7f6d02338b2e4c913c0f7d380e2798409838a48a2c4d57d52742a808c82d713d8b60001b146200035e57fe5b6001604051808062004898602391396023019050604051809103902060001c0360001b7fb441b53a4e42c2ca9182bc7ede99bedba7a5d9360d9dfbd31fa8ee2dc859061060001b14620003ad57fe5b60016040518080620047d6602791396027019050604051809103902060001c0360001b7f56e7c0e75875c6497f0de657009613a32558904b5c10771a825cc330feff7e7260001b14620003fc57fe5b614332806200040c6000396000f3fe608060405234801561001057600080fd5b50600436106102a05760003560e01c80637d7c2a1c11610167578063a8c62e76116100ce578063c4d66de811610087578063c4d66de814610858578063dd62ed3e1461087e578063eda199aa146108ac578063f0cf91e7146108b4578063f2768c1e146108da578063f77c4791146108e2576102a0565b8063a8c62e76146107ef578063a9059cbb146107f7578063aa04462514610823578063b592c3901461082b578063b6b55f2514610833578063c2baf35614610850576102a0565b806395d89b411161012057806395d89b411461075d5780639a508c8e146107655780639d16acfd1461076d578063a457c2d714610798578063a5b1a24d146107c4578063a8365693146107e7576102a0565b80637d7c2a1c146106bd57806382de9c1b146106c5578063853828b6146106cd5780638cb1d67f146106d55780638fc1708c146106fb5780639137c1a714610737576102a0565b806333a100ca1161020b57806353ceb01c116101c457806353ceb01c1461066f5780635aa6e675146106775780635fe51e6d1461067f5780636f307dc31461068757806370a082311461068f57806377c7b8fc146106b5576102a0565b806333a100ca1461059d57806336efd16f146105c357806339509351146105ef57806345ff4c801461061b5780634af1758b1461065f5780634fa5d85414610667576102a0565b80631624f6c61161025d5780631624f6c6146103ee57806318160ddd1461051c5780631bf8e7be1461052457806323b872dd1461052c5780632e1a7d4d14610562578063313ce5671461057f576102a0565b806306fdde03146102a5578063095ea7b31461032257806309ff18f0146103625780630a6bbeb3146103865780630ad2239d146103ae5780630c80447a146103c8575b600080fd5b6102ad6108ea565b6040805160208082528351818301528351919283929083019185019080838360005b838110156102e75781810151838201526020016102cf565b50505050905090810190601f1680156103145780820380516001836020036101000a031916815260200191505b509250505060405180910390f35b61034e6004803603604081101561033857600080fd5b506001600160a01b038135169060200135610981565b604080519115158252519081900360200190f35b61036a61099f565b604080516001600160a01b039092168252519081900360200190f35b6103ac6004803603602081101561039c57600080fd5b50356001600160a01b03166109ae565b005b6103b6610b78565b60408051918252519081900360200190f35b6103ac600480360360208110156103de57600080fd5b50356001600160a01b0316610b82565b6103ac6004803603606081101561040457600080fd5b810190602081018135600160201b81111561041e57600080fd5b82018360208201111561043057600080fd5b803590602001918460018302840111600160201b8311171561045157600080fd5b91908080601f0160208091040260200160405190810160405280939291908181526020018383808284376000920191909152509295949360208101935035915050600160201b8111156104a357600080fd5b8201836020820111156104b557600080fd5b803590602001918460018302840111600160201b831117156104d657600080fd5b91908080601f0160208091040260200160405190810160405280939291908181526020018383808284376000920191909152509295505050903560ff169150610c6c9050565b6103b6610d48565b6103b6610d4e565b61034e6004803603606081101561054257600080fd5b506001600160a01b03813581169160208101359091169060400135610dfa565b6103ac6004803603602081101561057857600080fd5b5035610e87565b6105876110d4565b6040805160ff9092168252519081900360200190f35b6103ac600480360360208110156105b357600080fd5b50356001600160a01b03166110dd565b6103ac600480360360408110156105d957600080fd5b50803590602001356001600160a01b031661157e565b61034e6004803603604081101561060557600080fd5b506001600160a01b03813516906020013561165e565b6103ac600480360360c081101561063157600080fd5b506001600160a01b038135169060208101359060408101359060608101359060808101359060a001356116b2565b6103b66117a4565b6103ac6117ae565b6103b66119c1565b61036a6119cb565b61036a611a3e565b61036a611a48565b6103b6600480360360208110156106a557600080fd5b50356001600160a01b0316611a52565b6103b6611a71565b6103ac611aab565b6103b6611c11565b6103ac611c1b565b6103b6600480360360208110156106eb57600080fd5b50356001600160a01b0316611e12565b6103ac6004803603608081101561071157600080fd5b506001600160a01b03813581169160208101359091169060408101359060600135611e47565b6103ac6004803603602081101561074d57600080fd5b50356001600160a01b03166123b6565b6102ad6124e5565b6103ac612546565b610775612625565b6040805192151583526001600160a01b0390911660208301528051918290030190f35b61034e600480360360408110156107ae57600080fd5b506001600160a01b038135169060200135612671565b6103ac600480360360408110156107da57600080fd5b50803590602001356126df565b6103b661283a565b61036a612844565b61034e6004803603604081101561080d57600080fd5b506001600160a01b03813516906020013561284e565b6103b6612862565b6103b661286c565b6103ac6004803603602081101561084957600080fd5b5035612945565b6103b6612a21565b6103ac6004803603602081101561086e57600080fd5b50356001600160a01b0316612a80565b6103b66004803603604081101561089457600080fd5b506001600160a01b0381358116916020013516612b2b565b6103ac612b56565b61034e600480360360208110156108ca57600080fd5b50356001600160a01b0316612cbe565b6103b6612d1f565b61036a612d29565b60688054604080516020601f60026000196101006001881615020190951694909404938401819004810282018101909252828152606093909290918301828280156109765780601f1061094b57610100808354040283529160200191610976565b820191906000526020600020905b81548152906001019060200180831161095957829003601f168201915b505050505090505b90565b600061099561098e612d6b565b8484612d6f565b5060015b92915050565b60006109a9612e5b565b905090565b6109b6612e86565b6001600160a01b031663b429afeb336040518263ffffffff1660e01b815260040180826001600160a01b03166001600160a01b0316815260200191505060206040518083038186803b158015610a0b57600080fd5b505afa158015610a1f573d6000803e3d6000fd5b505050506040513d6020811015610a3557600080fd5b505180610ac75750610a45612e86565b6001600160a01b031663dee1f0e4336040518263ffffffff1660e01b815260040180826001600160a01b03166001600160a01b0316815260200191505060206040518083038186803b158015610a9a57600080fd5b505afa158015610aae573d6000803e3d6000fd5b505050506040513d6020811015610ac457600080fd5b50515b610b025760405162461bcd60e51b815260040180806020018281038252602b815260200180613fa4602b913960400191505060405180910390fd5b6000610b1c610b0f610b78565b429063ffffffff612eab16565b9050610b2781612f0c565b610b3082612f36565b604080516001600160a01b03841681526020810183905281517f7d5e1cfe55788983acd19d248da36a27c9413e8e43445ed36a76ae0e741a04ed929181900390910190a15050565b60006109a9612f60565b610b8a612e86565b6001600160a01b031663dee1f0e4336040518263ffffffff1660e01b815260040180826001600160a01b03166001600160a01b0316815260200191505060206040518083038186803b158015610bdf57600080fd5b505afa158015610bf3573d6000803e3d6000fd5b505050506040513d6020811015610c0957600080fd5b5051610c4d576040805162461bcd60e51b815260206004820152600e60248201526d4e6f7420676f7665726e616e636560901b604482015290519081900360640190fd5b610c5681612f8b565b610c69610c64610b0f61283a565b612fb5565b50565b600054610100900460ff1680610c855750610c85612fdf565b80610c93575060005460ff16155b610cce5760405162461bcd60e51b815260040180806020018281038252602e815260200180614182602e913960400191505060405180910390fd5b600054610100900460ff16158015610cf9576000805460ff1961ff0019909116610100171660011790555b8351610d0c906068906020870190613f0b565b508251610d20906069906020860190613f0b565b50606a805460ff191660ff84161790558015610d42576000805461ff00191690555b50505050565b60355490565b600080610d59612844565b6001600160a01b03161415610d7757610d70612a21565b905061097e565b6109a9610d82612844565b6001600160a01b03166345d01e4a6040518163ffffffff1660e01b815260040160206040518083038186803b158015610dba57600080fd5b505afa158015610dce573d6000803e3d6000fd5b505050506040513d6020811015610de457600080fd5b5051610dee612a21565b9063ffffffff612eab16565b6000610e07848484612fe5565b610e7d84610e13612d6b565b610e788560405180606001604052806028815260200161415a602891396001600160a01b038a16600090815260346020526040812090610e51612d6b565b6001600160a01b03168152602081019190915260400160002054919063ffffffff61314316565b612d6f565b5060019392505050565b6000610e91610d48565b11610ed9576040805162461bcd60e51b81526020600482015260136024820152725661756c7420686173206e6f2073686172657360681b604482015290519081900360640190fd5b60008111610f185760405162461bcd60e51b81526004018080602001828103825260258152602001806141ea6025913960400191505060405180910390fd5b6000610f22610d48565b9050610f2e33836131da565b6000610f5882610f4c85610f40610d4e565b9063ffffffff6132d616565b9063ffffffff61332f16565b9050610f62612a21565b8111156110765781831415610fd057610f79612844565b6001600160a01b031663bfd131f16040518163ffffffff1660e01b8152600401600060405180830381600087803b158015610fb357600080fd5b505af1158015610fc7573d6000803e3d6000fd5b50505050611053565b6000610fea610fdd612a21565b839063ffffffff61337116565b9050610ff4612844565b6001600160a01b031663ce8c42e8826040518263ffffffff1660e01b815260040180828152602001915050600060405180830381600087803b15801561103957600080fd5b505af115801561104d573d6000803e3d6000fd5b50505050505b61107361106683610f4c86610f40610d4e565b61106e612a21565b6133b3565b90505b6110993382611083611a48565b6001600160a01b0316919063ffffffff6133c916565b60408051828152905133917f884edad9ce6fa2440d8a54cc123490eb96d2768479d49ff9c7366125a9424364919081900360200190a2505050565b606a5460ff1690565b6110e5612e86565b6001600160a01b031663b429afeb336040518263ffffffff1660e01b815260040180826001600160a01b03166001600160a01b0316815260200191505060206040518083038186803b15801561113a57600080fd5b505afa15801561114e573d6000803e3d6000fd5b505050506040513d602081101561116457600080fd5b5051806111f65750611174612e86565b6001600160a01b031663dee1f0e4336040518263ffffffff1660e01b815260040180826001600160a01b03166001600160a01b0316815260200191505060206040518083038186803b1580156111c957600080fd5b505afa1580156111dd573d6000803e3d6000fd5b505050506040513d60208110156111f357600080fd5b50515b6112315760405162461bcd60e51b815260040180806020018281038252602b815260200180613fa4602b913960400191505060405180910390fd5b61123a81612cbe565b6112755760405162461bcd60e51b815260040180806020018281038252603a8152602001806141b0603a913960400191505060405180910390fd5b6001600160a01b0381166112d0576040805162461bcd60e51b815260206004820152601d60248201527f6e6577205f73747261746567792063616e6e6f7420626520656d707479000000604482015290519081900360640190fd5b6112d8611a48565b6001600160a01b0316816001600160a01b0316636f307dc36040518163ffffffff1660e01b815260040160206040518083038186803b15801561131a57600080fd5b505afa15801561132e573d6000803e3d6000fd5b505050506040513d602081101561134457600080fd5b50516001600160a01b03161461138b5760405162461bcd60e51b815260040180806020018281038252602f81526020018061410a602f913960400191505060405180910390fd5b306001600160a01b0316816001600160a01b031663fbfa77cf6040518163ffffffff1660e01b815260040160206040518083038186803b1580156113ce57600080fd5b505afa1580156113e2573d6000803e3d6000fd5b505050506040513d60208110156113f857600080fd5b50516001600160a01b03161461143f5760405162461bcd60e51b815260040180806020018281038252602a815260200180614058602a913960400191505060405180910390fd5b7f254c88e7a2ea123aeeb89b7cc413fb949188fefcdb7584c4f3d493294daf65c581611469612844565b604080516001600160a01b03938416815291909216602082015281519081900390910190a1611496612844565b6001600160a01b0316816001600160a01b0316146115765760006114b8612844565b6001600160a01b03161461154c576114f16114d1612844565b60006114db611a48565b6001600160a01b0316919063ffffffff61342016565b6114f9612844565b6001600160a01b031663bfd131f16040518163ffffffff1660e01b8152600401600060405180830381600087803b15801561153357600080fd5b505af1158015611547573d6000803e3d6000fd5b505050505b61155581613533565b6115606114d1612844565b61157661156b612844565b6000196114db611a48565b610c69612b56565b33321480611614575061158f612d29565b6001600160a01b03166330e412ad336040518263ffffffff1660e01b815260040180826001600160a01b03166001600160a01b03168152602001915050602060405180830381600087803b1580156115e657600080fd5b505af11580156115fa573d6000803e3d6000fd5b505050506040513d602081101561161057600080fd5b5051155b61164f5760405162461bcd60e51b81526004018080602001828103825260288152602001806140e26028913960400191505060405180910390fd5b61165a82338361355d565b5050565b600061099561166b612d6b565b84610e78856034600061167c612d6b565b6001600160a01b03908116825260208083019390935260409182016000908120918c16815292529020549063ffffffff612eab16565b600054610100900460ff16806116cb57506116cb612fdf565b806116d9575060005460ff16155b6117145760405162461bcd60e51b815260040180806020018281038252602e815260200180614182602e913960400191505060405180910390fd5b600054610100900460ff1615801561173f576000805460ff1961ff0019909116610100171660011790555b6117488761376c565b61175186613796565b61175a856137c0565b611763846137ea565b61176c83613814565b6117758261383e565b61177f6000612f0c565b6117896000612f36565b801561179b576000805461ff00191690555b50505050505050565b60006109a9613868565b60006117b8612844565b6001600160a01b0316141561180f576040805162461bcd60e51b815260206004820152601860248201527714dd1c985d1959de481b5d5cdd081899481919599a5b995960421b604482015290519081900360640190fd5b611817612e86565b6001600160a01b031663b429afeb336040518263ffffffff1660e01b815260040180826001600160a01b03166001600160a01b0316815260200191505060206040518083038186803b15801561186c57600080fd5b505afa158015611880573d6000803e3d6000fd5b505050506040513d602081101561189657600080fd5b50518061192857506118a6612e86565b6001600160a01b031663dee1f0e4336040518263ffffffff1660e01b815260040180826001600160a01b03166001600160a01b0316815260200191505060206040518083038186803b1580156118fb57600080fd5b505afa15801561190f573d6000803e3d6000fd5b505050506040513d602081101561192557600080fd5b50515b6119635760405162461bcd60e51b815260040180806020018281038252602b815260200180613fa4602b913960400191505060405180910390fd5b61196b613893565b611973612844565b6001600160a01b0316634fa5d8546040518163ffffffff1660e01b8152600401600060405180830381600087803b1580156119ad57600080fd5b505af1158015610d42573d6000803e3d6000fd5b60006109a9613950565b60006119d5612e86565b6001600160a01b0316635aa6e6756040518163ffffffff1660e01b815260040160206040518083038186803b158015611a0d57600080fd5b505afa158015611a21573d6000803e3d6000fd5b505050506040513d6020811015611a3757600080fd5b5051905090565b60006109a961397b565b60006109a96139a6565b6001600160a01b0381166000908152603360205260409020545b919050565b6000611a7b610d48565b15611aa357611a9e611a8b610d48565b610f4c611a96610d4e565b610f406119c1565b6109a9565b6109a96119c1565b611ab3612e86565b6001600160a01b031663b429afeb336040518263ffffffff1660e01b815260040180826001600160a01b03166001600160a01b0316815260200191505060206040518083038186803b158015611b0857600080fd5b505afa158015611b1c573d6000803e3d6000fd5b505050506040513d6020811015611b3257600080fd5b505180611bc45750611b42612e86565b6001600160a01b031663dee1f0e4336040518263ffffffff1660e01b815260040180826001600160a01b03166001600160a01b0316815260200191505060206040518083038186803b158015611b9757600080fd5b505afa158015611bab573d6000803e3d6000fd5b505050506040513d6020811015611bc157600080fd5b50515b611bff5760405162461bcd60e51b815260040180806020018281038252602b815260200180613fa4602b913960400191505060405180910390fd5b611c07611c1b565b611c0f613893565b565b60006109a96139d1565b611c23612e86565b6001600160a01b031663b429afeb336040518263ffffffff1660e01b815260040180826001600160a01b03166001600160a01b0316815260200191505060206040518083038186803b158015611c7857600080fd5b505afa158015611c8c573d6000803e3d6000fd5b505050506040513d6020811015611ca257600080fd5b505180611d345750611cb2612e86565b6001600160a01b031663dee1f0e4336040518263ffffffff1660e01b815260040180826001600160a01b03166001600160a01b0316815260200191505060206040518083038186803b158015611d0757600080fd5b505afa158015611d1b573d6000803e3d6000fd5b505050506040513d6020811015611d3157600080fd5b50515b611d6f5760405162461bcd60e51b815260040180806020018281038252602b815260200180613fa4602b913960400191505060405180910390fd5b6000611d79612844565b6001600160a01b03161415611dd0576040805162461bcd60e51b815260206004820152601860248201527714dd1c985d1959de481b5d5cdd081899481919599a5b995960421b604482015290519081900360640190fd5b611dd8612844565b6001600160a01b031663bfd131f16040518163ffffffff1660e01b8152600401600060405180830381600087803b1580156119ad57600080fd5b6000611e1c610d48565b611e2857506000611a6c565b610999611e33610d48565b610f4c611e3f85611a52565b610f40610d4e565b600054610100900460ff1680611e605750611e60612fdf565b80611e6e575060005460ff16155b611ea95760405162461bcd60e51b815260040180806020018281038252602e815260200180614182602e913960400191505060405180910390fd5b600054610100900460ff16158015611ed4576000805460ff1961ff0019909116610100171660011790555b81831115611f29576040805162461bcd60e51b815260206004820152601c60248201527f63616e6e6f7420696e76657374206d6f7265207468616e203130302500000000604482015290519081900360640190fd5b81611f70576040805162461bcd60e51b8152602060048201526012602482015271063616e6e6f742064697669646520627920360741b604482015290519081900360640190fd5b61230d846001600160a01b03166395d89b416040518163ffffffff1660e01b815260040160006040518083038186803b158015611fac57600080fd5b505afa158015611fc0573d6000803e3d6000fd5b505050506040513d6000823e601f3d908101601f191682016040526020811015611fe957600080fd5b8101908080516040519392919084600160201b82111561200857600080fd5b90830190602082018581111561201d57600080fd5b8251600160201b81118282018810171561203657600080fd5b82525081516020918201929091019080838360005b8381101561206357818101518382015260200161204b565b50505050905090810190601f1680156120905780820380516001836020036101000a031916815260200191505b506040525050506040516020018080644641524d5f60d81b81525060050182805190602001908083835b602083106120d95780518252601f1990920191602091820191016120ba565b6001836020036101000a038019825116818451168082178552505050505050905001915050604051602081830303815290604052856001600160a01b03166395d89b416040518163ffffffff1660e01b815260040160006040518083038186803b15801561214657600080fd5b505afa15801561215a573d6000803e3d6000fd5b505050506040513d6000823e601f3d908101601f19168201604052602081101561218357600080fd5b8101908080516040519392919084600160201b8211156121a257600080fd5b9083019060208201858111156121b757600080fd5b8251600160201b8111828201881017156121d057600080fd5b82525081516020918201929091019080838360005b838110156121fd5781810151838201526020016121e5565b50505050905090810190601f16801561222a5780820380516001836020036101000a031916815260200191505b506040525050506040516020018080603360f91b81525060010182805190602001908083835b6020831061226f5780518252601f199092019160209182019101612250565b6001836020036101000a038019825116818451168082178552505050505050905001915050604051602081830303815290604052866001600160a01b031663313ce5676040518163ffffffff1660e01b815260040160206040518083038186803b1580156122dc57600080fd5b505afa1580156122f0573d6000803e3d6000fd5b505050506040513d602081101561230657600080fd5b5051610c6c565b61231685612a80565b6000846001600160a01b031663313ce5676040518163ffffffff1660e01b815260040160206040518083038186803b15801561235157600080fd5b505afa158015612365573d6000803e3d6000fd5b505050506040513d602081101561237b57600080fd5b505160ff16600a0a90506202a30061a8c061239a8787878686866116b2565b50505080156123af576000805461ff00191690555b5050505050565b6123be612e86565b6001600160a01b031663dee1f0e4336040518263ffffffff1660e01b815260040180826001600160a01b03166001600160a01b0316815260200191505060206040518083038186803b15801561241357600080fd5b505afa158015612427573d6000803e3d6000fd5b505050506040513d602081101561243d57600080fd5b5051612481576040805162461bcd60e51b815260206004820152600e60248201526d4e6f7420676f7665726e616e636560901b604482015290519081900360640190fd5b6001600160a01b0381166124dc576040805162461bcd60e51b815260206004820152601e60248201527f6e65772073746f726167652073686f756c646e277420626520656d7074790000604482015290519081900360640190fd5b610c69816139fc565b60698054604080516020601f60026000196101006001881615020190951694909404938401819004810282018101909252828152606093909290918301828280156109765780601f1061094b57610100808354040283529160200191610976565b61254e612e86565b6001600160a01b031663dee1f0e4336040518263ffffffff1660e01b815260040180826001600160a01b03166001600160a01b0316815260200191505060206040518083038186803b1580156125a357600080fd5b505afa1580156125b7573d6000803e3d6000fd5b505050506040513d60208110156125cd57600080fd5b5051612611576040805162461bcd60e51b815260206004820152600e60248201526d4e6f7420676f7665726e616e636560901b604482015290519081900360640190fd5b61261b6000612f8b565b611c0f6000612fb5565b600080612630611c11565b158015906126445750612641611c11565b42115b80156126615750600061265561099f565b6001600160a01b031614155b61266961099f565b915091509091565b600061099561267e612d6b565b84610e78856040518060600160405280602581526020016142d960259139603460006126a8612d6b565b6001600160a01b03908116825260208083019390935260409182016000908120918d1681529252902054919063ffffffff61314316565b6126e7612e86565b6001600160a01b031663dee1f0e4336040518263ffffffff1660e01b815260040180826001600160a01b03166001600160a01b0316815260200191505060206040518083038186803b15801561273c57600080fd5b505afa158015612750573d6000803e3d6000fd5b505050506040513d602081101561276657600080fd5b50516127aa576040805162461bcd60e51b815260206004820152600e60248201526d4e6f7420676f7665726e616e636560901b604482015290519081900360640190fd5b600081116127e95760405162461bcd60e51b8152600401808060200182810382526022815260200180613ff26022913960400191505060405180910390fd5b808211156128285760405162461bcd60e51b815260040180806020018281038252603a815260200180614082603a913960400191505060405180910390fd5b61283182613796565b61165a816137c0565b60006109a9613a20565b60006109a9613a4b565b600061099561285b612d6b565b8484612fe5565b60006109a9613a76565b60008061288561287a612d1f565b610f4c611e3f6117a4565b90506000612891612844565b6001600160a01b03166345d01e4a6040518163ffffffff1660e01b815260040160206040518083038186803b1580156128c957600080fd5b505afa1580156128dd573d6000803e3d6000fd5b505050506040513d60208110156128f357600080fd5b505190508181106129095760009250505061097e565b600061291b838363ffffffff61337116565b9050612925612a21565b81111561293957612934612a21565b61293b565b805b935050505061097e565b333214806129db5750612956612d29565b6001600160a01b03166330e412ad336040518263ffffffff1660e01b815260040180826001600160a01b03166001600160a01b03168152602001915050602060405180830381600087803b1580156129ad57600080fd5b505af11580156129c1573d6000803e3d6000fd5b505050506040513d60208110156129d757600080fd5b5051155b612a165760405162461bcd60e51b81526004018080602001828103825260288152602001806140e26028913960400191505060405180910390fd5b610c6981333361355d565b6000612a2b611a48565b6001600160a01b03166370a08231306040518263ffffffff1660e01b815260040180826001600160a01b03166001600160a01b0316815260200191505060206040518083038186803b158015611a0d57600080fd5b600054610100900460ff1680612a995750612a99612fdf565b80612aa7575060005460ff16155b612ae25760405162461bcd60e51b815260040180806020018281038252602e815260200180614182602e913960400191505060405180910390fd5b600054610100900460ff16158015612b0d576000805460ff1961ff0019909116610100171660011790555b612b1682613aa1565b801561165a576000805461ff00191690555050565b6001600160a01b03918216600090815260346020908152604080832093909416825291909152205490565b612b5e612e86565b6001600160a01b031663b429afeb336040518263ffffffff1660e01b815260040180826001600160a01b03166001600160a01b0316815260200191505060206040518083038186803b158015612bb357600080fd5b505afa158015612bc7573d6000803e3d6000fd5b505050506040513d6020811015612bdd57600080fd5b505180612c6f5750612bed612e86565b6001600160a01b031663dee1f0e4336040518263ffffffff1660e01b815260040180826001600160a01b03166001600160a01b0316815260200191505060206040518083038186803b158015612c4257600080fd5b505afa158015612c56573d6000803e3d6000fd5b505050506040513d6020811015612c6c57600080fd5b50515b612caa5760405162461bcd60e51b815260040180806020018281038252602b815260200180613fa4602b913960400191505060405180910390fd5b612cb46000612f0c565b611c0f6000612f36565b600080612cc9612844565b6001600160a01b031614806109995750612ce1611a3e565b6001600160a01b0316826001600160a01b0316148015612d075750612d04612862565b42115b801561099957506000612d18612862565b1192915050565b60006109a9613b37565b6000612d33612e86565b6001600160a01b031663f77c47916040518163ffffffff1660e01b815260040160206040518083038186803b158015611a0d57600080fd5b3390565b6001600160a01b038316612db45760405162461bcd60e51b81526004018080602001828103825260248152602001806142556024913960400191505060405180910390fd5b6001600160a01b038216612df95760405162461bcd60e51b81526004018080602001828103825260228152602001806140366022913960400191505060405180910390fd5b6001600160a01b03808416600081815260346020908152604080832094871680845294825291829020859055815185815291517f8c5be1e5ebec7d5bd14f71427d1e84f3dd0314c0f7b2291e5b200ac8c7c3b9259281900390910190a3505050565b60006109a97fb1acf527cd7cd1668b30e5a9a1c0d845714604de29ce560150922c9d8c0937df613b5e565b7fa7ec62784904ff31cbcc32d09932a58e7f1e4476e1d041995b37c917990b16dc5490565b600082820183811015612f05576040805162461bcd60e51b815260206004820152601b60248201527f536166654d6174683a206164646974696f6e206f766572666c6f770000000000604482015290519081900360640190fd5b9392505050565b610c697f56e7c0e75875c6497f0de657009613a32558904b5c10771a825cc330feff7e7282613b62565b610c697fb441b53a4e42c2ca9182bc7ede99bedba7a5d9360d9dfbd31fa8ee2dc859061082613b62565b60006109a97f6d02338b2e4c913c0f7d380e2798409838a48a2c4d57d52742a808c82d713d8b613b5e565b610c697fb1acf527cd7cd1668b30e5a9a1c0d845714604de29ce560150922c9d8c0937df82613b62565b610c697f3bc747f4b148b37be485de3223c90b4468252967d2ea7f9fcbd8b6e653f434c982613b62565b303b1590565b6001600160a01b03831661302a5760405162461bcd60e51b81526004018080602001828103825260258152602001806142306025913960400191505060405180910390fd5b6001600160a01b03821661306f5760405162461bcd60e51b8152600401808060200182810382526023815260200180613fcf6023913960400191505060405180910390fd5b6130b2816040518060600160405280602681526020016140bc602691396001600160a01b038616600090815260336020526040902054919063ffffffff61314316565b6001600160a01b0380851660009081526033602052604080822093909355908416815220546130e7908263ffffffff612eab16565b6001600160a01b0380841660008181526033602090815260409182902094909455805185815290519193928716927fddf252ad1be2c89b69c2b068fc378daa952ba7f163c4a11628f55a4df523b3ef92918290030190a3505050565b600081848411156131d25760405162461bcd60e51b81526004018080602001828103825283818151815260200191508051906020019080838360005b8381101561319757818101518382015260200161317f565b50505050905090810190601f1680156131c45780820380516001836020036101000a031916815260200191505b509250505060405180910390fd5b505050900390565b6001600160a01b03821661321f5760405162461bcd60e51b815260040180806020018281038252602181526020018061420f6021913960400191505060405180910390fd5b61326281604051806060016040528060228152602001614014602291396001600160a01b038516600090815260336020526040902054919063ffffffff61314316565b6001600160a01b03831660009081526033602052604090205560355461328e908263ffffffff61337116565b6035556040805182815290516000916001600160a01b038516917fddf252ad1be2c89b69c2b068fc378daa952ba7f163c4a11628f55a4df523b3ef9181900360200190a35050565b6000826132e557506000610999565b828202828482816132f257fe5b0414612f055760405162461bcd60e51b81526004018080602001828103825260218152602001806141396021913960400191505060405180910390fd5b6000612f0583836040518060400160405280601a81526020017f536166654d6174683a206469766973696f6e206279207a65726f000000000000815250613b66565b6000612f0583836040518060400160405280601e81526020017f536166654d6174683a207375627472616374696f6e206f766572666c6f770000815250613143565b60008183106133c25781612f05565b5090919050565b604080516001600160a01b038416602482015260448082018490528251808303909101815260649091019091526020810180516001600160e01b031663a9059cbb60e01b17905261341b908490613bcb565b505050565b8015806134a6575060408051636eb1769f60e11b81523060048201526001600160a01b03848116602483015291519185169163dd62ed3e91604480820192602092909190829003018186803b15801561347857600080fd5b505afa15801561348c573d6000803e3d6000fd5b505050506040513d60208110156134a257600080fd5b5051155b6134e15760405162461bcd60e51b81526004018080602001828103825260368152602001806142a36036913960400191505060405180910390fd5b604080516001600160a01b038416602482015260448082018490528251808303909101815260649091019091526020810180516001600160e01b031663095ea7b360e01b17905261341b908490613bcb565b610c697ff1a169aa0f736c2813818fdfbdc5755c31e0839c8f49831a16543496b28574ea82613b62565b600083116135a5576040805162461bcd60e51b815260206004820152601060248201526f043616e6e6f74206465706f73697420360841b604482015290519081900360640190fd5b6001600160a01b0381166135f9576040805162461bcd60e51b81526020600482015260166024820152751a1bdb19195c881b5d5cdd081899481919599a5b995960521b604482015290519081900360640190fd5b6000613603612844565b6001600160a01b0316146136bd57613619612844565b6001600160a01b031663c2a2a07b6040518163ffffffff1660e01b815260040160206040518083038186803b15801561365157600080fd5b505afa158015613665573d6000803e3d6000fd5b505050506040513d602081101561367b57600080fd5b50516136bd576040805162461bcd60e51b815260206004820152600c60248201526b2a37b79036bab1b41030b93160a11b604482015290519081900360640190fd5b60006136c7610d48565b156136f4576136ef6136d7610d4e565b610f4c6136e2610d48565b879063ffffffff6132d616565b6136f6565b835b90506137028282613d83565b613727833086613710611a48565b6001600160a01b031692919063ffffffff613e7516565b6040805185815290516001600160a01b038416917fe1fffcc4923d04b559f4d29a8bfc6cda04eb5b0d3c460751c2402c5c5cc9109c919081900360200190a250505050565b610c697f1994607607e11d53306ef62e45e3bd85762c58d9bf38b5578bc4a258a26a737182613b62565b610c697f39122c9adfb653455d0c05043bd52fcfbc2be864e832efd3abc72ce5a3d7ed5a82613b62565b610c697f469a3bad2fab7b936c45eecd1f5da52af89cead3e2ed7f732b6f3fc92ed3230882613b62565b610c697fa66bc57d4b4eed7c7687876ca77997588987307cb13ecc23f5e52725192e5fff82613b62565b610c697f82ddc3be3f0c1a6870327f78f4979a0b37b21b16736ef5be6a7a7a35e530bcf082613b62565b610c697f6d02338b2e4c913c0f7d380e2798409838a48a2c4d57d52742a808c82d713d8b82613b62565b60006109a97f39122c9adfb653455d0c05043bd52fcfbc2be864e832efd3abc72ce5a3d7ed5a613b5e565b600061389d612844565b6001600160a01b031614156138f4576040805162461bcd60e51b815260206004820152601860248201527714dd1c985d1959de481b5d5cdd081899481919599a5b995960421b604482015290519081900360640190fd5b60006138fe61286c565b90508015610c695761391a613911612844565b82611083611a48565b6040805182815290517fa09b7ae452b7bffb9e204c3a016e80caeecf46f554d112644f36fa114dac6ffa9181900360200190a150565b60006109a97fa66bc57d4b4eed7c7687876ca77997588987307cb13ecc23f5e52725192e5fff613b5e565b60006109a97fb441b53a4e42c2ca9182bc7ede99bedba7a5d9360d9dfbd31fa8ee2dc8590610613b5e565b60006109a97f1994607607e11d53306ef62e45e3bd85762c58d9bf38b5578bc4a258a26a7371613b5e565b60006109a97f3bc747f4b148b37be485de3223c90b4468252967d2ea7f9fcbd8b6e653f434c9613b5e565b7fa7ec62784904ff31cbcc32d09932a58e7f1e4476e1d041995b37c917990b16dc55565b60006109a97f82ddc3be3f0c1a6870327f78f4979a0b37b21b16736ef5be6a7a7a35e530bcf0613b5e565b60006109a97ff1a169aa0f736c2813818fdfbdc5755c31e0839c8f49831a16543496b28574ea613b5e565b60006109a97f56e7c0e75875c6497f0de657009613a32558904b5c10771a825cc330feff7e72613b5e565b600054610100900460ff1680613aba5750613aba612fdf565b80613ac8575060005460ff16155b613b035760405162461bcd60e51b815260040180806020018281038252602e815260200180614182602e913960400191505060405180910390fd5b600054610100900460ff16158015613b2e576000805460ff1961ff0019909116610100171660011790555b612b16826139fc565b60006109a97f469a3bad2fab7b936c45eecd1f5da52af89cead3e2ed7f732b6f3fc92ed323085b5490565b9055565b60008183613bb55760405162461bcd60e51b815260206004820181815283516024840152835190928392604490910191908501908083836000831561319757818101518382015260200161317f565b506000838581613bc157fe5b0495945050505050565b613bdd826001600160a01b0316613ecf565b613c2e576040805162461bcd60e51b815260206004820152601f60248201527f5361666545524332303a2063616c6c20746f206e6f6e2d636f6e747261637400604482015290519081900360640190fd5b60006060836001600160a01b0316836040518082805190602001908083835b60208310613c6c5780518252601f199092019160209182019101613c4d565b6001836020036101000a0380198251168184511680821785525050505050509050019150506000604051808303816000865af19150503d8060008114613cce576040519150601f19603f3d011682016040523d82523d6000602084013e613cd3565b606091505b509150915081613d2a576040805162461bcd60e51b815260206004820181905260248201527f5361666545524332303a206c6f772d6c6576656c2063616c6c206661696c6564604482015290519081900360640190fd5b805115610d4257808060200190516020811015613d4657600080fd5b5051610d425760405162461bcd60e51b815260040180806020018281038252602a815260200180614279602a913960400191505060405180910390fd5b6001600160a01b038216613dde576040805162461bcd60e51b815260206004820152601f60248201527f45524332303a206d696e7420746f20746865207a65726f206164647265737300604482015290519081900360640190fd5b603554613df1908263ffffffff612eab16565b6035556001600160a01b038216600090815260336020526040902054613e1d908263ffffffff612eab16565b6001600160a01b03831660008181526033602090815260408083209490945583518581529351929391927fddf252ad1be2c89b69c2b068fc378daa952ba7f163c4a11628f55a4df523b3ef9281900390910190a35050565b604080516001600160a01b0385811660248301528416604482015260648082018490528251808303909101815260849091019091526020810180516001600160e01b03166323b872dd60e01b179052610d42908590613bcb565b6000813f7fc5d2460186f7233c927e7db2dcc703c0e500b653ca82273b7bfad8045d85a470818114801590613f0357508115155b949350505050565b828054600181600116156101000203166002900490600052602060002090601f016020900481019282601f10613f4c57805160ff1916838001178555613f79565b82800160010185558215613f79579182015b82811115613f79578251825591602001919060010190613f5e565b50613f85929150613f89565b5090565b61097e91905b80821115613f855760008155600101613f8f56fe5468652063616c6c6572206d75737420626520636f6e74726f6c6c6572206f7220676f7665726e616e636545524332303a207472616e7366657220746f20746865207a65726f206164647265737364656e6f6d696e61746f72206d7573742062652067726561746572207468616e203045524332303a206275726e20616d6f756e7420657863656564732062616c616e636545524332303a20617070726f766520746f20746865207a65726f206164647265737374686520737472617465677920646f6573206e6f742062656c6f6e6720746f2074686973207661756c7464656e6f6d696e61746f72206d7573742062652067726561746572207468616e206f7220657175616c20746f20746865206e756d657261746f7245524332303a207472616e7366657220616d6f756e7420657863656564732062616c616e63655468697320736d61727420636f6e747261637420686173206265656e2067726579206c69737465645661756c7420756e6465726c79696e67206d757374206d6174636820537472617465677920756e6465726c79696e67536166654d6174683a206d756c7469706c69636174696f6e206f766572666c6f7745524332303a207472616e7366657220616d6f756e74206578636565647320616c6c6f77616e6365436f6e747261637420696e7374616e63652068617320616c7265616479206265656e20696e697469616c697a65645468652073747261746567792065786973747320616e64207377697463682074696d656c6f636b20646964206e6f7420656c61707365207965746e756d6265724f66536861726573206d7573742062652067726561746572207468616e203045524332303a206275726e2066726f6d20746865207a65726f206164647265737345524332303a207472616e736665722066726f6d20746865207a65726f206164647265737345524332303a20617070726f76652066726f6d20746865207a65726f20616464726573735361666545524332303a204552433230206f7065726174696f6e20646964206e6f7420737563636565645361666545524332303a20617070726f76652066726f6d206e6f6e2d7a65726f20746f206e6f6e2d7a65726f20616c6c6f77616e636545524332303a2064656372656173656420616c6c6f77616e63652062656c6f77207a65726fa265627a7a723158208eb46803b95acdc81ed50e8dcd8aa62657ab072e396f86440da7d8dcd0d3454964736f6c63430005100032656970313936372e7661756c7453746f726167652e7661756c744672616374696f6e546f496e766573744e756d657261746f72656970313936372e7661756c7453746f726167652e6e657874496d706c656d656e746174696f6e54696d657374616d70656970313936372e7661756c7453746f726167652e7661756c744672616374696f6e546f496e7665737444656e6f6d696e61746f72656970313936372e7661756c7453746f726167652e737472617465677955706461746554696d65656970313936372e7661756c7453746f726167652e737472617465677954696d654c6f636b656970313936372e7661756c7453746f726167652e6e657874496d706c656d656e746174696f6e44656c6179656970313936372e7661756c7453746f726167652e756e6465726c79696e67556e6974656970313936372e7661756c7453746f726167652e6e657874496d706c656d656e746174696f6e656970313936372e7661756c7453746f726167652e6675747572655374726174656779",
  "source": "pragma solidity 0.5.16;\n\nimport \"@openzeppelin/contracts-ethereum-package/contracts/math/Math.sol\";\nimport \"@openzeppelin/contracts-ethereum-package/contracts/math/SafeMath.sol\";\nimport \"@openzeppelin/contracts-ethereum-package/contracts/token/ERC20/SafeERC20.sol\";\nimport \"@openzeppelin/contracts-ethereum-package/contracts/token/ERC20/IERC20.sol\";\nimport \"@openzeppelin/contracts-ethereum-package/contracts/token/ERC20/ERC20.sol\";\nimport \"@openzeppelin/contracts-ethereum-package/contracts/token/ERC20/ERC20Detailed.sol\";\nimport \"./hardworkInterface/IStrategy.sol\";\nimport \"./hardworkInterface/IController.sol\";\nimport \"./hardworkInterface/IVault.sol\";\nimport \"./hardworkInterface/IUpgradeSource.sol\";\nimport \"./ControllableInit.sol\";\nimport \"./VaultStorage.sol\";\n\ncontract Vault is ERC20, ERC20Detailed, IVault, IUpgradeSource, ControllableInit, VaultStorage {\n  using SafeERC20 for IERC20;\n  using Address for address;\n  using SafeMath for uint256;\n\n  event Withdraw(address indexed beneficiary, uint256 amount);\n  event Deposit(address indexed beneficiary, uint256 amount);\n  event Invest(uint256 amount);\n  event StrategyAnnounced(address newStrategy, uint256 time);\n  event StrategyChanged(address newStrategy, address oldStrategy);\n\n  constructor() public {\n  }\n\n  // the function is name differently to not cause inheritance clash in truffle and allows tests\n  function initializeVault(address _storage,\n    address _underlying,\n    uint256 _toInvestNumerator,\n    uint256 _toInvestDenominator\n  ) public initializer {\n    require(_toInvestNumerator <= _toInvestDenominator, \"cannot invest more than 100%\");\n    require(_toInvestDenominator != 0, \"cannot divide by 0\");\n\n    ERC20Detailed.initialize(\n      string(abi.encodePacked(\"FARM_\", ERC20Detailed(_underlying).symbol())),\n      string(abi.encodePacked(\"f\", ERC20Detailed(_underlying).symbol())),\n      ERC20Detailed(_underlying).decimals()\n    );\n    ControllableInit.initialize(\n      _storage\n    );\n\n    uint256 underlyingUnit = 10 ** uint256(ERC20Detailed(address(_underlying)).decimals());\n    uint256 implementationDelay = 48 hours;\n    uint256 strategyChangeDelay = 12 hours;\n    VaultStorage.initialize(\n      _underlying,\n      _toInvestNumerator,\n      _toInvestDenominator,\n      underlyingUnit,\n      implementationDelay,\n      strategyChangeDelay\n    );\n  }\n\n  function strategy() public view returns(address) {\n    return _strategy();\n  }\n\n  function underlying() public view returns(address) {\n    return _underlying();\n  }\n\n  function underlyingUnit() public view returns(uint256) {\n    return _underlyingUnit();\n  }\n\n  function vaultFractionToInvestNumerator() public view returns(uint256) {\n    return _vaultFractionToInvestNumerator();\n  }\n\n  function vaultFractionToInvestDenominator() public view returns(uint256) {\n    return _vaultFractionToInvestDenominator();\n  }\n\n  function nextImplementation() public view returns(address) {\n    return _nextImplementation();\n  }\n\n  function nextImplementationTimestamp() public view returns(uint256) {\n    return _nextImplementationTimestamp();\n  }\n\n  function nextImplementationDelay() public view returns(uint256) {\n    return _nextImplementationDelay();\n  }\n\n  modifier whenStrategyDefined() {\n    require(address(strategy()) != address(0), \"Strategy must be defined\");\n    _;\n  }\n\n  // Only smart contracts will be affected by this modifier\n  modifier defense() {\n    require(\n      (msg.sender == tx.origin) ||                // If it is a normal user and not smart contract,\n                                                  // then the requirement will pass\n      !IController(controller()).greyList(msg.sender), // If it is a smart contract, then\n      \"This smart contract has been grey listed\"  // make sure that it is not on our greyList.\n    );\n    _;\n  }\n\n  /**\n  * Chooses the best strategy and re-invests. If the strategy did not change, it just calls\n  * doHardWork on the current strategy. Call this through controller to claim hard rewards.\n  */\n  function doHardWork() whenStrategyDefined onlyControllerOrGovernance external {\n    // ensure that new funds are invested too\n    invest();\n    IStrategy(strategy()).doHardWork();\n  }\n\n  /*\n  * Returns the cash balance across all users in this contract.\n  */\n  function underlyingBalanceInVault() view public returns (uint256) {\n    return IERC20(underlying()).balanceOf(address(this));\n  }\n\n  /* Returns the current underlying (e.g., DAI's) balance together with\n   * the invested amount (if DAI is invested elsewhere by the strategy).\n  */\n  function underlyingBalanceWithInvestment() view public returns (uint256) {\n    if (address(strategy()) == address(0)) {\n      // initial state, when not set\n      return underlyingBalanceInVault();\n    }\n    return underlyingBalanceInVault().add(IStrategy(strategy()).investedUnderlyingBalance());\n  }\n\n  function getPricePerFullShare() public view returns (uint256) {\n    return totalSupply() == 0\n        ? underlyingUnit()\n        : underlyingUnit().mul(underlyingBalanceWithInvestment()).div(totalSupply());\n  }\n\n  /* get the user's share (in underlying)\n  */\n  function underlyingBalanceWithInvestmentForHolder(address holder) view external returns (uint256) {\n    if (totalSupply() == 0) {\n      return 0;\n    }\n    return underlyingBalanceWithInvestment()\n        .mul(balanceOf(holder))\n        .div(totalSupply());\n  }\n\n  function futureStrategy() public view returns (address) {\n    return _futureStrategy();\n  }\n\n  function strategyUpdateTime() public view returns (uint256) {\n    return _strategyUpdateTime();\n  }\n\n  function strategyTimeLock() public view returns (uint256) {\n    return _strategyTimeLock();\n  }\n\n  function canUpdateStrategy(address _strategy) public view returns(bool) {\n    return strategy() == address(0) // no strategy was set yet\n      || (_strategy == futureStrategy()\n          && block.timestamp > strategyUpdateTime()\n          && strategyUpdateTime() > 0); // or the timelock has passed\n  }\n\n  /**\n  * Indicates that the strategy update will happen in the future\n  */\n  function announceStrategyUpdate(address _strategy) public onlyControllerOrGovernance {\n    // records a new timestamp\n    uint256 when = block.timestamp.add(strategyTimeLock());\n    _setStrategyUpdateTime(when);\n    _setFutureStrategy(_strategy);\n    emit StrategyAnnounced(_strategy, when);\n  }\n\n  /**\n  * Finalizes (or cancels) the strategy update by resetting the data\n  */\n  function finalizeStrategyUpdate() public onlyControllerOrGovernance {\n    _setStrategyUpdateTime(0);\n    _setFutureStrategy(address(0));\n  }\n\n  function setStrategy(address _strategy) public onlyControllerOrGovernance {\n    require(canUpdateStrategy(_strategy),\n      \"The strategy exists and switch timelock did not elapse yet\");\n    require(_strategy != address(0), \"new _strategy cannot be empty\");\n    require(IStrategy(_strategy).underlying() == address(underlying()), \"Vault underlying must match Strategy underlying\");\n    require(IStrategy(_strategy).vault() == address(this), \"the strategy does not belong to this vault\");\n\n    emit StrategyChanged(_strategy, strategy());\n    if (address(_strategy) != address(strategy())) {\n      if (address(strategy()) != address(0)) { // if the original strategy (no underscore) is defined\n        IERC20(underlying()).safeApprove(address(strategy()), 0);\n        IStrategy(strategy()).withdrawAllToVault();\n      }\n      _setStrategy(_strategy);\n      IERC20(underlying()).safeApprove(address(strategy()), 0);\n      IERC20(underlying()).safeApprove(address(strategy()), uint256(~0));\n    }\n    finalizeStrategyUpdate();\n  }\n\n  function setVaultFractionToInvest(uint256 numerator, uint256 denominator) external onlyGovernance {\n    require(denominator > 0, \"denominator must be greater than 0\");\n    require(numerator <= denominator, \"denominator must be greater than or equal to the numerator\");\n    _setVaultFractionToInvestNumerator(numerator);\n    _setVaultFractionToInvestDenominator(denominator);\n  }\n\n  function rebalance() external onlyControllerOrGovernance {\n    withdrawAll();\n    invest();\n  }\n\n  function availableToInvestOut() public view returns (uint256) {\n    uint256 wantInvestInTotal = underlyingBalanceWithInvestment()\n        .mul(vaultFractionToInvestNumerator())\n        .div(vaultFractionToInvestDenominator());\n    uint256 alreadyInvested = IStrategy(strategy()).investedUnderlyingBalance();\n    if (alreadyInvested >= wantInvestInTotal) {\n      return 0;\n    } else {\n      uint256 remainingToInvest = wantInvestInTotal.sub(alreadyInvested);\n      return remainingToInvest <= underlyingBalanceInVault()\n        // TODO: we think that the \"else\" branch of the ternary operation is not\n        // going to get hit\n        ? remainingToInvest : underlyingBalanceInVault();\n    }\n  }\n\n  function invest() internal whenStrategyDefined {\n    uint256 availableAmount = availableToInvestOut();\n    if (availableAmount > 0) {\n      IERC20(underlying()).safeTransfer(address(strategy()), availableAmount);\n      emit Invest(availableAmount);\n    }\n  }\n\n  /*\n  * Allows for depositing the underlying asset in exchange for shares.\n  * Approval is assumed.\n  */\n  function deposit(uint256 amount) external defense {\n    _deposit(amount, msg.sender, msg.sender);\n  }\n\n  /*\n  * Allows for depositing the underlying asset in exchange for shares\n  * assigned to the holder.\n  * This facilitates depositing for someone else (using DepositHelper)\n  */\n  function depositFor(uint256 amount, address holder) public defense {\n    _deposit(amount, msg.sender, holder);\n  }\n\n  function withdrawAll() public onlyControllerOrGovernance whenStrategyDefined {\n    IStrategy(strategy()).withdrawAllToVault();\n  }\n\n  function withdraw(uint256 numberOfShares) external {\n    require(totalSupply() > 0, \"Vault has no shares\");\n    require(numberOfShares > 0, \"numberOfShares must be greater than 0\");\n    uint256 totalSupply = totalSupply();\n    _burn(msg.sender, numberOfShares);\n\n    uint256 underlyingAmountToWithdraw = underlyingBalanceWithInvestment()\n        .mul(numberOfShares)\n        .div(totalSupply);\n    if (underlyingAmountToWithdraw > underlyingBalanceInVault()) {\n      // withdraw everything from the strategy to accurately check the share value\n      if (numberOfShares == totalSupply) {\n        IStrategy(strategy()).withdrawAllToVault();\n      } else {\n        uint256 missing = underlyingAmountToWithdraw.sub(underlyingBalanceInVault());\n        IStrategy(strategy()).withdrawToVault(missing);\n      }\n      // recalculate to improve accuracy\n      underlyingAmountToWithdraw = Math.min(underlyingBalanceWithInvestment()\n          .mul(numberOfShares)\n          .div(totalSupply), underlyingBalanceInVault());\n    }\n\n    IERC20(underlying()).safeTransfer(msg.sender, underlyingAmountToWithdraw);\n\n    // update the withdrawal amount for the holder\n    emit Withdraw(msg.sender, underlyingAmountToWithdraw);\n  }\n\n  function _deposit(uint256 amount, address sender, address beneficiary) internal {\n    require(amount > 0, \"Cannot deposit 0\");\n    require(beneficiary != address(0), \"holder must be defined\");\n\n    if (address(strategy()) != address(0)) {\n      require(IStrategy(strategy()).depositArbCheck(), \"Too much arb\");\n    }\n\n    uint256 toMint = totalSupply() == 0\n        ? amount\n        : amount.mul(totalSupply()).div(underlyingBalanceWithInvestment());\n    _mint(beneficiary, toMint);\n\n    IERC20(underlying()).safeTransferFrom(sender, address(this), amount);\n\n    // update the contribution amount for the beneficiary\n    emit Deposit(beneficiary, amount);\n  }\n\n  /**\n  * Schedules an upgrade for this vault's proxy.\n  */\n  function scheduleUpgrade(address impl) public onlyGovernance {\n    _setNextImplementation(impl);\n    _setNextImplementationTimestamp(block.timestamp.add(nextImplementationDelay()));\n  }\n\n  function shouldUpgrade() external view returns (bool, address) {\n    return (\n      nextImplementationTimestamp() != 0\n        && block.timestamp > nextImplementationTimestamp()\n        && nextImplementation() != address(0),\n      nextImplementation()\n    );\n  }\n\n  function finalizeUpgrade() external onlyGovernance {\n    _setNextImplementation(address(0));\n    _setNextImplementationTimestamp(0);\n  }\n}\n",
  "sourcePath": "/home/jawaher/tmp/harvest/contracts/Vault.sol",
  "compiler": {
    "name": "solc",
    "version": "0.5.16+commit.9c3226ce.Emscripten.clang"
  },
  "schemaVersion": "3.2.5",
  "updatedAt": "2020-11-18T14:21:44.322Z",
  "networkType": "ethereum",
  "devdoc": {
    "methods": {
      "allowance(address,address)": {
        "details": "See {IERC20-allowance}."
      },
      "approve(address,uint256)": {
        "details": "See {IERC20-approve}.     * Requirements:     * - `spender` cannot be the zero address."
      },
      "balanceOf(address)": {
        "details": "See {IERC20-balanceOf}."
      },
      "decimals()": {
        "details": "Returns the number of decimals used to get its user representation. For example, if `decimals` equals `2`, a balance of `505` tokens should be displayed to a user as `5,05` (`505 / 10 ** 2`).     * Tokens usually opt for a value of 18, imitating the relationship between Ether and Wei.     * NOTE: This information is only used for _display_ purposes: it in no way affects any of the arithmetic of the contract, including {IERC20-balanceOf} and {IERC20-transfer}."
      },
      "decreaseAllowance(address,uint256)": {
        "details": "Atomically decreases the allowance granted to `spender` by the caller.     * This is an alternative to {approve} that can be used as a mitigation for problems described in {IERC20-approve}.     * Emits an {Approval} event indicating the updated allowance.     * Requirements:     * - `spender` cannot be the zero address. - `spender` must have allowance for the caller of at least `subtractedValue`."
      },
      "increaseAllowance(address,uint256)": {
        "details": "Atomically increases the allowance granted to `spender` by the caller.     * This is an alternative to {approve} that can be used as a mitigation for problems described in {IERC20-approve}.     * Emits an {Approval} event indicating the updated allowance.     * Requirements:     * - `spender` cannot be the zero address."
      },
      "initialize(string,string,uint8)": {
        "details": "Sets the values for `name`, `symbol`, and `decimals`. All three of these values are immutable: they can only be set once during construction."
      },
      "name()": {
        "details": "Returns the name of the token."
      },
      "symbol()": {
        "details": "Returns the symbol of the token, usually a shorter version of the name."
      },
      "totalSupply()": {
        "details": "See {IERC20-totalSupply}."
      },
      "transfer(address,uint256)": {
        "details": "See {IERC20-transfer}.     * Requirements:     * - `recipient` cannot be the zero address. - the caller must have a balance of at least `amount`."
      },
      "transferFrom(address,address,uint256)": {
        "details": "See {IERC20-transferFrom}.     * Emits an {Approval} event indicating the updated allowance. This is not required by the EIP. See the note at the beginning of {ERC20};     * Requirements: - `sender` and `recipient` cannot be the zero address. - `sender` must have a balance of at least `amount`. - the caller must have allowance for `sender`'s tokens of at least `amount`."
      }
    }
  },
  "userdoc": {
    "methods": {
      "announceStrategyUpdate(address)": {
        "notice": "Indicates that the strategy update will happen in the future"
      },
      "doHardWork()": {
        "notice": "Chooses the best strategy and re-invests. If the strategy did not change, it just calls doHardWork on the current strategy. Call this through controller to claim hard rewards."
      },
      "finalizeStrategyUpdate()": {
        "notice": "Finalizes (or cancels) the strategy update by resetting the data"
      },
      "scheduleUpgrade(address)": {
        "notice": "Schedules an upgrade for this vault's proxy."
      }
    }
  }
}