{
  "contractName": "VaultUpgradableSooner",
  "abi": [
    {
      "inputs": [],
      "payable": false,
      "stateMutability": "nonpayable",
      "type": "constructor"
    },
    {
      "anonymous": false,
      "inputs": [
        {
          "indexed": true,
          "internalType": "address",
          "name": "owner",
          "type": "address"
        },
        {
          "indexed": true,
          "internalType": "address",
          "name": "spender",
          "type": "address"
        },
        {
          "indexed": false,
          "internalType": "uint256",
          "name": "value",
          "type": "uint256"
        }
      ],
      "name": "Approval",
      "type": "event"
    },
    {
      "anonymous": false,
      "inputs": [
        {
          "indexed": true,
          "internalType": "address",
          "name": "beneficiary",
          "type": "address"
        },
        {
          "indexed": false,
          "internalType": "uint256",
          "name": "amount",
          "type": "uint256"
        }
      ],
      "name": "Deposit",
      "type": "event"
    },
    {
      "anonymous": false,
      "inputs": [
        {
          "indexed": false,
          "internalType": "uint256",
          "name": "amount",
          "type": "uint256"
        }
      ],
      "name": "Invest",
      "type": "event"
    },
    {
      "anonymous": false,
      "inputs": [
        {
          "indexed": false,
          "internalType": "address",
          "name": "newStrategy",
          "type": "address"
        },
        {
          "indexed": false,
          "internalType": "uint256",
          "name": "time",
          "type": "uint256"
        }
      ],
      "name": "StrategyAnnounced",
      "type": "event"
    },
    {
      "anonymous": false,
      "inputs": [
        {
          "indexed": false,
          "internalType": "address",
          "name": "newStrategy",
          "type": "address"
        },
        {
          "indexed": false,
          "internalType": "address",
          "name": "oldStrategy",
          "type": "address"
        }
      ],
      "name": "StrategyChanged",
      "type": "event"
    },
    {
      "anonymous": false,
      "inputs": [
        {
          "indexed": true,
          "internalType": "address",
          "name": "from",
          "type": "address"
        },
        {
          "indexed": true,
          "internalType": "address",
          "name": "to",
          "type": "address"
        },
        {
          "indexed": false,
          "internalType": "uint256",
          "name": "value",
          "type": "uint256"
        }
      ],
      "name": "Transfer",
      "type": "event"
    },
    {
      "anonymous": false,
      "inputs": [
        {
          "indexed": true,
          "internalType": "address",
          "name": "beneficiary",
          "type": "address"
        },
        {
          "indexed": false,
          "internalType": "uint256",
          "name": "amount",
          "type": "uint256"
        }
      ],
      "name": "Withdraw",
      "type": "event"
    },
    {
      "constant": true,
      "inputs": [
        {
          "internalType": "address",
          "name": "owner",
          "type": "address"
        },
        {
          "internalType": "address",
          "name": "spender",
          "type": "address"
        }
      ],
      "name": "allowance",
      "outputs": [
        {
          "internalType": "uint256",
          "name": "",
          "type": "uint256"
        }
      ],
      "payable": false,
      "stateMutability": "view",
      "type": "function"
    },
    {
      "constant": false,
      "inputs": [
        {
          "internalType": "address",
          "name": "_strategy",
          "type": "address"
        }
      ],
      "name": "announceStrategyUpdate",
      "outputs": [],
      "payable": false,
      "stateMutability": "nonpayable",
      "type": "function"
    },
    {
      "constant": false,
      "inputs": [
        {
          "internalType": "address",
          "name": "spender",
          "type": "address"
        },
        {
          "internalType": "uint256",
          "name": "amount",
          "type": "uint256"
        }
      ],
      "name": "approve",
      "outputs": [
        {
          "internalType": "bool",
          "name": "",
          "type": "bool"
        }
      ],
      "payable": false,
      "stateMutability": "nonpayable",
      "type": "function"
    },
    {
      "constant": true,
      "inputs": [],
      "name": "availableToInvestOut",
      "outputs": [
        {
          "internalType": "uint256",
          "name": "",
          "type": "uint256"
        }
      ],
      "payable": false,
      "stateMutability": "view",
      "type": "function"
    },
    {
      "constant": true,
      "inputs": [
        {
          "internalType": "address",
          "name": "account",
          "type": "address"
        }
      ],
      "name": "balanceOf",
      "outputs": [
        {
          "internalType": "uint256",
          "name": "",
          "type": "uint256"
        }
      ],
      "payable": false,
      "stateMutability": "view",
      "type": "function"
    },
    {
      "constant": true,
      "inputs": [
        {
          "internalType": "address",
          "name": "_strategy",
          "type": "address"
        }
      ],
      "name": "canUpdateStrategy",
      "outputs": [
        {
          "internalType": "bool",
          "name": "",
          "type": "bool"
        }
      ],
      "payable": false,
      "stateMutability": "view",
      "type": "function"
    },
    {
      "constant": true,
      "inputs": [],
      "name": "controller",
      "outputs": [
        {
          "internalType": "address",
          "name": "",
          "type": "address"
        }
      ],
      "payable": false,
      "stateMutability": "view",
      "type": "function"
    },
    {
      "constant": true,
      "inputs": [],
      "name": "decimals",
      "outputs": [
        {
          "internalType": "uint8",
          "name": "",
          "type": "uint8"
        }
      ],
      "payable": false,
      "stateMutability": "view",
      "type": "function"
    },
    {
      "constant": false,
      "inputs": [
        {
          "internalType": "address",
          "name": "spender",
          "type": "address"
        },
        {
          "internalType": "uint256",
          "name": "subtractedValue",
          "type": "uint256"
        }
      ],
      "name": "decreaseAllowance",
      "outputs": [
        {
          "internalType": "bool",
          "name": "",
          "type": "bool"
        }
      ],
      "payable": false,
      "stateMutability": "nonpayable",
      "type": "function"
    },
    {
      "constant": false,
      "inputs": [
        {
          "internalType": "uint256",
          "name": "amount",
          "type": "uint256"
        }
      ],
      "name": "deposit",
      "outputs": [],
      "payable": false,
      "stateMutability": "nonpayable",
      "type": "function"
    },
    {
      "constant": false,
      "inputs": [
        {
          "internalType": "uint256",
          "name": "amount",
          "type": "uint256"
        },
        {
          "internalType": "address",
          "name": "holder",
          "type": "address"
        }
      ],
      "name": "depositFor",
      "outputs": [],
      "payable": false,
      "stateMutability": "nonpayable",
      "type": "function"
    },
    {
      "constant": false,
      "inputs": [],
      "name": "doHardWork",
      "outputs": [],
      "payable": false,
      "stateMutability": "nonpayable",
      "type": "function"
    },
    {
      "constant": false,
      "inputs": [],
      "name": "finalizeStrategyUpdate",
      "outputs": [],
      "payable": false,
      "stateMutability": "nonpayable",
      "type": "function"
    },
    {
      "constant": false,
      "inputs": [],
      "name": "finalizeUpgrade",
      "outputs": [],
      "payable": false,
      "stateMutability": "nonpayable",
      "type": "function"
    },
    {
      "constant": true,
      "inputs": [],
      "name": "futureStrategy",
      "outputs": [
        {
          "internalType": "address",
          "name": "",
          "type": "address"
        }
      ],
      "payable": false,
      "stateMutability": "view",
      "type": "function"
    },
    {
      "constant": true,
      "inputs": [],
      "name": "getPricePerFullShare",
      "outputs": [
        {
          "internalType": "uint256",
          "name": "",
          "type": "uint256"
        }
      ],
      "payable": false,
      "stateMutability": "view",
      "type": "function"
    },
    {
      "constant": true,
      "inputs": [],
      "name": "governance",
      "outputs": [
        {
          "internalType": "address",
          "name": "",
          "type": "address"
        }
      ],
      "payable": false,
      "stateMutability": "view",
      "type": "function"
    },
    {
      "constant": false,
      "inputs": [
        {
          "internalType": "address",
          "name": "spender",
          "type": "address"
        },
        {
          "internalType": "uint256",
          "name": "addedValue",
          "type": "uint256"
        }
      ],
      "name": "increaseAllowance",
      "outputs": [
        {
          "internalType": "bool",
          "name": "",
          "type": "bool"
        }
      ],
      "payable": false,
      "stateMutability": "nonpayable",
      "type": "function"
    },
    {
      "constant": false,
      "inputs": [
        {
          "internalType": "string",
          "name": "name",
          "type": "string"
        },
        {
          "internalType": "string",
          "name": "symbol",
          "type": "string"
        },
        {
          "internalType": "uint8",
          "name": "decimals",
          "type": "uint8"
        }
      ],
      "name": "initialize",
      "outputs": [],
      "payable": false,
      "stateMutability": "nonpayable",
      "type": "function"
    },
    {
      "constant": false,
      "inputs": [
        {
          "internalType": "address",
          "name": "_underlying",
          "type": "address"
        },
        {
          "internalType": "uint256",
          "name": "_toInvestNumerator",
          "type": "uint256"
        },
        {
          "internalType": "uint256",
          "name": "_toInvestDenominator",
          "type": "uint256"
        },
        {
          "internalType": "uint256",
          "name": "_underlyingUnit",
          "type": "uint256"
        },
        {
          "internalType": "uint256",
          "name": "_implementationChangeDelay",
          "type": "uint256"
        },
        {
          "internalType": "uint256",
          "name": "_strategyChangeDelay",
          "type": "uint256"
        }
      ],
      "name": "initialize",
      "outputs": [],
      "payable": false,
      "stateMutability": "nonpayable",
      "type": "function"
    },
    {
      "constant": false,
      "inputs": [
        {
          "internalType": "address",
          "name": "_storage",
          "type": "address"
        }
      ],
      "name": "initialize",
      "outputs": [],
      "payable": false,
      "stateMutability": "nonpayable",
      "type": "function"
    },
    {
      "constant": false,
      "inputs": [
        {
          "internalType": "address",
          "name": "_storage",
          "type": "address"
        },
        {
          "internalType": "address",
          "name": "_underlying",
          "type": "address"
        },
        {
          "internalType": "uint256",
          "name": "_toInvestNumerator",
          "type": "uint256"
        },
        {
          "internalType": "uint256",
          "name": "_toInvestDenominator",
          "type": "uint256"
        }
      ],
      "name": "initializeVault",
      "outputs": [],
      "payable": false,
      "stateMutability": "nonpayable",
      "type": "function"
    },
    {
      "constant": true,
      "inputs": [],
      "name": "name",
      "outputs": [
        {
          "internalType": "string",
          "name": "",
          "type": "string"
        }
      ],
      "payable": false,
      "stateMutability": "view",
      "type": "function"
    },
    {
      "constant": true,
      "inputs": [],
      "name": "nextImplementation",
      "outputs": [
        {
          "internalType": "address",
          "name": "",
          "type": "address"
        }
      ],
      "payable": false,
      "stateMutability": "view",
      "type": "function"
    },
    {
      "constant": true,
      "inputs": [],
      "name": "nextImplementationDelay",
      "outputs": [
        {
          "internalType": "uint256",
          "name": "",
          "type": "uint256"
        }
      ],
      "payable": false,
      "stateMutability": "view",
      "type": "function"
    },
    {
      "constant": true,
      "inputs": [],
      "name": "nextImplementationTimestamp",
      "outputs": [
        {
          "internalType": "uint256",
          "name": "",
          "type": "uint256"
        }
      ],
      "payable": false,
      "stateMutability": "view",
      "type": "function"
    },
    {
      "constant": false,
      "inputs": [],
      "name": "rebalance",
      "outputs": [],
      "payable": false,
      "stateMutability": "nonpayable",
      "type": "function"
    },
    {
      "constant": false,
      "inputs": [
        {
          "internalType": "address",
          "name": "impl",
          "type": "address"
        }
      ],
      "name": "scheduleUpgrade",
      "outputs": [],
      "payable": false,
      "stateMutability": "nonpayable",
      "type": "function"
    },
    {
      "constant": false,
      "inputs": [
        {
          "internalType": "address",
          "name": "_store",
          "type": "address"
        }
      ],
      "name": "setStorage",
      "outputs": [],
      "payable": false,
      "stateMutability": "nonpayable",
      "type": "function"
    },
    {
      "constant": false,
      "inputs": [
        {
          "internalType": "address",
          "name": "_strategy",
          "type": "address"
        }
      ],
      "name": "setStrategy",
      "outputs": [],
      "payable": false,
      "stateMutability": "nonpayable",
      "type": "function"
    },
    {
      "constant": false,
      "inputs": [
        {
          "internalType": "uint256",
          "name": "numerator",
          "type": "uint256"
        },
        {
          "internalType": "uint256",
          "name": "denominator",
          "type": "uint256"
        }
      ],
      "name": "setVaultFractionToInvest",
      "outputs": [],
      "payable": false,
      "stateMutability": "nonpayable",
      "type": "function"
    },
    {
      "constant": true,
      "inputs": [],
      "name": "shouldUpgrade",
      "outputs": [
        {
          "internalType": "bool",
          "name": "",
          "type": "bool"
        },
        {
          "internalType": "address",
          "name": "",
          "type": "address"
        }
      ],
      "payable": false,
      "stateMutability": "view",
      "type": "function"
    },
    {
      "constant": true,
      "inputs": [],
      "name": "strategy",
      "outputs": [
        {
          "internalType": "address",
          "name": "",
          "type": "address"
        }
      ],
      "payable": false,
      "stateMutability": "view",
      "type": "function"
    },
    {
      "constant": true,
      "inputs": [],
      "name": "strategyTimeLock",
      "outputs": [
        {
          "internalType": "uint256",
          "name": "",
          "type": "uint256"
        }
      ],
      "payable": false,
      "stateMutability": "view",
      "type": "function"
    },
    {
      "constant": true,
      "inputs": [],
      "name": "strategyUpdateTime",
      "outputs": [
        {
          "internalType": "uint256",
          "name": "",
          "type": "uint256"
        }
      ],
      "payable": false,
      "stateMutability": "view",
      "type": "function"
    },
    {
      "constant": true,
      "inputs": [],
      "name": "symbol",
      "outputs": [
        {
          "internalType": "string",
          "name": "",
          "type": "string"
        }
      ],
      "payable": false,
      "stateMutability": "view",
      "type": "function"
    },
    {
      "constant": true,
      "inputs": [],
      "name": "totalSupply",
      "outputs": [
        {
          "internalType": "uint256",
          "name": "",
          "type": "uint256"
        }
      ],
      "payable": false,
      "stateMutability": "view",
      "type": "function"
    },
    {
      "constant": false,
      "inputs": [
        {
          "internalType": "address",
          "name": "recipient",
          "type": "address"
        },
        {
          "internalType": "uint256",
          "name": "amount",
          "type": "uint256"
        }
      ],
      "name": "transfer",
      "outputs": [
        {
          "internalType": "bool",
          "name": "",
          "type": "bool"
        }
      ],
      "payable": false,
      "stateMutability": "nonpayable",
      "type": "function"
    },
    {
      "constant": false,
      "inputs": [
        {
          "internalType": "address",
          "name": "sender",
          "type": "address"
        },
        {
          "internalType": "address",
          "name": "recipient",
          "type": "address"
        },
        {
          "internalType": "uint256",
          "name": "amount",
          "type": "uint256"
        }
      ],
      "name": "transferFrom",
      "outputs": [
        {
          "internalType": "bool",
          "name": "",
          "type": "bool"
        }
      ],
      "payable": false,
      "stateMutability": "nonpayable",
      "type": "function"
    },
    {
      "constant": true,
      "inputs": [],
      "name": "underlying",
      "outputs": [
        {
          "internalType": "address",
          "name": "",
          "type": "address"
        }
      ],
      "payable": false,
      "stateMutability": "view",
      "type": "function"
    },
    {
      "constant": true,
      "inputs": [],
      "name": "underlyingBalanceInVault",
      "outputs": [
        {
          "internalType": "uint256",
          "name": "",
          "type": "uint256"
        }
      ],
      "payable": false,
      "stateMutability": "view",
      "type": "function"
    },
    {
      "constant": true,
      "inputs": [],
      "name": "underlyingBalanceWithInvestment",
      "outputs": [
        {
          "internalType": "uint256",
          "name": "",
          "type": "uint256"
        }
      ],
      "payable": false,
      "stateMutability": "view",
      "type": "function"
    },
    {
      "constant": true,
      "inputs": [
        {
          "internalType": "address",
          "name": "holder",
          "type": "address"
        }
      ],
      "name": "underlyingBalanceWithInvestmentForHolder",
      "outputs": [
        {
          "internalType": "uint256",
          "name": "",
          "type": "uint256"
        }
      ],
      "payable": false,
      "stateMutability": "view",
      "type": "function"
    },
    {
      "constant": true,
      "inputs": [],
      "name": "underlyingUnit",
      "outputs": [
        {
          "internalType": "uint256",
          "name": "",
          "type": "uint256"
        }
      ],
      "payable": false,
      "stateMutability": "view",
      "type": "function"
    },
    {
      "constant": true,
      "inputs": [],
      "name": "vaultFractionToInvestDenominator",
      "outputs": [
        {
          "internalType": "uint256",
          "name": "",
          "type": "uint256"
        }
      ],
      "payable": false,
      "stateMutability": "view",
      "type": "function"
    },
    {
      "constant": true,
      "inputs": [],
      "name": "vaultFractionToInvestNumerator",
      "outputs": [
        {
          "internalType": "uint256",
          "name": "",
          "type": "uint256"
        }
      ],
      "payable": false,
      "stateMutability": "view",
      "type": "function"
    },
    {
      "constant": false,
      "inputs": [
        {
          "internalType": "uint256",
          "name": "numberOfShares",
          "type": "uint256"
        }
      ],
      "name": "withdraw",
      "outputs": [],
      "payable": false,
      "stateMutability": "nonpayable",
      "type": "function"
    },
    {
      "constant": false,
      "inputs": [],
      "name": "withdrawAll",
      "outputs": [],
      "payable": false,
      "stateMutability": "nonpayable",
      "type": "function"
    },
    {
      "constant": false,
      "inputs": [
        {
          "internalType": "uint256",
          "name": "_nextImplementationDelay",
          "type": "uint256"
        }
      ],
      "name": "overrideNextImplementationDelay",
      "outputs": [],
      "payable": false,
      "stateMutability": "nonpayable",
      "type": "function"
    }
  ],
  "bytecode": "0x60806040523480156200001157600080fd5b50604080517f656970313936372e676f7665726e61626c65496e69742e73746f7261676500008152905190819003601e0190207fa7ec62784904ff31cbcc32d09932a58e7f1e4476e1d041995b37c917990b16dc600019909101146200007357fe5b604080517f656970313936372e7661756c7453746f726167652e73747261746567790000008152905190819003601d0190207ff1a169aa0f736c2813818fdfbdc5755c31e0839c8f49831a16543496b28574ea60001990910114620000d457fe5b604080517f656970313936372e7661756c7453746f726167652e756e6465726c79696e67008152905190819003601f0190207f1994607607e11d53306ef62e45e3bd85762c58d9bf38b5578bc4a258a26a7371600019909101146200013557fe5b600160405180806200487f602391396023019050604051809103902060001c0360001b7fa66bc57d4b4eed7c7687876ca77997588987307cb13ecc23f5e52725192e5fff60001b146200018457fe5b600160405180806200476f603391396033019050604051809103902060001c0360001b7f39122c9adfb653455d0c05043bd52fcfbc2be864e832efd3abc72ce5a3d7ed5a60001b14620001d357fe5b60016040518080620047d2603591396035019050604051809103902060001c0360001b7f469a3bad2fab7b936c45eecd1f5da52af89cead3e2ed7f732b6f3fc92ed3230860001b146200022257fe5b60016040518080620048a2602791396027019050604051809103902060001c0360001b7fb1acf527cd7cd1668b30e5a9a1c0d845714604de29ce560150922c9d8c0937df60001b146200027157fe5b60016040518080620047a2603091396030019050604051809103902060001c0360001b7f3bc747f4b148b37be485de3223c90b4468252967d2ea7f9fcbd8b6e653f434c960001b14620002c057fe5b6001604051808062004853602c9139602c019050604051809103902060001c0360001b7f82ddc3be3f0c1a6870327f78f4979a0b37b21b16736ef5be6a7a7a35e530bcf060001b146200030f57fe5b600160405180806200482e602591396025019050604051809103902060001c0360001b7f6d02338b2e4c913c0f7d380e2798409838a48a2c4d57d52742a808c82d713d8b60001b146200035e57fe5b60016040518080620048c9602391396023019050604051809103902060001c0360001b7fb441b53a4e42c2ca9182bc7ede99bedba7a5d9360d9dfbd31fa8ee2dc859061060001b14620003ad57fe5b6001604051808062004807602791396027019050604051809103902060001c0360001b7f56e7c0e75875c6497f0de657009613a32558904b5c10771a825cc330feff7e7260001b14620003fc57fe5b614363806200040c6000396000f3fe608060405234801561001057600080fd5b50600436106102ab5760003560e01c80637d7c2a1c11610172578063a8c62e76116100d9578063c4d66de811610092578063c4d66de814610863578063dd62ed3e14610889578063eda199aa146108b7578063f032a60f146108bf578063f0cf91e7146108dc578063f2768c1e14610902578063f77c47911461090a576102ab565b8063a8c62e76146107fa578063a9059cbb14610802578063aa0446251461082e578063b592c39014610836578063b6b55f251461083e578063c2baf3561461085b576102ab565b806395d89b411161012b57806395d89b41146107685780639a508c8e146107705780639d16acfd14610778578063a457c2d7146107a3578063a5b1a24d146107cf578063a8365693146107f2576102ab565b80637d7c2a1c146106c857806382de9c1b146106d0578063853828b6146106d85780638cb1d67f146106e05780638fc1708c146107065780639137c1a714610742576102ab565b806333a100ca1161021657806353ceb01c116101cf57806353ceb01c1461067a5780635aa6e675146106825780635fe51e6d1461068a5780636f307dc31461069257806370a082311461069a57806377c7b8fc146106c0576102ab565b806333a100ca146105a857806336efd16f146105ce57806339509351146105fa57806345ff4c80146106265780634af1758b1461066a5780634fa5d85414610672576102ab565b80631624f6c6116102685780631624f6c6146103f957806318160ddd146105275780631bf8e7be1461052f57806323b872dd146105375780632e1a7d4d1461056d578063313ce5671461058a576102ab565b806306fdde03146102b0578063095ea7b31461032d57806309ff18f01461036d5780630a6bbeb3146103915780630ad2239d146103b95780630c80447a146103d3575b600080fd5b6102b8610912565b6040805160208082528351818301528351919283929083019185019080838360005b838110156102f25781810151838201526020016102da565b50505050905090810190601f16801561031f5780820380516001836020036101000a031916815260200191505b509250505060405180910390f35b6103596004803603604081101561034357600080fd5b506001600160a01b0381351690602001356109a9565b604080519115158252519081900360200190f35b6103756109c7565b604080516001600160a01b039092168252519081900360200190f35b6103b7600480360360208110156103a757600080fd5b50356001600160a01b03166109d6565b005b6103c1610ba0565b60408051918252519081900360200190f35b6103b7600480360360208110156103e957600080fd5b50356001600160a01b0316610baa565b6103b76004803603606081101561040f57600080fd5b810190602081018135600160201b81111561042957600080fd5b82018360208201111561043b57600080fd5b803590602001918460018302840111600160201b8311171561045c57600080fd5b91908080601f0160208091040260200160405190810160405280939291908181526020018383808284376000920191909152509295949360208101935035915050600160201b8111156104ae57600080fd5b8201836020820111156104c057600080fd5b803590602001918460018302840111600160201b831117156104e157600080fd5b91908080601f0160208091040260200160405190810160405280939291908181526020018383808284376000920191909152509295505050903560ff169150610c949050565b6103c1610d70565b6103c1610d76565b6103596004803603606081101561054d57600080fd5b506001600160a01b03813581169160208101359091169060400135610e22565b6103b76004803603602081101561058357600080fd5b5035610eaf565b6105926110fc565b6040805160ff9092168252519081900360200190f35b6103b7600480360360208110156105be57600080fd5b50356001600160a01b0316611105565b6103b7600480360360408110156105e457600080fd5b50803590602001356001600160a01b03166115a6565b6103596004803603604081101561061057600080fd5b506001600160a01b038135169060200135611686565b6103b7600480360360c081101561063c57600080fd5b506001600160a01b038135169060208101359060408101359060608101359060808101359060a001356116da565b6103c16117cc565b6103b76117d6565b6103c16119e9565b6103756119f3565b610375611a66565b610375611a70565b6103c1600480360360208110156106b057600080fd5b50356001600160a01b0316611a7a565b6103c1611a99565b6103b7611ad3565b6103c1611c39565b6103b7611c43565b6103c1600480360360208110156106f657600080fd5b50356001600160a01b0316611e3a565b6103b76004803603608081101561071c57600080fd5b506001600160a01b03813581169160208101359091169060408101359060600135611e6f565b6103b76004803603602081101561075857600080fd5b50356001600160a01b03166123de565b6102b861250d565b6103b761256e565b61078061264d565b6040805192151583526001600160a01b0390911660208301528051918290030190f35b610359600480360360408110156107b957600080fd5b506001600160a01b038135169060200135612699565b6103b7600480360360408110156107e557600080fd5b5080359060200135612707565b6103c1612862565b61037561286c565b6103596004803603604081101561081857600080fd5b506001600160a01b038135169060200135612876565b6103c161288a565b6103c1612894565b6103b76004803603602081101561085457600080fd5b503561296d565b6103c1612a49565b6103b76004803603602081101561087957600080fd5b50356001600160a01b0316612aa8565b6103c16004803603604081101561089f57600080fd5b506001600160a01b0381358116916020013516612b53565b6103b7612b7e565b6103b7600480360360208110156108d557600080fd5b5035612ce6565b610359600480360360208110156108f257600080fd5b50356001600160a01b0316612cef565b6103c1612d50565b610375612d5a565b60688054604080516020601f600260001961010060018816150201909516949094049384018190048102820181019092528281526060939092909183018282801561099e5780601f106109735761010080835404028352916020019161099e565b820191906000526020600020905b81548152906001019060200180831161098157829003601f168201915b505050505090505b90565b60006109bd6109b6612d9c565b8484612da0565b5060015b92915050565b60006109d1612e8c565b905090565b6109de612eb7565b6001600160a01b031663b429afeb336040518263ffffffff1660e01b815260040180826001600160a01b03166001600160a01b0316815260200191505060206040518083038186803b158015610a3357600080fd5b505afa158015610a47573d6000803e3d6000fd5b505050506040513d6020811015610a5d57600080fd5b505180610aef5750610a6d612eb7565b6001600160a01b031663dee1f0e4336040518263ffffffff1660e01b815260040180826001600160a01b03166001600160a01b0316815260200191505060206040518083038186803b158015610ac257600080fd5b505afa158015610ad6573d6000803e3d6000fd5b505050506040513d6020811015610aec57600080fd5b50515b610b2a5760405162461bcd60e51b815260040180806020018281038252602b815260200180613fd5602b913960400191505060405180910390fd5b6000610b44610b37610ba0565b429063ffffffff612edc16565b9050610b4f81612f3d565b610b5882612f67565b604080516001600160a01b03841681526020810183905281517f7d5e1cfe55788983acd19d248da36a27c9413e8e43445ed36a76ae0e741a04ed929181900390910190a15050565b60006109d1612f91565b610bb2612eb7565b6001600160a01b031663dee1f0e4336040518263ffffffff1660e01b815260040180826001600160a01b03166001600160a01b0316815260200191505060206040518083038186803b158015610c0757600080fd5b505afa158015610c1b573d6000803e3d6000fd5b505050506040513d6020811015610c3157600080fd5b5051610c75576040805162461bcd60e51b815260206004820152600e60248201526d4e6f7420676f7665726e616e636560901b604482015290519081900360640190fd5b610c7e81612fbc565b610c91610c8c610b37612862565b612fe6565b50565b600054610100900460ff1680610cad5750610cad613010565b80610cbb575060005460ff16155b610cf65760405162461bcd60e51b815260040180806020018281038252602e8152602001806141b3602e913960400191505060405180910390fd5b600054610100900460ff16158015610d21576000805460ff1961ff0019909116610100171660011790555b8351610d34906068906020870190613f3c565b508251610d48906069906020860190613f3c565b50606a805460ff191660ff84161790558015610d6a576000805461ff00191690555b50505050565b60355490565b600080610d8161286c565b6001600160a01b03161415610d9f57610d98612a49565b90506109a6565b6109d1610daa61286c565b6001600160a01b03166345d01e4a6040518163ffffffff1660e01b815260040160206040518083038186803b158015610de257600080fd5b505afa158015610df6573d6000803e3d6000fd5b505050506040513d6020811015610e0c57600080fd5b5051610e16612a49565b9063ffffffff612edc16565b6000610e2f848484613016565b610ea584610e3b612d9c565b610ea08560405180606001604052806028815260200161418b602891396001600160a01b038a16600090815260346020526040812090610e79612d9c565b6001600160a01b03168152602081019190915260400160002054919063ffffffff61317416565b612da0565b5060019392505050565b6000610eb9610d70565b11610f01576040805162461bcd60e51b81526020600482015260136024820152725661756c7420686173206e6f2073686172657360681b604482015290519081900360640190fd5b60008111610f405760405162461bcd60e51b815260040180806020018281038252602581526020018061421b6025913960400191505060405180910390fd5b6000610f4a610d70565b9050610f56338361320b565b6000610f8082610f7485610f68610d76565b9063ffffffff61330716565b9063ffffffff61336016565b9050610f8a612a49565b81111561109e5781831415610ff857610fa161286c565b6001600160a01b031663bfd131f16040518163ffffffff1660e01b8152600401600060405180830381600087803b158015610fdb57600080fd5b505af1158015610fef573d6000803e3d6000fd5b5050505061107b565b6000611012611005612a49565b839063ffffffff6133a216565b905061101c61286c565b6001600160a01b031663ce8c42e8826040518263ffffffff1660e01b815260040180828152602001915050600060405180830381600087803b15801561106157600080fd5b505af1158015611075573d6000803e3d6000fd5b50505050505b61109b61108e83610f7486610f68610d76565b611096612a49565b6133e4565b90505b6110c133826110ab611a70565b6001600160a01b0316919063ffffffff6133fa16565b60408051828152905133917f884edad9ce6fa2440d8a54cc123490eb96d2768479d49ff9c7366125a9424364919081900360200190a2505050565b606a5460ff1690565b61110d612eb7565b6001600160a01b031663b429afeb336040518263ffffffff1660e01b815260040180826001600160a01b03166001600160a01b0316815260200191505060206040518083038186803b15801561116257600080fd5b505afa158015611176573d6000803e3d6000fd5b505050506040513d602081101561118c57600080fd5b50518061121e575061119c612eb7565b6001600160a01b031663dee1f0e4336040518263ffffffff1660e01b815260040180826001600160a01b03166001600160a01b0316815260200191505060206040518083038186803b1580156111f157600080fd5b505afa158015611205573d6000803e3d6000fd5b505050506040513d602081101561121b57600080fd5b50515b6112595760405162461bcd60e51b815260040180806020018281038252602b815260200180613fd5602b913960400191505060405180910390fd5b61126281612cef565b61129d5760405162461bcd60e51b815260040180806020018281038252603a8152602001806141e1603a913960400191505060405180910390fd5b6001600160a01b0381166112f8576040805162461bcd60e51b815260206004820152601d60248201527f6e6577205f73747261746567792063616e6e6f7420626520656d707479000000604482015290519081900360640190fd5b611300611a70565b6001600160a01b0316816001600160a01b0316636f307dc36040518163ffffffff1660e01b815260040160206040518083038186803b15801561134257600080fd5b505afa158015611356573d6000803e3d6000fd5b505050506040513d602081101561136c57600080fd5b50516001600160a01b0316146113b35760405162461bcd60e51b815260040180806020018281038252602f81526020018061413b602f913960400191505060405180910390fd5b306001600160a01b0316816001600160a01b031663fbfa77cf6040518163ffffffff1660e01b815260040160206040518083038186803b1580156113f657600080fd5b505afa15801561140a573d6000803e3d6000fd5b505050506040513d602081101561142057600080fd5b50516001600160a01b0316146114675760405162461bcd60e51b815260040180806020018281038252602a815260200180614089602a913960400191505060405180910390fd5b7f254c88e7a2ea123aeeb89b7cc413fb949188fefcdb7584c4f3d493294daf65c58161149161286c565b604080516001600160a01b03938416815291909216602082015281519081900390910190a16114be61286c565b6001600160a01b0316816001600160a01b03161461159e5760006114e061286c565b6001600160a01b031614611574576115196114f961286c565b6000611503611a70565b6001600160a01b0316919063ffffffff61345116565b61152161286c565b6001600160a01b031663bfd131f16040518163ffffffff1660e01b8152600401600060405180830381600087803b15801561155b57600080fd5b505af115801561156f573d6000803e3d6000fd5b505050505b61157d81613564565b6115886114f961286c565b61159e61159361286c565b600019611503611a70565b610c91612b7e565b3332148061163c57506115b7612d5a565b6001600160a01b03166330e412ad336040518263ffffffff1660e01b815260040180826001600160a01b03166001600160a01b03168152602001915050602060405180830381600087803b15801561160e57600080fd5b505af1158015611622573d6000803e3d6000fd5b505050506040513d602081101561163857600080fd5b5051155b6116775760405162461bcd60e51b81526004018080602001828103825260288152602001806141136028913960400191505060405180910390fd5b61168282338361358e565b5050565b60006109bd611693612d9c565b84610ea085603460006116a4612d9c565b6001600160a01b03908116825260208083019390935260409182016000908120918c16815292529020549063ffffffff612edc16565b600054610100900460ff16806116f357506116f3613010565b80611701575060005460ff16155b61173c5760405162461bcd60e51b815260040180806020018281038252602e8152602001806141b3602e913960400191505060405180910390fd5b600054610100900460ff16158015611767576000805460ff1961ff0019909116610100171660011790555b6117708761379d565b611779866137c7565b611782856137f1565b61178b8461381b565b61179483613845565b61179d8261386f565b6117a76000612f3d565b6117b16000612f67565b80156117c3576000805461ff00191690555b50505050505050565b60006109d1613899565b60006117e061286c565b6001600160a01b03161415611837576040805162461bcd60e51b815260206004820152601860248201527714dd1c985d1959de481b5d5cdd081899481919599a5b995960421b604482015290519081900360640190fd5b61183f612eb7565b6001600160a01b031663b429afeb336040518263ffffffff1660e01b815260040180826001600160a01b03166001600160a01b0316815260200191505060206040518083038186803b15801561189457600080fd5b505afa1580156118a8573d6000803e3d6000fd5b505050506040513d60208110156118be57600080fd5b50518061195057506118ce612eb7565b6001600160a01b031663dee1f0e4336040518263ffffffff1660e01b815260040180826001600160a01b03166001600160a01b0316815260200191505060206040518083038186803b15801561192357600080fd5b505afa158015611937573d6000803e3d6000fd5b505050506040513d602081101561194d57600080fd5b50515b61198b5760405162461bcd60e51b815260040180806020018281038252602b815260200180613fd5602b913960400191505060405180910390fd5b6119936138c4565b61199b61286c565b6001600160a01b0316634fa5d8546040518163ffffffff1660e01b8152600401600060405180830381600087803b1580156119d557600080fd5b505af1158015610d6a573d6000803e3d6000fd5b60006109d1613981565b60006119fd612eb7565b6001600160a01b0316635aa6e6756040518163ffffffff1660e01b815260040160206040518083038186803b158015611a3557600080fd5b505afa158015611a49573d6000803e3d6000fd5b505050506040513d6020811015611a5f57600080fd5b5051905090565b60006109d16139ac565b60006109d16139d7565b6001600160a01b0381166000908152603360205260409020545b919050565b6000611aa3610d70565b15611acb57611ac6611ab3610d70565b610f74611abe610d76565b610f686119e9565b6109d1565b6109d16119e9565b611adb612eb7565b6001600160a01b031663b429afeb336040518263ffffffff1660e01b815260040180826001600160a01b03166001600160a01b0316815260200191505060206040518083038186803b158015611b3057600080fd5b505afa158015611b44573d6000803e3d6000fd5b505050506040513d6020811015611b5a57600080fd5b505180611bec5750611b6a612eb7565b6001600160a01b031663dee1f0e4336040518263ffffffff1660e01b815260040180826001600160a01b03166001600160a01b0316815260200191505060206040518083038186803b158015611bbf57600080fd5b505afa158015611bd3573d6000803e3d6000fd5b505050506040513d6020811015611be957600080fd5b50515b611c275760405162461bcd60e51b815260040180806020018281038252602b815260200180613fd5602b913960400191505060405180910390fd5b611c2f611c43565b611c376138c4565b565b60006109d1613a02565b611c4b612eb7565b6001600160a01b031663b429afeb336040518263ffffffff1660e01b815260040180826001600160a01b03166001600160a01b0316815260200191505060206040518083038186803b158015611ca057600080fd5b505afa158015611cb4573d6000803e3d6000fd5b505050506040513d6020811015611cca57600080fd5b505180611d5c5750611cda612eb7565b6001600160a01b031663dee1f0e4336040518263ffffffff1660e01b815260040180826001600160a01b03166001600160a01b0316815260200191505060206040518083038186803b158015611d2f57600080fd5b505afa158015611d43573d6000803e3d6000fd5b505050506040513d6020811015611d5957600080fd5b50515b611d975760405162461bcd60e51b815260040180806020018281038252602b815260200180613fd5602b913960400191505060405180910390fd5b6000611da161286c565b6001600160a01b03161415611df8576040805162461bcd60e51b815260206004820152601860248201527714dd1c985d1959de481b5d5cdd081899481919599a5b995960421b604482015290519081900360640190fd5b611e0061286c565b6001600160a01b031663bfd131f16040518163ffffffff1660e01b8152600401600060405180830381600087803b1580156119d557600080fd5b6000611e44610d70565b611e5057506000611a94565b6109c1611e5b610d70565b610f74611e6785611a7a565b610f68610d76565b600054610100900460ff1680611e885750611e88613010565b80611e96575060005460ff16155b611ed15760405162461bcd60e51b815260040180806020018281038252602e8152602001806141b3602e913960400191505060405180910390fd5b600054610100900460ff16158015611efc576000805460ff1961ff0019909116610100171660011790555b81831115611f51576040805162461bcd60e51b815260206004820152601c60248201527f63616e6e6f7420696e76657374206d6f7265207468616e203130302500000000604482015290519081900360640190fd5b81611f98576040805162461bcd60e51b8152602060048201526012602482015271063616e6e6f742064697669646520627920360741b604482015290519081900360640190fd5b612335846001600160a01b03166395d89b416040518163ffffffff1660e01b815260040160006040518083038186803b158015611fd457600080fd5b505afa158015611fe8573d6000803e3d6000fd5b505050506040513d6000823e601f3d908101601f19168201604052602081101561201157600080fd5b8101908080516040519392919084600160201b82111561203057600080fd5b90830190602082018581111561204557600080fd5b8251600160201b81118282018810171561205e57600080fd5b82525081516020918201929091019080838360005b8381101561208b578181015183820152602001612073565b50505050905090810190601f1680156120b85780820380516001836020036101000a031916815260200191505b506040525050506040516020018080644641524d5f60d81b81525060050182805190602001908083835b602083106121015780518252601f1990920191602091820191016120e2565b6001836020036101000a038019825116818451168082178552505050505050905001915050604051602081830303815290604052856001600160a01b03166395d89b416040518163ffffffff1660e01b815260040160006040518083038186803b15801561216e57600080fd5b505afa158015612182573d6000803e3d6000fd5b505050506040513d6000823e601f3d908101601f1916820160405260208110156121ab57600080fd5b8101908080516040519392919084600160201b8211156121ca57600080fd5b9083019060208201858111156121df57600080fd5b8251600160201b8111828201881017156121f857600080fd5b82525081516020918201929091019080838360005b8381101561222557818101518382015260200161220d565b50505050905090810190601f1680156122525780820380516001836020036101000a031916815260200191505b506040525050506040516020018080603360f91b81525060010182805190602001908083835b602083106122975780518252601f199092019160209182019101612278565b6001836020036101000a038019825116818451168082178552505050505050905001915050604051602081830303815290604052866001600160a01b031663313ce5676040518163ffffffff1660e01b815260040160206040518083038186803b15801561230457600080fd5b505afa158015612318573d6000803e3d6000fd5b505050506040513d602081101561232e57600080fd5b5051610c94565b61233e85612aa8565b6000846001600160a01b031663313ce5676040518163ffffffff1660e01b815260040160206040518083038186803b15801561237957600080fd5b505afa15801561238d573d6000803e3d6000fd5b505050506040513d60208110156123a357600080fd5b505160ff16600a0a90506202a30061a8c06123c28787878686866116da565b50505080156123d7576000805461ff00191690555b5050505050565b6123e6612eb7565b6001600160a01b031663dee1f0e4336040518263ffffffff1660e01b815260040180826001600160a01b03166001600160a01b0316815260200191505060206040518083038186803b15801561243b57600080fd5b505afa15801561244f573d6000803e3d6000fd5b505050506040513d602081101561246557600080fd5b50516124a9576040805162461bcd60e51b815260206004820152600e60248201526d4e6f7420676f7665726e616e636560901b604482015290519081900360640190fd5b6001600160a01b038116612504576040805162461bcd60e51b815260206004820152601e60248201527f6e65772073746f726167652073686f756c646e277420626520656d7074790000604482015290519081900360640190fd5b610c9181613a2d565b60698054604080516020601f600260001961010060018816150201909516949094049384018190048102820181019092528281526060939092909183018282801561099e5780601f106109735761010080835404028352916020019161099e565b612576612eb7565b6001600160a01b031663dee1f0e4336040518263ffffffff1660e01b815260040180826001600160a01b03166001600160a01b0316815260200191505060206040518083038186803b1580156125cb57600080fd5b505afa1580156125df573d6000803e3d6000fd5b505050506040513d60208110156125f557600080fd5b5051612639576040805162461bcd60e51b815260206004820152600e60248201526d4e6f7420676f7665726e616e636560901b604482015290519081900360640190fd5b6126436000612fbc565b611c376000612fe6565b600080612658611c39565b1580159061266c5750612669611c39565b42115b80156126895750600061267d6109c7565b6001600160a01b031614155b6126916109c7565b915091509091565b60006109bd6126a6612d9c565b84610ea08560405180606001604052806025815260200161430a60259139603460006126d0612d9c565b6001600160a01b03908116825260208083019390935260409182016000908120918d1681529252902054919063ffffffff61317416565b61270f612eb7565b6001600160a01b031663dee1f0e4336040518263ffffffff1660e01b815260040180826001600160a01b03166001600160a01b0316815260200191505060206040518083038186803b15801561276457600080fd5b505afa158015612778573d6000803e3d6000fd5b505050506040513d602081101561278e57600080fd5b50516127d2576040805162461bcd60e51b815260206004820152600e60248201526d4e6f7420676f7665726e616e636560901b604482015290519081900360640190fd5b600081116128115760405162461bcd60e51b81526004018080602001828103825260228152602001806140236022913960400191505060405180910390fd5b808211156128505760405162461bcd60e51b815260040180806020018281038252603a8152602001806140b3603a913960400191505060405180910390fd5b612859826137c7565b611682816137f1565b60006109d1613a51565b60006109d1613a7c565b60006109bd612883612d9c565b8484613016565b60006109d1613aa7565b6000806128ad6128a2612d50565b610f74611e676117cc565b905060006128b961286c565b6001600160a01b03166345d01e4a6040518163ffffffff1660e01b815260040160206040518083038186803b1580156128f157600080fd5b505afa158015612905573d6000803e3d6000fd5b505050506040513d602081101561291b57600080fd5b50519050818110612931576000925050506109a6565b6000612943838363ffffffff6133a216565b905061294d612a49565b8111156129615761295c612a49565b612963565b805b93505050506109a6565b33321480612a03575061297e612d5a565b6001600160a01b03166330e412ad336040518263ffffffff1660e01b815260040180826001600160a01b03166001600160a01b03168152602001915050602060405180830381600087803b1580156129d557600080fd5b505af11580156129e9573d6000803e3d6000fd5b505050506040513d60208110156129ff57600080fd5b5051155b612a3e5760405162461bcd60e51b81526004018080602001828103825260288152602001806141136028913960400191505060405180910390fd5b610c9181333361358e565b6000612a53611a70565b6001600160a01b03166370a08231306040518263ffffffff1660e01b815260040180826001600160a01b03166001600160a01b0316815260200191505060206040518083038186803b158015611a3557600080fd5b600054610100900460ff1680612ac15750612ac1613010565b80612acf575060005460ff16155b612b0a5760405162461bcd60e51b815260040180806020018281038252602e8152602001806141b3602e913960400191505060405180910390fd5b600054610100900460ff16158015612b35576000805460ff1961ff0019909116610100171660011790555b612b3e82613ad2565b8015611682576000805461ff00191690555050565b6001600160a01b03918216600090815260346020908152604080832093909416825291909152205490565b612b86612eb7565b6001600160a01b031663b429afeb336040518263ffffffff1660e01b815260040180826001600160a01b03166001600160a01b0316815260200191505060206040518083038186803b158015612bdb57600080fd5b505afa158015612bef573d6000803e3d6000fd5b505050506040513d6020811015612c0557600080fd5b505180612c975750612c15612eb7565b6001600160a01b031663dee1f0e4336040518263ffffffff1660e01b815260040180826001600160a01b03166001600160a01b0316815260200191505060206040518083038186803b158015612c6a57600080fd5b505afa158015612c7e573d6000803e3d6000fd5b505050506040513d6020811015612c9457600080fd5b50515b612cd25760405162461bcd60e51b815260040180806020018281038252602b815260200180613fd5602b913960400191505060405180910390fd5b612cdc6000612f3d565b611c376000612f67565b610c9181613845565b600080612cfa61286c565b6001600160a01b031614806109c15750612d12611a66565b6001600160a01b0316826001600160a01b0316148015612d385750612d3561288a565b42115b80156109c157506000612d4961288a565b1192915050565b60006109d1613b68565b6000612d64612eb7565b6001600160a01b031663f77c47916040518163ffffffff1660e01b815260040160206040518083038186803b158015611a3557600080fd5b3390565b6001600160a01b038316612de55760405162461bcd60e51b81526004018080602001828103825260248152602001806142866024913960400191505060405180910390fd5b6001600160a01b038216612e2a5760405162461bcd60e51b81526004018080602001828103825260228152602001806140676022913960400191505060405180910390fd5b6001600160a01b03808416600081815260346020908152604080832094871680845294825291829020859055815185815291517f8c5be1e5ebec7d5bd14f71427d1e84f3dd0314c0f7b2291e5b200ac8c7c3b9259281900390910190a3505050565b60006109d17fb1acf527cd7cd1668b30e5a9a1c0d845714604de29ce560150922c9d8c0937df613b8f565b7fa7ec62784904ff31cbcc32d09932a58e7f1e4476e1d041995b37c917990b16dc5490565b600082820183811015612f36576040805162461bcd60e51b815260206004820152601b60248201527f536166654d6174683a206164646974696f6e206f766572666c6f770000000000604482015290519081900360640190fd5b9392505050565b610c917f56e7c0e75875c6497f0de657009613a32558904b5c10771a825cc330feff7e7282613b93565b610c917fb441b53a4e42c2ca9182bc7ede99bedba7a5d9360d9dfbd31fa8ee2dc859061082613b93565b60006109d17f6d02338b2e4c913c0f7d380e2798409838a48a2c4d57d52742a808c82d713d8b613b8f565b610c917fb1acf527cd7cd1668b30e5a9a1c0d845714604de29ce560150922c9d8c0937df82613b93565b610c917f3bc747f4b148b37be485de3223c90b4468252967d2ea7f9fcbd8b6e653f434c982613b93565b303b1590565b6001600160a01b03831661305b5760405162461bcd60e51b81526004018080602001828103825260258152602001806142616025913960400191505060405180910390fd5b6001600160a01b0382166130a05760405162461bcd60e51b81526004018080602001828103825260238152602001806140006023913960400191505060405180910390fd5b6130e3816040518060600160405280602681526020016140ed602691396001600160a01b038616600090815260336020526040902054919063ffffffff61317416565b6001600160a01b038085166000908152603360205260408082209390935590841681522054613118908263ffffffff612edc16565b6001600160a01b0380841660008181526033602090815260409182902094909455805185815290519193928716927fddf252ad1be2c89b69c2b068fc378daa952ba7f163c4a11628f55a4df523b3ef92918290030190a3505050565b600081848411156132035760405162461bcd60e51b81526004018080602001828103825283818151815260200191508051906020019080838360005b838110156131c85781810151838201526020016131b0565b50505050905090810190601f1680156131f55780820380516001836020036101000a031916815260200191505b509250505060405180910390fd5b505050900390565b6001600160a01b0382166132505760405162461bcd60e51b81526004018080602001828103825260218152602001806142406021913960400191505060405180910390fd5b61329381604051806060016040528060228152602001614045602291396001600160a01b038516600090815260336020526040902054919063ffffffff61317416565b6001600160a01b0383166000908152603360205260409020556035546132bf908263ffffffff6133a216565b6035556040805182815290516000916001600160a01b038516917fddf252ad1be2c89b69c2b068fc378daa952ba7f163c4a11628f55a4df523b3ef9181900360200190a35050565b600082613316575060006109c1565b8282028284828161332357fe5b0414612f365760405162461bcd60e51b815260040180806020018281038252602181526020018061416a6021913960400191505060405180910390fd5b6000612f3683836040518060400160405280601a81526020017f536166654d6174683a206469766973696f6e206279207a65726f000000000000815250613b97565b6000612f3683836040518060400160405280601e81526020017f536166654d6174683a207375627472616374696f6e206f766572666c6f770000815250613174565b60008183106133f35781612f36565b5090919050565b604080516001600160a01b038416602482015260448082018490528251808303909101815260649091019091526020810180516001600160e01b031663a9059cbb60e01b17905261344c908490613bfc565b505050565b8015806134d7575060408051636eb1769f60e11b81523060048201526001600160a01b03848116602483015291519185169163dd62ed3e91604480820192602092909190829003018186803b1580156134a957600080fd5b505afa1580156134bd573d6000803e3d6000fd5b505050506040513d60208110156134d357600080fd5b5051155b6135125760405162461bcd60e51b81526004018080602001828103825260368152602001806142d46036913960400191505060405180910390fd5b604080516001600160a01b038416602482015260448082018490528251808303909101815260649091019091526020810180516001600160e01b031663095ea7b360e01b17905261344c908490613bfc565b610c917ff1a169aa0f736c2813818fdfbdc5755c31e0839c8f49831a16543496b28574ea82613b93565b600083116135d6576040805162461bcd60e51b815260206004820152601060248201526f043616e6e6f74206465706f73697420360841b604482015290519081900360640190fd5b6001600160a01b03811661362a576040805162461bcd60e51b81526020600482015260166024820152751a1bdb19195c881b5d5cdd081899481919599a5b995960521b604482015290519081900360640190fd5b600061363461286c565b6001600160a01b0316146136ee5761364a61286c565b6001600160a01b031663c2a2a07b6040518163ffffffff1660e01b815260040160206040518083038186803b15801561368257600080fd5b505afa158015613696573d6000803e3d6000fd5b505050506040513d60208110156136ac57600080fd5b50516136ee576040805162461bcd60e51b815260206004820152600c60248201526b2a37b79036bab1b41030b93160a11b604482015290519081900360640190fd5b60006136f8610d70565b1561372557613720613708610d76565b610f74613713610d70565b879063ffffffff61330716565b613727565b835b90506137338282613db4565b613758833086613741611a70565b6001600160a01b031692919063ffffffff613ea616565b6040805185815290516001600160a01b038416917fe1fffcc4923d04b559f4d29a8bfc6cda04eb5b0d3c460751c2402c5c5cc9109c919081900360200190a250505050565b610c917f1994607607e11d53306ef62e45e3bd85762c58d9bf38b5578bc4a258a26a737182613b93565b610c917f39122c9adfb653455d0c05043bd52fcfbc2be864e832efd3abc72ce5a3d7ed5a82613b93565b610c917f469a3bad2fab7b936c45eecd1f5da52af89cead3e2ed7f732b6f3fc92ed3230882613b93565b610c917fa66bc57d4b4eed7c7687876ca77997588987307cb13ecc23f5e52725192e5fff82613b93565b610c917f82ddc3be3f0c1a6870327f78f4979a0b37b21b16736ef5be6a7a7a35e530bcf082613b93565b610c917f6d02338b2e4c913c0f7d380e2798409838a48a2c4d57d52742a808c82d713d8b82613b93565b60006109d17f39122c9adfb653455d0c05043bd52fcfbc2be864e832efd3abc72ce5a3d7ed5a613b8f565b60006138ce61286c565b6001600160a01b03161415613925576040805162461bcd60e51b815260206004820152601860248201527714dd1c985d1959de481b5d5cdd081899481919599a5b995960421b604482015290519081900360640190fd5b600061392f612894565b90508015610c915761394b61394261286c565b826110ab611a70565b6040805182815290517fa09b7ae452b7bffb9e204c3a016e80caeecf46f554d112644f36fa114dac6ffa9181900360200190a150565b60006109d17fa66bc57d4b4eed7c7687876ca77997588987307cb13ecc23f5e52725192e5fff613b8f565b60006109d17fb441b53a4e42c2ca9182bc7ede99bedba7a5d9360d9dfbd31fa8ee2dc8590610613b8f565b60006109d17f1994607607e11d53306ef62e45e3bd85762c58d9bf38b5578bc4a258a26a7371613b8f565b60006109d17f3bc747f4b148b37be485de3223c90b4468252967d2ea7f9fcbd8b6e653f434c9613b8f565b7fa7ec62784904ff31cbcc32d09932a58e7f1e4476e1d041995b37c917990b16dc55565b60006109d17f82ddc3be3f0c1a6870327f78f4979a0b37b21b16736ef5be6a7a7a35e530bcf0613b8f565b60006109d17ff1a169aa0f736c2813818fdfbdc5755c31e0839c8f49831a16543496b28574ea613b8f565b60006109d17f56e7c0e75875c6497f0de657009613a32558904b5c10771a825cc330feff7e72613b8f565b600054610100900460ff1680613aeb5750613aeb613010565b80613af9575060005460ff16155b613b345760405162461bcd60e51b815260040180806020018281038252602e8152602001806141b3602e913960400191505060405180910390fd5b600054610100900460ff16158015613b5f576000805460ff1961ff0019909116610100171660011790555b612b3e82613a2d565b60006109d17f469a3bad2fab7b936c45eecd1f5da52af89cead3e2ed7f732b6f3fc92ed323085b5490565b9055565b60008183613be65760405162461bcd60e51b81526020600482018181528351602484015283519092839260449091019190850190808383600083156131c85781810151838201526020016131b0565b506000838581613bf257fe5b0495945050505050565b613c0e826001600160a01b0316613f00565b613c5f576040805162461bcd60e51b815260206004820152601f60248201527f5361666545524332303a2063616c6c20746f206e6f6e2d636f6e747261637400604482015290519081900360640190fd5b60006060836001600160a01b0316836040518082805190602001908083835b60208310613c9d5780518252601f199092019160209182019101613c7e565b6001836020036101000a0380198251168184511680821785525050505050509050019150506000604051808303816000865af19150503d8060008114613cff576040519150601f19603f3d011682016040523d82523d6000602084013e613d04565b606091505b509150915081613d5b576040805162461bcd60e51b815260206004820181905260248201527f5361666545524332303a206c6f772d6c6576656c2063616c6c206661696c6564604482015290519081900360640190fd5b805115610d6a57808060200190516020811015613d7757600080fd5b5051610d6a5760405162461bcd60e51b815260040180806020018281038252602a8152602001806142aa602a913960400191505060405180910390fd5b6001600160a01b038216613e0f576040805162461bcd60e51b815260206004820152601f60248201527f45524332303a206d696e7420746f20746865207a65726f206164647265737300604482015290519081900360640190fd5b603554613e22908263ffffffff612edc16565b6035556001600160a01b038216600090815260336020526040902054613e4e908263ffffffff612edc16565b6001600160a01b03831660008181526033602090815260408083209490945583518581529351929391927fddf252ad1be2c89b69c2b068fc378daa952ba7f163c4a11628f55a4df523b3ef9281900390910190a35050565b604080516001600160a01b0385811660248301528416604482015260648082018490528251808303909101815260849091019091526020810180516001600160e01b03166323b872dd60e01b179052610d6a908590613bfc565b6000813f7fc5d2460186f7233c927e7db2dcc703c0e500b653ca82273b7bfad8045d85a470818114801590613f3457508115155b949350505050565b828054600181600116156101000203166002900490600052602060002090601f016020900481019282601f10613f7d57805160ff1916838001178555613faa565b82800160010185558215613faa579182015b82811115613faa578251825591602001919060010190613f8f565b50613fb6929150613fba565b5090565b6109a691905b80821115613fb65760008155600101613fc056fe5468652063616c6c6572206d75737420626520636f6e74726f6c6c6572206f7220676f7665726e616e636545524332303a207472616e7366657220746f20746865207a65726f206164647265737364656e6f6d696e61746f72206d7573742062652067726561746572207468616e203045524332303a206275726e20616d6f756e7420657863656564732062616c616e636545524332303a20617070726f766520746f20746865207a65726f206164647265737374686520737472617465677920646f6573206e6f742062656c6f6e6720746f2074686973207661756c7464656e6f6d696e61746f72206d7573742062652067726561746572207468616e206f7220657175616c20746f20746865206e756d657261746f7245524332303a207472616e7366657220616d6f756e7420657863656564732062616c616e63655468697320736d61727420636f6e747261637420686173206265656e2067726579206c69737465645661756c7420756e6465726c79696e67206d757374206d6174636820537472617465677920756e6465726c79696e67536166654d6174683a206d756c7469706c69636174696f6e206f766572666c6f7745524332303a207472616e7366657220616d6f756e74206578636565647320616c6c6f77616e6365436f6e747261637420696e7374616e63652068617320616c7265616479206265656e20696e697469616c697a65645468652073747261746567792065786973747320616e64207377697463682074696d656c6f636b20646964206e6f7420656c61707365207965746e756d6265724f66536861726573206d7573742062652067726561746572207468616e203045524332303a206275726e2066726f6d20746865207a65726f206164647265737345524332303a207472616e736665722066726f6d20746865207a65726f206164647265737345524332303a20617070726f76652066726f6d20746865207a65726f20616464726573735361666545524332303a204552433230206f7065726174696f6e20646964206e6f7420737563636565645361666545524332303a20617070726f76652066726f6d206e6f6e2d7a65726f20746f206e6f6e2d7a65726f20616c6c6f77616e636545524332303a2064656372656173656420616c6c6f77616e63652062656c6f77207a65726fa265627a7a723158207c4212dcc00102a476d6af4844ee5247dba48903827f80664fcf46d052fd00c764736f6c63430005100032656970313936372e7661756c7453746f726167652e7661756c744672616374696f6e546f496e766573744e756d657261746f72656970313936372e7661756c7453746f726167652e6e657874496d706c656d656e746174696f6e54696d657374616d70656970313936372e7661756c7453746f726167652e7661756c744672616374696f6e546f496e7665737444656e6f6d696e61746f72656970313936372e7661756c7453746f726167652e737472617465677955706461746554696d65656970313936372e7661756c7453746f726167652e737472617465677954696d654c6f636b656970313936372e7661756c7453746f726167652e6e657874496d706c656d656e746174696f6e44656c6179656970313936372e7661756c7453746f726167652e756e6465726c79696e67556e6974656970313936372e7661756c7453746f726167652e6e657874496d706c656d656e746174696f6e656970313936372e7661756c7453746f726167652e6675747572655374726174656779",
  "source": "pragma solidity 0.5.16;\n\nimport \"../../Vault.sol\";\n\ncontract VaultUpgradableSooner is Vault {\n\n  constructor() Vault() public {}\n\n  function overrideNextImplementationDelay(uint256 _nextImplementationDelay) public {\n    _setNextImplementationDelay(_nextImplementationDelay);\n  }\n}\n",
  "sourcePath": "/home/jawaher/tmp/harvest/contracts/test/upgradability/VaultUpgradableSooner.sol",
  "compiler": {
    "name": "solc",
    "version": "0.5.16+commit.9c3226ce.Emscripten.clang"
  },
  "schemaVersion": "3.2.5",
  "updatedAt": "2020-10-19T08:25:32.515Z",
  "devdoc": {
    "methods": {
      "allowance(address,address)": {
        "details": "See {IERC20-allowance}."
      },
      "approve(address,uint256)": {
        "details": "See {IERC20-approve}.     * Requirements:     * - `spender` cannot be the zero address."
      },
      "balanceOf(address)": {
        "details": "See {IERC20-balanceOf}."
      },
      "decimals()": {
        "details": "Returns the number of decimals used to get its user representation. For example, if `decimals` equals `2`, a balance of `505` tokens should be displayed to a user as `5,05` (`505 / 10 ** 2`).     * Tokens usually opt for a value of 18, imitating the relationship between Ether and Wei.     * NOTE: This information is only used for _display_ purposes: it in no way affects any of the arithmetic of the contract, including {IERC20-balanceOf} and {IERC20-transfer}."
      },
      "decreaseAllowance(address,uint256)": {
        "details": "Atomically decreases the allowance granted to `spender` by the caller.     * This is an alternative to {approve} that can be used as a mitigation for problems described in {IERC20-approve}.     * Emits an {Approval} event indicating the updated allowance.     * Requirements:     * - `spender` cannot be the zero address. - `spender` must have allowance for the caller of at least `subtractedValue`."
      },
      "increaseAllowance(address,uint256)": {
        "details": "Atomically increases the allowance granted to `spender` by the caller.     * This is an alternative to {approve} that can be used as a mitigation for problems described in {IERC20-approve}.     * Emits an {Approval} event indicating the updated allowance.     * Requirements:     * - `spender` cannot be the zero address."
      },
      "initialize(string,string,uint8)": {
        "details": "Sets the values for `name`, `symbol`, and `decimals`. All three of these values are immutable: they can only be set once during construction."
      },
      "name()": {
        "details": "Returns the name of the token."
      },
      "symbol()": {
        "details": "Returns the symbol of the token, usually a shorter version of the name."
      },
      "totalSupply()": {
        "details": "See {IERC20-totalSupply}."
      },
      "transfer(address,uint256)": {
        "details": "See {IERC20-transfer}.     * Requirements:     * - `recipient` cannot be the zero address. - the caller must have a balance of at least `amount`."
      },
      "transferFrom(address,address,uint256)": {
        "details": "See {IERC20-transferFrom}.     * Emits an {Approval} event indicating the updated allowance. This is not required by the EIP. See the note at the beginning of {ERC20};     * Requirements: - `sender` and `recipient` cannot be the zero address. - `sender` must have a balance of at least `amount`. - the caller must have allowance for `sender`'s tokens of at least `amount`."
      }
    }
  },
  "userdoc": {
    "methods": {
      "announceStrategyUpdate(address)": {
        "notice": "Indicates that the strategy update will happen in the future"
      },
      "doHardWork()": {
        "notice": "Chooses the best strategy and re-invests. If the strategy did not change, it just calls doHardWork on the current strategy. Call this through controller to claim hard rewards."
      },
      "finalizeStrategyUpdate()": {
        "notice": "Finalizes (or cancels) the strategy update by resetting the data"
      },
      "scheduleUpgrade(address)": {
        "notice": "Schedules an upgrade for this vault's proxy."
      }
    }
  }
}