{
  "contractName": "AutoStake",
  "abi": [
    {
      "inputs": [
        {
          "internalType": "address",
          "name": "_storage",
          "type": "address"
        },
        {
          "internalType": "address",
          "name": "pool",
          "type": "address"
        },
        {
          "internalType": "address",
          "name": "token",
          "type": "address"
        },
        {
          "internalType": "address",
          "name": "_greylistEscrow",
          "type": "address"
        }
      ],
      "payable": false,
      "stateMutability": "nonpayable",
      "type": "constructor"
    },
    {
      "anonymous": false,
      "inputs": [
        {
          "indexed": true,
          "internalType": "address",
          "name": "grelisted",
          "type": "address"
        },
        {
          "indexed": false,
          "internalType": "uint256",
          "name": "amount",
          "type": "uint256"
        }
      ],
      "name": "ForceGreylistExited",
      "type": "event"
    },
    {
      "anonymous": false,
      "inputs": [
        {
          "indexed": true,
          "internalType": "address",
          "name": "greylistedAddress",
          "type": "address"
        }
      ],
      "name": "SmartContractDenied",
      "type": "event"
    },
    {
      "anonymous": false,
      "inputs": [
        {
          "indexed": true,
          "internalType": "address",
          "name": "smartContractAddress",
          "type": "address"
        },
        {
          "indexed": true,
          "internalType": "address",
          "name": "smartContractInitiator",
          "type": "address"
        }
      ],
      "name": "SmartContractRecorded",
      "type": "event"
    },
    {
      "anonymous": false,
      "inputs": [
        {
          "indexed": true,
          "internalType": "address",
          "name": "user",
          "type": "address"
        },
        {
          "indexed": false,
          "internalType": "uint256",
          "name": "amount",
          "type": "uint256"
        },
        {
          "indexed": false,
          "internalType": "uint256",
          "name": "sharesIssued",
          "type": "uint256"
        },
        {
          "indexed": false,
          "internalType": "uint256",
          "name": "oldShareVaule",
          "type": "uint256"
        },
        {
          "indexed": false,
          "internalType": "uint256",
          "name": "newShareValue",
          "type": "uint256"
        },
        {
          "indexed": false,
          "internalType": "uint256",
          "name": "balanceOf",
          "type": "uint256"
        }
      ],
      "name": "Staked",
      "type": "event"
    },
    {
      "anonymous": false,
      "inputs": [
        {
          "indexed": true,
          "internalType": "address",
          "name": "user",
          "type": "address"
        },
        {
          "indexed": false,
          "internalType": "uint256",
          "name": "amount",
          "type": "uint256"
        }
      ],
      "name": "StakingDenied",
      "type": "event"
    },
    {
      "anonymous": false,
      "inputs": [
        {
          "indexed": true,
          "internalType": "address",
          "name": "user",
          "type": "address"
        },
        {
          "indexed": false,
          "internalType": "uint256",
          "name": "total",
          "type": "uint256"
        }
      ],
      "name": "Withdrawn",
      "type": "event"
    },
    {
      "constant": true,
      "inputs": [],
      "name": "controller",
      "outputs": [
        {
          "internalType": "address",
          "name": "",
          "type": "address"
        }
      ],
      "payable": false,
      "stateMutability": "view",
      "type": "function"
    },
    {
      "constant": true,
      "inputs": [],
      "name": "governance",
      "outputs": [
        {
          "internalType": "address",
          "name": "",
          "type": "address"
        }
      ],
      "payable": false,
      "stateMutability": "view",
      "type": "function"
    },
    {
      "constant": true,
      "inputs": [],
      "name": "greylistEscrow",
      "outputs": [
        {
          "internalType": "address",
          "name": "",
          "type": "address"
        }
      ],
      "payable": false,
      "stateMutability": "view",
      "type": "function"
    },
    {
      "constant": true,
      "inputs": [],
      "name": "lpToken",
      "outputs": [
        {
          "internalType": "contract IERC20",
          "name": "",
          "type": "address"
        }
      ],
      "payable": false,
      "stateMutability": "view",
      "type": "function"
    },
    {
      "constant": true,
      "inputs": [],
      "name": "rewardPool",
      "outputs": [
        {
          "internalType": "contract NoMintRewardPool",
          "name": "",
          "type": "address"
        }
      ],
      "payable": false,
      "stateMutability": "view",
      "type": "function"
    },
    {
      "constant": false,
      "inputs": [
        {
          "internalType": "address",
          "name": "_store",
          "type": "address"
        }
      ],
      "name": "setStorage",
      "outputs": [],
      "payable": false,
      "stateMutability": "nonpayable",
      "type": "function"
    },
    {
      "constant": true,
      "inputs": [
        {
          "internalType": "address",
          "name": "",
          "type": "address"
        }
      ],
      "name": "share",
      "outputs": [
        {
          "internalType": "uint256",
          "name": "",
          "type": "uint256"
        }
      ],
      "payable": false,
      "stateMutability": "view",
      "type": "function"
    },
    {
      "constant": true,
      "inputs": [],
      "name": "store",
      "outputs": [
        {
          "internalType": "contract Storage",
          "name": "",
          "type": "address"
        }
      ],
      "payable": false,
      "stateMutability": "view",
      "type": "function"
    },
    {
      "constant": true,
      "inputs": [],
      "name": "totalShares",
      "outputs": [
        {
          "internalType": "uint256",
          "name": "",
          "type": "uint256"
        }
      ],
      "payable": false,
      "stateMutability": "view",
      "type": "function"
    },
    {
      "constant": true,
      "inputs": [],
      "name": "totalValue",
      "outputs": [
        {
          "internalType": "uint256",
          "name": "",
          "type": "uint256"
        }
      ],
      "payable": false,
      "stateMutability": "view",
      "type": "function"
    },
    {
      "constant": true,
      "inputs": [],
      "name": "unit",
      "outputs": [
        {
          "internalType": "uint256",
          "name": "",
          "type": "uint256"
        }
      ],
      "payable": false,
      "stateMutability": "view",
      "type": "function"
    },
    {
      "constant": true,
      "inputs": [],
      "name": "valuePerShare",
      "outputs": [
        {
          "internalType": "uint256",
          "name": "",
          "type": "uint256"
        }
      ],
      "payable": false,
      "stateMutability": "view",
      "type": "function"
    },
    {
      "constant": false,
      "inputs": [
        {
          "internalType": "address",
          "name": "_greylistEscrow",
          "type": "address"
        }
      ],
      "name": "setGreylistEscrow",
      "outputs": [],
      "payable": false,
      "stateMutability": "nonpayable",
      "type": "function"
    },
    {
      "constant": false,
      "inputs": [],
      "name": "refreshAutoStake",
      "outputs": [],
      "payable": false,
      "stateMutability": "nonpayable",
      "type": "function"
    },
    {
      "constant": false,
      "inputs": [
        {
          "internalType": "uint256",
          "name": "amount",
          "type": "uint256"
        }
      ],
      "name": "stake",
      "outputs": [],
      "payable": false,
      "stateMutability": "nonpayable",
      "type": "function"
    },
    {
      "constant": false,
      "inputs": [],
      "name": "exit",
      "outputs": [],
      "payable": false,
      "stateMutability": "nonpayable",
      "type": "function"
    },
    {
      "constant": false,
      "inputs": [
        {
          "internalType": "address",
          "name": "greyListed",
          "type": "address"
        }
      ],
      "name": "forceGreyListedExit",
      "outputs": [],
      "payable": false,
      "stateMutability": "nonpayable",
      "type": "function"
    },
    {
      "constant": true,
      "inputs": [
        {
          "internalType": "address",
          "name": "who",
          "type": "address"
        }
      ],
      "name": "balanceOf",
      "outputs": [
        {
          "internalType": "uint256",
          "name": "",
          "type": "uint256"
        }
      ],
      "payable": false,
      "stateMutability": "view",
      "type": "function"
    }
  ],
  "bytecode": "0x6080604052670de0b6b3a76400006003556003546004556000600555600060065534801561002c57600080fd5b506040516117233803806117238339818101604052608081101561004f57600080fd5b508051602082015160408301516060909301519192909183806001600160a01b0381166100c3576040805162461bcd60e51b815260206004820152601e60248201527f6e65772073746f726167652073686f756c646e277420626520656d7074790000604482015290519081900360640190fd5b600080546001600160a01b03199081166001600160a01b03938416178255600180548216978416979097179096556002805487169583169590951790945560088054909516921691909117909255611600925082915061012390396000f3fe608060405234801561001057600080fd5b50600436106101165760003560e01c80639137c1a7116100a2578063c0a239e311610071578063c0a239e314610240578063d4c3eea014610248578063e9fad8ee14610250578063f4ff64c314610258578063f77c47911461027e57610116565b80639137c1a7146101ed578063975057e714610213578063a694fc3a1461021b578063b540652e1461023857610116565b80635fcbd285116100e95780635fcbd2851461018757806366666aa91461018f57806370a0823114610197578063906a397d146101bd578063907af6c0146101e557610116565b80631877bb5c1461011b5780633a98ef391461015357806354fa9b251461015b5780635aa6e6751461017f575b600080fd5b6101416004803603602081101561013157600080fd5b50356001600160a01b0316610286565b60408051918252519081900360200190f35b610141610298565b61016361029e565b604080516001600160a01b039092168252519081900360200190f35b6101636102ad565b61016361032d565b61016361033c565b610141600480360360208110156101ad57600080fd5b50356001600160a01b031661034b565b6101e3600480360360208110156101d357600080fd5b50356001600160a01b0316610394565b005b6101416104cb565b6101e36004803603602081101561020357600080fd5b50356001600160a01b03166104d1565b610163610607565b6101e36004803603602081101561023157600080fd5b5035610616565b6101e36107ba565b6101416107d4565b6101416107da565b6101e36107e0565b6101e36004803603602081101561026e57600080fd5b50356001600160a01b03166108d6565b610163610aa6565b60076020526000908152604090205481565b60055481565b6008546001600160a01b031681565b60008060009054906101000a90046001600160a01b03166001600160a01b0316635aa6e6756040518163ffffffff1660e01b815260040160206040518083038186803b1580156102fc57600080fd5b505afa158015610310573d6000803e3d6000fd5b505050506040513d602081101561032657600080fd5b5051905090565b6002546001600160a01b031681565b6001546001600160a01b031681565b6003546001600160a01b038216600090815260076020526040812054600454919261038e929091610382919063ffffffff610af516565b9063ffffffff610b5516565b92915050565b600054604080516337b87c3960e21b815233600482015290516001600160a01b039092169163dee1f0e491602480820192602092909190829003018186803b1580156103df57600080fd5b505afa1580156103f3573d6000803e3d6000fd5b505050506040513d602081101561040957600080fd5b505161044d576040805162461bcd60e51b815260206004820152600e60248201526d4e6f7420676f7665726e616e636560901b604482015290519081900360640190fd5b6001600160a01b038116156104a9576040805162461bcd60e51b815260206004820152601e60248201527f657363726f772063616e6e6f7420626520656d70747920616464726573730000604482015290519081900360640190fd5b600880546001600160a01b0319166001600160a01b0392909216919091179055565b60035481565b600054604080516337b87c3960e21b815233600482015290516001600160a01b039092169163dee1f0e491602480820192602092909190829003018186803b15801561051c57600080fd5b505afa158015610530573d6000803e3d6000fd5b505050506040513d602081101561054657600080fd5b505161058a576040805162461bcd60e51b815260206004820152600e60248201526d4e6f7420676f7665726e616e636560901b604482015290519081900360640190fd5b6001600160a01b0381166105e5576040805162461bcd60e51b815260206004820152601e60248201527f6e65772073746f726167652073686f756c646e277420626520656d7074790000604482015290519081900360640190fd5b600080546001600160a01b0319166001600160a01b0392909216919091179055565b6000546001600160a01b031681565b61061e610b97565b610626610c7d565b3233146106705733600081815260096020526040808220805460ff19166001179055513292917f70da7b97c021a1e9d5c080587a8ecf9eae97ef5f9bc39e1ac9bfc054104e9e0691a35b61067933610d2e565b156106b95760408051828152905133917f8534c36eb5138fbd97b21b177423caf9dbbb77468a91ffe5c40f7112b06e5d9e919081900360200190a26107af565b6002546106d7906001600160a01b031633308463ffffffff610de216565b60006106f460045461038260035485610af590919063ffffffff16565b60055490915061070a908263ffffffff610e3c16565b6005553360009081526007602052604090205461072d908263ffffffff610e3c16565b33600090815260076020526040902055600454610748610c7d565b336001600160a01b03167f6381ea17a5324d29cc015352644672ead5185c1c61a0d3a521eda97e35cec97e8484846004546107823361034b565b6040805195865260208601949094528484019290925260608401526080830152519081900360a00190a250505b6107b7610e96565b50565b6107c2610b97565b6107ca610c7d565b6107d2610e96565b565b60045481565b60065481565b6107e8610b97565b6107f0610c7d565b6107f933610d2e565b1561082e5760405133907f4bc6394fa32e66e0212dedb00dde8d1e32f233b0a398952a84dd95930f56c9de90600090a26107ca565b60006108393361034b565b600254909150610859906001600160a01b0316338363ffffffff61108d16565b3360009081526007602052604090205460055461087b9163ffffffff6110e416565b60055533600081815260076020908152604080832092909255815184815291517f7084f5476618d8e60b11ef0d7d3f06914655adb8793e28ff7f018d4c76d505d59281900390910190a26108cd610c7d565b506107d2610e96565b600054604080516337b87c3960e21b815233600482015290516001600160a01b039092169163dee1f0e491602480820192602092909190829003018186803b15801561092157600080fd5b505afa158015610935573d6000803e3d6000fd5b505050506040513d602081101561094b57600080fd5b505161098f576040805162461bcd60e51b815260206004820152600e60248201526d4e6f7420676f7665726e616e636560901b604482015290519081900360640190fd5b61099881610d2e565b6109d35760405162461bcd60e51b81526004018080602001828103825260218152602001806115756021913960400191505060405180910390fd5b6109db610b97565b6109e3610c7d565b60006109ee8261034b565b600854600254919250610a14916001600160a01b0390811691168363ffffffff61108d16565b6001600160a01b038216600090815260076020526040902054600554610a3f9163ffffffff6110e416565b6005556001600160a01b038216600081815260076020908152604080832092909255815184815291517ffdea438d520d62b10e952801cabbc6230ed26b93327317afa464ea2a73c383089281900390910190a2610a9a610c7d565b610aa2610e96565b5050565b60008060009054906101000a90046001600160a01b03166001600160a01b031663f77c47916040518163ffffffff1660e01b815260040160206040518083038186803b1580156102fc57600080fd5b600082610b045750600061038e565b82820282848281610b1157fe5b0414610b4e5760405162461bcd60e51b815260040180806020018281038252602181526020018061152a6021913960400191505060405180910390fd5b9392505050565b6000610b4e83836040518060400160405280601a81526020017f536166654d6174683a206469766973696f6e206279207a65726f000000000000815250611126565b600154604080516370a0823160e01b815230600482015290516001600160a01b03909216916370a0823191602480820192602092909190829003018186803b158015610be257600080fd5b505afa158015610bf6573d6000803e3d6000fd5b505050506040513d6020811015610c0c57600080fd5b5051156107d257600160009054906101000a90046001600160a01b03166001600160a01b031663e9fad8ee6040518163ffffffff1660e01b8152600401600060405180830381600087803b158015610c6357600080fd5b505af1158015610c77573d6000803e3d6000fd5b50505050565b600554610c945760006006556003546004556107d2565b600254604080516370a0823160e01b815230600482015290516001600160a01b03909216916370a0823191602480820192602092909190829003018186803b158015610cdf57600080fd5b505afa158015610cf3573d6000803e3d6000fd5b505050506040513d6020811015610d0957600080fd5b50516006819055600554600354610d29926103829163ffffffff610af516565b600455565b6001600160a01b03811660009081526009602052604081205460ff16801561038e5750610d59610aa6565b6001600160a01b03166330e412ad836040518263ffffffff1660e01b815260040180826001600160a01b03166001600160a01b03168152602001915050602060405180830381600087803b158015610db057600080fd5b505af1158015610dc4573d6000803e3d6000fd5b505050506040513d6020811015610dda57600080fd5b505192915050565b604080516001600160a01b0385811660248301528416604482015260648082018490528251808303909101815260849091019091526020810180516001600160e01b03166323b872dd60e01b179052610c779085906111c8565b600082820183811015610b4e576040805162461bcd60e51b815260206004820152601b60248201527f536166654d6174683a206164646974696f6e206f766572666c6f770000000000604482015290519081900360640190fd5b600254604080516370a0823160e01b815230600482015290516001600160a01b03909216916370a0823191602480820192602092909190829003018186803b158015610ee157600080fd5b505afa158015610ef5573d6000803e3d6000fd5b505050506040513d6020811015610f0b57600080fd5b5051156107d257600154600254610f36916001600160a01b039182169116600063ffffffff61138016565b600154600254604080516370a0823160e01b81523060048201529051610fce936001600160a01b039081169316916370a08231916024808301926020929190829003018186803b158015610f8957600080fd5b505afa158015610f9d573d6000803e3d6000fd5b505050506040513d6020811015610fb357600080fd5b50516002546001600160a01b0316919063ffffffff61138016565b600154600254604080516370a0823160e01b815230600482015290516001600160a01b039384169363a694fc3a9316916370a08231916024808301926020929190829003018186803b15801561102357600080fd5b505afa158015611037573d6000803e3d6000fd5b505050506040513d602081101561104d57600080fd5b5051604080516001600160e01b031960e085901b168152600481019290925251602480830192600092919082900301818387803b158015610c6357600080fd5b604080516001600160a01b038416602482015260448082018490528251808303909101815260649091019091526020810180516001600160e01b031663a9059cbb60e01b1790526110df9084906111c8565b505050565b6000610b4e83836040518060400160405280601e81526020017f536166654d6174683a207375627472616374696f6e206f766572666c6f770000815250611493565b600081836111b25760405162461bcd60e51b81526004018080602001828103825283818151815260200191508051906020019080838360005b8381101561117757818101518382015260200161115f565b50505050905090810190601f1680156111a45780820380516001836020036101000a031916815260200191505b509250505060405180910390fd5b5060008385816111be57fe5b0495945050505050565b6111da826001600160a01b03166114ed565b61122b576040805162461bcd60e51b815260206004820152601f60248201527f5361666545524332303a2063616c6c20746f206e6f6e2d636f6e747261637400604482015290519081900360640190fd5b60006060836001600160a01b0316836040518082805190602001908083835b602083106112695780518252601f19909201916020918201910161124a565b6001836020036101000a0380198251168184511680821785525050505050509050019150506000604051808303816000865af19150503d80600081146112cb576040519150601f19603f3d011682016040523d82523d6000602084013e6112d0565b606091505b509150915081611327576040805162461bcd60e51b815260206004820181905260248201527f5361666545524332303a206c6f772d6c6576656c2063616c6c206661696c6564604482015290519081900360640190fd5b805115610c775780806020019051602081101561134357600080fd5b5051610c775760405162461bcd60e51b815260040180806020018281038252602a81526020018061154b602a913960400191505060405180910390fd5b801580611406575060408051636eb1769f60e11b81523060048201526001600160a01b03848116602483015291519185169163dd62ed3e91604480820192602092909190829003018186803b1580156113d857600080fd5b505afa1580156113ec573d6000803e3d6000fd5b505050506040513d602081101561140257600080fd5b5051155b6114415760405162461bcd60e51b81526004018080602001828103825260368152602001806115966036913960400191505060405180910390fd5b604080516001600160a01b038416602482015260448082018490528251808303909101815260649091019091526020810180516001600160e01b031663095ea7b360e01b1790526110df9084906111c8565b600081848411156114e55760405162461bcd60e51b815260206004820181815283516024840152835190928392604490910191908501908083836000831561117757818101518382015260200161115f565b505050900390565b6000813f7fc5d2460186f7233c927e7db2dcc703c0e500b653ca82273b7bfad8045d85a47081158015906115215750808214155b94935050505056fe536166654d6174683a206d756c7469706c69636174696f6e206f766572666c6f775361666545524332303a204552433230206f7065726174696f6e20646964206e6f74207375636365656463616e206f6e6c7920666f7263652065786974206120677265796c69737465642e5361666545524332303a20617070726f76652066726f6d206e6f6e2d7a65726f20746f206e6f6e2d7a65726f20616c6c6f77616e6365a265627a7a723158204361049122a5bd146363f66f2c88b47d50d6cb0443a79e5802160a381ad6a0b764736f6c63430005100032",
  "source": "pragma solidity 0.5.16;\n\nimport \"./RewardPool.sol\";\nimport \"./Controllable.sol\";\n\ncontract AutoStake is Controllable {\n\n  using SafeERC20 for IERC20;\n  using SafeMath for uint256;\n\n  NoMintRewardPool public rewardPool;\n  IERC20 public lpToken;\n  uint256 public unit = 1e18;\n  uint256 public valuePerShare = unit;\n  uint256 public totalShares = 0;\n  uint256 public totalValue = 0;\n  mapping(address => uint256) public share;\n\n  address public greylistEscrow;\n  mapping (address => bool) smartContractStakers;\n\n  event Staked(address indexed user, uint256 amount, uint256 sharesIssued, uint256 oldShareVaule, uint256 newShareValue, uint256 balanceOf);\n  event StakingDenied(address indexed user, uint256 amount);\n  event Withdrawn(address indexed user, uint256 total);\n  event SmartContractDenied(address indexed greylistedAddress);\n  event ForceGreylistExited(address indexed grelisted , uint256 amount);\n\n  event SmartContractRecorded(address indexed smartContractAddress, address indexed smartContractInitiator);\n\n  constructor(address _storage, address pool, address token, address _greylistEscrow) public\n  Controllable(_storage)\n  {\n    rewardPool = NoMintRewardPool(pool);\n    lpToken = IERC20(token);\n    greylistEscrow = _greylistEscrow;\n  }\n\n  function setGreylistEscrow(address _greylistEscrow) external onlyGovernance {\n    require(_greylistEscrow == address(0), \"escrow cannot be empty address\");\n    greylistEscrow = _greylistEscrow;\n  }\n\n  function refreshAutoStake() external {\n    exitRewardPool();\n    updateValuePerShare();\n    restakeIntoRewardPool();\n  }\n\n  function stake(uint256 amount) public {\n    exitRewardPool();\n    updateValuePerShare();\n\n    if(tx.origin != msg.sender) {\n      smartContractStakers[msg.sender] = true;\n      emit SmartContractRecorded(msg.sender, tx.origin);\n    }\n\n    if(isGreylisted(msg.sender)){\n      emit StakingDenied(msg.sender, amount);\n    } else {\n      // now we can issue shares\n      lpToken.safeTransferFrom(msg.sender, address(this), amount);\n      uint256 sharesToIssue = amount.mul(unit).div(valuePerShare);\n      totalShares = totalShares.add(sharesToIssue);\n      share[msg.sender] = share[msg.sender].add(sharesToIssue);\n\n      uint256 oldValuePerShare = valuePerShare;\n\n      // Rate needs to be updated here, otherwise the valuePerShare would be incorrect.\n      updateValuePerShare();\n\n      emit Staked(msg.sender, amount, sharesToIssue, oldValuePerShare, valuePerShare, balanceOf(msg.sender));\n    }\n\n    restakeIntoRewardPool();\n  }\n\n  function exit() public {\n    exitRewardPool();\n    updateValuePerShare();\n\n    // If it is a normal user and not smart contract,\n    // then the requirement will always pass\n    // If it is a smart contract, then\n    // make sure that it is not on our greyList.\n    if (isGreylisted(msg.sender)) {\n      // only Smart contracts can be denied\n      emit SmartContractDenied(msg.sender);\n    } else {\n      // now we can transfer funds and burn shares\n      uint256 toTransfer = balanceOf(msg.sender);\n      lpToken.safeTransfer(msg.sender, toTransfer);\n      totalShares = totalShares.sub(share[msg.sender]);\n      share[msg.sender] = 0;\n      emit Withdrawn(msg.sender, toTransfer);\n      // Rate needs to be updated here, otherwise the valuePerShare would be incorrect.\n      updateValuePerShare();\n    }\n\n    restakeIntoRewardPool();\n  }\n\n  function forceGreyListedExit(address greyListed) external onlyGovernance {\n    require(isGreylisted(greyListed), \"can only force exit a greylisted.\");\n    exitRewardPool();\n    updateValuePerShare();\n\n    uint256 toTransfer = balanceOf(greyListed);\n    lpToken.safeTransfer(greylistEscrow, toTransfer);\n    totalShares = totalShares.sub(share[greyListed]);\n    share[greyListed] = 0;\n    emit ForceGreylistExited(greyListed, toTransfer);\n\n    updateValuePerShare();\n    restakeIntoRewardPool();\n  }\n\n  function balanceOf(address who) public view returns(uint256) {\n    return valuePerShare.mul(share[who]).div(unit);\n  }\n\n  function updateValuePerShare() internal {\n    if (totalShares == 0) {\n      totalValue = 0;\n      valuePerShare = unit;\n    } else {\n      totalValue = lpToken.balanceOf(address(this));\n      valuePerShare = totalValue.mul(unit).div(totalShares);\n    }\n  }\n\n  function exitRewardPool() internal {\n    if(rewardPool.balanceOf(address(this)) != 0){\n      // exit and do accounting first\n      rewardPool.exit();\n    }\n  }\n\n  function restakeIntoRewardPool() internal {\n    if(lpToken.balanceOf(address(this)) != 0){\n      // stake back to the pool\n      lpToken.safeApprove(address(rewardPool), 0);\n      lpToken.safeApprove(address(rewardPool), lpToken.balanceOf(address(this)));\n      rewardPool.stake(lpToken.balanceOf(address(this)));\n    }\n  }\n\n  function isGreylisted(address _target) internal  returns (bool) {\n    return (smartContractStakers[_target] && IController(controller()).greyList(_target));\n  }\n}\n",
  "sourcePath": "/home/jawaher/tmp/harvest/contracts/AutoStake.sol",
  "compiler": {
    "name": "solc",
    "version": "0.5.16+commit.9c3226ce.Emscripten.clang"
  },
  "schemaVersion": "3.2.5",
  "updatedAt": "2020-10-19T08:25:31.991Z",
  "devdoc": {
    "methods": {}
  },
  "userdoc": {
    "methods": {}
  }
}