{
  "contractName": "CRVStrategyStableMainnet",
  "abi": [
    {
      "inputs": [
        {
          "internalType": "address",
          "name": "_storage",
          "type": "address"
        },
        {
          "internalType": "address",
          "name": "_underlying",
          "type": "address"
        },
        {
          "internalType": "address",
          "name": "_vault",
          "type": "address"
        },
        {
          "internalType": "address",
          "name": "_ycrvVault",
          "type": "address"
        }
      ],
      "payable": false,
      "stateMutability": "nonpayable",
      "type": "constructor"
    },
    {
      "constant": true,
      "inputs": [],
      "name": "__curve",
      "outputs": [
        {
          "internalType": "address",
          "name": "",
          "type": "address"
        }
      ],
      "payable": false,
      "stateMutability": "view",
      "type": "function"
    },
    {
      "constant": true,
      "inputs": [],
      "name": "__ycrv",
      "outputs": [
        {
          "internalType": "address",
          "name": "",
          "type": "address"
        }
      ],
      "payable": false,
      "stateMutability": "view",
      "type": "function"
    },
    {
      "constant": true,
      "inputs": [],
      "name": "arbTolerance",
      "outputs": [
        {
          "internalType": "uint256",
          "name": "",
          "type": "uint256"
        }
      ],
      "payable": false,
      "stateMutability": "view",
      "type": "function"
    },
    {
      "constant": true,
      "inputs": [],
      "name": "controller",
      "outputs": [
        {
          "internalType": "address",
          "name": "",
          "type": "address"
        }
      ],
      "payable": false,
      "stateMutability": "view",
      "type": "function"
    },
    {
      "constant": true,
      "inputs": [],
      "name": "convertor",
      "outputs": [
        {
          "internalType": "address",
          "name": "",
          "type": "address"
        }
      ],
      "payable": false,
      "stateMutability": "view",
      "type": "function"
    },
    {
      "constant": true,
      "inputs": [],
      "name": "curve",
      "outputs": [
        {
          "internalType": "address",
          "name": "",
          "type": "address"
        }
      ],
      "payable": false,
      "stateMutability": "view",
      "type": "function"
    },
    {
      "constant": true,
      "inputs": [],
      "name": "curvePriceCheckpoint",
      "outputs": [
        {
          "internalType": "uint256",
          "name": "",
          "type": "uint256"
        }
      ],
      "payable": false,
      "stateMutability": "view",
      "type": "function"
    },
    {
      "constant": true,
      "inputs": [],
      "name": "dai",
      "outputs": [
        {
          "internalType": "address",
          "name": "",
          "type": "address"
        }
      ],
      "payable": false,
      "stateMutability": "view",
      "type": "function"
    },
    {
      "constant": true,
      "inputs": [],
      "name": "depositArbCheck",
      "outputs": [
        {
          "internalType": "bool",
          "name": "",
          "type": "bool"
        }
      ],
      "payable": false,
      "stateMutability": "view",
      "type": "function"
    },
    {
      "constant": false,
      "inputs": [],
      "name": "doHardWork",
      "outputs": [],
      "payable": false,
      "stateMutability": "nonpayable",
      "type": "function"
    },
    {
      "constant": true,
      "inputs": [],
      "name": "governance",
      "outputs": [
        {
          "internalType": "address",
          "name": "",
          "type": "address"
        }
      ],
      "payable": false,
      "stateMutability": "view",
      "type": "function"
    },
    {
      "constant": true,
      "inputs": [],
      "name": "investedUnderlyingBalance",
      "outputs": [
        {
          "internalType": "uint256",
          "name": "",
          "type": "uint256"
        }
      ],
      "payable": false,
      "stateMutability": "view",
      "type": "function"
    },
    {
      "constant": false,
      "inputs": [
        {
          "internalType": "address",
          "name": "recipient",
          "type": "address"
        },
        {
          "internalType": "address",
          "name": "token",
          "type": "address"
        },
        {
          "internalType": "uint256",
          "name": "amount",
          "type": "uint256"
        }
      ],
      "name": "salvage",
      "outputs": [],
      "payable": false,
      "stateMutability": "nonpayable",
      "type": "function"
    },
    {
      "constant": false,
      "inputs": [
        {
          "internalType": "uint256",
          "name": "tolerance",
          "type": "uint256"
        }
      ],
      "name": "setArbTolerance",
      "outputs": [],
      "payable": false,
      "stateMutability": "nonpayable",
      "type": "function"
    },
    {
      "constant": false,
      "inputs": [
        {
          "internalType": "address",
          "name": "_convertor",
          "type": "address"
        }
      ],
      "name": "setConvertor",
      "outputs": [],
      "payable": false,
      "stateMutability": "nonpayable",
      "type": "function"
    },
    {
      "constant": false,
      "inputs": [
        {
          "internalType": "address",
          "name": "_store",
          "type": "address"
        }
      ],
      "name": "setStorage",
      "outputs": [],
      "payable": false,
      "stateMutability": "nonpayable",
      "type": "function"
    },
    {
      "constant": true,
      "inputs": [],
      "name": "store",
      "outputs": [
        {
          "internalType": "contract Storage",
          "name": "",
          "type": "address"
        }
      ],
      "payable": false,
      "stateMutability": "view",
      "type": "function"
    },
    {
      "constant": true,
      "inputs": [],
      "name": "underlying",
      "outputs": [
        {
          "internalType": "address",
          "name": "",
          "type": "address"
        }
      ],
      "payable": false,
      "stateMutability": "view",
      "type": "function"
    },
    {
      "constant": true,
      "inputs": [
        {
          "internalType": "uint256",
          "name": "ycrvBalance",
          "type": "uint256"
        }
      ],
      "name": "underlyingValueFromYCrv",
      "outputs": [
        {
          "internalType": "uint256",
          "name": "",
          "type": "uint256"
        }
      ],
      "payable": false,
      "stateMutability": "view",
      "type": "function"
    },
    {
      "constant": true,
      "inputs": [
        {
          "internalType": "address",
          "name": "",
          "type": "address"
        }
      ],
      "name": "unsalvagableTokens",
      "outputs": [
        {
          "internalType": "bool",
          "name": "",
          "type": "bool"
        }
      ],
      "payable": false,
      "stateMutability": "view",
      "type": "function"
    },
    {
      "constant": true,
      "inputs": [],
      "name": "usdc",
      "outputs": [
        {
          "internalType": "address",
          "name": "",
          "type": "address"
        }
      ],
      "payable": false,
      "stateMutability": "view",
      "type": "function"
    },
    {
      "constant": true,
      "inputs": [],
      "name": "usdt",
      "outputs": [
        {
          "internalType": "address",
          "name": "",
          "type": "address"
        }
      ],
      "payable": false,
      "stateMutability": "view",
      "type": "function"
    },
    {
      "constant": true,
      "inputs": [],
      "name": "vault",
      "outputs": [
        {
          "internalType": "address",
          "name": "",
          "type": "address"
        }
      ],
      "payable": false,
      "stateMutability": "view",
      "type": "function"
    },
    {
      "constant": false,
      "inputs": [],
      "name": "withdrawAllToVault",
      "outputs": [],
      "payable": false,
      "stateMutability": "nonpayable",
      "type": "function"
    },
    {
      "constant": false,
      "inputs": [
        {
          "internalType": "uint256",
          "name": "amountUnderlying",
          "type": "uint256"
        }
      ],
      "name": "withdrawToVault",
      "outputs": [],
      "payable": false,
      "stateMutability": "nonpayable",
      "type": "function"
    },
    {
      "constant": true,
      "inputs": [
        {
          "internalType": "uint256",
          "name": "amountUnderlying",
          "type": "uint256"
        }
      ],
      "name": "yTokenValueFromUnderlying",
      "outputs": [
        {
          "internalType": "uint256",
          "name": "",
          "type": "uint256"
        }
      ],
      "payable": false,
      "stateMutability": "view",
      "type": "function"
    },
    {
      "constant": true,
      "inputs": [
        {
          "internalType": "uint256",
          "name": "ycrvBalance",
          "type": "uint256"
        }
      ],
      "name": "yTokenValueFromYCrv",
      "outputs": [
        {
          "internalType": "uint256",
          "name": "",
          "type": "uint256"
        }
      ],
      "payable": false,
      "stateMutability": "view",
      "type": "function"
    },
    {
      "constant": true,
      "inputs": [],
      "name": "yVault",
      "outputs": [
        {
          "internalType": "address",
          "name": "",
          "type": "address"
        }
      ],
      "payable": false,
      "stateMutability": "view",
      "type": "function"
    },
    {
      "constant": true,
      "inputs": [
        {
          "internalType": "address",
          "name": "",
          "type": "address"
        }
      ],
      "name": "yVaults",
      "outputs": [
        {
          "internalType": "address",
          "name": "",
          "type": "address"
        }
      ],
      "payable": false,
      "stateMutability": "view",
      "type": "function"
    },
    {
      "constant": true,
      "inputs": [],
      "name": "ycrv",
      "outputs": [
        {
          "internalType": "address",
          "name": "",
          "type": "address"
        }
      ],
      "payable": false,
      "stateMutability": "view",
      "type": "function"
    },
    {
      "constant": true,
      "inputs": [],
      "name": "ycrvUnit",
      "outputs": [
        {
          "internalType": "uint256",
          "name": "",
          "type": "uint256"
        }
      ],
      "payable": false,
      "stateMutability": "view",
      "type": "function"
    },
    {
      "constant": true,
      "inputs": [],
      "name": "ycrvVault",
      "outputs": [
        {
          "internalType": "address",
          "name": "",
          "type": "address"
        }
      ],
      "payable": false,
      "stateMutability": "view",
      "type": "function"
    },
    {
      "constant": true,
      "inputs": [],
      "name": "ydai",
      "outputs": [
        {
          "internalType": "address",
          "name": "",
          "type": "address"
        }
      ],
      "payable": false,
      "stateMutability": "view",
      "type": "function"
    },
    {
      "constant": true,
      "inputs": [],
      "name": "yusdc",
      "outputs": [
        {
          "internalType": "address",
          "name": "",
          "type": "address"
        }
      ],
      "payable": false,
      "stateMutability": "view",
      "type": "function"
    },
    {
      "constant": true,
      "inputs": [],
      "name": "yusdt",
      "outputs": [
        {
          "internalType": "address",
          "name": "",
          "type": "address"
        }
      ],
      "payable": false,
      "stateMutability": "view",
      "type": "function"
    }
  ],
  "bytecode": "0x60806040526003600b553480156200001657600080fd5b506040516200298838038062002988833981810160405260808110156200003c57600080fd5b50805160208201516040830151606090930151919290918383838360008073df5e0e81dff6faf3a7e52ba697820c5e32d806a87345f783cce6b7ff23b2ab2d70e416cdb7d6055f518288806001600160a01b038116620000e3576040805162461bcd60e51b815260206004820152601e60248201527f6e65772073746f726167652073686f756c646e277420626520656d7074790000604482015290519081900360640190fd5b600080546001600160a01b03199081166001600160a01b03938416179091556002805482168b84161781556004805483168b851617905560018054909216928c169290921790558591508111156200013757fe5b6001805460ff60a01b1916600160a01b8360028111156200015457fe5b0217905550600380546001600160a01b03199081166001600160a01b0397881617825560058054821695881695909517855560068054821694881694909417909355600780548416928716929092179091556001805486166000908152600860209081526040808320805460ff19908116861790915585548a168452818420805482168617905596548916835280832080548816851790556004548916835280832080549097168417909655670de0b6b3a7640000600a819055600955600c90527f14a1ccc34a218c33b9764e1648da40d1dd4ed8a669d22dbcf73a39d4e387502580547316de59092dae5ccf4a1e6439d611fd0653f0bd019086161790557fd4307c4df3a1a7bd73feba87577d2ce66df940871b95fbc31281f117c6125cd3805473d6ad7a6750a7593e092a9b218d66c0a814a3436e9086161790557f6c4d0f1e0708ad02ac3a27dfcfa04a36b3c842270fff3f1bb10128d3c91c128c80547383f798e925bcd4017eb265844fddabb448f1707d9086161790559054861681529290922054825490851691161790819055909116151594506200032f93505050505760405162461bcd60e51b815260040180806020018281038252602f81526020018062002959602f913960400191505060405180910390fd5b6001600160a01b038316736b175474e89094c44da98b954eedeac495271d0f14156200037657600180546000919060ff60a01b1916600160a01b835b021790555062000443565b6001600160a01b03831673a0b86991c6218b36c1d19d4a2e9eb0ce3606eb481415620003b55760018054819060ff60a01b1916600160a01b826200036b565b6001600160a01b03831673dac17f958d2ee523a2206206994597c13d831ec71415620003f657600180546002919060ff60a01b1916600160a01b836200036b565b6040805162461bcd60e51b815260206004820152601360248201527f5768617420697320746869732061737365743f00000000000000000000000000604482015290519081900360640190fd5b60405162000451906200054c565b604051809103906000f0801580156200046e573d6000803e3d6000fd5b50600780546001600160a01b0319166001600160a01b0392909216919091179055600a546200049d90620004ab565b600955506200055a92505050565b6007546001546000916001600160a01b031690638c92b130908490600160a01b900460ff166002811115620004dc57fe5b6040518363ffffffff1660e01b8152600401808381526020018281526020019250505060206040518083038186803b1580156200051857600080fd5b505afa1580156200052d573d6000803e3d6000fd5b505050506040513d60208110156200054457600080fd5b505192915050565b6101aa80620027af83390190565b612245806200056a6000396000f3fe608060405234801561001057600080fd5b50600436106102115760003560e01c80637165485d11610125578063bfa65d17116100ad578063dfb84f651161007c578063dfb84f6514610444578063f4b9fa751461044c578063f77c479114610454578063f9137fcd1461045c578063fbfa77cf1461047957610211565b8063bfa65d171461040f578063bfd131f114610417578063c2a2a07b1461041f578063ce8c42e81461042757610211565b8063975057e7116100f4578063975057e7146103d25780639da1f330146103da578063a47406f0146103e2578063a950eec2146103ea578063b50303061461040757610211565b80637165485d146103585780638335fc21146103605780639137c1a71461038657806395ed7da3146103ac57610211565b806333303f8e116101a857806345d01e4a1161017757806345d01e4a146102fe5780634fa5d85414610306578063501859461461030e5780635aa6e675146103485780636f307dc31461035057610211565b806333303f8e146102de578063366cd4f3146102e65780633a7087e0146102ee5780633e413bee146102f657610211565b8063269a08d5116101e4578063269a08d5146102945780632e3f1474146102b15780632f48ab7d146102ce57806332bd678f146102d657610211565b80630240c3e9146102165780631113ef521461023a57806317e3a3d5146102725780631c13e96e1461027a575b600080fd5b61021e610481565b604080516001600160a01b039092168252519081900360200190f35b6102706004803603606081101561025057600080fd5b506001600160a01b03813581169160208101359091169060400135610499565b005b61021e6105c9565b6102826105d8565b60408051918252519081900360200190f35b610282600480360360208110156102aa57600080fd5b50356105de565b610270600480360360208110156102c757600080fd5b5035610690565b61021e610792565b61021e6107aa565b61021e6107c2565b61021e6107d1565b61021e6107e9565b61021e610801565b610282610819565b6102706109cd565b6103346004803603602081101561032457600080fd5b50356001600160a01b0316610a74565b604080519115158252519081900360200190f35b61021e610a89565b61021e610b09565b61021e610b18565b6102706004803603602081101561037657600080fd5b50356001600160a01b0316610b27565b6102706004803603602081101561039c57600080fd5b50356001600160a01b0316610c02565b61021e600480360360208110156103c257600080fd5b50356001600160a01b0316610d38565b61021e610d53565b610282610d62565b610282610d68565b6102826004803603602081101561040057600080fd5b5035610d6e565b61021e610e05565b61021e610e14565b610270610e23565b610334611043565b6102706004803603602081101561043d57600080fd5b50356110af565b61021e6112e1565b61021e6112f9565b61021e611311565b6102826004803603602081101561047257600080fd5b5035611360565b61021e6113fd565b7345f783cce6b7ff23b2ab2d70e416cdb7d6055f5181565b600054604080516337b87c3960e21b815233600482015290516001600160a01b039092169163dee1f0e491602480820192602092909190829003018186803b1580156104e457600080fd5b505afa1580156104f8573d6000803e3d6000fd5b505050506040513d602081101561050e57600080fd5b5051610552576040805162461bcd60e51b815260206004820152600e60248201526d4e6f7420676f7665726e616e636560901b604482015290519081900360640190fd5b6001600160a01b03821660009081526008602052604090205460ff16156105aa5760405162461bcd60e51b815260040180806020018281038252602381526020018061216d6023913960400191505060405180910390fd5b6105c46001600160a01b038316848363ffffffff61140c16565b505050565b6005546001600160a01b031681565b600b5481565b600061068a600360009054906101000a90046001600160a01b03166001600160a01b03166377c7b8fc6040518163ffffffff1660e01b815260040160206040518083038186803b15801561063157600080fd5b505afa158015610645573d6000803e3d6000fd5b505050506040513d602081101561065b57600080fd5b505161067e670de0b6b3a764000061067286611360565b9063ffffffff61145e16565b9063ffffffff6114be16565b92915050565b600054604080516337b87c3960e21b815233600482015290516001600160a01b039092169163dee1f0e491602480820192602092909190829003018186803b1580156106db57600080fd5b505afa1580156106ef573d6000803e3d6000fd5b505050506040513d602081101561070557600080fd5b5051610749576040805162461bcd60e51b815260206004820152600e60248201526d4e6f7420676f7665726e616e636560901b604482015290519081900360640190fd5b606481111561078d576040805162461bcd60e51b815260206004820152600b60248201526a06174206d6f7374203130360ac1b604482015290519081900360640190fd5b600b55565b73dac17f958d2ee523a2206206994597c13d831ec781565b73d6ad7a6750a7593e092a9b218d66c0a814a3436e81565b6003546001600160a01b031681565b7316de59092dae5ccf4a1e6439d611fd0653f0bd0181565b73df5e0e81dff6faf3a7e52ba697820c5e32d806a881565b73a0b86991c6218b36c1d19d4a2e9eb0ce3606eb4881565b60048054604080516370a0823160e01b815230938101939093525160009283926001600160a01b0316916370a0823191602480820192602092909190829003018186803b15801561086957600080fd5b505afa15801561087d573d6000803e3d6000fd5b505050506040513d602081101561089357600080fd5b50516004805460408051631df1ee3f60e21b815290519394506000936001600160a01b03909216926377c7b8fc928282019260209290829003018186803b1580156108dd57600080fd5b505afa1580156108f1573d6000803e3d6000fd5b505050506040513d602081101561090757600080fd5b50519050670de0b6b3a7640000600061092a8261067e868663ffffffff61145e16565b9050600061093782611360565b600154604080516370a0823160e01b815230600482015290519293506109c2926001600160a01b03909216916370a0823191602480820192602092909190829003018186803b15801561098957600080fd5b505afa15801561099d573d6000803e3d6000fd5b505050506040513d60208110156109b357600080fd5b5051829063ffffffff61150016565b955050505050505b90565b6002546001600160a01b03163314806109fe57506109e9611311565b6001600160a01b0316336001600160a01b0316145b80610a215750610a0c610a89565b6001600160a01b0316336001600160a01b0316145b610a5c5760405162461bcd60e51b81526004018080602001828103825260398152602001806121346039913960400191505060405180910390fd5b610a6461155a565b610a6f600a54611360565b600955565b60086020526000908152604090205460ff1681565b60008060009054906101000a90046001600160a01b03166001600160a01b0316635aa6e6756040518163ffffffff1660e01b815260040160206040518083038186803b158015610ad857600080fd5b505afa158015610aec573d6000803e3d6000fd5b505050506040513d6020811015610b0257600080fd5b5051905090565b6001546001600160a01b031681565b6006546001600160a01b031681565b600054604080516337b87c3960e21b815233600482015290516001600160a01b039092169163dee1f0e491602480820192602092909190829003018186803b158015610b7257600080fd5b505afa158015610b86573d6000803e3d6000fd5b505050506040513d6020811015610b9c57600080fd5b5051610be0576040805162461bcd60e51b815260206004820152600e60248201526d4e6f7420676f7665726e616e636560901b604482015290519081900360640190fd5b600780546001600160a01b0319166001600160a01b0392909216919091179055565b600054604080516337b87c3960e21b815233600482015290516001600160a01b039092169163dee1f0e491602480820192602092909190829003018186803b158015610c4d57600080fd5b505afa158015610c61573d6000803e3d6000fd5b505050506040513d6020811015610c7757600080fd5b5051610cbb576040805162461bcd60e51b815260206004820152600e60248201526d4e6f7420676f7665726e616e636560901b604482015290519081900360640190fd5b6001600160a01b038116610d16576040805162461bcd60e51b815260206004820152601e60248201527f6e65772073746f726167652073686f756c646e277420626520656d7074790000604482015290519081900360640190fd5b600080546001600160a01b0319166001600160a01b0392909216919091179055565b600c602052600090815260409020546001600160a01b031681565b6000546001600160a01b031681565b60095481565b600a5481565b600061068a600360009054906101000a90046001600160a01b03166001600160a01b03166377c7b8fc6040518163ffffffff1660e01b815260040160206040518083038186803b158015610dc157600080fd5b505afa158015610dd5573d6000803e3d6000fd5b505050506040513d6020811015610deb57600080fd5b505161067e84670de0b6b3a764000063ffffffff61145e16565b6007546001600160a01b031681565b6004546001600160a01b031681565b6002546001600160a01b0316331480610e545750610e3f611311565b6001600160a01b0316336001600160a01b0316145b80610e775750610e62610a89565b6001600160a01b0316336001600160a01b0316145b610eb25760405162461bcd60e51b81526004018080602001828103825260398152602001806121346039913960400191505060405180910390fd5b60048054604080516370a0823160e01b81523093810193909352516000926001600160a01b03909216916370a08231916024808301926020929190829003018186803b158015610f0157600080fd5b505afa158015610f15573d6000803e3d6000fd5b505050506040513d6020811015610f2b57600080fd5b50516004805460408051632e1a7d4d60e01b8152928301849052519293506001600160a01b031691632e1a7d4d9160248082019260009290919082900301818387803b158015610f7a57600080fd5b505af1158015610f8e573d6000803e3d6000fd5b50505050610f9d60001961168f565b600154604080516370a0823160e01b815230600482015290516000926001600160a01b0316916370a08231916024808301926020929190829003018186803b158015610fe857600080fd5b505afa158015610ffc573d6000803e3d6000fd5b505050506040513d602081101561101257600080fd5b50519050801561103f5760025460015461103f916001600160a01b0391821691168363ffffffff61140c16565b5050565b600080611051600a54611360565b905060095481101561108657600b5460640361107d60095461067e60648561145e90919063ffffffff16565b119150506109ca565b600b546064016110a660095461067e60648561145e90919063ffffffff16565b109150506109ca565b6002546001600160a01b03163314806110e057506110cb611311565b6001600160a01b0316336001600160a01b0316145b8061110357506110ee610a89565b6001600160a01b0316336001600160a01b0316145b61113e5760405162461bcd60e51b81526004018080602001828103825260398152602001806121346039913960400191505060405180910390fd5b60048054604080516370a0823160e01b81523093810193909352516000926001600160a01b03909216916370a08231916024808301926020929190829003018186803b15801561118d57600080fd5b505afa1580156111a1573d6000803e3d6000fd5b505050506040513d60208110156111b757600080fd5b50516004805460408051632e1a7d4d60e01b8152928301849052519293506001600160a01b031691632e1a7d4d9160248082019260009290919082900301818387803b15801561120657600080fd5b505af115801561121a573d6000803e3d6000fd5b505050506112278261168f565b600154604080516370a0823160e01b815230600482015290516000926001600160a01b0316916370a08231916024808301926020929190829003018186803b15801561127257600080fd5b505afa158015611286573d6000803e3d6000fd5b505050506040513d602081101561129c57600080fd5b5051905080156112d9576002546112d9906001600160a01b03166112c085846119a9565b6001546001600160a01b0316919063ffffffff61140c16565b6105c461155a565b7383f798e925bcd4017eb265844fddabb448f1707d81565b736b175474e89094c44da98b954eedeac495271d0f81565b60008060009054906101000a90046001600160a01b03166001600160a01b031663f77c47916040518163ffffffff1660e01b815260040160206040518083038186803b158015610ad857600080fd5b6007546001546000916001600160a01b031690638c92b130908490600160a01b900460ff16600281111561139057fe5b6040518363ffffffff1660e01b8152600401808381526020018281526020019250505060206040518083038186803b1580156113cb57600080fd5b505afa1580156113df573d6000803e3d6000fd5b505050506040513d60208110156113f557600080fd5b505192915050565b6002546001600160a01b031681565b604080516001600160a01b038416602482015260448082018490528251808303909101815260649091019091526020810180516001600160e01b031663a9059cbb60e01b1790526105c49084906119bf565b60008261146d5750600061068a565b8282028284828161147a57fe5b04146114b75760405162461bcd60e51b81526004018080602001828103825260218152602001806121906021913960400191505060405180910390fd5b9392505050565b60006114b783836040518060400160405280601a81526020017f536166654d6174683a206469766973696f6e206279207a65726f000000000000815250611b7d565b6000828201838110156114b7576040805162461bcd60e51b815260206004820152601b60248201527f536166654d6174683a206164646974696f6e206f766572666c6f770000000000604482015290519081900360640190fd5b611562611c1f565b600554604080516370a0823160e01b815230600482015290516000926001600160a01b0316916370a08231916024808301926020929190829003018186803b1580156115ad57600080fd5b505afa1580156115c1573d6000803e3d6000fd5b505050506040513d60208110156115d757600080fd5b50519050801561168c57600454600554611605916001600160a01b039182169116600063ffffffff611eb816565b600454600554611628916001600160a01b0391821691168363ffffffff611eb816565b600480546040805163b6b55f2560e01b8152928301849052516001600160a01b039091169163b6b55f2591602480830192600092919082900301818387803b15801561167357600080fd5b505af1158015611687573d6000803e3d6000fd5b505050505b50565b600554604080516370a0823160e01b815230600482015290516000926001600160a01b0316916370a08231916024808301926020929190829003018186803b1580156116da57600080fd5b505afa1580156116ee573d6000803e3d6000fd5b505050506040513d602081101561170457600080fd5b505190506000611713826105de565b90508061172157505061168c565b6000600019841461173a5761173584610d6e565b61173c565b815b9050611746612115565b61175861175384846119a9565b611fcb565b600354604080516370a0823160e01b815230600482015290519293506000926001600160a01b03909216916370a0823191602480820192602092909190829003018186803b1580156117a957600080fd5b505afa1580156117bd573d6000803e3d6000fd5b505050506040513d60208110156117d357600080fd5b50516006546005549192506117fc916001600160a01b039081169116600063ffffffff611eb816565b60065460055461181f916001600160a01b0391821691168763ffffffff611eb816565b600654604051630c53debb60e11b81526001600160a01b03909116906318a7bd7690849088906004018083608080838360005b8381101561186a578181015183820152602001611852565b5050505090500182815260200192505050600060405180830381600087803b15801561189557600080fd5b505af11580156118a9573d6000803e3d6000fd5b5050600354604080516370a0823160e01b81523060048201529051600094506001600160a01b0390921692506370a08231916024808301926020929190829003018186803b1580156118fa57600080fd5b505afa15801561190e573d6000803e3d6000fd5b505050506040513d602081101561192457600080fd5b50519050818111156119a0576003546001600160a01b0316632e1a7d4d611951838563ffffffff61203d16565b6040518263ffffffff1660e01b815260040180828152602001915050600060405180830381600087803b15801561198757600080fd5b505af115801561199b573d6000803e3d6000fd5b505050505b50505050505050565b60008183106119b857816114b7565b5090919050565b6119d1826001600160a01b031661207f565b611a22576040805162461bcd60e51b815260206004820152601f60248201527f5361666545524332303a2063616c6c20746f206e6f6e2d636f6e747261637400604482015290519081900360640190fd5b60006060836001600160a01b0316836040518082805190602001908083835b60208310611a605780518252601f199092019160209182019101611a41565b6001836020036101000a0380198251168184511680821785525050505050509050019150506000604051808303816000865af19150503d8060008114611ac2576040519150601f19603f3d011682016040523d82523d6000602084013e611ac7565b606091505b509150915081611b1e576040805162461bcd60e51b815260206004820181905260248201527f5361666545524332303a206c6f772d6c6576656c2063616c6c206661696c6564604482015290519081900360640190fd5b805115611b7757808060200190516020811015611b3a57600080fd5b5051611b775760405162461bcd60e51b815260040180806020018281038252602a8152602001806121b1602a913960400191505060405180910390fd5b50505050565b60008183611c095760405162461bcd60e51b81526004018080602001828103825283818151815260200191508051906020019080838360005b83811015611bce578181015183820152602001611bb6565b50505050905090810190601f168015611bfb5780820380516001836020036101000a031916815260200191505b509250505060405180910390fd5b506000838581611c1557fe5b0495945050505050565b600154604080516370a0823160e01b815230600482015290516000926001600160a01b0316916370a08231916024808301926020929190829003018186803b158015611c6a57600080fd5b505afa158015611c7e573d6000803e3d6000fd5b505050506040513d6020811015611c9457600080fd5b505190508015611d4b57600354600154611cc2916001600160a01b039182169116600063ffffffff611eb816565b600354600154611ce5916001600160a01b0391821691168363ffffffff611eb816565b6003546040805163b6b55f2560e01b81526004810184905290516001600160a01b039092169163b6b55f259160248082019260009290919082900301818387803b158015611d3257600080fd5b505af1158015611d46573d6000803e3d6000fd5b505050505b600354604080516370a0823160e01b815230600482015290516000926001600160a01b0316916370a08231916024808301926020929190829003018186803b158015611d9657600080fd5b505afa158015611daa573d6000803e3d6000fd5b505050506040513d6020811015611dc057600080fd5b50519050801561103f57600654600354611dee916001600160a01b039182169116600063ffffffff611eb816565b600654600354611e11916001600160a01b0391821691168363ffffffff611eb816565b6000611e1b612115565b611e2483611fcb565b60065460405162a6cbcd60e21b81529192506001600160a01b03169063029b2f3490839085906004018083608080838360005b83811015611e6f578181015183820152602001611e57565b5050505090500182815260200192505050600060405180830381600087803b158015611e9a57600080fd5b505af1158015611eae573d6000803e3d6000fd5b5050505050505050565b801580611f3e575060408051636eb1769f60e11b81523060048201526001600160a01b03848116602483015291519185169163dd62ed3e91604480820192602092909190829003018186803b158015611f1057600080fd5b505afa158015611f24573d6000803e3d6000fd5b505050506040513d6020811015611f3a57600080fd5b5051155b611f795760405162461bcd60e51b81526004018080602001828103825260368152602001806121db6036913960400191505060405180910390fd5b604080516001600160a01b038416602482015260448082018490528251808303909101815260649091019091526020810180516001600160e01b031663095ea7b360e01b1790526105c49084906119bf565b611fd3612115565b611fdb612115565b6040518060800160405280600081526020016000815260200160008152602001600081525090508281600160149054906101000a900460ff16600281111561201f57fe5b66ffffffffffffff166004811061203257fe5b602002015292915050565b60006114b783836040518060400160405280601e81526020017f536166654d6174683a207375627472616374696f6e206f766572666c6f7700008152506120bb565b6000813f7fc5d2460186f7233c927e7db2dcc703c0e500b653ca82273b7bfad8045d85a4708181148015906120b357508115155b949350505050565b6000818484111561210d5760405162461bcd60e51b8152602060048201818152835160248401528351909283926044909101919085019080838360008315611bce578181015183820152602001611bb6565b505050900390565b6040518060800160405280600490602082028038833950919291505056fe5468652073656e6465722068617320746f2062652074686520636f6e74726f6c6c65722c20676f7665726e616e63652c206f72207661756c74746f6b656e20697320646566696e6564206173206e6f742073616c7661676561626c65536166654d6174683a206d756c7469706c69636174696f6e206f766572666c6f775361666545524332303a204552433230206f7065726174696f6e20646964206e6f7420737563636565645361666545524332303a20617070726f76652066726f6d206e6f6e2d7a65726f20746f206e6f6e2d7a65726f20616c6c6f77616e6365a265627a7a72315820cd38b55044ec5075495f74010f12d5918b37b4b9ff96f9cd6ef059ff8a73b8f864736f6c634300051000326080604052600080546001600160a01b03191673bbc81d23ea2c3ec7e56d39296f0cbb648873a5d317905534801561003657600080fd5b50610164806100466000396000f3fe608060405234801561001057600080fd5b50600436106100365760003560e01c8063262d61521461003b5780638c92b1301461005f575b600080fd5b610043610094565b604080516001600160a01b039092168252519081900360200190f35b6100826004803603604081101561007557600080fd5b50803590602001356100a3565b60408051918252519081900360200190f35b6000546001600160a01b031681565b600080546040805163cc2b27d760e01b815260048101869052600f85810b900b602482015290516001600160a01b039092169163cc2b27d791604480820192602092909190829003018186803b1580156100fc57600080fd5b505afa158015610110573d6000803e3d6000fd5b505050506040513d602081101561012657600080fd5b5051939250505056fea265627a7a72315820a2a05c3a7b98c604bbadbacf9e11d121bf2c1ff621c94164976ea52459a8468364736f6c63430005100032756e6465726c79696e67206e6f7420737570706f727465643a20795661756c74206973206e6f7420646566696e6564",
  "source": "pragma solidity 0.5.16;\nimport \"./CRVStrategyStable.sol\";\nimport \"./PriceConvertor.sol\";\n\n/**\n* Adds the mainnet addresses to the CRVStrategyStable\n*/\ncontract CRVStrategyStableMainnet is CRVStrategyStable {\n\n  // token addresses\n  // y-addresses are taken from: https://docs.yearn.finance/yearn.finance/yearn-1\n  address constant public dai = address(0x6B175474E89094C44Da98b954EedeAC495271d0F);\n  address constant public ydai = address(0x16de59092dAE5CcF4A1E6439D611fd0653f0Bd01);\n  address constant public usdc = address(0xA0b86991c6218b36c1d19D4a2e9Eb0cE3606eB48);\n  address constant public yusdc = address(0xd6aD7a6750A7593E092a9B218d66C0A814a3436e);\n  address constant public usdt = address(0xdAC17F958D2ee523a2206206994597C13D831ec7);\n  address constant public yusdt = address(0x83f798e925BcD4017Eb265844FDDAbb448f1707D);\n\n  // pre-defined constant mapping: underlying -> y-token\n  mapping(address => address) public yVaults;\n\n  // yDAIyUSDCyUSDTyTUSD\n  address constant public __ycrv = address(0xdF5e0e81Dff6FAF3A7e52BA697820c5e32D806A8);\n\n  // protocols\n  address constant public __curve = address(0x45F783CCE6B7FF23B2ab2D70e416cdb7D6055f51);\n\n  constructor(\n    address _storage,\n    address _underlying,\n    address _vault,\n    address _ycrvVault\n  )\n  CRVStrategyStable(_storage, _underlying, _vault, _ycrvVault, address(0), 0,\n    __ycrv,\n    __curve,\n    address(0)\n  )\n  public {\n    yVaults[dai] = ydai;\n    yVaults[usdc] = yusdc;\n    yVaults[usdt] = yusdt;\n    yVault = yVaults[underlying];\n    require(yVault != address(0), \"underlying not supported: yVault is not defined\");\n    if (_underlying == dai) {\n      tokenIndex = TokenIndex.DAI;\n    } else if (_underlying == usdc) {\n      tokenIndex = TokenIndex.USDC;\n    } else if (_underlying == usdt) {\n      tokenIndex = TokenIndex.USDT;\n    } else {\n      revert(\"What is this asset?\");\n    }\n    convertor = address(new PriceConvertor());\n    curvePriceCheckpoint = underlyingValueFromYCrv(ycrvUnit);\n  }\n}\n",
  "sourcePath": "/home/jawaher/tmp/harvest/contracts/strategies/curve/CRVStrategyStableMainnet.sol",
  "compiler": {
    "name": "solc",
    "version": "0.5.16+commit.9c3226ce.Emscripten.clang"
  },
  "schemaVersion": "3.2.5",
  "updatedAt": "2020-10-21T10:56:20.570Z",
  "devdoc": {
    "methods": {}
  },
  "userdoc": {
    "methods": {
      "doHardWork()": {
        "notice": "The hard work only invests all underlying assets, and then tells the controller to call hard work on the yCRV vault."
      },
      "investedUnderlyingBalance()": {
        "notice": "Returns the underlying invested balance. This is the amount of yCRV that we are entitled to from the yCRV vault (based on the number of shares we currently have), converted to the underlying assets by the Curve protocol, plus the current balance of the underlying assets."
      },
      "salvage(address,address,uint256)": {
        "notice": "Salvages a token. We cannot salvage the shares in the yCRV pool, yCRV tokens, or underlying assets."
      },
      "setConvertor(address)": {
        "notice": "Replaces the price convertor"
      },
      "underlyingValueFromYCrv(uint256)": {
        "notice": "Returns the value of yCRV in y-token (e.g., yCRV -> yDai) accounting for slippage and fees."
      },
      "withdrawAllToVault()": {
        "notice": "Withdraws all assets from the vault. We ask the yCRV vault to give us our entire yCRV balance and then convert it to the underlying asset using the Curve protocol."
      },
      "withdrawToVault(uint256)": {
        "notice": "Withdraws an underlying asset from the strategy to the vault in the specified amount by asking the yCRV vault for yCRV (currently all of it), and then removing imbalanced liquidity from the Curve protocol. The rest is deposited back to the yCRV vault. If the amount requested cannot be obtained, the method will get as much as we have."
      },
      "yTokenValueFromUnderlying(uint256)": {
        "notice": "Returns the value of the underlying token in yToken"
      },
      "yTokenValueFromYCrv(uint256)": {
        "notice": "Returns the value of yCRV in underlying token accounting for slippage and fees."
      }
    },
    "notice": "Adds the mainnet addresses to the CRVStrategyStable"
  }
}