{
  "contractName": "CRVStrategySwerveDAIMainnet",
  "abi": [
    {
      "inputs": [
        {
          "internalType": "address",
          "name": "_storage",
          "type": "address"
        },
        {
          "internalType": "address",
          "name": "_vault",
          "type": "address"
        }
      ],
      "payable": false,
      "stateMutability": "nonpayable",
      "type": "constructor"
    },
    {
      "anonymous": false,
      "inputs": [
        {
          "indexed": false,
          "internalType": "uint256",
          "name": "amount",
          "type": "uint256"
        }
      ],
      "name": "Liquidating",
      "type": "event"
    },
    {
      "anonymous": false,
      "inputs": [
        {
          "indexed": false,
          "internalType": "uint256",
          "name": "oldBalance",
          "type": "uint256"
        },
        {
          "indexed": false,
          "internalType": "uint256",
          "name": "newBalance",
          "type": "uint256"
        },
        {
          "indexed": false,
          "internalType": "uint256",
          "name": "feeAmount",
          "type": "uint256"
        },
        {
          "indexed": false,
          "internalType": "uint256",
          "name": "timestamp",
          "type": "uint256"
        }
      ],
      "name": "ProfitLog",
      "type": "event"
    },
    {
      "anonymous": false,
      "inputs": [],
      "name": "ProfitsNotCollected",
      "type": "event"
    },
    {
      "constant": true,
      "inputs": [],
      "name": "__dai",
      "outputs": [
        {
          "internalType": "address",
          "name": "",
          "type": "address"
        }
      ],
      "payable": false,
      "stateMutability": "view",
      "type": "function"
    },
    {
      "constant": true,
      "inputs": [],
      "name": "__gauge",
      "outputs": [
        {
          "internalType": "address",
          "name": "",
          "type": "address"
        }
      ],
      "payable": false,
      "stateMutability": "view",
      "type": "function"
    },
    {
      "constant": true,
      "inputs": [],
      "name": "__mintr",
      "outputs": [
        {
          "internalType": "address",
          "name": "",
          "type": "address"
        }
      ],
      "payable": false,
      "stateMutability": "view",
      "type": "function"
    },
    {
      "constant": true,
      "inputs": [],
      "name": "__poolZap",
      "outputs": [
        {
          "internalType": "address",
          "name": "",
          "type": "address"
        }
      ],
      "payable": false,
      "stateMutability": "view",
      "type": "function"
    },
    {
      "constant": true,
      "inputs": [],
      "name": "__stableMix",
      "outputs": [
        {
          "internalType": "address",
          "name": "",
          "type": "address"
        }
      ],
      "payable": false,
      "stateMutability": "view",
      "type": "function"
    },
    {
      "constant": true,
      "inputs": [],
      "name": "__swrv",
      "outputs": [
        {
          "internalType": "address",
          "name": "",
          "type": "address"
        }
      ],
      "payable": false,
      "stateMutability": "view",
      "type": "function"
    },
    {
      "constant": true,
      "inputs": [],
      "name": "__tokenIndex",
      "outputs": [
        {
          "internalType": "uint256",
          "name": "",
          "type": "uint256"
        }
      ],
      "payable": false,
      "stateMutability": "view",
      "type": "function"
    },
    {
      "constant": true,
      "inputs": [],
      "name": "__uniswap",
      "outputs": [
        {
          "internalType": "address",
          "name": "",
          "type": "address"
        }
      ],
      "payable": false,
      "stateMutability": "view",
      "type": "function"
    },
    {
      "constant": true,
      "inputs": [],
      "name": "__weth",
      "outputs": [
        {
          "internalType": "address",
          "name": "",
          "type": "address"
        }
      ],
      "payable": false,
      "stateMutability": "view",
      "type": "function"
    },
    {
      "constant": true,
      "inputs": [],
      "name": "arbTolerance",
      "outputs": [
        {
          "internalType": "uint256",
          "name": "",
          "type": "uint256"
        }
      ],
      "payable": false,
      "stateMutability": "view",
      "type": "function"
    },
    {
      "constant": false,
      "inputs": [
        {
          "internalType": "address",
          "name": "_gauge",
          "type": "address"
        }
      ],
      "name": "checkpoint",
      "outputs": [],
      "payable": false,
      "stateMutability": "nonpayable",
      "type": "function"
    },
    {
      "constant": true,
      "inputs": [],
      "name": "controller",
      "outputs": [
        {
          "internalType": "address",
          "name": "",
          "type": "address"
        }
      ],
      "payable": false,
      "stateMutability": "view",
      "type": "function"
    },
    {
      "constant": false,
      "inputs": [
        {
          "internalType": "address",
          "name": "lockToken",
          "type": "address"
        },
        {
          "internalType": "address",
          "name": "escrow",
          "type": "address"
        },
        {
          "internalType": "uint256",
          "name": "value",
          "type": "uint256"
        },
        {
          "internalType": "uint256",
          "name": "unlockTime",
          "type": "uint256"
        }
      ],
      "name": "createLock",
      "outputs": [],
      "payable": false,
      "stateMutability": "nonpayable",
      "type": "function"
    },
    {
      "constant": true,
      "inputs": [],
      "name": "crv",
      "outputs": [
        {
          "internalType": "address",
          "name": "",
          "type": "address"
        }
      ],
      "payable": false,
      "stateMutability": "view",
      "type": "function"
    },
    {
      "constant": true,
      "inputs": [],
      "name": "curve",
      "outputs": [
        {
          "internalType": "address",
          "name": "",
          "type": "address"
        }
      ],
      "payable": false,
      "stateMutability": "view",
      "type": "function"
    },
    {
      "constant": true,
      "inputs": [],
      "name": "depositArbCheck",
      "outputs": [
        {
          "internalType": "bool",
          "name": "",
          "type": "bool"
        }
      ],
      "payable": false,
      "stateMutability": "view",
      "type": "function"
    },
    {
      "constant": false,
      "inputs": [],
      "name": "doHardWork",
      "outputs": [],
      "payable": false,
      "stateMutability": "nonpayable",
      "type": "function"
    },
    {
      "constant": true,
      "inputs": [],
      "name": "gauge",
      "outputs": [
        {
          "internalType": "address",
          "name": "",
          "type": "address"
        }
      ],
      "payable": false,
      "stateMutability": "view",
      "type": "function"
    },
    {
      "constant": true,
      "inputs": [],
      "name": "governance",
      "outputs": [
        {
          "internalType": "address",
          "name": "",
          "type": "address"
        }
      ],
      "payable": false,
      "stateMutability": "view",
      "type": "function"
    },
    {
      "constant": false,
      "inputs": [
        {
          "internalType": "address",
          "name": "lockToken",
          "type": "address"
        },
        {
          "internalType": "address",
          "name": "escrow",
          "type": "address"
        },
        {
          "internalType": "uint256",
          "name": "value",
          "type": "uint256"
        }
      ],
      "name": "increaseAmount",
      "outputs": [],
      "payable": false,
      "stateMutability": "nonpayable",
      "type": "function"
    },
    {
      "constant": false,
      "inputs": [
        {
          "internalType": "address",
          "name": "escrow",
          "type": "address"
        },
        {
          "internalType": "uint256",
          "name": "unlock_time",
          "type": "uint256"
        }
      ],
      "name": "increaseUnlockTime",
      "outputs": [],
      "payable": false,
      "stateMutability": "nonpayable",
      "type": "function"
    },
    {
      "constant": true,
      "inputs": [],
      "name": "investedUnderlyingBalance",
      "outputs": [
        {
          "internalType": "uint256",
          "name": "",
          "type": "uint256"
        }
      ],
      "payable": false,
      "stateMutability": "view",
      "type": "function"
    },
    {
      "constant": true,
      "inputs": [],
      "name": "mintr",
      "outputs": [
        {
          "internalType": "address",
          "name": "",
          "type": "address"
        }
      ],
      "payable": false,
      "stateMutability": "view",
      "type": "function"
    },
    {
      "constant": true,
      "inputs": [],
      "name": "mixToken",
      "outputs": [
        {
          "internalType": "address",
          "name": "",
          "type": "address"
        }
      ],
      "payable": false,
      "stateMutability": "view",
      "type": "function"
    },
    {
      "constant": true,
      "inputs": [],
      "name": "mixTokenUnit",
      "outputs": [
        {
          "internalType": "uint256",
          "name": "",
          "type": "uint256"
        }
      ],
      "payable": false,
      "stateMutability": "view",
      "type": "function"
    },
    {
      "constant": true,
      "inputs": [],
      "name": "mixVault",
      "outputs": [
        {
          "internalType": "address",
          "name": "",
          "type": "address"
        }
      ],
      "payable": false,
      "stateMutability": "view",
      "type": "function"
    },
    {
      "constant": true,
      "inputs": [],
      "name": "profitSharingDenominator",
      "outputs": [
        {
          "internalType": "uint256",
          "name": "",
          "type": "uint256"
        }
      ],
      "payable": false,
      "stateMutability": "view",
      "type": "function"
    },
    {
      "constant": true,
      "inputs": [],
      "name": "profitSharingNumerator",
      "outputs": [
        {
          "internalType": "uint256",
          "name": "",
          "type": "uint256"
        }
      ],
      "payable": false,
      "stateMutability": "view",
      "type": "function"
    },
    {
      "constant": false,
      "inputs": [
        {
          "internalType": "address",
          "name": "recipient",
          "type": "address"
        },
        {
          "internalType": "address",
          "name": "token",
          "type": "address"
        },
        {
          "internalType": "uint256",
          "name": "amount",
          "type": "uint256"
        }
      ],
      "name": "salvage",
      "outputs": [],
      "payable": false,
      "stateMutability": "nonpayable",
      "type": "function"
    },
    {
      "constant": true,
      "inputs": [],
      "name": "sell",
      "outputs": [
        {
          "internalType": "bool",
          "name": "",
          "type": "bool"
        }
      ],
      "payable": false,
      "stateMutability": "view",
      "type": "function"
    },
    {
      "constant": true,
      "inputs": [],
      "name": "sellFloor",
      "outputs": [
        {
          "internalType": "uint256",
          "name": "",
          "type": "uint256"
        }
      ],
      "payable": false,
      "stateMutability": "view",
      "type": "function"
    },
    {
      "constant": false,
      "inputs": [
        {
          "internalType": "uint256",
          "name": "tolerance",
          "type": "uint256"
        }
      ],
      "name": "setArbTolerance",
      "outputs": [],
      "payable": false,
      "stateMutability": "nonpayable",
      "type": "function"
    },
    {
      "constant": false,
      "inputs": [
        {
          "internalType": "bool",
          "name": "s",
          "type": "bool"
        }
      ],
      "name": "setSell",
      "outputs": [],
      "payable": false,
      "stateMutability": "nonpayable",
      "type": "function"
    },
    {
      "constant": false,
      "inputs": [
        {
          "internalType": "uint256",
          "name": "floor",
          "type": "uint256"
        }
      ],
      "name": "setSellFloor",
      "outputs": [],
      "payable": false,
      "stateMutability": "nonpayable",
      "type": "function"
    },
    {
      "constant": false,
      "inputs": [
        {
          "internalType": "address",
          "name": "_store",
          "type": "address"
        }
      ],
      "name": "setStorage",
      "outputs": [],
      "payable": false,
      "stateMutability": "nonpayable",
      "type": "function"
    },
    {
      "constant": true,
      "inputs": [],
      "name": "store",
      "outputs": [
        {
          "internalType": "contract Storage",
          "name": "",
          "type": "address"
        }
      ],
      "payable": false,
      "stateMutability": "view",
      "type": "function"
    },
    {
      "constant": true,
      "inputs": [],
      "name": "underlying",
      "outputs": [
        {
          "internalType": "address",
          "name": "",
          "type": "address"
        }
      ],
      "payable": false,
      "stateMutability": "view",
      "type": "function"
    },
    {
      "constant": true,
      "inputs": [],
      "name": "uni",
      "outputs": [
        {
          "internalType": "address",
          "name": "",
          "type": "address"
        }
      ],
      "payable": false,
      "stateMutability": "view",
      "type": "function"
    },
    {
      "constant": true,
      "inputs": [
        {
          "internalType": "uint256",
          "name": "",
          "type": "uint256"
        }
      ],
      "name": "uniswap_CRV2WBTC",
      "outputs": [
        {
          "internalType": "address",
          "name": "",
          "type": "address"
        }
      ],
      "payable": false,
      "stateMutability": "view",
      "type": "function"
    },
    {
      "constant": true,
      "inputs": [
        {
          "internalType": "address",
          "name": "",
          "type": "address"
        }
      ],
      "name": "unsalvagableTokens",
      "outputs": [
        {
          "internalType": "bool",
          "name": "",
          "type": "bool"
        }
      ],
      "payable": false,
      "stateMutability": "view",
      "type": "function"
    },
    {
      "constant": true,
      "inputs": [],
      "name": "vault",
      "outputs": [
        {
          "internalType": "address",
          "name": "",
          "type": "address"
        }
      ],
      "payable": false,
      "stateMutability": "view",
      "type": "function"
    },
    {
      "constant": true,
      "inputs": [],
      "name": "wbtc",
      "outputs": [
        {
          "internalType": "address",
          "name": "",
          "type": "address"
        }
      ],
      "payable": false,
      "stateMutability": "view",
      "type": "function"
    },
    {
      "constant": true,
      "inputs": [],
      "name": "wbtcPriceCheckpoint",
      "outputs": [
        {
          "internalType": "uint256",
          "name": "",
          "type": "uint256"
        }
      ],
      "payable": false,
      "stateMutability": "view",
      "type": "function"
    },
    {
      "constant": true,
      "inputs": [
        {
          "internalType": "uint256",
          "name": "mixTokenBalance",
          "type": "uint256"
        }
      ],
      "name": "wbtcValueFromMixToken",
      "outputs": [
        {
          "internalType": "uint256",
          "name": "",
          "type": "uint256"
        }
      ],
      "payable": false,
      "stateMutability": "view",
      "type": "function"
    },
    {
      "constant": false,
      "inputs": [],
      "name": "withdrawAllToVault",
      "outputs": [],
      "payable": false,
      "stateMutability": "nonpayable",
      "type": "function"
    },
    {
      "constant": false,
      "inputs": [
        {
          "internalType": "address",
          "name": "lockToken",
          "type": "address"
        },
        {
          "internalType": "address",
          "name": "escrow",
          "type": "address"
        }
      ],
      "name": "withdrawLock",
      "outputs": [],
      "payable": false,
      "stateMutability": "nonpayable",
      "type": "function"
    },
    {
      "constant": false,
      "inputs": [
        {
          "internalType": "uint256",
          "name": "amountWbtc",
          "type": "uint256"
        }
      ],
      "name": "withdrawToVault",
      "outputs": [],
      "payable": false,
      "stateMutability": "nonpayable",
      "type": "function"
    }
  ],
  "bytecode": "0x608060405260036010556012805460ff191660011790556801a055690d9db800006013553480156200003057600080fd5b50604051620033ec380380620033ec833981810160405260408110156200005657600080fd5b50805160209091015181736b175474e89094c44da98b954eedeac495271d0f8260007377c6e4a580c0dce4e5c7a17d0bc077188a83a05973a746c67eb7915fa832a4c2076d403d4b6808543173b8baa0e4287890a5f79863ab62b7f175cecbd43373c02aaa39b223fe8d0a0e5c4f27ead9083c756cc273b4d0c929cd3a1fbdc6d57e7d3315cf0c4d6b4bfa732c988c3974ad7e604e276ae0294a7228def67974737a250d5630b4cf539739df2c5dacb4c659f2488d8a8a81806001600160a01b0381166200016b576040805162461bcd60e51b815260206004820152601e60248201527f6e65772073746f726167652073686f756c646e277420626520656d7074790000604482015290519081900360640190fd5b600080546001600160a01b03199081166001600160a01b03938416179091556003805490911691841691909117905550620001a56200045f565b6001600160a01b031663b60f151a6040518163ffffffff1660e01b815260040160206040518083038186803b158015620001de57600080fd5b505afa158015620001f3573d6000803e3d6000fd5b505050506040513d60208110156200020a57600080fd5b5051600155620002226001600160e01b036200045f16565b6001600160a01b031663026a0dd06040518163ffffffff1660e01b815260040160206040518083038186803b1580156200025b57600080fd5b505afa15801562000270573d6000803e3d6000fd5b505050506040513d60208110156200028757600080fd5b5051600281905560015410620002e4576040805162461bcd60e51b815260206004820152601460248201527f696e76616c69642070726f666974207368617265000000000000000000000000604482015290519081900360640190fd5b5050600580546001600160a01b03808c166001600160a01b03199283161790925560048054928d16929091169190911790558760038111156200032357fe5b6004805460ff60a01b1916600160a01b8360038111156200034057fe5b0217905550600780546001600160a01b03199081166001600160a01b038a811691909117909255600880548216898416179055600a80548216868416179055600c80548216888416908117909155600d80548316858516179055600b805490921685841617909155604080516060810182529182528683166020830152918c1691810191909152620003d79060119060036200058a565b50506004546001600160a01b039081166000908152600960205260408082208054600160ff199182168117909255600754851684528284208054821683179055600c549094168352912080549092161790555050670de0b6b3a7640000600f819055600e819055620004539850965050620004e3945050505050565b600e55506200061b9050565b60008060009054906101000a90046001600160a01b03166001600160a01b031663f77c47916040518163ffffffff1660e01b815260040160206040518083038186803b158015620004af57600080fd5b505afa158015620004c4573d6000803e3d6000fd5b505050506040513d6020811015620004db57600080fd5b505190505b90565b6008546004546000916001600160a01b03169063cc2b27d7908490600160a01b900460ff1660038111156200051457fe5b6040518363ffffffff1660e01b81526004018083815260200182600f0b600f0b81526020019250505060206040518083038186803b1580156200055657600080fd5b505afa1580156200056b573d6000803e3d6000fd5b505050506040513d60208110156200058257600080fd5b505192915050565b828054828255906000526020600020908101928215620005e2579160200282015b82811115620005e257825182546001600160a01b0319166001600160a01b03909116178255602090920191600190910190620005ab565b50620005f0929150620005f4565b5090565b620004e091905b80821115620005f05780546001600160a01b0319168155600101620005fb565b612dc1806200062b6000396000f3fe608060405234801561001057600080fd5b50600436106102955760003560e01c80638e39520c11610167578063bfd131f1116100ce578063eb5594d811610087578063eb5594d814610591578063edc9af9514610599578063f03312ff146105a1578063f6a8d50a146105be578063f77c4791146105fa578063fbfa77cf1461060257610295565b8063bfd131f114610528578063c2a2a07b14610530578063cb5f06cd14610538578063ce8c42e814610564578063d1e61dcb14610581578063ded078381461058957610295565b8063a6f19c8411610120578063a6f19c84146104ae578063a972985e146104b6578063b076a53a146104dc578063b60f151a146104fb578063ba09591e14610503578063be85ba331461052057610295565b80638e39520c146104325780639137c1a714610468578063924689651461048e578063975057e7146104965780639aa9c43a1461049e578063a1dab23e146104a657610295565b80634fa5d8541161020b5780636f307dc3116101c45780636f307dc3146103dc5780637165485d146103e457806372216367146103ec57806377be00f31461041a57806386d4b367146104225780638cc8b9fa1461042a57610295565b80634fa5d854146103795780635009ae4b146103815780635018594614610389578063554a16ba146103af5780635aa6e675146103cc5780636a4874a1146103d457610295565b80632cca0cd61161025d5780632cca0cd6146103045780632e3f1474146103285780633558abf9146103455780633cdc53891461034d578063457100741461035557806345d01e4a1461037157610295565b8063026a0dd01461029a5780630a9de2e1146102b45780631113ef52146102bc5780631b0adc1f146102f45780631c13e96e146102fc575b600080fd5b6102a261060a565b60408051918252519081900360200190f35b6102a2610610565b6102f2600480360360608110156102d257600080fd5b506001600160a01b03813581169160208101359091169060400135610616565b005b6102a2610746565b6102a261074b565b61030c610751565b604080516001600160a01b039092168252519081900360200190f35b6102f26004803603602081101561033e57600080fd5b5035610769565b61030c61086b565b61030c610883565b61035d610892565b604080519115158252519081900360200190f35b6102a261089b565b6102f26109cb565b61030c610a7a565b61035d6004803603602081101561039f57600080fd5b50356001600160a01b0316610a89565b6102a2600480360360208110156103c557600080fd5b5035610a9e565b61030c610b41565b61030c610bc1565b61030c610bd0565b61030c610bdf565b6102f26004803603604081101561040257600080fd5b506001600160a01b0381358116916020013516610bee565b61030c610e2b565b61030c610e43565b61030c610e5b565b6102f26004803603606081101561044857600080fd5b506001600160a01b03813581169160208101359091169060400135610e73565b6102f26004803603602081101561047e57600080fd5b50356001600160a01b0316610fc4565b6102a26110fa565b61030c611100565b61030c61110f565b6102a2611127565b61030c61112d565b6102f2600480360360208110156104cc57600080fd5b50356001600160a01b031661113c565b6102f2600480360360208110156104f257600080fd5b50351515611257565b6102a2611323565b6102f26004803603602081101561051957600080fd5b5035611329565b61030c6113e7565b6102f26113f6565b61035d61160e565b6102f26004803603604081101561054e57600080fd5b506001600160a01b038135169060200135611686565b6102f26004803603602081101561057a57600080fd5b50356117a1565b61030c6119d0565b61030c6119df565b61030c6119f7565b61030c611a0f565b61030c600480360360208110156105b757600080fd5b5035611a1e565b6102f2600480360360808110156105d457600080fd5b506001600160a01b03813581169160208101359091169060408101359060600135611a45565b61030c611b9f565b61030c611bee565b60025481565b600e5481565b600054604080516337b87c3960e21b815233600482015290516001600160a01b039092169163dee1f0e491602480820192602092909190829003018186803b15801561066157600080fd5b505afa158015610675573d6000803e3d6000fd5b505050506040513d602081101561068b57600080fd5b50516106cf576040805162461bcd60e51b815260206004820152600e60248201526d4e6f7420676f7665726e616e636560901b604482015290519081900360640190fd5b6001600160a01b03821660009081526009602052604090205460ff16156107275760405162461bcd60e51b8152600401808060200182810382526023815260200180612ce96023913960400191505060405180910390fd5b6107416001600160a01b038316848363ffffffff611bfd16565b505050565b600081565b60105481565b73c02aaa39b223fe8d0a0e5c4f27ead9083c756cc281565b600054604080516337b87c3960e21b815233600482015290516001600160a01b039092169163dee1f0e491602480820192602092909190829003018186803b1580156107b457600080fd5b505afa1580156107c8573d6000803e3d6000fd5b505050506040513d60208110156107de57600080fd5b5051610822576040805162461bcd60e51b815260206004820152600e60248201526d4e6f7420676f7665726e616e636560901b604482015290519081900360640190fd5b6064811115610866576040805162461bcd60e51b815260206004820152600b60248201526a06174206d6f7374203130360ac1b604482015290519081900360640190fd5b601055565b73b8baa0e4287890a5f79863ab62b7f175cecbd43381565b6004546001600160a01b031681565b60125460ff1681565b600a54604080516370a0823160e01b8152306004820152905160009283926001600160a01b03909116916370a0823191602480820192602092909190829003018186803b1580156108eb57600080fd5b505afa1580156108ff573d6000803e3d6000fd5b505050506040513d602081101561091557600080fd5b505160048054604080516370a0823160e01b81523093810193909352519293506000926001600160a01b03909116916370a08231916024808301926020929190829003018186803b15801561096957600080fd5b505afa15801561097d573d6000803e3d6000fd5b505050506040513d602081101561099357600080fd5b50519050816109a55791506109c89050565b60006109b083610a9e565b90506109c2818363ffffffff611c4f16565b93505050505b90565b6005546001600160a01b03163314806109fc57506109e7611b9f565b6001600160a01b0316336001600160a01b0316145b80610a1f5750610a0a610b41565b6001600160a01b0316336001600160a01b0316145b610a5a5760405162461bcd60e51b8152600401808060200182810382526039815260200180612cb06039913960400191505060405180910390fd5b610a62611cb2565b610a6a6120dd565b610a75600f54610a9e565b600e55565b6006546001600160a01b031681565b60096020526000908152604090205460ff1681565b6008546004546000916001600160a01b03169063cc2b27d7908490600160a01b900460ff166003811115610ace57fe5b6040518363ffffffff1660e01b81526004018083815260200182600f0b600f0b81526020019250505060206040518083038186803b158015610b0f57600080fd5b505afa158015610b23573d6000803e3d6000fd5b505050506040513d6020811015610b3957600080fd5b505192915050565b60008060009054906101000a90046001600160a01b03166001600160a01b0316635aa6e6756040518163ffffffff1660e01b815260040160206040518083038186803b158015610b9057600080fd5b505afa158015610ba4573d6000803e3d6000fd5b505050506040513d6020811015610bba57600080fd5b5051905090565b600c546001600160a01b031681565b6003546001600160a01b031681565b6008546001600160a01b031681565b600054604080516337b87c3960e21b815233600482015290516001600160a01b039092169163dee1f0e491602480820192602092909190829003018186803b158015610c3957600080fd5b505afa158015610c4d573d6000803e3d6000fd5b505050506040513d6020811015610c6357600080fd5b5051610ca7576040805162461bcd60e51b815260206004820152600e60248201526d4e6f7420676f7665726e616e636560901b604482015290519081900360640190fd5b604080516370a0823160e01b815230600482015290516000916001600160a01b038516916370a0823191602480820192602092909190829003018186803b158015610cf157600080fd5b505afa158015610d05573d6000803e3d6000fd5b505050506040513d6020811015610d1b57600080fd5b505160408051633ccfd60b60e01b815290519192506001600160a01b03841691633ccfd60b9160048082019260009290919082900301818387803b158015610d6257600080fd5b505af1158015610d76573d6000803e3d6000fd5b5050604080516370a0823160e01b81523060048201529051600093506001600160a01b03871692506370a0823191602480820192602092909190829003018186803b158015610dc457600080fd5b505afa158015610dd8573d6000803e3d6000fd5b505050506040513d6020811015610dee57600080fd5b5051905081811115610e2557610e2533610e0e838563ffffffff6121f816565b6001600160a01b038716919063ffffffff611bfd16565b50505050565b737a250d5630b4cf539739df2c5dacb4c659f2488d81565b732c988c3974ad7e604e276ae0294a7228def6797481565b736b175474e89094c44da98b954eedeac495271d0f81565b600054604080516337b87c3960e21b815233600482015290516001600160a01b039092169163dee1f0e491602480820192602092909190829003018186803b158015610ebe57600080fd5b505afa158015610ed2573d6000803e3d6000fd5b505050506040513d6020811015610ee857600080fd5b5051610f2c576040805162461bcd60e51b815260206004820152600e60248201526d4e6f7420676f7665726e616e636560901b604482015290519081900360640190fd5b610f476001600160a01b03841683600063ffffffff61223a16565b610f616001600160a01b038416838363ffffffff61223a16565b816001600160a01b0316634957677c826040518263ffffffff1660e01b815260040180828152602001915050600060405180830381600087803b158015610fa757600080fd5b505af1158015610fbb573d6000803e3d6000fd5b50505050505050565b600054604080516337b87c3960e21b815233600482015290516001600160a01b039092169163dee1f0e491602480820192602092909190829003018186803b15801561100f57600080fd5b505afa158015611023573d6000803e3d6000fd5b505050506040513d602081101561103957600080fd5b505161107d576040805162461bcd60e51b815260206004820152600e60248201526d4e6f7420676f7665726e616e636560901b604482015290519081900360640190fd5b6001600160a01b0381166110d8576040805162461bcd60e51b815260206004820152601e60248201527f6e65772073746f726167652073686f756c646e277420626520656d7074790000604482015290519081900360640190fd5b600080546001600160a01b0319166001600160a01b0392909216919091179055565b600f5481565b6000546001600160a01b031681565b73a746c67eb7915fa832a4c2076d403d4b6808543181565b60135481565b600a546001600160a01b031681565b600054604080516337b87c3960e21b815233600482015290516001600160a01b039092169163dee1f0e491602480820192602092909190829003018186803b15801561118757600080fd5b505afa15801561119b573d6000803e3d6000fd5b505050506040513d60208110156111b157600080fd5b50516111f5576040805162461bcd60e51b815260206004820152600e60248201526d4e6f7420676f7665726e616e636560901b604482015290519081900360640190fd5b60408051634b82009360e01b815230600482015290516001600160a01b03831691634b82009391602480830192600092919082900301818387803b15801561123c57600080fd5b505af1158015611250573d6000803e3d6000fd5b5050505050565b600054604080516337b87c3960e21b815233600482015290516001600160a01b039092169163dee1f0e491602480820192602092909190829003018186803b1580156112a257600080fd5b505afa1580156112b6573d6000803e3d6000fd5b505050506040513d60208110156112cc57600080fd5b5051611310576040805162461bcd60e51b815260206004820152600e60248201526d4e6f7420676f7665726e616e636560901b604482015290519081900360640190fd5b6012805460ff1916911515919091179055565b60015481565b600054604080516337b87c3960e21b815233600482015290516001600160a01b039092169163dee1f0e491602480820192602092909190829003018186803b15801561137457600080fd5b505afa158015611388573d6000803e3d6000fd5b505050506040513d602081101561139e57600080fd5b50516113e2576040805162461bcd60e51b815260206004820152600e60248201526d4e6f7420676f7665726e616e636560901b604482015290519081900360640190fd5b601355565b6007546001600160a01b031681565b6005546001600160a01b03163314806114275750611412611b9f565b6001600160a01b0316336001600160a01b0316145b8061144a5750611435610b41565b6001600160a01b0316336001600160a01b0316145b6114855760405162461bcd60e51b8152600401808060200182810382526039815260200180612cb06039913960400191505060405180910390fd5b600a54604080516370a0823160e01b815230600482015290516001600160a01b0390921691632e1a7d4d9183916370a0823191602480820192602092909190829003018186803b1580156114d857600080fd5b505afa1580156114ec573d6000803e3d6000fd5b505050506040513d602081101561150257600080fd5b5051604080516001600160e01b031960e085901b168152600481019290925251602480830192600092919082900301818387803b15801561154257600080fd5b505af1158015611556573d6000803e3d6000fd5b5050505061156560001961234d565b60048054604080516370a0823160e01b81523093810193909352516000926001600160a01b03909216916370a08231916024808301926020929190829003018186803b1580156115b457600080fd5b505afa1580156115c8573d6000803e3d6000fd5b505050506040513d60208110156115de57600080fd5b50519050801561160b5760055460045461160b916001600160a01b0391821691168363ffffffff611bfd16565b50565b60008061161c600f54610a9e565b9050600e5481101561165d57601054606403611654600e5461164860648561259890919063ffffffff16565b9063ffffffff6125f116565b119150506109c8565b60105460640161167d600e5461164860648561259890919063ffffffff16565b109150506109c8565b600054604080516337b87c3960e21b815233600482015290516001600160a01b039092169163dee1f0e491602480820192602092909190829003018186803b1580156116d157600080fd5b505afa1580156116e5573d6000803e3d6000fd5b505050506040513d60208110156116fb57600080fd5b505161173f576040805162461bcd60e51b815260206004820152600e60248201526d4e6f7420676f7665726e616e636560901b604482015290519081900360640190fd5b816001600160a01b031663eff7a612826040518263ffffffff1660e01b815260040180828152602001915050600060405180830381600087803b15801561178557600080fd5b505af1158015611799573d6000803e3d6000fd5b505050505050565b6005546001600160a01b03163314806117d257506117bd611b9f565b6001600160a01b0316336001600160a01b0316145b806117f557506117e0610b41565b6001600160a01b0316336001600160a01b0316145b6118305760405162461bcd60e51b8152600401808060200182810382526039815260200180612cb06039913960400191505060405180910390fd5b600a54604080516370a0823160e01b815230600482015290516001600160a01b0390921691632e1a7d4d9183916370a0823191602480820192602092909190829003018186803b15801561188357600080fd5b505afa158015611897573d6000803e3d6000fd5b505050506040513d60208110156118ad57600080fd5b5051604080516001600160e01b031960e085901b168152600481019290925251602480830192600092919082900301818387803b1580156118ed57600080fd5b505af1158015611901573d6000803e3d6000fd5b5050505061190e8161234d565b60048054604080516370a0823160e01b81523093810193909352516000926001600160a01b03909216916370a08231916024808301926020929190829003018186803b15801561195d57600080fd5b505afa158015611971573d6000803e3d6000fd5b505050506040513d602081101561198757600080fd5b5051905080156119c4576005546119c4906001600160a01b03166119ab8484612633565b6004546001600160a01b0316919063ffffffff611bfd16565b6119cc6120dd565b5050565b600b546001600160a01b031681565b73b4d0c929cd3a1fbdc6d57e7d3315cf0c4d6b4bfa81565b7377c6e4a580c0dce4e5c7a17d0bc077188a83a05981565b600d546001600160a01b031681565b60118181548110611a2b57fe5b6000918252602090912001546001600160a01b0316905081565b600054604080516337b87c3960e21b815233600482015290516001600160a01b039092169163dee1f0e491602480820192602092909190829003018186803b158015611a9057600080fd5b505afa158015611aa4573d6000803e3d6000fd5b505050506040513d6020811015611aba57600080fd5b5051611afe576040805162461bcd60e51b815260206004820152600e60248201526d4e6f7420676f7665726e616e636560901b604482015290519081900360640190fd5b611b196001600160a01b03851684600063ffffffff61223a16565b611b336001600160a01b038516848463ffffffff61223a16565b826001600160a01b03166365fc387383836040518363ffffffff1660e01b81526004018083815260200182815260200192505050600060405180830381600087803b158015611b8157600080fd5b505af1158015611b95573d6000803e3d6000fd5b5050505050505050565b60008060009054906101000a90046001600160a01b03166001600160a01b031663f77c47916040518163ffffffff1660e01b815260040160206040518083038186803b158015610b9057600080fd5b6005546001600160a01b031681565b604080516001600160a01b038416602482015260448082018490528251808303909101815260649091019091526020810180516001600160e01b031663a9059cbb60e01b179052610741908490612649565b600082820183811015611ca9576040805162461bcd60e51b815260206004820152601b60248201527f536166654d6174683a206164646974696f6e206f766572666c6f770000000000604482015290519081900360640190fd5b90505b92915050565b60125460ff16611cea576040517f444bcec8acce9dc46755761662d6262a490b9f61cca73243c5131d98df078ce390600090a16120db565b600b54600a54604080516335313c2160e11b81526001600160a01b03928316600482015290519190921691636a62784291602480830192600092919082900301818387803b158015611d3b57600080fd5b505af1158015611d4f573d6000803e3d6000fd5b5050600c54604080516370a0823160e01b81523060048201529051600094506001600160a01b0390921692506370a08231916024808301926020929190829003018186803b158015611da057600080fd5b505afa158015611db4573d6000803e3d6000fd5b505050506040513d6020811015611dca57600080fd5b505160135490915081111561160b576040805182815290517f875c79c14f0ec82c9ae01b82cfab0d1c5c4079f1500682832fb877a7dec614fb9181900360200190a160048054604080516370a0823160e01b81523093810193909352516000926001600160a01b03909216916370a08231916024808301926020929190829003018186803b158015611e5b57600080fd5b505afa158015611e6f573d6000803e3d6000fd5b505050506040513d6020811015611e8557600080fd5b5051600d54600c54919250611eae916001600160a01b039081169116600063ffffffff61223a16565b600d54600c54611ed1916001600160a01b0391821691168463ffffffff61223a16565b600d546040516338ed173960e01b8152600481018481526001602483018190523060648401819052426084850181905260a0604486019081526011805460a488018190526001600160a01b03909816976338ed1739978b97929594939160c49091019086908015611f6b57602002820191906000526020600020905b81546001600160a01b03168152600190910190602001808311611f4d575b50509650505050505050600060405180830381600087803b158015611f8f57600080fd5b505af1158015611fa3573d6000803e3d6000fd5b505050506040513d6000823e601f3d908101601f191682016040526020811015611fcc57600080fd5b8101908080516040519392919084640100000000821115611fec57600080fd5b90830190602082018581111561200157600080fd5b825186602082028301116401000000008211171561201e57600080fd5b82525081516020918201928201910280838360005b8381101561204b578181015183820152602001612033565b50505050919091016040818152600480546370a0823160e01b8452309184019190915290516119cc97508896506001600160a01b0390911694506370a08231935060248083019350602092829003018186803b1580156120aa57600080fd5b505afa1580156120be573d6000803e3d6000fd5b505050506040513d60208110156120d457600080fd5b5051612801565b565b6120e5612994565b600754604080516370a0823160e01b815230600482015290516000926001600160a01b0316916370a08231916024808301926020929190829003018186803b15801561213057600080fd5b505afa158015612144573d6000803e3d6000fd5b505050506040513d602081101561215a57600080fd5b50519050801561160b57600a54600754612188916001600160a01b039182169116600063ffffffff61223a16565b600a546007546121ab916001600160a01b0391821691168363ffffffff61223a16565b600a546040805163b6b55f2560e01b81526004810184905290516001600160a01b039092169163b6b55f259160248082019260009290919082900301818387803b15801561123c57600080fd5b6000611ca983836040518060400160405280601e81526020017f536166654d6174683a207375627472616374696f6e206f766572666c6f770000815250612ae7565b8015806122c0575060408051636eb1769f60e11b81523060048201526001600160a01b03848116602483015291519185169163dd62ed3e91604480820192602092909190829003018186803b15801561229257600080fd5b505afa1580156122a6573d6000803e3d6000fd5b505050506040513d60208110156122bc57600080fd5b5051155b6122fb5760405162461bcd60e51b8152600401808060200182810382526036815260200180612d576036913960400191505060405180910390fd5b604080516001600160a01b038416602482015260448082018490528251808303909101815260649091019091526020810180516001600160e01b031663095ea7b360e01b179052610741908490612649565b600754604080516370a0823160e01b815230600482015290516000926001600160a01b0316916370a08231916024808301926020929190829003018186803b15801561239857600080fd5b505afa1580156123ac573d6000803e3d6000fd5b505050506040513d60208110156123c257600080fd5b5051905060006123d182610a9e565b9050806123df57505061160b565b808310156124d6576123ef612c91565b6123f884612b7e565b60085460075491925061241f916001600160a01b039081169116600063ffffffff61223a16565b600854600754612442916001600160a01b0391821691168563ffffffff61223a16565b600854604051630c53debb60e11b81526001600160a01b03909116906318a7bd7690839086906004018083608080838360005b8381101561248d578181015183820152602001612475565b5050505090500182815260200192505050600060405180830381600087803b1580156124b857600080fd5b505af11580156124cc573d6000803e3d6000fd5b5050505050610741565b6008546007546124fa916001600160a01b039182169116600063ffffffff61223a16565b60085460075461251d916001600160a01b0391821691168463ffffffff61223a16565b6008546004546001600160a01b0390911690631a4d01d2908490600160a01b900460ff16600381111561254c57fe5b60006040518463ffffffff1660e01b81526004018084815260200183600f0b600f0b81526020018281526020019350505050600060405180830381600087803b158015610fa757600080fd5b6000826125a757506000611cac565b828202828482816125b457fe5b0414611ca95760405162461bcd60e51b8152600401808060200182810382526021815260200180612d0c6021913960400191505060405180910390fd5b6000611ca983836040518060400160405280601a81526020017f536166654d6174683a206469766973696f6e206279207a65726f000000000000815250612bf0565b60008183106126425781611ca9565b5090919050565b61265b826001600160a01b0316612c55565b6126ac576040805162461bcd60e51b815260206004820152601f60248201527f5361666545524332303a2063616c6c20746f206e6f6e2d636f6e747261637400604482015290519081900360640190fd5b60006060836001600160a01b0316836040518082805190602001908083835b602083106126ea5780518252601f1990920191602091820191016126cb565b6001836020036101000a0380198251168184511680821785525050505050509050019150506000604051808303816000865af19150503d806000811461274c576040519150601f19603f3d011682016040523d82523d6000602084013e612751565b606091505b5091509150816127a8576040805162461bcd60e51b815260206004820181905260248201527f5361666545524332303a206c6f772d6c6576656c2063616c6c206661696c6564604482015290519081900360640190fd5b805115610e25578080602001905160208110156127c457600080fd5b5051610e255760405162461bcd60e51b815260040180806020018281038252602a815260200180612d2d602a913960400191505060405180910390fd5b8181111561294a57600061281b828463ffffffff6121f816565b9050600061283a6002546116486001548561259890919063ffffffff16565b604080518681526020810186905280820183905242606082015290519192507f0b34b93979d93253da0e9e54841c680c66377f129a340ef2a37e802865e40588919081900360800190a16128a961288f611b9f565b6003546001600160a01b031690600063ffffffff61223a16565b6128cd6128b4611b9f565b6003546001600160a01b0316908363ffffffff61223a16565b6128d5611b9f565b60035460408051631ee0d7e560e31b81526001600160a01b039283166004820152602481018590529051929091169163f706bf289160448082019260009290919082900301818387803b15801561292b57600080fd5b505af115801561293f573d6000803e3d6000fd5b5050505050506119cc565b604080518381526020810183905260008183015242606082015290517f0b34b93979d93253da0e9e54841c680c66377f129a340ef2a37e802865e405889181900360800190a15050565b60048054604080516370a0823160e01b81523093810193909352516000926001600160a01b03909216916370a08231916024808301926020929190829003018186803b1580156129e357600080fd5b505afa1580156129f7573d6000803e3d6000fd5b505050506040513d6020811015612a0d57600080fd5b50519050801561160b57600854600454612a3b916001600160a01b039182169116600063ffffffff61223a16565b600854600454612a5e916001600160a01b0391821691168363ffffffff61223a16565b6000612a68612c91565b612a7183612b7e565b60085460405162a6cbcd60e21b81529192506001600160a01b03169063029b2f3490839085906004018083608080838360005b83811015612abc578181015183820152602001612aa4565b5050505090500182815260200192505050600060405180830381600087803b158015610fa757600080fd5b60008184841115612b765760405162461bcd60e51b81526004018080602001828103825283818151815260200191508051906020019080838360005b83811015612b3b578181015183820152602001612b23565b50505050905090810190601f168015612b685780820380516001836020036101000a031916815260200191505b509250505060405180910390fd5b505050900390565b612b86612c91565b612b8e612c91565b6040518060800160405280600081526020016000815260200160008152602001600081525090508281600460149054906101000a900460ff166003811115612bd257fe5b66ffffffffffffff1660048110612be557fe5b602002015292915050565b60008183612c3f5760405162461bcd60e51b8152602060048201818152835160248401528351909283926044909101919085019080838360008315612b3b578181015183820152602001612b23565b506000838581612c4b57fe5b0495945050505050565b6000813f7fc5d2460186f7233c927e7db2dcc703c0e500b653ca82273b7bfad8045d85a470818114801590612c8957508115155b949350505050565b6040518060800160405280600490602082028038833950919291505056fe5468652073656e6465722068617320746f2062652074686520636f6e74726f6c6c65722c20676f7665726e616e63652c206f72207661756c74746f6b656e20697320646566696e6564206173206e6f742073616c7661676561626c65536166654d6174683a206d756c7469706c69636174696f6e206f766572666c6f775361666545524332303a204552433230206f7065726174696f6e20646964206e6f7420737563636565645361666545524332303a20617070726f76652066726f6d206e6f6e2d7a65726f20746f206e6f6e2d7a65726f20616c6c6f77616e6365a265627a7a72315820ae0e8c930d4a92ae1b8ea898d4cdbf58906ccb26f91a229ad02c42b60e0a17ad64736f6c63430005100032",
  "source": "pragma solidity 0.5.16;\nimport \"./CRVStrategySwerve.sol\";\nimport \"./PriceConvertor.sol\";\n\n/**\n* Adds the mainnet addresses to the CRVStrategyWBTC\n*/\ncontract CRVStrategySwerveDAIMainnet is CRVStrategySwerve {\n\n  // token addresses\n  // using DAI here\n  address constant public __dai = address(0x6B175474E89094C44Da98b954EedeAC495271d0F);\n  // mixed token (swerve combo Swerve.fi DAI/USDC/USDT/TUSD (swUSD))\n  address constant public __stableMix = address(0x77C6E4a580c0dCE4E5c7a17d0bc077188a83A059);\n  // the dao reward token for swerve\n  address constant public __swrv = address(0xB8BAa0e4287890a5F79863aB62b7F175ceCbD433);\n  address constant public __weth = address(0xC02aaA39b223FE8D0A0e5C4F27eAD9083C756Cc2);\n  // swerve gauge\n  address constant public __gauge = address(0xb4d0C929cD3A1FbDc6d57E7D3315cF0C4d6B4bFa);\n  // swerve minter\n  address constant public __mintr = address(0x2c988c3974AD7E604E276AE0294a7228DEf67974); // _mintr\n\n  // protocols\n  // delegate to zap\n  address constant public __poolZap = address(0xa746c67eB7915Fa832a4C2076D403D4B68085431);\n  address constant public __uniswap = address(0x7a250d5630B4cF539739dF2C5dAcb4c659F2488D);\n\n  uint256 constant public __tokenIndex = 0;\n\n  constructor(\n    address _storage,\n    address _vault\n  )\n  CRVStrategySwerve(\n    _storage,\n    __dai,\n    _vault,\n    __tokenIndex, // token index for DAI\n    __stableMix,\n    __poolZap, // curve protocol's pool for WBTC\n    __swrv, // the reward DAO token address\n    __weth,\n    __gauge,\n    __mintr,\n    __uniswap // uniswap\n  )\n  public {\n    wbtcPriceCheckpoint = wbtcValueFromMixToken(mixTokenUnit);\n  }\n}\n",
  "sourcePath": "/home/jawaher/tmp/harvest/contracts/strategies/curve/CRVStrategySwerveDAIMainnet.sol",
  "compiler": {
    "name": "solc",
    "version": "0.5.16+commit.9c3226ce.Emscripten.clang"
  },
  "schemaVersion": "3.2.5",
  "updatedAt": "2020-10-19T08:25:32.266Z",
  "devdoc": {
    "methods": {}
  },
  "userdoc": {
    "methods": {
      "checkpoint(address)": {
        "notice": "Checkpoints the Swerve lock balance"
      },
      "createLock(address,address,uint256,uint256)": {
        "notice": "Creates a Swerve lock"
      },
      "doHardWork()": {
        "notice": "The hard work only invests all wbtc assets, and then tells the controller to call hard work on the mixToken vault."
      },
      "increaseAmount(address,address,uint256)": {
        "notice": "Increases the lock amount for Swerve"
      },
      "increaseUnlockTime(address,uint256)": {
        "notice": "Increases the unlock time for Swerve"
      },
      "investedUnderlyingBalance()": {
        "notice": "Returns the wbtc invested balance. The is the wbtc amount in this stragey, plus the gauge amount of the mixed token converted back to wbtc."
      },
      "salvage(address,address,uint256)": {
        "notice": "Salvages a token. We cannot salvage mixToken tokens, CRV, or wbtc assets."
      },
      "setSell(bool)": {
        "notice": "Can completely disable claiming CRV rewards and selling. Good for emergency withdraw in the simplest possible way."
      },
      "setSellFloor(uint256)": {
        "notice": "Sets the minimum amount of CRV needed to trigger a sale."
      },
      "withdrawAllToVault()": {
        "notice": "Withdraws all assets from the vault."
      },
      "withdrawLock(address,address)": {
        "notice": "Withdraws an expired lock"
      },
      "withdrawToVault(uint256)": {
        "notice": "Withdraws an wbtc asset from the strategy to the vault in the specified amount by asking by removing imbalanced liquidity from the Curve protocol. The rest is deposited back to the Curve protocol pool. If the amount requested cannot be obtained, the method will get as much as we have."
      }
    },
    "notice": "Adds the mainnet addresses to the CRVStrategyWBTC"
  }
}