{
  "contractName": "CRVStrategyWBTCMainnet",
  "abi": [
    {
      "inputs": [
        {
          "internalType": "address",
          "name": "_storage",
          "type": "address"
        },
        {
          "internalType": "address",
          "name": "_vault",
          "type": "address"
        }
      ],
      "payable": false,
      "stateMutability": "nonpayable",
      "type": "constructor"
    },
    {
      "anonymous": false,
      "inputs": [
        {
          "indexed": false,
          "internalType": "uint256",
          "name": "amount",
          "type": "uint256"
        }
      ],
      "name": "Liquidating",
      "type": "event"
    },
    {
      "anonymous": false,
      "inputs": [
        {
          "indexed": false,
          "internalType": "uint256",
          "name": "oldBalance",
          "type": "uint256"
        },
        {
          "indexed": false,
          "internalType": "uint256",
          "name": "newBalance",
          "type": "uint256"
        },
        {
          "indexed": false,
          "internalType": "uint256",
          "name": "feeAmount",
          "type": "uint256"
        },
        {
          "indexed": false,
          "internalType": "uint256",
          "name": "timestamp",
          "type": "uint256"
        }
      ],
      "name": "ProfitLog",
      "type": "event"
    },
    {
      "anonymous": false,
      "inputs": [],
      "name": "ProfitsNotCollected",
      "type": "event"
    },
    {
      "constant": true,
      "inputs": [],
      "name": "__crv",
      "outputs": [
        {
          "internalType": "address",
          "name": "",
          "type": "address"
        }
      ],
      "payable": false,
      "stateMutability": "view",
      "type": "function"
    },
    {
      "constant": true,
      "inputs": [],
      "name": "__curve",
      "outputs": [
        {
          "internalType": "address",
          "name": "",
          "type": "address"
        }
      ],
      "payable": false,
      "stateMutability": "view",
      "type": "function"
    },
    {
      "constant": true,
      "inputs": [],
      "name": "__gauge",
      "outputs": [
        {
          "internalType": "address",
          "name": "",
          "type": "address"
        }
      ],
      "payable": false,
      "stateMutability": "view",
      "type": "function"
    },
    {
      "constant": true,
      "inputs": [],
      "name": "__mintr",
      "outputs": [
        {
          "internalType": "address",
          "name": "",
          "type": "address"
        }
      ],
      "payable": false,
      "stateMutability": "view",
      "type": "function"
    },
    {
      "constant": true,
      "inputs": [],
      "name": "__tokenIndex",
      "outputs": [
        {
          "internalType": "uint256",
          "name": "",
          "type": "uint256"
        }
      ],
      "payable": false,
      "stateMutability": "view",
      "type": "function"
    },
    {
      "constant": true,
      "inputs": [],
      "name": "__uniswap",
      "outputs": [
        {
          "internalType": "address",
          "name": "",
          "type": "address"
        }
      ],
      "payable": false,
      "stateMutability": "view",
      "type": "function"
    },
    {
      "constant": true,
      "inputs": [],
      "name": "__wbtc",
      "outputs": [
        {
          "internalType": "address",
          "name": "",
          "type": "address"
        }
      ],
      "payable": false,
      "stateMutability": "view",
      "type": "function"
    },
    {
      "constant": true,
      "inputs": [],
      "name": "__wbtcMix",
      "outputs": [
        {
          "internalType": "address",
          "name": "",
          "type": "address"
        }
      ],
      "payable": false,
      "stateMutability": "view",
      "type": "function"
    },
    {
      "constant": true,
      "inputs": [],
      "name": "__weth",
      "outputs": [
        {
          "internalType": "address",
          "name": "",
          "type": "address"
        }
      ],
      "payable": false,
      "stateMutability": "view",
      "type": "function"
    },
    {
      "constant": true,
      "inputs": [],
      "name": "arbTolerance",
      "outputs": [
        {
          "internalType": "uint256",
          "name": "",
          "type": "uint256"
        }
      ],
      "payable": false,
      "stateMutability": "view",
      "type": "function"
    },
    {
      "constant": true,
      "inputs": [],
      "name": "controller",
      "outputs": [
        {
          "internalType": "address",
          "name": "",
          "type": "address"
        }
      ],
      "payable": false,
      "stateMutability": "view",
      "type": "function"
    },
    {
      "constant": true,
      "inputs": [],
      "name": "crv",
      "outputs": [
        {
          "internalType": "address",
          "name": "",
          "type": "address"
        }
      ],
      "payable": false,
      "stateMutability": "view",
      "type": "function"
    },
    {
      "constant": true,
      "inputs": [],
      "name": "curve",
      "outputs": [
        {
          "internalType": "address",
          "name": "",
          "type": "address"
        }
      ],
      "payable": false,
      "stateMutability": "view",
      "type": "function"
    },
    {
      "constant": true,
      "inputs": [],
      "name": "depositArbCheck",
      "outputs": [
        {
          "internalType": "bool",
          "name": "",
          "type": "bool"
        }
      ],
      "payable": false,
      "stateMutability": "view",
      "type": "function"
    },
    {
      "constant": false,
      "inputs": [],
      "name": "doHardWork",
      "outputs": [],
      "payable": false,
      "stateMutability": "nonpayable",
      "type": "function"
    },
    {
      "constant": true,
      "inputs": [],
      "name": "gauge",
      "outputs": [
        {
          "internalType": "address",
          "name": "",
          "type": "address"
        }
      ],
      "payable": false,
      "stateMutability": "view",
      "type": "function"
    },
    {
      "constant": true,
      "inputs": [],
      "name": "governance",
      "outputs": [
        {
          "internalType": "address",
          "name": "",
          "type": "address"
        }
      ],
      "payable": false,
      "stateMutability": "view",
      "type": "function"
    },
    {
      "constant": true,
      "inputs": [],
      "name": "investedUnderlyingBalance",
      "outputs": [
        {
          "internalType": "uint256",
          "name": "",
          "type": "uint256"
        }
      ],
      "payable": false,
      "stateMutability": "view",
      "type": "function"
    },
    {
      "constant": true,
      "inputs": [],
      "name": "mintr",
      "outputs": [
        {
          "internalType": "address",
          "name": "",
          "type": "address"
        }
      ],
      "payable": false,
      "stateMutability": "view",
      "type": "function"
    },
    {
      "constant": true,
      "inputs": [],
      "name": "mixToken",
      "outputs": [
        {
          "internalType": "address",
          "name": "",
          "type": "address"
        }
      ],
      "payable": false,
      "stateMutability": "view",
      "type": "function"
    },
    {
      "constant": true,
      "inputs": [],
      "name": "mixTokenUnit",
      "outputs": [
        {
          "internalType": "uint256",
          "name": "",
          "type": "uint256"
        }
      ],
      "payable": false,
      "stateMutability": "view",
      "type": "function"
    },
    {
      "constant": true,
      "inputs": [],
      "name": "profitSharingDenominator",
      "outputs": [
        {
          "internalType": "uint256",
          "name": "",
          "type": "uint256"
        }
      ],
      "payable": false,
      "stateMutability": "view",
      "type": "function"
    },
    {
      "constant": true,
      "inputs": [],
      "name": "profitSharingNumerator",
      "outputs": [
        {
          "internalType": "uint256",
          "name": "",
          "type": "uint256"
        }
      ],
      "payable": false,
      "stateMutability": "view",
      "type": "function"
    },
    {
      "constant": false,
      "inputs": [
        {
          "internalType": "address",
          "name": "recipient",
          "type": "address"
        },
        {
          "internalType": "address",
          "name": "token",
          "type": "address"
        },
        {
          "internalType": "uint256",
          "name": "amount",
          "type": "uint256"
        }
      ],
      "name": "salvage",
      "outputs": [],
      "payable": false,
      "stateMutability": "nonpayable",
      "type": "function"
    },
    {
      "constant": true,
      "inputs": [],
      "name": "sell",
      "outputs": [
        {
          "internalType": "bool",
          "name": "",
          "type": "bool"
        }
      ],
      "payable": false,
      "stateMutability": "view",
      "type": "function"
    },
    {
      "constant": true,
      "inputs": [],
      "name": "sellFloor",
      "outputs": [
        {
          "internalType": "uint256",
          "name": "",
          "type": "uint256"
        }
      ],
      "payable": false,
      "stateMutability": "view",
      "type": "function"
    },
    {
      "constant": false,
      "inputs": [
        {
          "internalType": "uint256",
          "name": "tolerance",
          "type": "uint256"
        }
      ],
      "name": "setArbTolerance",
      "outputs": [],
      "payable": false,
      "stateMutability": "nonpayable",
      "type": "function"
    },
    {
      "constant": false,
      "inputs": [
        {
          "internalType": "bool",
          "name": "s",
          "type": "bool"
        }
      ],
      "name": "setSell",
      "outputs": [],
      "payable": false,
      "stateMutability": "nonpayable",
      "type": "function"
    },
    {
      "constant": false,
      "inputs": [
        {
          "internalType": "uint256",
          "name": "floor",
          "type": "uint256"
        }
      ],
      "name": "setSellFloor",
      "outputs": [],
      "payable": false,
      "stateMutability": "nonpayable",
      "type": "function"
    },
    {
      "constant": false,
      "inputs": [
        {
          "internalType": "address",
          "name": "_store",
          "type": "address"
        }
      ],
      "name": "setStorage",
      "outputs": [],
      "payable": false,
      "stateMutability": "nonpayable",
      "type": "function"
    },
    {
      "constant": true,
      "inputs": [],
      "name": "store",
      "outputs": [
        {
          "internalType": "contract Storage",
          "name": "",
          "type": "address"
        }
      ],
      "payable": false,
      "stateMutability": "view",
      "type": "function"
    },
    {
      "constant": true,
      "inputs": [],
      "name": "underlying",
      "outputs": [
        {
          "internalType": "address",
          "name": "",
          "type": "address"
        }
      ],
      "payable": false,
      "stateMutability": "view",
      "type": "function"
    },
    {
      "constant": true,
      "inputs": [],
      "name": "uni",
      "outputs": [
        {
          "internalType": "address",
          "name": "",
          "type": "address"
        }
      ],
      "payable": false,
      "stateMutability": "view",
      "type": "function"
    },
    {
      "constant": true,
      "inputs": [
        {
          "internalType": "uint256",
          "name": "",
          "type": "uint256"
        }
      ],
      "name": "uniswap_CRV2WBTC",
      "outputs": [
        {
          "internalType": "address",
          "name": "",
          "type": "address"
        }
      ],
      "payable": false,
      "stateMutability": "view",
      "type": "function"
    },
    {
      "constant": true,
      "inputs": [
        {
          "internalType": "address",
          "name": "",
          "type": "address"
        }
      ],
      "name": "unsalvagableTokens",
      "outputs": [
        {
          "internalType": "bool",
          "name": "",
          "type": "bool"
        }
      ],
      "payable": false,
      "stateMutability": "view",
      "type": "function"
    },
    {
      "constant": true,
      "inputs": [],
      "name": "vault",
      "outputs": [
        {
          "internalType": "address",
          "name": "",
          "type": "address"
        }
      ],
      "payable": false,
      "stateMutability": "view",
      "type": "function"
    },
    {
      "constant": true,
      "inputs": [],
      "name": "wbtc",
      "outputs": [
        {
          "internalType": "address",
          "name": "",
          "type": "address"
        }
      ],
      "payable": false,
      "stateMutability": "view",
      "type": "function"
    },
    {
      "constant": true,
      "inputs": [],
      "name": "wbtcPriceCheckpoint",
      "outputs": [
        {
          "internalType": "uint256",
          "name": "",
          "type": "uint256"
        }
      ],
      "payable": false,
      "stateMutability": "view",
      "type": "function"
    },
    {
      "constant": true,
      "inputs": [
        {
          "internalType": "uint256",
          "name": "mixTokenBalance",
          "type": "uint256"
        }
      ],
      "name": "wbtcValueFromMixToken",
      "outputs": [
        {
          "internalType": "uint256",
          "name": "",
          "type": "uint256"
        }
      ],
      "payable": false,
      "stateMutability": "view",
      "type": "function"
    },
    {
      "constant": false,
      "inputs": [],
      "name": "withdrawAllToVault",
      "outputs": [],
      "payable": false,
      "stateMutability": "nonpayable",
      "type": "function"
    },
    {
      "constant": false,
      "inputs": [
        {
          "internalType": "uint256",
          "name": "amountWbtc",
          "type": "uint256"
        }
      ],
      "name": "withdrawToVault",
      "outputs": [],
      "payable": false,
      "stateMutability": "nonpayable",
      "type": "function"
    }
  ],
  "bytecode": "0x60806040526003600f556011805460ff191660011790556801a055690d9db800006012553480156200003057600080fd5b5060405162002bac38038062002bac833981810160405260408110156200005657600080fd5b50805160209091015181732260fac5e5542a773aa44fbcfedf7c193bc2c5998260017349849c98ae39fff122806c06791fa73784fb36757393054188d876f558f4a66b2ef1d97d16edf0895b73d533a949740bb3306d119cc777fa900ba034cd5273c02aaa39b223fe8d0a0e5c4f27ead9083c756cc273b1f2cdec61db658f091671f5f199635aef202cac73d061d61a4d941c39e5453435b6345dc261c2fce0737a250d5630b4cf539739df2c5dacb4c659f2488d8a8a81806001600160a01b0381166200016b576040805162461bcd60e51b815260206004820152601e60248201527f6e65772073746f726167652073686f756c646e277420626520656d7074790000604482015290519081900360640190fd5b600080546001600160a01b03199081166001600160a01b03938416179091556003805490911691841691909117905550620001a56200045f565b6001600160a01b031663b60f151a6040518163ffffffff1660e01b815260040160206040518083038186803b158015620001de57600080fd5b505afa158015620001f3573d6000803e3d6000fd5b505050506040513d60208110156200020a57600080fd5b5051600155620002226001600160e01b036200045f16565b6001600160a01b031663026a0dd06040518163ffffffff1660e01b815260040160206040518083038186803b1580156200025b57600080fd5b505afa15801562000270573d6000803e3d6000fd5b505050506040513d60208110156200028757600080fd5b5051600281905560015410620002e4576040805162461bcd60e51b815260206004820152601460248201527f696e76616c69642070726f666974207368617265000000000000000000000000604482015290519081900360640190fd5b5050600580546001600160a01b03808c166001600160a01b03199283161790925560048054928d16929091169190911790558760018111156200032357fe5b6004805460ff60a01b1916600160a01b8360018111156200034057fe5b0217905550600680546001600160a01b03199081166001600160a01b038a811691909117909255600780548216898416179055600980548216868416179055600b80548216888416908117909155600c80548316858516179055600a805490921685841617909155604080516060810182529182528683166020830152918c1691810191909152620003d79060109060036200058a565b50506004546001600160a01b039081166000908152600860205260408082208054600160ff199182168117909255600654851684528284208054821683179055600b549094168352912080549092161790555050670de0b6b3a7640000600e819055600d819055620004539850965050620004e3945050505050565b600d55506200061b9050565b60008060009054906101000a90046001600160a01b03166001600160a01b031663f77c47916040518163ffffffff1660e01b815260040160206040518083038186803b158015620004af57600080fd5b505afa158015620004c4573d6000803e3d6000fd5b505050506040513d6020811015620004db57600080fd5b505190505b90565b6007546004546000916001600160a01b03169063cc2b27d7908490600160a01b900460ff1660018111156200051457fe5b6040518363ffffffff1660e01b81526004018083815260200182600f0b600f0b81526020019250505060206040518083038186803b1580156200055657600080fd5b505afa1580156200056b573d6000803e3d6000fd5b505050506040513d60208110156200058257600080fd5b505192915050565b828054828255906000526020600020908101928215620005e2579160200282015b82811115620005e257825182546001600160a01b0319166001600160a01b03909116178255602090920191600190910190620005ab565b50620005f0929150620005f4565b5090565b620004e091905b80821115620005f05780546001600160a01b0319168155600101620005fb565b612581806200062b6000396000f3fe608060405234801561001057600080fd5b50600436106102535760003560e01c806377be00f311610146578063ba09591e116100c3578063d1e61dcb11610087578063d1e61dcb14610489578063ded0783814610491578063edc9af9514610499578063f03312ff146104a1578063f77c4791146104be578063fbfa77cf146104c657610253565b8063ba09591e14610437578063be85ba3314610454578063bfd131f11461045c578063c2a2a07b14610464578063ce8c42e81461046c57610253565b8063975057e71161010a578063975057e7146103f8578063a1dab23e14610400578063a6f19c8414610408578063b076a53a14610410578063b60f151a1461042f57610253565b806377be00f3146103b25780637f2c7237146103ba57806386d4b367146103c25780639137c1a7146103ca57806392468965146103f057610253565b806345710074116101d45780635aa6e675116101985780635aa6e6751461038a5780635b929edd146103925780636a4874a11461039a5780636f307dc3146103a25780637165485d146103aa57610253565b8063457100741461031b57806345d01e4a146103375780634fa5d8541461033f5780635018594614610347578063554a16ba1461036d57610253565b80631b0adc1f1161021b5780631b0adc1f146102de5780631c13e96e146102e65780632cca0cd6146102ee5780632e3f1474146102f65780633cdc53891461031357610253565b80630240c3e914610258578063026a0dd01461027c5780630a9de2e1146102965780630facefc91461029e5780631113ef52146102a6575b600080fd5b6102606104ce565b604080516001600160a01b039092168252519081900360200190f35b6102846104e6565b60408051918252519081900360200190f35b6102846104ec565b6102606104f2565b6102dc600480360360608110156102bc57600080fd5b506001600160a01b0381358116916020810135909116906040013561050a565b005b61028461063a565b61028461063f565b610260610645565b6102dc6004803603602081101561030c57600080fd5b503561065d565b61026061075f565b61032361076e565b604080519115158252519081900360200190f35b610284610777565b6102dc6108a7565b6103236004803603602081101561035d57600080fd5b50356001600160a01b0316610956565b6102846004803603602081101561038357600080fd5b503561096b565b610260610a0e565b610260610a8e565b610260610aa6565b610260610ab5565b610260610ac4565b610260610ad3565b610260610aeb565b610260610b03565b6102dc600480360360208110156103e057600080fd5b50356001600160a01b0316610b1b565b610284610c51565b610260610c57565b610284610c66565b610260610c6c565b6102dc6004803603602081101561042657600080fd5b50351515610c7b565b610284610d47565b6102dc6004803603602081101561044d57600080fd5b5035610d4d565b610260610e0b565b6102dc610e1a565b610323611032565b6102dc6004803603602081101561048257600080fd5b50356110a1565b6102606112d0565b6102606112df565b6102606112f7565b610260600480360360208110156104b757600080fd5b5035611306565b61026061132d565b61026061137c565b7393054188d876f558f4a66b2ef1d97d16edf0895b81565b60025481565b600d5481565b73d533a949740bb3306d119cc777fa900ba034cd5281565b600054604080516337b87c3960e21b815233600482015290516001600160a01b039092169163dee1f0e491602480820192602092909190829003018186803b15801561055557600080fd5b505afa158015610569573d6000803e3d6000fd5b505050506040513d602081101561057f57600080fd5b50516105c3576040805162461bcd60e51b815260206004820152600e60248201526d4e6f7420676f7665726e616e636560901b604482015290519081900360640190fd5b6001600160a01b03821660009081526008602052604090205460ff161561061b5760405162461bcd60e51b81526004018080602001828103825260238152602001806124a96023913960400191505060405180910390fd5b6106356001600160a01b038316848363ffffffff61138b16565b505050565b600181565b600f5481565b73c02aaa39b223fe8d0a0e5c4f27ead9083c756cc281565b600054604080516337b87c3960e21b815233600482015290516001600160a01b039092169163dee1f0e491602480820192602092909190829003018186803b1580156106a857600080fd5b505afa1580156106bc573d6000803e3d6000fd5b505050506040513d60208110156106d257600080fd5b5051610716576040805162461bcd60e51b815260206004820152600e60248201526d4e6f7420676f7665726e616e636560901b604482015290519081900360640190fd5b606481111561075a576040805162461bcd60e51b815260206004820152600b60248201526a06174206d6f7374203130360ac1b604482015290519081900360640190fd5b600f55565b6004546001600160a01b031681565b60115460ff1681565b600954604080516370a0823160e01b8152306004820152905160009283926001600160a01b03909116916370a0823191602480820192602092909190829003018186803b1580156107c757600080fd5b505afa1580156107db573d6000803e3d6000fd5b505050506040513d60208110156107f157600080fd5b505160048054604080516370a0823160e01b81523093810193909352519293506000926001600160a01b03909116916370a08231916024808301926020929190829003018186803b15801561084557600080fd5b505afa158015610859573d6000803e3d6000fd5b505050506040513d602081101561086f57600080fd5b50519050816108815791506108a49050565b600061088c8361096b565b905061089e818363ffffffff6113dd16565b93505050505b90565b6005546001600160a01b03163314806108d857506108c361132d565b6001600160a01b0316336001600160a01b0316145b806108fb57506108e6610a0e565b6001600160a01b0316336001600160a01b0316145b6109365760405162461bcd60e51b81526004018080602001828103825260398152602001806124706039913960400191505060405180910390fd5b61093e611440565b61094661186c565b610951600e5461096b565b600d55565b60086020526000908152604090205460ff1681565b6007546004546000916001600160a01b03169063cc2b27d7908490600160a01b900460ff16600181111561099b57fe5b6040518363ffffffff1660e01b81526004018083815260200182600f0b600f0b81526020019250505060206040518083038186803b1580156109dc57600080fd5b505afa1580156109f0573d6000803e3d6000fd5b505050506040513d6020811015610a0657600080fd5b505192915050565b60008060009054906101000a90046001600160a01b03166001600160a01b0316635aa6e6756040518163ffffffff1660e01b815260040160206040518083038186803b158015610a5d57600080fd5b505afa158015610a71573d6000803e3d6000fd5b505050506040513d6020811015610a8757600080fd5b5051905090565b732260fac5e5542a773aa44fbcfedf7c193bc2c59981565b600b546001600160a01b031681565b6003546001600160a01b031681565b6007546001600160a01b031681565b737a250d5630b4cf539739df2c5dacb4c659f2488d81565b7349849c98ae39fff122806c06791fa73784fb367581565b73d061d61a4d941c39e5453435b6345dc261c2fce081565b600054604080516337b87c3960e21b815233600482015290516001600160a01b039092169163dee1f0e491602480820192602092909190829003018186803b158015610b6657600080fd5b505afa158015610b7a573d6000803e3d6000fd5b505050506040513d6020811015610b9057600080fd5b5051610bd4576040805162461bcd60e51b815260206004820152600e60248201526d4e6f7420676f7665726e616e636560901b604482015290519081900360640190fd5b6001600160a01b038116610c2f576040805162461bcd60e51b815260206004820152601e60248201527f6e65772073746f726167652073686f756c646e277420626520656d7074790000604482015290519081900360640190fd5b600080546001600160a01b0319166001600160a01b0392909216919091179055565b600e5481565b6000546001600160a01b031681565b60125481565b6009546001600160a01b031681565b600054604080516337b87c3960e21b815233600482015290516001600160a01b039092169163dee1f0e491602480820192602092909190829003018186803b158015610cc657600080fd5b505afa158015610cda573d6000803e3d6000fd5b505050506040513d6020811015610cf057600080fd5b5051610d34576040805162461bcd60e51b815260206004820152600e60248201526d4e6f7420676f7665726e616e636560901b604482015290519081900360640190fd5b6011805460ff1916911515919091179055565b60015481565b600054604080516337b87c3960e21b815233600482015290516001600160a01b039092169163dee1f0e491602480820192602092909190829003018186803b158015610d9857600080fd5b505afa158015610dac573d6000803e3d6000fd5b505050506040513d6020811015610dc257600080fd5b5051610e06576040805162461bcd60e51b815260206004820152600e60248201526d4e6f7420676f7665726e616e636560901b604482015290519081900360640190fd5b601255565b6006546001600160a01b031681565b6005546001600160a01b0316331480610e4b5750610e3661132d565b6001600160a01b0316336001600160a01b0316145b80610e6e5750610e59610a0e565b6001600160a01b0316336001600160a01b0316145b610ea95760405162461bcd60e51b81526004018080602001828103825260398152602001806124706039913960400191505060405180910390fd5b600954604080516370a0823160e01b815230600482015290516001600160a01b0390921691632e1a7d4d9183916370a0823191602480820192602092909190829003018186803b158015610efc57600080fd5b505afa158015610f10573d6000803e3d6000fd5b505050506040513d6020811015610f2657600080fd5b5051604080516001600160e01b031960e085901b168152600481019290925251602480830192600092919082900301818387803b158015610f6657600080fd5b505af1158015610f7a573d6000803e3d6000fd5b50505050610f896000196119a2565b60048054604080516370a0823160e01b81523093810193909352516000926001600160a01b03909216916370a08231916024808301926020929190829003018186803b158015610fd857600080fd5b505afa158015610fec573d6000803e3d6000fd5b505050506040513d602081101561100257600080fd5b50519050801561102f5760055460045461102f916001600160a01b0391821691168363ffffffff61138b16565b50565b600080611040600e5461096b565b9050600d5481111561108157600f54606403611078600d5461106c606485611c0e90919063ffffffff16565b9063ffffffff611c6716565b119150506108a4565b600f546064036110788261106c6064600d54611c0e90919063ffffffff16565b6005546001600160a01b03163314806110d257506110bd61132d565b6001600160a01b0316336001600160a01b0316145b806110f557506110e0610a0e565b6001600160a01b0316336001600160a01b0316145b6111305760405162461bcd60e51b81526004018080602001828103825260398152602001806124706039913960400191505060405180910390fd5b600954604080516370a0823160e01b815230600482015290516001600160a01b0390921691632e1a7d4d9183916370a0823191602480820192602092909190829003018186803b15801561118357600080fd5b505afa158015611197573d6000803e3d6000fd5b505050506040513d60208110156111ad57600080fd5b5051604080516001600160e01b031960e085901b168152600481019290925251602480830192600092919082900301818387803b1580156111ed57600080fd5b505af1158015611201573d6000803e3d6000fd5b5050505061120e816119a2565b60048054604080516370a0823160e01b81523093810193909352516000926001600160a01b03909216916370a08231916024808301926020929190829003018186803b15801561125d57600080fd5b505afa158015611271573d6000803e3d6000fd5b505050506040513d602081101561128757600080fd5b5051905080156112c4576005546112c4906001600160a01b03166112ab8484611ca9565b6004546001600160a01b0316919063ffffffff61138b16565b6112cc61186c565b5050565b600a546001600160a01b031681565b73b1f2cdec61db658f091671f5f199635aef202cac81565b600c546001600160a01b031681565b6010818154811061131357fe5b6000918252602090912001546001600160a01b0316905081565b60008060009054906101000a90046001600160a01b03166001600160a01b031663f77c47916040518163ffffffff1660e01b815260040160206040518083038186803b158015610a5d57600080fd5b6005546001600160a01b031681565b604080516001600160a01b038416602482015260448082018490528251808303909101815260649091019091526020810180516001600160e01b031663a9059cbb60e01b179052610635908490611cbf565b600082820183811015611437576040805162461bcd60e51b815260206004820152601b60248201527f536166654d6174683a206164646974696f6e206f766572666c6f770000000000604482015290519081900360640190fd5b90505b92915050565b60115460ff16611478576040517f444bcec8acce9dc46755761662d6262a490b9f61cca73243c5131d98df078ce390600090a161186a565b600a54600954604080516335313c2160e11b81526001600160a01b03928316600482015290519190921691636a62784291602480830192600092919082900301818387803b1580156114c957600080fd5b505af11580156114dd573d6000803e3d6000fd5b5050600b54604080516370a0823160e01b81523060048201529051600094506001600160a01b0390921692506370a08231916024808301926020929190829003018186803b15801561152e57600080fd5b505afa158015611542573d6000803e3d6000fd5b505050506040513d602081101561155857600080fd5b50516040805182815290519192507f875c79c14f0ec82c9ae01b82cfab0d1c5c4079f1500682832fb877a7dec614fb919081900360200190a160125481111561102f5760048054604080516370a0823160e01b81523093810193909352516000926001600160a01b03909216916370a08231916024808301926020929190829003018186803b1580156115ea57600080fd5b505afa1580156115fe573d6000803e3d6000fd5b505050506040513d602081101561161457600080fd5b5051600c54600b5491925061163d916001600160a01b039081169116600063ffffffff611e7d16565b600c54600b54611660916001600160a01b0391821691168463ffffffff611e7d16565b600c546040516338ed173960e01b8152600481018481526001602483018190523060648401819052426084850181905260a0604486019081526010805460a488018190526001600160a01b03909816976338ed1739978b97929594939160c490910190869080156116fa57602002820191906000526020600020905b81546001600160a01b031681526001909101906020018083116116dc575b50509650505050505050600060405180830381600087803b15801561171e57600080fd5b505af1158015611732573d6000803e3d6000fd5b505050506040513d6000823e601f3d908101601f19168201604052602081101561175b57600080fd5b810190808051604051939291908464010000000082111561177b57600080fd5b90830190602082018581111561179057600080fd5b82518660208202830111640100000000821117156117ad57600080fd5b82525081516020918201928201910280838360005b838110156117da5781810151838201526020016117c2565b50505050919091016040818152600480546370a0823160e01b8452309184019190915290516112cc97508896506001600160a01b0390911694506370a08231935060248083019350602092829003018186803b15801561183957600080fd5b505afa15801561184d573d6000803e3d6000fd5b505050506040513d602081101561186357600080fd5b5051611f90565b565b611874612123565b600654604080516370a0823160e01b815230600482015290516000926001600160a01b0316916370a08231916024808301926020929190829003018186803b1580156118bf57600080fd5b505afa1580156118d3573d6000803e3d6000fd5b505050506040513d60208110156118e957600080fd5b50519050801561102f57600954600654611917916001600160a01b039182169116600063ffffffff611e7d16565b60095460065461193a916001600160a01b0391821691168363ffffffff611e7d16565b6009546040805163b6b55f2560e01b81526004810184905290516001600160a01b039092169163b6b55f259160248082019260009290919082900301818387803b15801561198757600080fd5b505af115801561199b573d6000803e3d6000fd5b5050505050565b600654604080516370a0823160e01b815230600482015290516000926001600160a01b0316916370a08231916024808301926020929190829003018186803b1580156119ed57600080fd5b505afa158015611a01573d6000803e3d6000fd5b505050506040513d6020811015611a1757600080fd5b505190506000611a268261096b565b905080611a3457505061102f565b80831015611b2f57611a44612451565b611a4d8461227d565b600754600654919250611a74916001600160a01b039081169116600063ffffffff611e7d16565b600754600654611a97916001600160a01b0391821691168563ffffffff611e7d16565b6007546040805163e310327360e01b81526001600160a01b039092169163e310327391849187916004909101908190849080838360005b83811015611ae6578181015183820152602001611ace565b5050505090500182815260200192505050600060405180830381600087803b158015611b1157600080fd5b505af1158015611b25573d6000803e3d6000fd5b5050505050610635565b600754600654611b53916001600160a01b039182169116600063ffffffff611e7d16565b600754600654611b76916001600160a01b0391821691168463ffffffff611e7d16565b6007546004546001600160a01b0390911690631a4d01d2908490600160a01b900460ff166001811115611ba557fe5b60006040518463ffffffff1660e01b81526004018084815260200183600f0b600f0b81526020018281526020019350505050600060405180830381600087803b158015611bf157600080fd5b505af1158015611c05573d6000803e3d6000fd5b50505050505050565b600082611c1d5750600061143a565b82820282848281611c2a57fe5b04146114375760405162461bcd60e51b81526004018080602001828103825260218152602001806124cc6021913960400191505060405180910390fd5b600061143783836040518060400160405280601a81526020017f536166654d6174683a206469766973696f6e206279207a65726f0000000000008152506122dc565b6000818310611cb85781611437565b5090919050565b611cd1826001600160a01b031661237e565b611d22576040805162461bcd60e51b815260206004820152601f60248201527f5361666545524332303a2063616c6c20746f206e6f6e2d636f6e747261637400604482015290519081900360640190fd5b60006060836001600160a01b0316836040518082805190602001908083835b60208310611d605780518252601f199092019160209182019101611d41565b6001836020036101000a0380198251168184511680821785525050505050509050019150506000604051808303816000865af19150503d8060008114611dc2576040519150601f19603f3d011682016040523d82523d6000602084013e611dc7565b606091505b509150915081611e1e576040805162461bcd60e51b815260206004820181905260248201527f5361666545524332303a206c6f772d6c6576656c2063616c6c206661696c6564604482015290519081900360640190fd5b805115611e7757808060200190516020811015611e3a57600080fd5b5051611e775760405162461bcd60e51b815260040180806020018281038252602a8152602001806124ed602a913960400191505060405180910390fd5b50505050565b801580611f03575060408051636eb1769f60e11b81523060048201526001600160a01b03848116602483015291519185169163dd62ed3e91604480820192602092909190829003018186803b158015611ed557600080fd5b505afa158015611ee9573d6000803e3d6000fd5b505050506040513d6020811015611eff57600080fd5b5051155b611f3e5760405162461bcd60e51b81526004018080602001828103825260368152602001806125176036913960400191505060405180910390fd5b604080516001600160a01b038416602482015260448082018490528251808303909101815260649091019091526020810180516001600160e01b031663095ea7b360e01b179052610635908490611cbf565b818111156120d9576000611faa828463ffffffff6123ba16565b90506000611fc960025461106c60015485611c0e90919063ffffffff16565b604080518681526020810186905280820183905242606082015290519192507f0b34b93979d93253da0e9e54841c680c66377f129a340ef2a37e802865e40588919081900360800190a161203861201e61132d565b6003546001600160a01b031690600063ffffffff611e7d16565b61205c61204361132d565b6003546001600160a01b0316908363ffffffff611e7d16565b61206461132d565b60035460408051631ee0d7e560e31b81526001600160a01b039283166004820152602481018590529051929091169163f706bf289160448082019260009290919082900301818387803b1580156120ba57600080fd5b505af11580156120ce573d6000803e3d6000fd5b5050505050506112cc565b604080518381526020810183905260008183015242606082015290517f0b34b93979d93253da0e9e54841c680c66377f129a340ef2a37e802865e405889181900360800190a15050565b60048054604080516370a0823160e01b81523093810193909352516000926001600160a01b03909216916370a08231916024808301926020929190829003018186803b15801561217257600080fd5b505afa158015612186573d6000803e3d6000fd5b505050506040513d602081101561219c57600080fd5b50519050801561102f576007546004546121ca916001600160a01b039182169116600063ffffffff611e7d16565b6007546004546121ed916001600160a01b0391821691168363ffffffff611e7d16565b60006121f7612451565b6122008361227d565b60075460408051630b4c7e4d60e01b81529293506001600160a01b0390911691630b4c7e4d91849186916004909101908190849080838360005b8381101561225257818101518382015260200161223a565b5050505090500182815260200192505050600060405180830381600087803b158015611bf157600080fd5b612285612451565b61228d612451565b50604080518082019091526000808252602082015260045483908290600160a01b900460ff1660018111156122be57fe5b66ffffffffffffff16600281106122d157fe5b602002015292915050565b600081836123685760405162461bcd60e51b81526004018080602001828103825283818151815260200191508051906020019080838360005b8381101561232d578181015183820152602001612315565b50505050905090810190601f16801561235a5780820380516001836020036101000a031916815260200191505b509250505060405180910390fd5b50600083858161237457fe5b0495945050505050565b6000813f7fc5d2460186f7233c927e7db2dcc703c0e500b653ca82273b7bfad8045d85a4708181148015906123b257508115155b949350505050565b600061143783836040518060400160405280601e81526020017f536166654d6174683a207375627472616374696f6e206f766572666c6f770000815250600081848411156124495760405162461bcd60e51b815260206004820181815283516024840152835190928392604490910191908501908083836000831561232d578181015183820152602001612315565b505050900390565b6040518060400160405280600290602082028038833950919291505056fe5468652073656e6465722068617320746f2062652074686520636f6e74726f6c6c65722c20676f7665726e616e63652c206f72207661756c74746f6b656e20697320646566696e6564206173206e6f742073616c7661676561626c65536166654d6174683a206d756c7469706c69636174696f6e206f766572666c6f775361666545524332303a204552433230206f7065726174696f6e20646964206e6f7420737563636565645361666545524332303a20617070726f76652066726f6d206e6f6e2d7a65726f20746f206e6f6e2d7a65726f20616c6c6f77616e6365a265627a7a72315820ad45788ffbcd34d595bcdbe8a191bd988cee56897770a8d9210457ebac481ff864736f6c63430005100032",
  "source": "pragma solidity 0.5.16;\nimport \"./CRVStrategyWRenBTC.sol\";\nimport \"./PriceConvertor.sol\";\n\n/**\n* Adds the mainnet addresses to the CRVStrategyWBTC\n*/\ncontract CRVStrategyWBTCMainnet is CRVStrategyWRenBTC {\n\n  // token addresses\n  address constant public __wbtc = address(0x2260FAC5E5542a773Aa44fBCfeDf7C193bc2C599);\n  address constant public __wbtcMix = address(0x49849C98ae39Fff122806C06791Fa73784FB3675);\n  address constant public __crv = address(0xD533a949740bb3306d119CC777fa900bA034cd52);\n  address constant public __weth = address(0xC02aaA39b223FE8D0A0e5C4F27eAD9083C756Cc2);\n  address constant public __gauge = address(0xB1F2cdeC61db658F091671F5f199635aEF202CAC);\n  address constant public __mintr = address(0xd061D61a4d941c39E5453435B6345Dc261C2fcE0); // _mintr\n\n  // protocols\n  address constant public __curve = address(0x93054188d876f558f4a66B2EF1d97d16eDf0895B);\n  address constant public __uniswap = address(0x7a250d5630B4cF539739dF2C5dAcb4c659F2488D);\n\n  uint256 constant public __tokenIndex = 1;\n\n  constructor(\n    address _storage,\n    address _vault\n  )\n  CRVStrategyWRenBTC(\n    _storage,\n    __wbtc,\n    _vault,\n    __tokenIndex, // token index for WBTC\n    __wbtcMix,\n    __curve, // curve protocol's pool for WBTC\n    __crv, // the CRV token address\n    __weth,\n    __gauge,\n    __mintr,\n    __uniswap // uniswap\n  )\n  public {\n    wbtcPriceCheckpoint = wbtcValueFromMixToken(mixTokenUnit);\n  }\n}\n",
  "sourcePath": "/home/jawaher/tmp/harvest/contracts/strategies/curve/CRVStrategyWBTCMainnet.sol",
  "compiler": {
    "name": "solc",
    "version": "0.5.16+commit.9c3226ce.Emscripten.clang"
  },
  "schemaVersion": "3.2.5",
  "updatedAt": "2020-10-19T08:25:32.276Z",
  "devdoc": {
    "methods": {}
  },
  "userdoc": {
    "methods": {
      "doHardWork()": {
        "notice": "The hard work only invests all wbtc assets, and then tells the controller to call hard work on the mixToken vault."
      },
      "investedUnderlyingBalance()": {
        "notice": "Returns the wbtc invested balance. The is the wbtc amount in this stragey, plus the gauge amount of the mixed token converted back to wbtc."
      },
      "salvage(address,address,uint256)": {
        "notice": "Salvages a token. We cannot salvage mixToken tokens, CRV, or wbtc assets."
      },
      "setSell(bool)": {
        "notice": "Can completely disable claiming CRV rewards and selling. Good for emergency withdraw in the simplest possible way."
      },
      "setSellFloor(uint256)": {
        "notice": "Sets the minimum amount of CRV needed to trigger a sale."
      },
      "withdrawAllToVault()": {
        "notice": "Withdraws all assets from the vault."
      },
      "withdrawToVault(uint256)": {
        "notice": "Withdraws an wbtc asset from the strategy to the vault in the specified amount by asking by removing imbalanced liquidity from the Curve protocol. The rest is deposited back to the Curve protocol pool. If the amount requested cannot be obtained, the method will get as much as we have."
      }
    },
    "notice": "Adds the mainnet addresses to the CRVStrategyWBTC"
  }
}