{
  "contractName": "MockMintr",
  "abi": [
    {
      "constant": false,
      "inputs": [
        {
          "internalType": "address",
          "name": "a",
          "type": "address"
        }
      ],
      "name": "mint",
      "outputs": [],
      "payable": false,
      "stateMutability": "nonpayable",
      "type": "function"
    }
  ],
  "bytecode": "0x6080604052348015600f57600080fd5b50608a8061001e6000396000f3fe6080604052348015600f57600080fd5b506004361060285760003560e01c80636a62784214602d575b600080fd5b605060048036036020811015604157600080fd5b50356001600160a01b03166052565b005b5056fea265627a7a72315820ca228e5d649abdd90cdc173958e5e3701b8d734a13531c97fb8c7c17fc373cb464736f6c63430005100032",
  "source": "pragma solidity 0.5.16;\n\nimport \"../strategies/curve/interfaces/Gauge.sol\";\n\ncontract MockMintr is Mintr {\n  function mint(address a) external {}\n}\n",
  "sourcePath": "/home/jawaher/tmp/harvest/contracts/test/MockMint.sol",
  "compiler": {
    "name": "solc",
    "version": "0.5.16+commit.9c3226ce.Emscripten.clang"
  },
  "schemaVersion": "3.2.5",
  "updatedAt": "2020-10-19T08:25:32.321Z",
  "devdoc": {
    "methods": {}
  },
  "userdoc": {
    "methods": {}
  }
}