{
  "contractName": "MockUniswap",
  "abi": [
    {
      "inputs": [],
      "payable": false,
      "stateMutability": "nonpayable",
      "type": "constructor"
    },
    {
      "constant": false,
      "inputs": [
        {
          "internalType": "uint256",
          "name": "balance",
          "type": "uint256"
        },
        {
          "internalType": "uint256",
          "name": "amountOutMin",
          "type": "uint256"
        },
        {
          "internalType": "address[]",
          "name": "path",
          "type": "address[]"
        },
        {
          "internalType": "address",
          "name": "recipient",
          "type": "address"
        },
        {
          "internalType": "uint256",
          "name": "expiry",
          "type": "uint256"
        }
      ],
      "name": "swapExactTokensForTokens",
      "outputs": [
        {
          "internalType": "uint256[]",
          "name": "amounts",
          "type": "uint256[]"
        }
      ],
      "payable": false,
      "stateMutability": "nonpayable",
      "type": "function"
    }
  ],
  "bytecode": "0x608060405234801561001057600080fd5b5061014c806100206000396000f3fe608060405234801561001057600080fd5b506004361061002b5760003560e01c806338ed173914610030575b600080fd5b6100bb600480360360a081101561004657600080fd5b81359160208101359181019060608101604082013564010000000081111561006d57600080fd5b82018360208201111561007f57600080fd5b803590602001918460208302840111640100000000831117156100a157600080fd5b91935091506001600160a01b03813516906020013561010b565b60408051602080825283518183015283519192839290830191858101910280838360005b838110156100f75781810151838201526020016100df565b505050509050019250505060405180910390f35b6060969550505050505056fea265627a7a723158204db1b8f034109e4355d000c6c744bfea9dd991215b27aaf19dcb8e4eb707dba664736f6c63430005100032",
  "source": "pragma solidity 0.5.16;\n\ncontract MockUniswap {\n\n  constructor() public {\n  }\n\n  function swapExactTokensForTokens(\n    uint256 balance,\n    uint256 amountOutMin,\n    address[] calldata path,\n    address recipient,\n    uint256 expiry\n  ) external returns (uint[] memory amounts) {}\n}\n",
  "sourcePath": "/home/jawaher/tmp/harvest/contracts/test/MockUniswap.sol",
  "compiler": {
    "name": "solc",
    "version": "0.5.16+commit.9c3226ce.Emscripten.clang"
  },
  "schemaVersion": "3.2.5",
  "updatedAt": "2020-10-19T08:25:32.326Z",
  "devdoc": {
    "methods": {}
  },
  "userdoc": {
    "methods": {}
  }
}