{
  "contractName": "MockComptroller",
  "abi": [
    {
      "inputs": [],
      "payable": false,
      "stateMutability": "nonpayable",
      "type": "constructor"
    },
    {
      "constant": false,
      "inputs": [
        {
          "internalType": "address[]",
          "name": "ctokens",
          "type": "address[]"
        }
      ],
      "name": "enterMarkets",
      "outputs": [
        {
          "internalType": "uint256[]",
          "name": "",
          "type": "uint256[]"
        }
      ],
      "payable": false,
      "stateMutability": "nonpayable",
      "type": "function"
    },
    {
      "constant": true,
      "inputs": [
        {
          "internalType": "address",
          "name": "ctoken",
          "type": "address"
        }
      ],
      "name": "markets",
      "outputs": [
        {
          "internalType": "bool",
          "name": "",
          "type": "bool"
        },
        {
          "internalType": "uint256",
          "name": "",
          "type": "uint256"
        }
      ],
      "payable": false,
      "stateMutability": "view",
      "type": "function"
    },
    {
      "constant": true,
      "inputs": [
        {
          "internalType": "address",
          "name": "ctoken",
          "type": "address"
        }
      ],
      "name": "compSpeeds",
      "outputs": [
        {
          "internalType": "uint256",
          "name": "",
          "type": "uint256"
        }
      ],
      "payable": false,
      "stateMutability": "view",
      "type": "function"
    },
    {
      "constant": false,
      "inputs": [
        {
          "internalType": "address",
          "name": "recipient",
          "type": "address"
        }
      ],
      "name": "claimComp",
      "outputs": [],
      "payable": false,
      "stateMutability": "nonpayable",
      "type": "function"
    }
  ],
  "bytecode": "0x608060405234801561001057600080fd5b5061025f806100206000396000f3fe608060405234801561001057600080fd5b506004361061004c5760003560e01c80631d7b33d7146100515780638e8f294b14610089578063c2998238146100ca578063e9af0292146101bd575b600080fd5b6100776004803603602081101561006757600080fd5b50356001600160a01b03166101e5565b60408051918252519081900360200190f35b6100af6004803603602081101561009f57600080fd5b50356001600160a01b03166101f1565b60408051921515835260208301919091528051918290030190f35b61016d600480360360208110156100e057600080fd5b8101906020810181356401000000008111156100fb57600080fd5b82018360208201111561010d57600080fd5b8035906020019184602083028401116401000000008311171561012f57600080fd5b919080806020026020016040519081016040528093929190818152602001838360200280828437600092019190915250929550610201945050505050565b60408051602080825283518183015283519192839290830191858101910280838360005b838110156101a9578181015183820152602001610191565b505050509050019250505060405180910390f35b6101e3600480360360208110156101d357600080fd5b50356001600160a01b0316610227565b005b50662faa0ceaa108ee90565b6001670a688906bd8b0000915091565b604080516001808252818301909252606091602080830190803883395091949350505050565b5056fea265627a7a723158204cc19d3b155ff0c64557fcc865d030918c14366d308d748342e0a23d92053fb164736f6c63430005100032",
  "source": "pragma solidity 0.5.16;\n\ncontract MockComptroller {\n  constructor() public {\n  }\n\n  function enterMarkets(address[] memory ctokens) public returns(uint[] memory){\n    return new uint[](1);\n  }\n\n  function markets(address ctoken) public view returns (bool, uint256) {\n    // got from compound for cusdc\n    return (true, 750000000000000000);\n  }\n\n  function compSpeeds(address ctoken) external view returns (uint256) {\n    // got from compound for cusdc\n    return 13416296358152430;\n  }\n\n  function claimComp(address recipient) external {}\n}\n",
  "sourcePath": "/home/jawaher/tmp/harvest/contracts/test/MockComptroller.sol",
  "compiler": {
    "name": "solc",
    "version": "0.5.16+commit.9c3226ce.Emscripten.clang"
  },
  "schemaVersion": "3.2.5",
  "updatedAt": "2020-10-19T08:25:32.313Z",
  "devdoc": {
    "methods": {}
  },
  "userdoc": {
    "methods": {}
  }
}