{
  "contractName": "MockPriceConvertor",
  "abi": [
    {
      "constant": true,
      "inputs": [
        {
          "internalType": "uint256",
          "name": "_token_amount",
          "type": "uint256"
        },
        {
          "internalType": "uint256",
          "name": "",
          "type": "uint256"
        }
      ],
      "name": "yCrvToUnderlying",
      "outputs": [
        {
          "internalType": "uint256",
          "name": "",
          "type": "uint256"
        }
      ],
      "payable": false,
      "stateMutability": "view",
      "type": "function"
    }
  ],
  "bytecode": "0x6080604052348015600f57600080fd5b5060988061001e6000396000f3fe6080604052348015600f57600080fd5b506004361060285760003560e01c80638c92b13014602d575b600080fd5b604d60048036036040811015604157600080fd5b5080359060200135605f565b60408051918252519081900360200190f35b509056fea265627a7a72315820c60a5820735016712727e935d4a211242997888f768844bfa7dc86c07fbeca8064736f6c63430005100032",
  "source": "pragma solidity 0.5.16;\n\nimport \"./interfaces/IPriceConvertor.sol\";\n\ninterface IConvertor {\n  function calc_withdraw_one_coin(uint256 _token_amount, int128 i) external view returns (uint256);\n}\n\ncontract PriceConvertor is IPriceConvertor {\n\n  IConvertor public zap = IConvertor(0xbBC81d23Ea2c3ec7e56D39296F0cbB648873a5d3);\n\n  function yCrvToUnderlying(uint256 _token_amount, uint256 i) public view returns (uint256) {\n    // this returning the DAI amount, not yDAI\n    return zap.calc_withdraw_one_coin(_token_amount, int128(i));\n  }\n}\n\ncontract MockPriceConvertor is IPriceConvertor {\n  function yCrvToUnderlying(uint256 _token_amount, uint256 /* i */) public view returns (uint256) {\n    // counting 1:1\n    return _token_amount;\n  }\n}",
  "sourcePath": "/home/jawaher/tmp/harvest/contracts/strategies/curve/PriceConvertor.sol",
  "compiler": {
    "name": "solc",
    "version": "0.5.16+commit.9c3226ce.Emscripten.clang"
  },
  "schemaVersion": "3.2.5",
  "updatedAt": "2020-10-19T08:25:32.300Z",
  "devdoc": {
    "methods": {}
  },
  "userdoc": {
    "methods": {}
  }
}