{
  "contractName": "ProfitStrategyVariable",
  "abi": [
    {
      "inputs": [
        {
          "internalType": "address",
          "name": "_storage",
          "type": "address"
        },
        {
          "internalType": "address",
          "name": "_underlying",
          "type": "address"
        },
        {
          "internalType": "address",
          "name": "_vault",
          "type": "address"
        },
        {
          "internalType": "uint256",
          "name": "_profitRateNumerator",
          "type": "uint256"
        },
        {
          "internalType": "uint256",
          "name": "_profitRateDenominator",
          "type": "uint256"
        }
      ],
      "payable": false,
      "stateMutability": "nonpayable",
      "type": "constructor"
    },
    {
      "anonymous": false,
      "inputs": [
        {
          "indexed": false,
          "internalType": "uint256",
          "name": "oldBalance",
          "type": "uint256"
        },
        {
          "indexed": false,
          "internalType": "uint256",
          "name": "newBalance",
          "type": "uint256"
        },
        {
          "indexed": false,
          "internalType": "uint256",
          "name": "feeAmount",
          "type": "uint256"
        },
        {
          "indexed": false,
          "internalType": "uint256",
          "name": "timestamp",
          "type": "uint256"
        }
      ],
      "name": "ProfitLog",
      "type": "event"
    },
    {
      "constant": true,
      "inputs": [],
      "name": "controller",
      "outputs": [
        {
          "internalType": "address",
          "name": "",
          "type": "address"
        }
      ],
      "payable": false,
      "stateMutability": "view",
      "type": "function"
    },
    {
      "constant": true,
      "inputs": [],
      "name": "governance",
      "outputs": [
        {
          "internalType": "address",
          "name": "",
          "type": "address"
        }
      ],
      "payable": false,
      "stateMutability": "view",
      "type": "function"
    },
    {
      "constant": true,
      "inputs": [],
      "name": "profitSharingDenominator",
      "outputs": [
        {
          "internalType": "uint256",
          "name": "",
          "type": "uint256"
        }
      ],
      "payable": false,
      "stateMutability": "view",
      "type": "function"
    },
    {
      "constant": true,
      "inputs": [],
      "name": "profitSharingNumerator",
      "outputs": [
        {
          "internalType": "uint256",
          "name": "",
          "type": "uint256"
        }
      ],
      "payable": false,
      "stateMutability": "view",
      "type": "function"
    },
    {
      "constant": false,
      "inputs": [
        {
          "internalType": "address",
          "name": "_store",
          "type": "address"
        }
      ],
      "name": "setStorage",
      "outputs": [],
      "payable": false,
      "stateMutability": "nonpayable",
      "type": "function"
    },
    {
      "constant": true,
      "inputs": [],
      "name": "store",
      "outputs": [
        {
          "internalType": "contract Storage",
          "name": "",
          "type": "address"
        }
      ],
      "payable": false,
      "stateMutability": "view",
      "type": "function"
    },
    {
      "constant": true,
      "inputs": [],
      "name": "underlying",
      "outputs": [
        {
          "internalType": "contract IERC20",
          "name": "",
          "type": "address"
        }
      ],
      "payable": false,
      "stateMutability": "view",
      "type": "function"
    },
    {
      "constant": true,
      "inputs": [
        {
          "internalType": "address",
          "name": "",
          "type": "address"
        }
      ],
      "name": "unsalvagableTokens",
      "outputs": [
        {
          "internalType": "bool",
          "name": "",
          "type": "bool"
        }
      ],
      "payable": false,
      "stateMutability": "view",
      "type": "function"
    },
    {
      "constant": true,
      "inputs": [],
      "name": "vault",
      "outputs": [
        {
          "internalType": "contract IVault",
          "name": "",
          "type": "address"
        }
      ],
      "payable": false,
      "stateMutability": "view",
      "type": "function"
    },
    {
      "constant": true,
      "inputs": [],
      "name": "depositArbCheck",
      "outputs": [
        {
          "internalType": "bool",
          "name": "",
          "type": "bool"
        }
      ],
      "payable": false,
      "stateMutability": "view",
      "type": "function"
    },
    {
      "constant": true,
      "inputs": [],
      "name": "investedUnderlyingBalance",
      "outputs": [
        {
          "internalType": "uint256",
          "name": "",
          "type": "uint256"
        }
      ],
      "payable": false,
      "stateMutability": "view",
      "type": "function"
    },
    {
      "constant": false,
      "inputs": [],
      "name": "investAllUnderlying",
      "outputs": [],
      "payable": false,
      "stateMutability": "nonpayable",
      "type": "function"
    },
    {
      "constant": false,
      "inputs": [],
      "name": "withdrawAllToVault",
      "outputs": [],
      "payable": false,
      "stateMutability": "nonpayable",
      "type": "function"
    },
    {
      "constant": false,
      "inputs": [
        {
          "internalType": "uint256",
          "name": "amount",
          "type": "uint256"
        }
      ],
      "name": "withdrawToVault",
      "outputs": [],
      "payable": false,
      "stateMutability": "nonpayable",
      "type": "function"
    },
    {
      "constant": false,
      "inputs": [],
      "name": "doHardWork",
      "outputs": [],
      "payable": false,
      "stateMutability": "nonpayable",
      "type": "function"
    },
    {
      "constant": false,
      "inputs": [
        {
          "internalType": "address",
          "name": "destination",
          "type": "address"
        },
        {
          "internalType": "address",
          "name": "token",
          "type": "address"
        },
        {
          "internalType": "uint256",
          "name": "amount",
          "type": "uint256"
        }
      ],
      "name": "salvage",
      "outputs": [],
      "payable": false,
      "stateMutability": "nonpayable",
      "type": "function"
    }
  ],
  "bytecode": "0x60806040523480156200001157600080fd5b50604051620012fe380380620012fe833981810160405260a08110156200003757600080fd5b50805160208201516040830151606084015160809094015192939192909190848481806001600160a01b038116620000b6576040805162461bcd60e51b815260206004820152601e60248201527f6e65772073746f726167652073686f756c646e277420626520656d7074790000604482015290519081900360640190fd5b600080546001600160a01b03199081166001600160a01b03938416179091556003805490911691841691909117905550620000f062000329565b6001600160a01b031663b60f151a6040518163ffffffff1660e01b815260040160206040518083038186803b1580156200012957600080fd5b505afa1580156200013e573d6000803e3d6000fd5b505050506040513d60208110156200015557600080fd5b50516001556200016d6001600160e01b036200032916565b6001600160a01b031663026a0dd06040518163ffffffff1660e01b815260040160206040518083038186803b158015620001a657600080fd5b505afa158015620001bb573d6000803e3d6000fd5b505050506040513d6020811015620001d257600080fd5b50516002819055600154106200022f576040805162461bcd60e51b815260206004820152601460248201527f696e76616c69642070726f666974207368617265000000000000000000000000604482015290519081900360640190fd5b50506001600160a01b0384166200028d576040805162461bcd60e51b815260206004820152601b60248201527f5f756e6465726c79696e672063616e6e6f7420626520656d7074790000000000604482015290519081900360640190fd5b6001600160a01b038316620002e9576040805162461bcd60e51b815260206004820152601660248201527f5f7661756c742063616e6e6f7420626520656d70747900000000000000000000604482015290519081900360640190fd5b600480546001600160a01b039586166001600160a01b031991821617909155600580549490951693169290921790925560079190915560085550620003ac565b60008060009054906101000a90046001600160a01b03166001600160a01b031663f77c47916040518163ffffffff1660e01b815260040160206040518083038186803b1580156200037957600080fd5b505afa1580156200038e573d6000803e3d6000fd5b505050506040513d6020811015620003a557600080fd5b5051905090565b610f4280620003bc6000396000f3fe608060405234801561001057600080fd5b50600436106101005760003560e01c80639137c1a711610097578063c2a2a07b11610066578063c2a2a07b14610213578063ce8c42e81461021b578063f77c479114610238578063fbfa77cf1461024057610100565b80639137c1a7146101d5578063975057e7146101fb578063b60f151a14610203578063bfd131f11461020b57610100565b80634fa5d854116100d35780634fa5d85414610167578063501859461461016f5780635aa6e675146101a95780636f307dc3146101cd57610100565b8063026a0dd0146101055780631113ef521461011f57806345d01e4a146101575780634a8cfa691461015f575b600080fd5b61010d610248565b60408051918252519081900360200190f35b6101556004803603606081101561013557600080fd5b506001600160a01b0381358116916020810135909116906040013561024e565b005b61010d610328565b6101556103a8565b610155610572565b6101956004803603602081101561018557600080fd5b50356001600160a01b03166105e8565b604080519115158252519081900360200190f35b6101b16105fd565b604080516001600160a01b039092168252519081900360200190f35b6101b161064c565b610155600480360360208110156101eb57600080fd5b50356001600160a01b031661065b565b6101b1610791565b61010d6107a0565b6101556107a6565b61019561092a565b6101556004803603602081101561023157600080fd5b503561092f565b6101b1610a0a565b6101b1610a59565b60025481565b6000546040805163b429afeb60e01b815233600482015290516001600160a01b039092169163b429afeb91602480820192602092909190829003018186803b15801561029957600080fd5b505afa1580156102ad573d6000803e3d6000fd5b505050506040513d60208110156102c357600080fd5b5051610309576040805162461bcd60e51b815260206004820152601060248201526f2737ba10309031b7b73a3937b63632b960811b604482015290519081900360640190fd5b6103236001600160a01b038316848363ffffffff610a6816565b505050565b60048054604080516370a0823160e01b81523093810193909352516000926001600160a01b03909216916370a08231916024808301926020929190829003018186803b15801561037757600080fd5b505afa15801561038b573d6000803e3d6000fd5b505050506040513d60208110156103a157600080fd5b5051905090565b60065460048054604080516370a0823160e01b81523093810193909352516000936104379390926001600160a01b0316916370a0823191602480820192602092909190829003018186803b1580156103ff57600080fd5b505afa158015610413573d6000803e3d6000fd5b505050506040513d602081101561042957600080fd5b50519063ffffffff610aba16565b6004546008546007549293506001600160a01b03909116916340c10f19913091610479919061046d90879063ffffffff610b0516565b9063ffffffff610b5e16565b6040518363ffffffff1660e01b815260040180836001600160a01b03166001600160a01b0316815260200182815260200192505050602060405180830381600087803b1580156104c857600080fd5b505af11580156104dc573d6000803e3d6000fd5b505050506040513d60208110156104f257600080fd5b505060048054604080516370a0823160e01b81523093810193909352516001600160a01b03909116916370a08231916024808301926020929190829003018186803b15801561054057600080fd5b505afa158015610554573d6000803e3d6000fd5b505050506040513d602081101561056a57600080fd5b505160065550565b6005546001600160a01b03163314806105a3575061058e610a0a565b6001600160a01b0316336001600160a01b0316145b6105de5760405162461bcd60e51b815260040180806020018281038252602c815260200180610e97602c913960400191505060405180910390fd5b6105e66103a8565b565b60096020526000908152604090205460ff1681565b60008060009054906101000a90046001600160a01b03166001600160a01b0316635aa6e6756040518163ffffffff1660e01b815260040160206040518083038186803b15801561037757600080fd5b6004546001600160a01b031681565b600054604080516337b87c3960e21b815233600482015290516001600160a01b039092169163dee1f0e491602480820192602092909190829003018186803b1580156106a657600080fd5b505afa1580156106ba573d6000803e3d6000fd5b505050506040513d60208110156106d057600080fd5b5051610714576040805162461bcd60e51b815260206004820152600e60248201526d4e6f7420676f7665726e616e636560901b604482015290519081900360640190fd5b6001600160a01b03811661076f576040805162461bcd60e51b815260206004820152601e60248201527f6e65772073746f726167652073686f756c646e277420626520656d7074790000604482015290519081900360640190fd5b600080546001600160a01b0319166001600160a01b0392909216919091179055565b6000546001600160a01b031681565b60015481565b6005546001600160a01b03163314806107d757506107c2610a0a565b6001600160a01b0316336001600160a01b0316145b6108125760405162461bcd60e51b815260040180806020018281038252602c815260200180610e97602c913960400191505060405180910390fd5b60055460048054604080516370a0823160e01b81523093810193909352516108ad936001600160a01b03908116939216916370a08231916024808301926020929190829003018186803b15801561086857600080fd5b505afa15801561087c573d6000803e3d6000fd5b505050506040513d602081101561089257600080fd5b50516004546001600160a01b0316919063ffffffff610a6816565b60048054604080516370a0823160e01b81523093810193909352516001600160a01b03909116916370a08231916024808301926020929190829003018186803b1580156108f957600080fd5b505afa15801561090d573d6000803e3d6000fd5b505050506040513d602081101561092357600080fd5b5051600655565b600190565b6005546001600160a01b0316331480610960575061094b610a0a565b6001600160a01b0316336001600160a01b0316145b61099b5760405162461bcd60e51b815260040180806020018281038252602c815260200180610e97602c913960400191505060405180910390fd5b6005546004546109be916001600160a01b0391821691168363ffffffff610a6816565b60048054604080516370a0823160e01b81523093810193909352516001600160a01b03909116916370a08231916024808301926020929190829003018186803b15801561054057600080fd5b60008060009054906101000a90046001600160a01b03166001600160a01b031663f77c47916040518163ffffffff1660e01b815260040160206040518083038186803b15801561037757600080fd5b6005546001600160a01b031681565b604080516001600160a01b038416602482015260448082018490528251808303909101815260649091019091526020810180516001600160e01b031663a9059cbb60e01b179052610323908490610ba0565b6000610afc83836040518060400160405280601e81526020017f536166654d6174683a207375627472616374696f6e206f766572666c6f770000815250610d5e565b90505b92915050565b600082610b1457506000610aff565b82820282848281610b2157fe5b0414610afc5760405162461bcd60e51b8152600401808060200182810382526021815260200180610ec36021913960400191505060405180910390fd5b6000610afc83836040518060400160405280601a81526020017f536166654d6174683a206469766973696f6e206279207a65726f000000000000815250610df5565b610bb2826001600160a01b0316610e5a565b610c03576040805162461bcd60e51b815260206004820152601f60248201527f5361666545524332303a2063616c6c20746f206e6f6e2d636f6e747261637400604482015290519081900360640190fd5b60006060836001600160a01b0316836040518082805190602001908083835b60208310610c415780518252601f199092019160209182019101610c22565b6001836020036101000a0380198251168184511680821785525050505050509050019150506000604051808303816000865af19150503d8060008114610ca3576040519150601f19603f3d011682016040523d82523d6000602084013e610ca8565b606091505b509150915081610cff576040805162461bcd60e51b815260206004820181905260248201527f5361666545524332303a206c6f772d6c6576656c2063616c6c206661696c6564604482015290519081900360640190fd5b805115610d5857808060200190516020811015610d1b57600080fd5b5051610d585760405162461bcd60e51b815260040180806020018281038252602a815260200180610ee4602a913960400191505060405180910390fd5b50505050565b60008184841115610ded5760405162461bcd60e51b81526004018080602001828103825283818151815260200191508051906020019080838360005b83811015610db2578181015183820152602001610d9a565b50505050905090810190601f168015610ddf5780820380516001836020036101000a031916815260200191505b509250505060405180910390fd5b505050900390565b60008183610e445760405162461bcd60e51b8152602060048201818152835160248401528351909283926044909101919085019080838360008315610db2578181015183820152602001610d9a565b506000838581610e5057fe5b0495945050505050565b6000813f7fc5d2460186f7233c927e7db2dcc703c0e500b653ca82273b7bfad8045d85a470818114801590610e8e57508115155b94935050505056fe5468652073656e6465722068617320746f2062652074686520636f6e74726f6c6c6572206f72207661756c74536166654d6174683a206d756c7469706c69636174696f6e206f766572666c6f775361666545524332303a204552433230206f7065726174696f6e20646964206e6f742073756363656564a265627a7a723158206ac5b69280e72a499212be1c7f198658ed24ef24f3e45652d689ce513c9d428564736f6c63430005100032",
  "source": "pragma solidity 0.5.16;\n\nimport \"@openzeppelin/contracts/token/ERC20/IERC20.sol\";\nimport \"@openzeppelin/contracts/token/ERC20/ERC20Mintable.sol\";\nimport \"@openzeppelin/contracts/utils/Address.sol\";\nimport \"@openzeppelin/contracts/math/SafeMath.sol\";\nimport \"@openzeppelin/contracts/token/ERC20/SafeERC20.sol\";\nimport \"../../hardworkInterface/IStrategy.sol\";\nimport \"../../hardworkInterface/IController.sol\";\nimport \"../../Controllable.sol\";\nimport \"../../strategies/ProfitNotifier.sol\";\nimport \"../../Storage.sol\";\nimport \"../../hardworkInterface/IVault.sol\";\n\n\ncontract ProfitStrategyVariable is IStrategy, ProfitNotifier {\n  using SafeERC20 for IERC20;\n  using Address for address;\n  using SafeMath for uint256;\n\n  IERC20 public underlying;\n  IVault public vault;\n  uint256 accountedBalance;\n  uint256 profitRateNumerator;\n  uint256 profitRateDenominator;\n\n  // These tokens cannot be claimed by the controller\n  mapping (address => bool) public unsalvagableTokens;\n\n  constructor(address _storage, address _underlying, address _vault,\n    uint256 _profitRateNumerator, uint256 _profitRateDenominator) public\n  ProfitNotifier(_storage, _underlying) {\n    require(_underlying != address(0), \"_underlying cannot be empty\");\n    require(_vault != address(0), \"_vault cannot be empty\");\n    // We assume that this contract is a minter on underlying\n    underlying = IERC20(_underlying);\n    vault = IVault(_vault);\n    profitRateNumerator = _profitRateNumerator;\n    profitRateDenominator = _profitRateDenominator;\n  }\n\n  modifier restricted() {\n    require(msg.sender == address(vault) || msg.sender == address(controller()),\n      \"The sender has to be the controller or vault\");\n    _;\n  }\n\n  function depositArbCheck() public view returns(bool) {\n    return true;\n  }\n\n  /*\n  * Returns the total invested amount.\n  */\n  function investedUnderlyingBalance() view public returns (uint256) {\n    // for real strategies, need to calculate the invested balance\n    return underlying.balanceOf(address(this));\n  }\n\n  /*\n  * Invests all tokens that were accumulated so far\n  */\n  function investAllUnderlying() public {\n    uint256 contribution = underlying.balanceOf(address(this)).sub(accountedBalance);\n    // add 10% to this strategy\n    // We assume that this contract is a minter on underlying\n    ERC20Mintable(address(underlying)).mint(address(this),\n      contribution.mul(profitRateNumerator).div(profitRateDenominator));\n    accountedBalance = underlying.balanceOf(address(this));\n  }\n\n  /*\n  * Cashes everything out and withdraws to the vault\n  */\n  function withdrawAllToVault() external restricted {\n    underlying.safeTransfer(address(vault), underlying.balanceOf(address(this)));\n    accountedBalance = underlying.balanceOf(address(this));\n  }\n\n  /*\n  * Cashes some amount out and withdraws to the vault\n  */\n  function withdrawToVault(uint256 amount) external restricted {\n    underlying.safeTransfer(address(vault), amount);\n    accountedBalance = underlying.balanceOf(address(this));\n  }\n\n  /*\n  * Honest harvesting. It's not much, but it pays off\n  */\n  function doHardWork() external restricted {\n    investAllUnderlying();\n  }\n\n  // should only be called by controller\n  function salvage(address destination, address token, uint256 amount) external onlyController {\n    IERC20(token).safeTransfer(destination, amount);\n  }\n}\n",
  "sourcePath": "/home/jawaher/tmp/harvest/contracts/test/strategies/ProfitStrategyVariable.sol",
  "compiler": {
    "name": "solc",
    "version": "0.5.16+commit.9c3226ce.Emscripten.clang"
  },
  "schemaVersion": "3.2.5",
  "updatedAt": "2020-10-19T08:25:32.394Z",
  "devdoc": {
    "methods": {}
  },
  "userdoc": {
    "methods": {}
  }
}