{
  "contractName": "ProfitStrategy",
  "abi": [
    {
      "inputs": [
        {
          "internalType": "address",
          "name": "_storage",
          "type": "address"
        },
        {
          "internalType": "address",
          "name": "_underlying",
          "type": "address"
        },
        {
          "internalType": "address",
          "name": "_vault",
          "type": "address"
        }
      ],
      "payable": false,
      "stateMutability": "nonpayable",
      "type": "constructor"
    },
    {
      "constant": true,
      "inputs": [],
      "name": "controller",
      "outputs": [
        {
          "internalType": "address",
          "name": "",
          "type": "address"
        }
      ],
      "payable": false,
      "stateMutability": "view",
      "type": "function"
    },
    {
      "constant": true,
      "inputs": [],
      "name": "governance",
      "outputs": [
        {
          "internalType": "address",
          "name": "",
          "type": "address"
        }
      ],
      "payable": false,
      "stateMutability": "view",
      "type": "function"
    },
    {
      "constant": false,
      "inputs": [
        {
          "internalType": "address",
          "name": "_store",
          "type": "address"
        }
      ],
      "name": "setStorage",
      "outputs": [],
      "payable": false,
      "stateMutability": "nonpayable",
      "type": "function"
    },
    {
      "constant": true,
      "inputs": [],
      "name": "store",
      "outputs": [
        {
          "internalType": "contract Storage",
          "name": "",
          "type": "address"
        }
      ],
      "payable": false,
      "stateMutability": "view",
      "type": "function"
    },
    {
      "constant": true,
      "inputs": [],
      "name": "underlying",
      "outputs": [
        {
          "internalType": "contract IERC20",
          "name": "",
          "type": "address"
        }
      ],
      "payable": false,
      "stateMutability": "view",
      "type": "function"
    },
    {
      "constant": true,
      "inputs": [
        {
          "internalType": "address",
          "name": "",
          "type": "address"
        }
      ],
      "name": "unsalvagableTokens",
      "outputs": [
        {
          "internalType": "bool",
          "name": "",
          "type": "bool"
        }
      ],
      "payable": false,
      "stateMutability": "view",
      "type": "function"
    },
    {
      "constant": true,
      "inputs": [],
      "name": "vault",
      "outputs": [
        {
          "internalType": "contract IVault",
          "name": "",
          "type": "address"
        }
      ],
      "payable": false,
      "stateMutability": "view",
      "type": "function"
    },
    {
      "constant": true,
      "inputs": [],
      "name": "depositArbCheck",
      "outputs": [
        {
          "internalType": "bool",
          "name": "",
          "type": "bool"
        }
      ],
      "payable": false,
      "stateMutability": "view",
      "type": "function"
    },
    {
      "constant": true,
      "inputs": [],
      "name": "investedUnderlyingBalance",
      "outputs": [
        {
          "internalType": "uint256",
          "name": "",
          "type": "uint256"
        }
      ],
      "payable": false,
      "stateMutability": "view",
      "type": "function"
    },
    {
      "constant": false,
      "inputs": [],
      "name": "investAllUnderlying",
      "outputs": [],
      "payable": false,
      "stateMutability": "nonpayable",
      "type": "function"
    },
    {
      "constant": false,
      "inputs": [],
      "name": "withdrawAllToVault",
      "outputs": [],
      "payable": false,
      "stateMutability": "nonpayable",
      "type": "function"
    },
    {
      "constant": false,
      "inputs": [
        {
          "internalType": "uint256",
          "name": "amount",
          "type": "uint256"
        }
      ],
      "name": "withdrawToVault",
      "outputs": [],
      "payable": false,
      "stateMutability": "nonpayable",
      "type": "function"
    },
    {
      "constant": false,
      "inputs": [],
      "name": "doHardWork",
      "outputs": [],
      "payable": false,
      "stateMutability": "nonpayable",
      "type": "function"
    },
    {
      "constant": false,
      "inputs": [
        {
          "internalType": "address",
          "name": "destination",
          "type": "address"
        },
        {
          "internalType": "address",
          "name": "token",
          "type": "address"
        },
        {
          "internalType": "uint256",
          "name": "amount",
          "type": "uint256"
        }
      ],
      "name": "salvage",
      "outputs": [],
      "payable": false,
      "stateMutability": "nonpayable",
      "type": "function"
    }
  ],
  "bytecode": "0x608060405234801561001057600080fd5b50604051610ff9380380610ff98339818101604052606081101561003357600080fd5b508051602082015160409092015190919082806001600160a01b0381166100a1576040805162461bcd60e51b815260206004820152601e60248201527f6e65772073746f726167652073686f756c646e277420626520656d7074790000604482015290519081900360640190fd5b600080546001600160a01b0319166001600160a01b03928316179055831615159050610114576040805162461bcd60e51b815260206004820152601b60248201527f5f756e6465726c79696e672063616e6e6f7420626520656d7074790000000000604482015290519081900360640190fd5b6001600160a01b03811661016f576040805162461bcd60e51b815260206004820152601660248201527f5f7661756c742063616e6e6f7420626520656d70747900000000000000000000604482015290519081900360640190fd5b600180546001600160a01b039384166001600160a01b0319918216179091556002805492909316911617905550610e4e806101ab6000396000f3fe608060405234801561001057600080fd5b50600436106100ca5760003560e01c80639137c1a71161007c5780639137c1a714610197578063975057e7146101bd578063bfd131f1146101c5578063c2a2a07b146101cd578063ce8c42e8146101d5578063f77c4791146101f2578063fbfa77cf146101fa576100ca565b80631113ef52146100cf57806345d01e4a146101075780634a8cfa69146101215780634fa5d8541461012957806350185946146101315780635aa6e6751461016b5780636f307dc31461018f575b600080fd5b610105600480360360608110156100e557600080fd5b506001600160a01b03813581169160208101359091169060400135610202565b005b61010f6102dc565b60408051918252519081900360200190f35b610105610358565b610105610505565b6101576004803603602081101561014757600080fd5b50356001600160a01b031661057b565b604080519115158252519081900360200190f35b610173610590565b604080516001600160a01b039092168252519081900360200190f35b6101736105df565b610105600480360360208110156101ad57600080fd5b50356001600160a01b03166105ee565b610173610724565b610105610733565b6101576108b3565b610105600480360360208110156101eb57600080fd5b50356108b8565b610173610992565b6101736109e1565b6000546040805163b429afeb60e01b815233600482015290516001600160a01b039092169163b429afeb91602480820192602092909190829003018186803b15801561024d57600080fd5b505afa158015610261573d6000803e3d6000fd5b505050506040513d602081101561027757600080fd5b50516102bd576040805162461bcd60e51b815260206004820152601060248201526f2737ba10309031b7b73a3937b63632b960811b604482015290519081900360640190fd5b6102d76001600160a01b038316848363ffffffff6109f016565b505050565b600154604080516370a0823160e01b815230600482015290516000926001600160a01b0316916370a08231916024808301926020929190829003018186803b15801561032757600080fd5b505afa15801561033b573d6000803e3d6000fd5b505050506040513d602081101561035157600080fd5b5051905090565b600354600154604080516370a0823160e01b815230600482015290516000936103e79390926001600160a01b03909116916370a0823191602480820192602092909190829003018186803b1580156103af57600080fd5b505afa1580156103c3573d6000803e3d6000fd5b505050506040513d60208110156103d957600080fd5b50519063ffffffff610a4216565b6001549091506001600160a01b03166340c10f193061040d84600a63ffffffff610a8b16565b6040518363ffffffff1660e01b815260040180836001600160a01b03166001600160a01b0316815260200182815260200192505050602060405180830381600087803b15801561045c57600080fd5b505af1158015610470573d6000803e3d6000fd5b505050506040513d602081101561048657600080fd5b5050600154604080516370a0823160e01b815230600482015290516001600160a01b03909216916370a0823191602480820192602092909190829003018186803b1580156104d357600080fd5b505afa1580156104e7573d6000803e3d6000fd5b505050506040513d60208110156104fd57600080fd5b505160035550565b6002546001600160a01b03163314806105365750610521610992565b6001600160a01b0316336001600160a01b0316145b6105715760405162461bcd60e51b815260040180806020018281038252602c815260200180610dc4602c913960400191505060405180910390fd5b610579610358565b565b60046020526000908152604090205460ff1681565b60008060009054906101000a90046001600160a01b03166001600160a01b0316635aa6e6756040518163ffffffff1660e01b815260040160206040518083038186803b15801561032757600080fd5b6001546001600160a01b031681565b600054604080516337b87c3960e21b815233600482015290516001600160a01b039092169163dee1f0e491602480820192602092909190829003018186803b15801561063957600080fd5b505afa15801561064d573d6000803e3d6000fd5b505050506040513d602081101561066357600080fd5b50516106a7576040805162461bcd60e51b815260206004820152600e60248201526d4e6f7420676f7665726e616e636560901b604482015290519081900360640190fd5b6001600160a01b038116610702576040805162461bcd60e51b815260206004820152601e60248201527f6e65772073746f726167652073686f756c646e277420626520656d7074790000604482015290519081900360640190fd5b600080546001600160a01b0319166001600160a01b0392909216919091179055565b6000546001600160a01b031681565b6002546001600160a01b0316331480610764575061074f610992565b6001600160a01b0316336001600160a01b0316145b61079f5760405162461bcd60e51b815260040180806020018281038252602c815260200180610dc4602c913960400191505060405180910390fd5b600254600154604080516370a0823160e01b81523060048201529051610837936001600160a01b039081169316916370a08231916024808301926020929190829003018186803b1580156107f257600080fd5b505afa158015610806573d6000803e3d6000fd5b505050506040513d602081101561081c57600080fd5b50516001546001600160a01b0316919063ffffffff6109f016565b600154604080516370a0823160e01b815230600482015290516001600160a01b03909216916370a0823191602480820192602092909190829003018186803b15801561088257600080fd5b505afa158015610896573d6000803e3d6000fd5b505050506040513d60208110156108ac57600080fd5b5051600355565b600190565b6002546001600160a01b03163314806108e957506108d4610992565b6001600160a01b0316336001600160a01b0316145b6109245760405162461bcd60e51b815260040180806020018281038252602c815260200180610dc4602c913960400191505060405180910390fd5b600254600154610947916001600160a01b0391821691168363ffffffff6109f016565b600154604080516370a0823160e01b815230600482015290516001600160a01b03909216916370a0823191602480820192602092909190829003018186803b1580156104d357600080fd5b60008060009054906101000a90046001600160a01b03166001600160a01b031663f77c47916040518163ffffffff1660e01b815260040160206040518083038186803b15801561032757600080fd5b6002546001600160a01b031681565b604080516001600160a01b038416602482015260448082018490528251808303909101815260649091019091526020810180516001600160e01b031663a9059cbb60e01b1790526102d7908490610acd565b6000610a8483836040518060400160405280601e81526020017f536166654d6174683a207375627472616374696f6e206f766572666c6f770000815250610c8b565b9392505050565b6000610a8483836040518060400160405280601a81526020017f536166654d6174683a206469766973696f6e206279207a65726f000000000000815250610d22565b610adf826001600160a01b0316610d87565b610b30576040805162461bcd60e51b815260206004820152601f60248201527f5361666545524332303a2063616c6c20746f206e6f6e2d636f6e747261637400604482015290519081900360640190fd5b60006060836001600160a01b0316836040518082805190602001908083835b60208310610b6e5780518252601f199092019160209182019101610b4f565b6001836020036101000a0380198251168184511680821785525050505050509050019150506000604051808303816000865af19150503d8060008114610bd0576040519150601f19603f3d011682016040523d82523d6000602084013e610bd5565b606091505b509150915081610c2c576040805162461bcd60e51b815260206004820181905260248201527f5361666545524332303a206c6f772d6c6576656c2063616c6c206661696c6564604482015290519081900360640190fd5b805115610c8557808060200190516020811015610c4857600080fd5b5051610c855760405162461bcd60e51b815260040180806020018281038252602a815260200180610df0602a913960400191505060405180910390fd5b50505050565b60008184841115610d1a5760405162461bcd60e51b81526004018080602001828103825283818151815260200191508051906020019080838360005b83811015610cdf578181015183820152602001610cc7565b50505050905090810190601f168015610d0c5780820380516001836020036101000a031916815260200191505b509250505060405180910390fd5b505050900390565b60008183610d715760405162461bcd60e51b8152602060048201818152835160248401528351909283926044909101919085019080838360008315610cdf578181015183820152602001610cc7565b506000838581610d7d57fe5b0495945050505050565b6000813f7fc5d2460186f7233c927e7db2dcc703c0e500b653ca82273b7bfad8045d85a470818114801590610dbb57508115155b94935050505056fe5468652073656e6465722068617320746f2062652074686520636f6e74726f6c6c6572206f72207661756c745361666545524332303a204552433230206f7065726174696f6e20646964206e6f742073756363656564a265627a7a72315820ad2361f61b3c42540f7582786ff70300014e2ba233a4e73370fd9768ab46658a64736f6c63430005100032",
  "source": "pragma solidity 0.5.16;\n\nimport \"@openzeppelin/contracts/token/ERC20/IERC20.sol\";\nimport \"@openzeppelin/contracts/token/ERC20/ERC20Mintable.sol\";\nimport \"@openzeppelin/contracts/utils/Address.sol\";\nimport \"@openzeppelin/contracts/math/SafeMath.sol\";\nimport \"@openzeppelin/contracts/token/ERC20/SafeERC20.sol\";\nimport \"../../hardworkInterface/IStrategy.sol\";\nimport \"../../hardworkInterface/IController.sol\";\nimport \"../../Controllable.sol\";\nimport \"../../Storage.sol\";\nimport \"../../hardworkInterface/IVault.sol\";\n\n\ncontract ProfitStrategy is IStrategy, Controllable {\n  using SafeERC20 for IERC20;\n  using Address for address;\n  using SafeMath for uint256;\n\n  IERC20 public underlying;\n  IVault public vault;\n  uint256 accountedBalance;\n\n  // These tokens cannot be claimed by the controller\n  mapping (address => bool) public unsalvagableTokens;\n\n  constructor(address _storage, address _underlying, address _vault) public\n  Controllable(_storage) {\n    require(_underlying != address(0), \"_underlying cannot be empty\");\n    require(_vault != address(0), \"_vault cannot be empty\");\n    // We assume that this contract is a minter on underlying\n    underlying = IERC20(_underlying);\n    vault = IVault(_vault);\n  }\n\n  function depositArbCheck() public view returns(bool) {\n    return true;\n  }\n\n  modifier restricted() {\n    require(msg.sender == address(vault) || msg.sender == address(controller()),\n      \"The sender has to be the controller or vault\");\n    _;\n  }\n\n  /*\n  * Returns the total invested amount.\n  */\n  function investedUnderlyingBalance() view public returns (uint256) {\n    // for real strategies, need to calculate the invested balance\n    return underlying.balanceOf(address(this));\n  }\n\n  /*\n  * Invests all tokens that were accumulated so far\n  */\n  function investAllUnderlying() public {\n    uint256 contribution = underlying.balanceOf(address(this)).sub(accountedBalance);\n    // add 10% to this strategy\n    // We assume that this contract is a minter on underlying\n    ERC20Mintable(address(underlying)).mint(address(this), contribution.div(10));\n    accountedBalance = underlying.balanceOf(address(this));\n  }\n\n  /*\n  * Cashes everything out and withdraws to the vault\n  */\n  function withdrawAllToVault() external restricted {\n    underlying.safeTransfer(address(vault), underlying.balanceOf(address(this)));\n    accountedBalance = underlying.balanceOf(address(this));\n  }\n\n  /*\n  * Cashes some amount out and withdraws to the vault\n  */\n  function withdrawToVault(uint256 amount) external restricted {\n    underlying.safeTransfer(address(vault), amount);\n    accountedBalance = underlying.balanceOf(address(this));\n  }\n\n  /*\n  * Honest harvesting. It's not much, but it pays off\n  */\n  function doHardWork() external restricted {\n    investAllUnderlying();\n  }\n\n  // should only be called by controller\n  function salvage(address destination, address token, uint256 amount) external onlyController {\n    IERC20(token).safeTransfer(destination, amount);\n  }\n}\n",
  "sourcePath": "/home/jawaher/tmp/harvest/contracts/test/strategies/ProfitStrategy.sol",
  "compiler": {
    "name": "solc",
    "version": "0.5.16+commit.9c3226ce.Emscripten.clang"
  },
  "schemaVersion": "3.2.5",
  "updatedAt": "2020-11-18T14:21:44.362Z",
  "networkType": "ethereum",
  "devdoc": {
    "methods": {}
  },
  "userdoc": {
    "methods": {}
  }
}