{
  "contractName": "ThirdPartyContractThatCallsDepositHelper",
  "abi": [
    {
      "inputs": [
        {
          "internalType": "address",
          "name": "_depositHelper",
          "type": "address"
        }
      ],
      "payable": false,
      "stateMutability": "nonpayable",
      "type": "constructor"
    },
    {
      "constant": true,
      "inputs": [],
      "name": "depositHelper",
      "outputs": [
        {
          "internalType": "address",
          "name": "",
          "type": "address"
        }
      ],
      "payable": false,
      "stateMutability": "view",
      "type": "function"
    },
    {
      "constant": false,
      "inputs": [
        {
          "internalType": "uint256[]",
          "name": "_amounts",
          "type": "uint256[]"
        },
        {
          "internalType": "address[]",
          "name": "_vaults",
          "type": "address[]"
        }
      ],
      "name": "depositAll",
      "outputs": [],
      "payable": false,
      "stateMutability": "nonpayable",
      "type": "function"
    }
  ],
  "bytecode": "0x608060405234801561001057600080fd5b506040516104543803806104548339818101604052602081101561003357600080fd5b5051600080546001600160a01b039092166001600160a01b03199092169190911790556103ef806100656000396000f3fe608060405234801561001057600080fd5b50600436106100365760003560e01c80633cb972371461003b578063f529e53c14610164575b600080fd5b6101626004803603604081101561005157600080fd5b81019060208101813564010000000081111561006c57600080fd5b82018360208201111561007e57600080fd5b803590602001918460208302840111640100000000831117156100a057600080fd5b91908080602002602001604051908101604052809392919081815260200183836020028082843760009201919091525092959493602081019350359150506401000000008111156100f057600080fd5b82018360208201111561010257600080fd5b8035906020019184602083028401116401000000008311171561012457600080fd5b919080806020026020016040519081016040528093929190818152602001838360200280828437600092019190915250929550610188945050505050565b005b61016c6103ab565b604080516001600160a01b039092168252519081900360200190f35b60005b82518110156102bc578181815181106101a057fe5b60200260200101516001600160a01b0316636f307dc36040518163ffffffff1660e01b815260040160206040518083038186803b1580156101e057600080fd5b505afa1580156101f4573d6000803e3d6000fd5b505050506040513d602081101561020a57600080fd5b505160005484516001600160a01b039283169263095ea7b392169086908590811061023157fe5b60200260200101516040518363ffffffff1660e01b815260040180836001600160a01b03166001600160a01b0316815260200182815260200192505050602060405180830381600087803b15801561028857600080fd5b505af115801561029c573d6000803e3d6000fd5b505050506040513d60208110156102b257600080fd5b505060010161018b565b506000805460408051633cb9723760e01b8152600481019182528551604482015285516001600160a01b0390931693633cb9723793879387939092839260248301926064019160208089019202908190849084905b83811015610329578181015183820152602001610311565b50505050905001838103825284818151815260200191508051906020019060200280838360005b83811015610368578181015183820152602001610350565b50505050905001945050505050600060405180830381600087803b15801561038f57600080fd5b505af11580156103a3573d6000803e3d6000fd5b505050505050565b6000546001600160a01b03168156fea265627a7a723158200878ebd429d148325fb9822e976a9ebfa910cb9d0f77e6576b4ca8085d424c8b64736f6c63430005100032",
  "source": "pragma solidity 0.5.16;\n\nimport \"../DepositHelper.sol\";\nimport \"../hardworkInterface/IVault.sol\";\nimport \"@openzeppelin/contracts/token/ERC20/IERC20.sol\";\n\ncontract ThirdPartyContractThatCallsDepositHelper {\n\n  address public depositHelper;\n\n  constructor(address _depositHelper) public {\n    depositHelper = _depositHelper;\n  }\n\n  function depositAll(uint256[] memory _amounts, address[] memory _vaults) public {\n    for (uint i = 0; i < _amounts.length; i++) {\n      IERC20(IVault(_vaults[i]).underlying()).approve(depositHelper, _amounts[i]);\n    }\n    DepositHelper(depositHelper).depositAll(_amounts, _vaults);\n  }\n}\n",
  "sourcePath": "/home/jawaher/tmp/harvest/contracts/test/ThirdPartyContractThatCallsDepositHelper.sol",
  "compiler": {
    "name": "solc",
    "version": "0.5.16+commit.9c3226ce.Emscripten.clang"
  },
  "schemaVersion": "3.2.5",
  "updatedAt": "2020-10-19T08:25:32.338Z",
  "devdoc": {
    "methods": {}
  },
  "userdoc": {
    "methods": {}
  }
}