{
  "contractName": "VaultProxy",
  "abi": [
    {
      "inputs": [
        {
          "internalType": "address",
          "name": "_implementation",
          "type": "address"
        }
      ],
      "payable": false,
      "stateMutability": "nonpayable",
      "type": "constructor"
    },
    {
      "anonymous": false,
      "inputs": [
        {
          "indexed": true,
          "internalType": "address",
          "name": "implementation",
          "type": "address"
        }
      ],
      "name": "Upgraded",
      "type": "event"
    },
    {
      "payable": true,
      "stateMutability": "payable",
      "type": "fallback"
    },
    {
      "constant": false,
      "inputs": [],
      "name": "upgrade",
      "outputs": [],
      "payable": false,
      "stateMutability": "nonpayable",
      "type": "function"
    },
    {
      "constant": true,
      "inputs": [],
      "name": "implementation",
      "outputs": [
        {
          "internalType": "address",
          "name": "",
          "type": "address"
        }
      ],
      "payable": false,
      "stateMutability": "view",
      "type": "function"
    }
  ],
  "bytecode": "0x608060405234801561001057600080fd5b506040516105083803806105088339818101604052602081101561003357600080fd5b5051610047816001600160e01b0361004d16565b506100c5565b610060816100bf60201b6103621760201c565b61009b5760405162461bcd60e51b815260040180806020018281038252603b8152602001806104cd603b913960400191505060405180910390fd5b7f360894a13ba1a3210667c828492db98dca3e2076cc3735a920a3ca505d382bbc55565b3b151590565b6103f9806100d46000396000f3fe6080604052600436106100295760003560e01c80635c60da1b14610033578063d55ec69714610064575b610031610079565b005b34801561003f57600080fd5b50610048610093565b604080516001600160a01b039092168252519081900360200190f35b34801561007057600080fd5b506100316100a2565b610081610091565b61009161008c610271565b610296565b565b600061009d610271565b905090565b600080306001600160a01b0316639d16acfd6040518163ffffffff1660e01b8152600401604080518083038186803b1580156100dd57600080fd5b505afa1580156100f1573d6000803e3d6000fd5b505050506040513d604081101561010757600080fd5b50805160209091015190925090508161015f576040805162461bcd60e51b8152602060048201526015602482015274155c19dc985919481b9bdd081cd8da19591d5b1959605a1b604482015290519081900360640190fd5b610168816102ba565b60408051600481526024810182526020810180516001600160e01b0316634d28464760e11b1781529151815160009360609330939092909182918083835b602083106101c55780518252601f1990920191602091820191016101a6565b6001836020036101000a038019825116818451168082178552505050505050905001915050600060405180830381855af49150503d8060008114610225576040519150601f19603f3d011682016040523d82523d6000602084013e61022a565b606091505b50915091508161026b5760405162461bcd60e51b81526004018080602001828103825260218152602001806103696021913960400191505060405180910390fd5b50505050565b7f360894a13ba1a3210667c828492db98dca3e2076cc3735a920a3ca505d382bbc5490565b3660008037600080366000845af43d6000803e8080156102b5573d6000f35b3d6000fd5b6102c3816102fa565b6040516001600160a01b038216907fbc7cd75a20ee27fd9adebab32041f755214dbc6bffa90cc0225b39da2e5c2d3b90600090a250565b61030381610362565b61033e5760405162461bcd60e51b815260040180806020018281038252603b81526020018061038a603b913960400191505060405180910390fd5b7f360894a13ba1a3210667c828492db98dca3e2076cc3735a920a3ca505d382bbc55565b3b15159056fe4973737565207768656e2066696e616c697a696e6720746865207570677261646543616e6e6f742073657420612070726f787920696d706c656d656e746174696f6e20746f2061206e6f6e2d636f6e74726163742061646472657373a265627a7a72315820f66e87207f2501bdea8a55c35024573f2c56ad3cb69481250f2a3fb3e2e1a9a364736f6c6343000510003243616e6e6f742073657420612070726f787920696d706c656d656e746174696f6e20746f2061206e6f6e2d636f6e74726163742061646472657373",
  "source": "pragma solidity 0.5.16;\n\nimport \"./hardworkInterface/IUpgradeSource.sol\";\nimport \"@openzeppelin/upgrades/contracts/upgradeability/BaseUpgradeabilityProxy.sol\";\n\ncontract VaultProxy is BaseUpgradeabilityProxy {\n\n  constructor(address _implementation) public {\n    _setImplementation(_implementation);\n  }\n\n  /**\n  * The main logic. If the timer has elapsed and there is a schedule upgrade,\n  * the governance can upgrade the vault\n  */\n  function upgrade() external {\n    (bool should, address newImplementation) = IUpgradeSource(address(this)).shouldUpgrade();\n    require(should, \"Upgrade not scheduled\");\n    _upgradeTo(newImplementation);\n\n    // the finalization needs to be executed on itself to update the storage of this proxy\n    // it also needs to be invoked by the governance, not by address(this), so delegatecall is needed\n    (bool success, bytes memory result) = address(this).delegatecall(\n      abi.encodeWithSignature(\"finalizeUpgrade()\")\n    );\n\n    require(success, \"Issue when finalizing the upgrade\");\n  }\n\n  function implementation() external view returns (address) {\n    return _implementation();\n  }\n}\n",
  "sourcePath": "/home/jawaher/tmp/harvest/contracts/VaultProxy.sol",
  "compiler": {
    "name": "solc",
    "version": "0.5.16+commit.9c3226ce.Emscripten.clang"
  },
  "schemaVersion": "3.2.5",
  "updatedAt": "2020-11-18T14:21:44.341Z",
  "networkType": "ethereum",
  "devdoc": {
    "methods": {}
  },
  "userdoc": {
    "methods": {
      "upgrade()": {
        "notice": "The main logic. If the timer has elapsed and there is a schedule upgrade, the governance can upgrade the vault"
      }
    }
  }
}