{
  "contractName": "VaultStorage",
  "abi": [
    {
      "inputs": [],
      "payable": false,
      "stateMutability": "nonpayable",
      "type": "constructor"
    },
    {
      "constant": false,
      "inputs": [
        {
          "internalType": "address",
          "name": "_underlying",
          "type": "address"
        },
        {
          "internalType": "uint256",
          "name": "_toInvestNumerator",
          "type": "uint256"
        },
        {
          "internalType": "uint256",
          "name": "_toInvestDenominator",
          "type": "uint256"
        },
        {
          "internalType": "uint256",
          "name": "_underlyingUnit",
          "type": "uint256"
        },
        {
          "internalType": "uint256",
          "name": "_implementationChangeDelay",
          "type": "uint256"
        },
        {
          "internalType": "uint256",
          "name": "_strategyChangeDelay",
          "type": "uint256"
        }
      ],
      "name": "initialize",
      "outputs": [],
      "payable": false,
      "stateMutability": "nonpayable",
      "type": "function"
    }
  ],
  "bytecode": "0x608060405234801561001057600080fd5b50604080517f656970313936372e7661756c7453746f726167652e73747261746567790000008152905190819003601d0190207ff1a169aa0f736c2813818fdfbdc5755c31e0839c8f49831a16543496b28574ea6000199091011461007157fe5b604080517f656970313936372e7661756c7453746f726167652e756e6465726c79696e67008152905190819003601f0190207f1994607607e11d53306ef62e45e3bd85762c58d9bf38b5578bc4a258a26a7371600019909101146100d157fe5b600160405180806107c9602391396023019050604051809103902060001c0360001b7fa66bc57d4b4eed7c7687876ca77997588987307cb13ecc23f5e52725192e5fff60001b1461011e57fe5b600160405180806106b9603391396033019050604051809103902060001c0360001b7f39122c9adfb653455d0c05043bd52fcfbc2be864e832efd3abc72ce5a3d7ed5a60001b1461016b57fe5b6001604051808061071c603591396035019050604051809103902060001c0360001b7f469a3bad2fab7b936c45eecd1f5da52af89cead3e2ed7f732b6f3fc92ed3230860001b146101b857fe5b600160405180806107ec602791396027019050604051809103902060001c0360001b7fb1acf527cd7cd1668b30e5a9a1c0d845714604de29ce560150922c9d8c0937df60001b1461020557fe5b600160405180806106ec603091396030019050604051809103902060001c0360001b7f3bc747f4b148b37be485de3223c90b4468252967d2ea7f9fcbd8b6e653f434c960001b1461025257fe5b6001604051808061079d602c9139602c019050604051809103902060001c0360001b7f82ddc3be3f0c1a6870327f78f4979a0b37b21b16736ef5be6a7a7a35e530bcf060001b1461029f57fe5b60016040518080610778602591396025019050604051809103902060001c0360001b7f6d02338b2e4c913c0f7d380e2798409838a48a2c4d57d52742a808c82d713d8b60001b146102ec57fe5b60016040518080610813602391396023019050604051809103902060001c0360001b7fb441b53a4e42c2ca9182bc7ede99bedba7a5d9360d9dfbd31fa8ee2dc859061060001b1461033957fe5b60016040518080610751602791396027019050604051809103902060001c0360001b7f56e7c0e75875c6497f0de657009613a32558904b5c10771a825cc330feff7e7260001b1461038657fe5b610324806103956000396000f3fe608060405234801561001057600080fd5b506004361061002b5760003560e01c806345ff4c8014610030575b600080fd5b610074600480360360c081101561004657600080fd5b506001600160a01b038135169060208101359060408101359060608101359060808101359060a00135610076565b005b600054610100900460ff168061008f575061008f610168565b8061009d575060005460ff16155b6100d85760405162461bcd60e51b815260040180806020018281038252602e8152602001806102c2602e913960400191505060405180910390fd5b600054610100900460ff16158015610103576000805460ff1961ff0019909116610100171660011790555b61010c8761016e565b6101158661019b565b61011e856101c5565b610127846101ef565b61013083610219565b61013982610243565b610143600061026d565b61014d6000610297565b801561015f576000805461ff00191690555b50505050505050565b303b1590565b6101987f1994607607e11d53306ef62e45e3bd85762c58d9bf38b5578bc4a258a26a7371826102bd565b50565b6101987f39122c9adfb653455d0c05043bd52fcfbc2be864e832efd3abc72ce5a3d7ed5a826102bd565b6101987f469a3bad2fab7b936c45eecd1f5da52af89cead3e2ed7f732b6f3fc92ed32308826102bd565b6101987fa66bc57d4b4eed7c7687876ca77997588987307cb13ecc23f5e52725192e5fff826102bd565b6101987f82ddc3be3f0c1a6870327f78f4979a0b37b21b16736ef5be6a7a7a35e530bcf0826102bd565b6101987f6d02338b2e4c913c0f7d380e2798409838a48a2c4d57d52742a808c82d713d8b826102bd565b6101987f56e7c0e75875c6497f0de657009613a32558904b5c10771a825cc330feff7e72826102bd565b6101987fb441b53a4e42c2ca9182bc7ede99bedba7a5d9360d9dfbd31fa8ee2dc8590610825b905556fe436f6e747261637420696e7374616e63652068617320616c7265616479206265656e20696e697469616c697a6564a265627a7a72315820231ce189577471d57803c809f25ae07d146927f0b0f6040e9c73a644ac610e9364736f6c63430005100032656970313936372e7661756c7453746f726167652e7661756c744672616374696f6e546f496e766573744e756d657261746f72656970313936372e7661756c7453746f726167652e6e657874496d706c656d656e746174696f6e54696d657374616d70656970313936372e7661756c7453746f726167652e7661756c744672616374696f6e546f496e7665737444656e6f6d696e61746f72656970313936372e7661756c7453746f726167652e737472617465677955706461746554696d65656970313936372e7661756c7453746f726167652e737472617465677954696d654c6f636b656970313936372e7661756c7453746f726167652e6e657874496d706c656d656e746174696f6e44656c6179656970313936372e7661756c7453746f726167652e756e6465726c79696e67556e6974656970313936372e7661756c7453746f726167652e6e657874496d706c656d656e746174696f6e656970313936372e7661756c7453746f726167652e6675747572655374726174656779",
  "source": "pragma solidity 0.5.16;\n\nimport \"@openzeppelin/upgrades/contracts/Initializable.sol\";\n\ncontract VaultStorage is Initializable {\n\n  bytes32 internal constant _STRATEGY_SLOT = 0xf1a169aa0f736c2813818fdfbdc5755c31e0839c8f49831a16543496b28574ea;\n  bytes32 internal constant _UNDERLYING_SLOT = 0x1994607607e11d53306ef62e45e3bd85762c58d9bf38b5578bc4a258a26a7371;\n  bytes32 internal constant _UNDERLYING_UNIT_SLOT = 0xa66bc57d4b4eed7c7687876ca77997588987307cb13ecc23f5e52725192e5fff;\n  bytes32 internal constant _VAULT_FRACTION_TO_INVEST_NUMERATOR_SLOT = 0x39122c9adfb653455d0c05043bd52fcfbc2be864e832efd3abc72ce5a3d7ed5a;\n  bytes32 internal constant _VAULT_FRACTION_TO_INVEST_DENOMINATOR_SLOT = 0x469a3bad2fab7b936c45eecd1f5da52af89cead3e2ed7f732b6f3fc92ed32308;\n  bytes32 internal constant _NEXT_IMPLEMENTATION_SLOT = 0xb1acf527cd7cd1668b30e5a9a1c0d845714604de29ce560150922c9d8c0937df;\n  bytes32 internal constant _NEXT_IMPLEMENTATION_TIMESTAMP_SLOT = 0x3bc747f4b148b37be485de3223c90b4468252967d2ea7f9fcbd8b6e653f434c9;\n  bytes32 internal constant _NEXT_IMPLEMENTATION_DELAY_SLOT = 0x82ddc3be3f0c1a6870327f78f4979a0b37b21b16736ef5be6a7a7a35e530bcf0;\n  bytes32 internal constant _STRATEGY_TIME_LOCK_SLOT = 0x6d02338b2e4c913c0f7d380e2798409838a48a2c4d57d52742a808c82d713d8b;\n  bytes32 internal constant _FUTURE_STRATEGY_SLOT = 0xb441b53a4e42c2ca9182bc7ede99bedba7a5d9360d9dfbd31fa8ee2dc8590610;\n  bytes32 internal constant _STRATEGY_UPDATE_TIME_SLOT = 0x56e7c0e75875c6497f0de657009613a32558904b5c10771a825cc330feff7e72;\n\n  constructor() public {\n    assert(_STRATEGY_SLOT == bytes32(uint256(keccak256(\"eip1967.vaultStorage.strategy\")) - 1));\n    assert(_UNDERLYING_SLOT == bytes32(uint256(keccak256(\"eip1967.vaultStorage.underlying\")) - 1));\n    assert(_UNDERLYING_UNIT_SLOT == bytes32(uint256(keccak256(\"eip1967.vaultStorage.underlyingUnit\")) - 1));\n    assert(_VAULT_FRACTION_TO_INVEST_NUMERATOR_SLOT == bytes32(uint256(keccak256(\"eip1967.vaultStorage.vaultFractionToInvestNumerator\")) - 1));\n    assert(_VAULT_FRACTION_TO_INVEST_DENOMINATOR_SLOT == bytes32(uint256(keccak256(\"eip1967.vaultStorage.vaultFractionToInvestDenominator\")) - 1));\n    assert(_NEXT_IMPLEMENTATION_SLOT == bytes32(uint256(keccak256(\"eip1967.vaultStorage.nextImplementation\")) - 1));\n    assert(_NEXT_IMPLEMENTATION_TIMESTAMP_SLOT == bytes32(uint256(keccak256(\"eip1967.vaultStorage.nextImplementationTimestamp\")) - 1));\n    assert(_NEXT_IMPLEMENTATION_DELAY_SLOT == bytes32(uint256(keccak256(\"eip1967.vaultStorage.nextImplementationDelay\")) - 1));\n    assert(_STRATEGY_TIME_LOCK_SLOT == bytes32(uint256(keccak256(\"eip1967.vaultStorage.strategyTimeLock\")) - 1));\n    assert(_FUTURE_STRATEGY_SLOT == bytes32(uint256(keccak256(\"eip1967.vaultStorage.futureStrategy\")) - 1));\n    assert(_STRATEGY_UPDATE_TIME_SLOT == bytes32(uint256(keccak256(\"eip1967.vaultStorage.strategyUpdateTime\")) - 1));\n  }\n\n  function initialize(\n    address _underlying,\n    uint256 _toInvestNumerator,\n    uint256 _toInvestDenominator,\n    uint256 _underlyingUnit,\n    uint256 _implementationChangeDelay,\n    uint256 _strategyChangeDelay\n  ) public initializer {\n    _setUnderlying(_underlying);\n    _setVaultFractionToInvestNumerator(_toInvestNumerator);\n    _setVaultFractionToInvestDenominator(_toInvestDenominator);\n    _setUnderlyingUnit(_underlyingUnit);\n    _setNextImplementationDelay(_implementationChangeDelay);\n    _setStrategyTimeLock(_strategyChangeDelay);\n    _setStrategyUpdateTime(0);\n    _setFutureStrategy(address(0));\n  }\n\n  function _setStrategy(address _address) internal {\n    setAddress(_STRATEGY_SLOT, _address);\n  }\n\n  function _strategy() internal view returns (address) {\n    return getAddress(_STRATEGY_SLOT);\n  }\n\n  function _setUnderlying(address _address) internal {\n    setAddress(_UNDERLYING_SLOT, _address);\n  }\n\n  function _underlying() internal view returns (address) {\n    return getAddress(_UNDERLYING_SLOT);\n  }\n\n  function _setUnderlyingUnit(uint256 _value) internal {\n    setUint256(_UNDERLYING_UNIT_SLOT, _value);\n  }\n\n  function _underlyingUnit() internal view returns (uint256) {\n    return getUint256(_UNDERLYING_UNIT_SLOT);\n  }\n\n  function _setVaultFractionToInvestNumerator(uint256 _value) internal {\n    setUint256(_VAULT_FRACTION_TO_INVEST_NUMERATOR_SLOT, _value);\n  }\n\n  function _vaultFractionToInvestNumerator() internal view returns (uint256) {\n    return getUint256(_VAULT_FRACTION_TO_INVEST_NUMERATOR_SLOT);\n  }\n\n  function _setVaultFractionToInvestDenominator(uint256 _value) internal {\n    setUint256(_VAULT_FRACTION_TO_INVEST_DENOMINATOR_SLOT, _value);\n  }\n\n  function _vaultFractionToInvestDenominator() internal view returns (uint256) {\n    return getUint256(_VAULT_FRACTION_TO_INVEST_DENOMINATOR_SLOT);\n  }\n\n  function _setNextImplementation(address _address) internal {\n    setAddress(_NEXT_IMPLEMENTATION_SLOT, _address);\n  }\n\n  function _nextImplementation() internal view returns (address) {\n    return getAddress(_NEXT_IMPLEMENTATION_SLOT);\n  }\n\n  function _setNextImplementationTimestamp(uint256 _value) internal {\n    setUint256(_NEXT_IMPLEMENTATION_TIMESTAMP_SLOT, _value);\n  }\n\n  function _nextImplementationTimestamp() internal view returns (uint256) {\n    return getUint256(_NEXT_IMPLEMENTATION_TIMESTAMP_SLOT);\n  }\n\n  function _setNextImplementationDelay(uint256 _value) internal {\n    setUint256(_NEXT_IMPLEMENTATION_DELAY_SLOT, _value);\n  }\n\n  function _nextImplementationDelay() internal view returns (uint256) {\n    return getUint256(_NEXT_IMPLEMENTATION_DELAY_SLOT);\n  }\n\n  function _setStrategyTimeLock(uint256 _value) internal {\n    setUint256(_STRATEGY_TIME_LOCK_SLOT, _value);\n  }\n\n  function _strategyTimeLock() internal view returns (uint256) {\n    return getUint256(_STRATEGY_TIME_LOCK_SLOT);\n  }\n\n  function _setFutureStrategy(address _value) internal {\n    setAddress(_FUTURE_STRATEGY_SLOT, _value);\n  }\n\n  function _futureStrategy() internal view returns (address) {\n    return getAddress(_FUTURE_STRATEGY_SLOT);\n  }\n\n  function _setStrategyUpdateTime(uint256 _value) internal {\n    setUint256(_STRATEGY_UPDATE_TIME_SLOT, _value);\n  }\n\n  function _strategyUpdateTime() internal view returns (uint256) {\n    return getUint256(_STRATEGY_UPDATE_TIME_SLOT);\n  }\n\n  function setAddress(bytes32 slot, address _address) private {\n    // solhint-disable-next-line no-inline-assembly\n    assembly {\n      sstore(slot, _address)\n    }\n  }\n\n  function setUint256(bytes32 slot, uint256 _value) private {\n    // solhint-disable-next-line no-inline-assembly\n    assembly {\n      sstore(slot, _value)\n    }\n  }\n\n  function getAddress(bytes32 slot) private view returns (address str) {\n    // solhint-disable-next-line no-inline-assembly\n    assembly {\n      str := sload(slot)\n    }\n  }\n\n  function getUint256(bytes32 slot) private view returns (uint256 str) {\n    // solhint-disable-next-line no-inline-assembly\n    assembly {\n      str := sload(slot)\n    }\n  }\n\n  uint256[50] private ______gap;\n}\n",
  "sourcePath": "/home/jawaher/tmp/harvest/contracts/VaultStorage.sol",
  "compiler": {
    "name": "solc",
    "version": "0.5.16+commit.9c3226ce.Emscripten.clang"
  },
  "schemaVersion": "3.2.5",
  "updatedAt": "2020-10-19T08:25:32.153Z",
  "devdoc": {
    "methods": {}
  },
  "userdoc": {
    "methods": {}
  }
}