{
  "contractName": "WETHCreamNoFoldStrategy",
  "abi": [
    {
      "inputs": [
        {
          "internalType": "address",
          "name": "_storage",
          "type": "address"
        },
        {
          "internalType": "address",
          "name": "_underlying",
          "type": "address"
        },
        {
          "internalType": "address",
          "name": "_ctoken",
          "type": "address"
        },
        {
          "internalType": "address",
          "name": "_vault",
          "type": "address"
        },
        {
          "internalType": "address",
          "name": "_comptroller",
          "type": "address"
        },
        {
          "internalType": "address",
          "name": "_comp",
          "type": "address"
        },
        {
          "internalType": "address",
          "name": "_uniswap",
          "type": "address"
        }
      ],
      "payable": false,
      "stateMutability": "nonpayable",
      "type": "constructor"
    },
    {
      "anonymous": false,
      "inputs": [
        {
          "indexed": false,
          "internalType": "string",
          "name": "",
          "type": "string"
        }
      ],
      "name": "D",
      "type": "event"
    },
    {
      "anonymous": false,
      "inputs": [
        {
          "indexed": false,
          "internalType": "uint256",
          "name": "oldBalance",
          "type": "uint256"
        },
        {
          "indexed": false,
          "internalType": "uint256",
          "name": "newBalance",
          "type": "uint256"
        },
        {
          "indexed": false,
          "internalType": "uint256",
          "name": "feeAmount",
          "type": "uint256"
        },
        {
          "indexed": false,
          "internalType": "uint256",
          "name": "timestamp",
          "type": "uint256"
        }
      ],
      "name": "ProfitLog",
      "type": "event"
    },
    {
      "payable": true,
      "stateMutability": "payable",
      "type": "fallback"
    },
    {
      "constant": true,
      "inputs": [],
      "name": "_weth",
      "outputs": [
        {
          "internalType": "contract IERC20",
          "name": "",
          "type": "address"
        }
      ],
      "payable": false,
      "stateMutability": "view",
      "type": "function"
    },
    {
      "constant": false,
      "inputs": [],
      "name": "claimComp",
      "outputs": [],
      "payable": false,
      "stateMutability": "nonpayable",
      "type": "function"
    },
    {
      "constant": true,
      "inputs": [],
      "name": "comp",
      "outputs": [
        {
          "internalType": "contract ERC20Detailed",
          "name": "",
          "type": "address"
        }
      ],
      "payable": false,
      "stateMutability": "view",
      "type": "function"
    },
    {
      "constant": true,
      "inputs": [],
      "name": "comptroller",
      "outputs": [
        {
          "internalType": "contract ComptrollerInterface",
          "name": "",
          "type": "address"
        }
      ],
      "payable": false,
      "stateMutability": "view",
      "type": "function"
    },
    {
      "constant": true,
      "inputs": [],
      "name": "controller",
      "outputs": [
        {
          "internalType": "address",
          "name": "",
          "type": "address"
        }
      ],
      "payable": false,
      "stateMutability": "view",
      "type": "function"
    },
    {
      "constant": true,
      "inputs": [],
      "name": "ctoken",
      "outputs": [
        {
          "internalType": "contract CompleteCToken",
          "name": "",
          "type": "address"
        }
      ],
      "payable": false,
      "stateMutability": "view",
      "type": "function"
    },
    {
      "constant": true,
      "inputs": [],
      "name": "governance",
      "outputs": [
        {
          "internalType": "address",
          "name": "",
          "type": "address"
        }
      ],
      "payable": false,
      "stateMutability": "view",
      "type": "function"
    },
    {
      "constant": true,
      "inputs": [],
      "name": "profitSharingDenominator",
      "outputs": [
        {
          "internalType": "uint256",
          "name": "",
          "type": "uint256"
        }
      ],
      "payable": false,
      "stateMutability": "view",
      "type": "function"
    },
    {
      "constant": true,
      "inputs": [],
      "name": "profitSharingNumerator",
      "outputs": [
        {
          "internalType": "uint256",
          "name": "",
          "type": "uint256"
        }
      ],
      "payable": false,
      "stateMutability": "view",
      "type": "function"
    },
    {
      "constant": false,
      "inputs": [
        {
          "internalType": "address",
          "name": "_store",
          "type": "address"
        }
      ],
      "name": "setStorage",
      "outputs": [],
      "payable": false,
      "stateMutability": "nonpayable",
      "type": "function"
    },
    {
      "constant": true,
      "inputs": [],
      "name": "store",
      "outputs": [
        {
          "internalType": "contract Storage",
          "name": "",
          "type": "address"
        }
      ],
      "payable": false,
      "stateMutability": "view",
      "type": "function"
    },
    {
      "constant": true,
      "inputs": [],
      "name": "suppliedInWETH",
      "outputs": [
        {
          "internalType": "uint256",
          "name": "",
          "type": "uint256"
        }
      ],
      "payable": false,
      "stateMutability": "view",
      "type": "function"
    },
    {
      "constant": true,
      "inputs": [],
      "name": "underlying",
      "outputs": [
        {
          "internalType": "contract ERC20Detailed",
          "name": "",
          "type": "address"
        }
      ],
      "payable": false,
      "stateMutability": "view",
      "type": "function"
    },
    {
      "constant": true,
      "inputs": [],
      "name": "uniswapRouterV2",
      "outputs": [
        {
          "internalType": "address",
          "name": "",
          "type": "address"
        }
      ],
      "payable": false,
      "stateMutability": "view",
      "type": "function"
    },
    {
      "constant": true,
      "inputs": [
        {
          "internalType": "address",
          "name": "",
          "type": "address"
        }
      ],
      "name": "unsalvagableTokens",
      "outputs": [
        {
          "internalType": "bool",
          "name": "",
          "type": "bool"
        }
      ],
      "payable": false,
      "stateMutability": "view",
      "type": "function"
    },
    {
      "constant": true,
      "inputs": [],
      "name": "vault",
      "outputs": [
        {
          "internalType": "address",
          "name": "",
          "type": "address"
        }
      ],
      "payable": false,
      "stateMutability": "view",
      "type": "function"
    },
    {
      "constant": true,
      "inputs": [],
      "name": "depositArbCheck",
      "outputs": [
        {
          "internalType": "bool",
          "name": "",
          "type": "bool"
        }
      ],
      "payable": false,
      "stateMutability": "view",
      "type": "function"
    },
    {
      "constant": false,
      "inputs": [],
      "name": "investAllUnderlying",
      "outputs": [],
      "payable": false,
      "stateMutability": "nonpayable",
      "type": "function"
    },
    {
      "constant": false,
      "inputs": [],
      "name": "withdrawAllToVault",
      "outputs": [],
      "payable": false,
      "stateMutability": "nonpayable",
      "type": "function"
    },
    {
      "constant": false,
      "inputs": [
        {
          "internalType": "uint256",
          "name": "amountUnderlying",
          "type": "uint256"
        }
      ],
      "name": "withdrawToVault",
      "outputs": [],
      "payable": false,
      "stateMutability": "nonpayable",
      "type": "function"
    },
    {
      "constant": false,
      "inputs": [],
      "name": "doHardWork",
      "outputs": [],
      "payable": false,
      "stateMutability": "nonpayable",
      "type": "function"
    },
    {
      "constant": false,
      "inputs": [
        {
          "internalType": "address",
          "name": "recipient",
          "type": "address"
        },
        {
          "internalType": "address",
          "name": "token",
          "type": "address"
        },
        {
          "internalType": "uint256",
          "name": "amount",
          "type": "uint256"
        }
      ],
      "name": "salvage",
      "outputs": [],
      "payable": false,
      "stateMutability": "nonpayable",
      "type": "function"
    },
    {
      "constant": true,
      "inputs": [],
      "name": "investedUnderlyingBalance",
      "outputs": [
        {
          "internalType": "uint256",
          "name": "",
          "type": "uint256"
        }
      ],
      "payable": false,
      "stateMutability": "view",
      "type": "function"
    }
  ],
  "bytecode": "0x6080604052600580546001600160a01b03191673c02aaa39b223fe8d0a0e5c4f27ead9083c756cc21790553480156200003757600080fd5b50604051620025c1380380620025c1833981810160405260e08110156200005d57600080fd5b508051602082015160408301516060840151608085015160a086015160c0909601519495939492939192909190858584898381806001600160a01b038116620000ed576040805162461bcd60e51b815260206004820152601e60248201527f6e65772073746f726167652073686f756c646e277420626520656d7074790000604482015290519081900360640190fd5b600080546001600160a01b03199081166001600160a01b03938416179091556003805490911691841691909117905550620001276200055b565b6001600160a01b031663b60f151a6040518163ffffffff1660e01b815260040160206040518083038186803b1580156200016057600080fd5b505afa15801562000175573d6000803e3d6000fd5b505050506040513d60208110156200018c57600080fd5b5051600155620001a46001600160e01b036200055b16565b6001600160a01b031663026a0dd06040518163ffffffff1660e01b815260040160206040518083038186803b158015620001dd57600080fd5b505afa158015620001f2573d6000803e3d6000fd5b505050506040513d60208110156200020957600080fd5b505160028190556001541062000266576040805162461bcd60e51b815260206004820152601460248201527f696e76616c69642070726f666974207368617265000000000000000000000000604482015290519081900360640190fd5b50506003805460ff60a01b1916600160a01b179055600780546001600160a01b038084166001600160a01b0319928316179092556004805486841690831617905560068054928516929091169190911790556040805160018082528183019092526060918160200160208202803883390190505090508281600081518110620002eb57fe5b6001600160a01b03928316602091820292909201810191909152600754604051631853304760e31b815260048101838152855160248301528551929094169363c299823893869391928392604490910191858101910280838360005b838110156200036157818101518382015260200162000347565b5050505090500192505050600060405180830381600087803b1580156200038757600080fd5b505af11580156200039c573d6000803e3d6000fd5b505050506040513d6000823e601f3d908101601f191682016040526020811015620003c657600080fd5b8101908080516040519392919084640100000000821115620003e757600080fd5b908301906020820185811115620003fd57600080fd5b82518660208202830111640100000000821117156200041b57600080fd5b82525081516020918201928201910280838360005b838110156200044a57818101518382015260200162000430565b505050509190910160405250506005546001600160a01b038e81169116149650620004ae955050505050505760405162461bcd60e51b815260040180806020018281038252602e81526020018062002593602e913960400191505060405180910390fd5b600a80546001600160a01b03199081166001600160a01b0395861617909155600c80548216938516938417905560088054821697851697881790556009805482169685169687179055600b8054821695851695909517909455600d80549094169216919091179091556000928352600f6020526040808420805460ff19908116600190811790925593855281852080548516821790559184529092208054909116909117905550620005de565b60008060009054906101000a90046001600160a01b03166001600160a01b031663f77c47916040518163ffffffff1660e01b815260040160206040518083038186803b158015620005ab57600080fd5b505afa158015620005c0573d6000803e3d6000fd5b505050506040513d6020811015620005d757600080fd5b5051905090565b611fa580620005ee6000396000f3fe6080604052600436106101405760003560e01c80636f307dc3116100b6578063bfd131f11161006f578063bfd131f114610353578063c2a2a07b14610368578063ccf3eb9f1461037d578063ce8c42e814610392578063f77c4791146103bc578063fbfa77cf146103d157610140565b80636f307dc3146102b7578063824c4f4e146102cc5780639137c1a7146102e1578063975057e714610314578063a176459514610329578063b60f151a1461033e57610140565b80634a8cfa69116101085780634a8cfa69146102075780634fa5d8541461021c5780635018594614610231578063596fa9e3146102785780635aa6e6751461028d5780635fe3b567146102a257610140565b8063026a0dd014610142578063109d0af8146101695780631113ef521461019a5780631bd85bdb146101dd57806345d01e4a146101f2575b005b34801561014e57600080fd5b506101576103e6565b60408051918252519081900360200190f35b34801561017557600080fd5b5061017e6103ec565b604080516001600160a01b039092168252519081900360200190f35b3480156101a657600080fd5b50610140600480360360608110156101bd57600080fd5b506001600160a01b038135811691602081013590911690604001356103fb565b3480156101e957600080fd5b5061014061052b565b3480156101fe57600080fd5b50610157610591565b34801561021357600080fd5b50610140610628565b34801561022857600080fd5b50610140610795565b34801561023d57600080fd5b506102646004803603602081101561025457600080fd5b50356001600160a01b031661081b565b604080519115158252519081900360200190f35b34801561028457600080fd5b5061017e610830565b34801561029957600080fd5b5061017e61083f565b3480156102ae57600080fd5b5061017e6108bf565b3480156102c357600080fd5b5061017e6108ce565b3480156102d857600080fd5b506101576108dd565b3480156102ed57600080fd5b506101406004803603602081101561030457600080fd5b50356001600160a01b03166108e3565b34801561032057600080fd5b5061017e610a19565b34801561033557600080fd5b5061017e610a28565b34801561034a57600080fd5b50610157610a37565b34801561035f57600080fd5b50610140610a3d565b34801561037457600080fd5b50610264610b96565b34801561038957600080fd5b5061017e610b9b565b34801561039e57600080fd5b50610140600480360360208110156103b557600080fd5b5035610baa565b3480156103c857600080fd5b5061017e610df9565b3480156103dd57600080fd5b5061017e610e48565b60025481565b600c546001600160a01b031681565b600054604080516337b87c3960e21b815233600482015290516001600160a01b039092169163dee1f0e491602480820192602092909190829003018186803b15801561044657600080fd5b505afa15801561045a573d6000803e3d6000fd5b505050506040513d602081101561047057600080fd5b50516104b4576040805162461bcd60e51b815260206004820152600e60248201526d4e6f7420676f7665726e616e636560901b604482015290519081900360640190fd5b6001600160a01b0382166000908152600f602052604090205460ff161561050c5760405162461bcd60e51b8152600401808060200182810382526022815260200180611e806022913960400191505060405180910390fd5b6105266001600160a01b038316848363ffffffff610e5716565b505050565b600754604080516374d7814960e11b815230600482015290516001600160a01b039092169163e9af02929160248082019260009290919082900301818387803b15801561057757600080fd5b505af115801561058b573d6000803e3d6000fd5b50505050565b600e54600854604080516370a0823160e01b8152306004820152905160009384936106219391926001600160a01b03909116916370a08231916024808301926020929190829003018186803b1580156105e957600080fd5b505afa1580156105fd573d6000803e3d6000fd5b505050506040513d602081101561061357600080fd5b50519063ffffffff610ea916565b9150505b90565b600b546001600160a01b03163314806106595750610644610df9565b6001600160a01b0316336001600160a01b0316145b6106945760405162461bcd60e51b815260040180806020018281038252602c815260200180611ea2602c913960400191505060405180910390fd5b600854604080516370a0823160e01b815230600482015290516000926001600160a01b0316916370a08231916024808301926020929190829003018186803b1580156106df57600080fd5b505afa1580156106f3573d6000803e3d6000fd5b505050506040513d602081101561070957600080fd5b5051905061071681610f0c565b5060095460408051633af9e66960e01b815230600482015290516001600160a01b0390921691633af9e669916024808201926020929091908290030181600087803b15801561076457600080fd5b505af1158015610778573d6000803e3d6000fd5b505050506040513d602081101561078e57600080fd5b5051600e55565b600b546001600160a01b03163314806107c657506107b1610df9565b6001600160a01b0316336001600160a01b0316145b6108015760405162461bcd60e51b815260040180806020018281038252602c815260200180611ea2602c913960400191505060405180910390fd5b61080961052b565b6108116110e6565b610819610628565b565b600f6020526000908152604090205460ff1681565b600d546001600160a01b031681565b60008060009054906101000a90046001600160a01b03166001600160a01b0316635aa6e6756040518163ffffffff1660e01b815260040160206040518083038186803b15801561088e57600080fd5b505afa1580156108a2573d6000803e3d6000fd5b505050506040513d60208110156108b857600080fd5b5051905090565b600a546001600160a01b031681565b6008546001600160a01b031681565b600e5481565b600054604080516337b87c3960e21b815233600482015290516001600160a01b039092169163dee1f0e491602480820192602092909190829003018186803b15801561092e57600080fd5b505afa158015610942573d6000803e3d6000fd5b505050506040513d602081101561095857600080fd5b505161099c576040805162461bcd60e51b815260206004820152600e60248201526d4e6f7420676f7665726e616e636560901b604482015290519081900360640190fd5b6001600160a01b0381166109f7576040805162461bcd60e51b815260206004820152601e60248201527f6e65772073746f726167652073686f756c646e277420626520656d7074790000604482015290519081900360640190fd5b600080546001600160a01b0319166001600160a01b0392909216919091179055565b6000546001600160a01b031681565b6005546001600160a01b031681565b60015481565b600b546001600160a01b0316331480610a6e5750610a59610df9565b6001600160a01b0316336001600160a01b0316145b610aa95760405162461bcd60e51b815260040180806020018281038252602c815260200180611ea2602c913960400191505060405180910390fd5b610ab1611507565b600b54600854604080516370a0823160e01b81523060048201529051610b49936001600160a01b039081169316916370a08231916024808301926020929190829003018186803b158015610b0457600080fd5b505afa158015610b18573d6000803e3d6000fd5b505050506040513d6020811015610b2e57600080fd5b50516008546001600160a01b0316919063ffffffff610e5716565b60095460408051633af9e66960e01b815230600482015290516001600160a01b0390921691633af9e669916024808201926020929091908290030181600087803b15801561076457600080fd5b600190565b6009546001600160a01b031681565b600b546001600160a01b0316331480610bdb5750610bc6610df9565b6001600160a01b0316336001600160a01b0316145b610c165760405162461bcd60e51b815260040180806020018281038252602c815260200180611ea2602c913960400191505060405180910390fd5b600854604080516370a0823160e01b815230600482015290516001600160a01b03909216916370a0823191602480820192602092909190829003018186803b158015610c6157600080fd5b505afa158015610c75573d6000803e3d6000fd5b505050506040513d6020811015610c8b57600080fd5b50518111610cbb57600b54600854610cb6916001600160a01b0391821691168363ffffffff610e5716565b610d7a565b610cc481611522565b50600854604080516370a0823160e01b81523060048201529051600092610d4a9285926001600160a01b03909216916370a0823191602480820192602092909190829003018186803b158015610d1957600080fd5b505afa158015610d2d573d6000803e3d6000fd5b505050506040513d6020811015610d4357600080fd5b50516115ea565b600b54600854919250610d70916001600160a01b0390811691168363ffffffff610e5716565b610d78610628565b505b60095460408051633af9e66960e01b815230600482015290516001600160a01b0390921691633af9e669916024808201926020929091908290030181600087803b158015610dc757600080fd5b505af1158015610ddb573d6000803e3d6000fd5b505050506040513d6020811015610df157600080fd5b5051600e5550565b60008060009054906101000a90046001600160a01b03166001600160a01b031663f77c47916040518163ffffffff1660e01b815260040160206040518083038186803b15801561088e57600080fd5b600b546001600160a01b031681565b604080516001600160a01b038416602482015260448082018490528251808303909101815260649091019091526020810180516001600160e01b031663a9059cbb60e01b179052610526908490611600565b600082820183811015610f03576040805162461bcd60e51b815260206004820152601b60248201527f536166654d6174683a206164646974696f6e206f766572666c6f770000000000604482015290519081900360640190fd5b90505b92915050565b600354600160a01b900460ff16610f6a576040805162461bcd60e51b815260206004820152601f60248201527f5265656e7472616e637947756172643a207265656e7472616e742063616c6c00604482015290519081900360640190fd5b6003805460ff60a01b1916905560048054604080516370a0823160e01b81523093810193909352516000926001600160a01b03909216916370a08231916024808301926020929190829003018186803b158015610fc657600080fd5b505afa158015610fda573d6000803e3d6000fd5b505050506040513d6020811015610ff057600080fd5b5051905080821015610fff5750805b60055460408051632e1a7d4d60e01b81526004810184905290516001600160a01b03909216918291632e1a7d4d91602480830192600092919082900301818387803b15801561104d57600080fd5b505af1158015611061573d6000803e3d6000fd5b50505050600660009054906101000a90046001600160a01b03166001600160a01b0316631249c58b836040518263ffffffff1660e01b81526004016000604051808303818588803b1580156110b557600080fd5b505af11580156110c9573d6000803e3d6000fd5b50506003805460ff60a01b1916600160a01b179055505050505050565b600854604080516370a0823160e01b815230600482015290516000926001600160a01b0316916370a08231916024808301926020929190829003018186803b15801561113157600080fd5b505afa158015611145573d6000803e3d6000fd5b505050506040513d602081101561115b57600080fd5b5051600c54604080516370a0823160e01b815230600482015290519293506000926001600160a01b03909216916370a0823191602480820192602092909190829003018186803b1580156111ae57600080fd5b505afa1580156111c2573d6000803e3d6000fd5b505050506040513d60208110156111d857600080fd5b50519050801561148157600d54600c54600191611209916001600160a01b039081169116600063ffffffff6117b816565b600d54600c5461122c916001600160a01b0391821691168463ffffffff6117b816565b60408051600280825260608083018452926020830190803883395050600c5482519293506001600160a01b03169183915060009061126657fe5b6001600160a01b03928316602091820292909201810191909152600d54604080516315ab88c960e31b81529051919093169263ad5c4648926004808301939192829003018186803b1580156112ba57600080fd5b505afa1580156112ce573d6000803e3d6000fd5b505050506040513d60208110156112e457600080fd5b50518151829060019081106112f557fe5b6001600160a01b03928316602091820292909201810191909152600d546040516338ed173960e01b815260048101878152602482018790523060648301819052426084840181905260a060448501908152885160a4860152885195909716966338ed1739968b968b968b96939260c490910191878201910280838360005b8381101561138b578181015183820152602001611373565b505050509050019650505050505050600060405180830381600087803b1580156113b457600080fd5b505af11580156113c8573d6000803e3d6000fd5b505050506040513d6000823e601f3d908101601f1916820160405260208110156113f157600080fd5b810190808051604051939291908464010000000082111561141157600080fd5b90830190602082018581111561142657600080fd5b825186602082028301116401000000008211171561144357600080fd5b82525081516020918201928201910280838360005b83811015611470578181015183820152602001611458565b505050509050016040525050505050505b600854604080516370a0823160e01b815230600482015290516115039285926001600160a01b03909116916370a0823191602480820192602092909190829003018186803b1580156114d257600080fd5b505afa1580156114e6573d6000803e3d6000fd5b505050506040513d60208110156114fc57600080fd5b50516118cb565b5050565b61150f61052b565b6115176110e6565b61151f611a6a565b50565b600081600960009054906101000a90046001600160a01b03166001600160a01b0316633b1d21a26040518163ffffffff1660e01b815260040160206040518083038186803b15801561157357600080fd5b505afa158015611587573d6000803e3d6000fd5b505050506040513d602081101561159d57600080fd5b505110156115dc5760405162461bcd60e51b8152600401808060200182810382526022815260200180611f196022913960400191505060405180910390fd5b6115e582611a74565b919050565b60008183106115f95781610f03565b5090919050565b611612826001600160a01b0316611ae4565b611663576040805162461bcd60e51b815260206004820152601f60248201527f5361666545524332303a2063616c6c20746f206e6f6e2d636f6e747261637400604482015290519081900360640190fd5b60006060836001600160a01b0316836040518082805190602001908083835b602083106116a15780518252601f199092019160209182019101611682565b6001836020036101000a0380198251168184511680821785525050505050509050019150506000604051808303816000865af19150503d8060008114611703576040519150601f19603f3d011682016040523d82523d6000602084013e611708565b606091505b50915091508161175f576040805162461bcd60e51b815260206004820181905260248201527f5361666545524332303a206c6f772d6c6576656c2063616c6c206661696c6564604482015290519081900360640190fd5b80511561058b5780806020019051602081101561177b57600080fd5b505161058b5760405162461bcd60e51b815260040180806020018281038252602a815260200180611eef602a913960400191505060405180910390fd5b80158061183e575060408051636eb1769f60e11b81523060048201526001600160a01b03848116602483015291519185169163dd62ed3e91604480820192602092909190829003018186803b15801561181057600080fd5b505afa158015611824573d6000803e3d6000fd5b505050506040513d602081101561183a57600080fd5b5051155b6118795760405162461bcd60e51b8152600401808060200182810382526036815260200180611f3b6036913960400191505060405180910390fd5b604080516001600160a01b038416602482015260448082018490528251808303909101815260649091019091526020810180516001600160e01b031663095ea7b360e01b179052610526908490611600565b81811115611a205760006118e5828463ffffffff611b2016565b9050600061191060025461190460015485611b6290919063ffffffff16565b9063ffffffff611bbb16565b604080518681526020810186905280820183905242606082015290519192507f0b34b93979d93253da0e9e54841c680c66377f129a340ef2a37e802865e40588919081900360800190a161197f611965610df9565b6003546001600160a01b031690600063ffffffff6117b816565b6119a361198a610df9565b6003546001600160a01b0316908363ffffffff6117b816565b6119ab610df9565b60035460408051631ee0d7e560e31b81526001600160a01b039283166004820152602481018590529051929091169163f706bf289160448082019260009290919082900301818387803b158015611a0157600080fd5b505af1158015611a15573d6000803e3d6000fd5b505050505050611503565b604080518381526020810183905260008183015242606082015290517f0b34b93979d93253da0e9e54841c680c66377f129a340ef2a37e802865e405889181900360800190a15050565b6000610625611bfd565b611a7d81611d05565b60055460408051630d0e30db60e41b815290516001600160a01b0390921691829163d0e30db091479160048082019260009290919082900301818588803b158015611ac757600080fd5b505af1158015611adb573d6000803e3d6000fd5b50505050505050565b6000813f7fc5d2460186f7233c927e7db2dcc703c0e500b653ca82273b7bfad8045d85a470818114801590611b1857508115155b949350505050565b6000610f0383836040518060400160405280601e81526020017f536166654d6174683a207375627472616374696f6e206f766572666c6f770000815250611d83565b600082611b7157506000610f06565b82820282848281611b7e57fe5b0414610f035760405162461bcd60e51b8152600401808060200182810382526021815260200180611ece6021913960400191505060405180910390fd5b6000610f0383836040518060400160405280601a81526020017f536166654d6174683a206469766973696f6e206279207a65726f000000000000815250611e1a565b60065460408051631d8e90d160e11b815290516000926001600160a01b031691633b1d21a2916004808301926020929190829003018186803b158015611c4257600080fd5b505afa158015611c56573d6000803e3d6000fd5b505050506040513d6020811015611c6c57600080fd5b505160065460408051633af9e66960e01b815230600482015290519293506000926001600160a01b0390921691633af9e6699160248082019260209290919082900301818787803b158015611cc057600080fd5b505af1158015611cd4573d6000803e3d6000fd5b505050506040513d6020811015611cea57600080fd5b50519050611503818310611cfe5781611d00565b825b611a74565b801561151f576006546040805163852a12e360e01b81526004810184905290516001600160a01b039092169163852a12e3916024808201926020929091908290030181600087803b158015611d5957600080fd5b505af1158015611d6d573d6000803e3d6000fd5b505050506040513d602081101561052657600080fd5b60008184841115611e125760405162461bcd60e51b81526004018080602001828103825283818151815260200191508051906020019080838360005b83811015611dd7578181015183820152602001611dbf565b50505050905090810190601f168015611e045780820380516001836020036101000a031916815260200191505b509250505060405180910390fd5b505050900390565b60008183611e695760405162461bcd60e51b8152602060048201818152835160248401528351909283926044909101919085019080838360008315611dd7578181015183820152602001611dbf565b506000838581611e7557fe5b049594505050505056fe746f6b656e20697320646566696e6564206173206e6f742073616c76616761626c655468652073656e6465722068617320746f2062652074686520636f6e74726f6c6c6572206f72207661756c74536166654d6174683a206d756c7469706c69636174696f6e206f766572666c6f775361666545524332303a204552433230206f7065726174696f6e20646964206e6f7420737563636565646d61726b657420636173682063616e6e6f7420636f766572206c69717569646974795361666545524332303a20617070726f76652066726f6d206e6f6e2d7a65726f20746f206e6f6e2d7a65726f20616c6c6f77616e6365a265627a7a723158209b29d51db2a55d15ce9a782d6389fcf3ae8189843fb689338bd7acd0514595e764736f6c6343000510003257657468207374726174656779206e6565647320746f2068617665205745544820617320756e6465726c79696e67",
  "source": "pragma solidity 0.5.16;\n\nimport \"@openzeppelin/contracts/math/Math.sol\";\nimport \"@openzeppelin/contracts/math/SafeMath.sol\";\nimport \"@openzeppelin/contracts/token/ERC20/ERC20Detailed.sol\";\nimport \"@openzeppelin/contracts/token/ERC20/SafeERC20.sol\";\nimport \"./CompoundInteractor.sol\";\nimport \"./CompleteCToken.sol\";\nimport \"../../Controllable.sol\";\nimport \"../ProfitNotifier.sol\";\nimport \"../../compound/ComptrollerInterface.sol\";\nimport \"../../compound/CTokenInterfaces.sol\";\nimport \"../../hardworkInterface/IStrategy.sol\";\nimport \"../../uniswap/interfaces/IUniswapV2Router02.sol\";\n\n// (1) Cream is a fork of Compound, we will be using the CompoundInteractor as well.\n// (2) WETH has its own special strategy because its liquidation path would not\n//     use WETH as intermediate asset for obvious reason.\n\ncontract WETHCreamNoFoldStrategy is IStrategy, ProfitNotifier, CompoundInteractor {\n\n  using SafeMath for uint256;\n  using SafeERC20 for IERC20;\n\n  ERC20Detailed public underlying;\n  CompleteCToken public ctoken;\n  ComptrollerInterface public comptroller;\n\n  address public vault;\n  ERC20Detailed public comp; // this will be Cream\n\n  address public uniswapRouterV2;\n  uint256 public suppliedInWETH;\n\n  // These tokens cannot be claimed by the controller\n  mapping (address => bool) public unsalvagableTokens;\n\n  modifier restricted() {\n    require(msg.sender == vault || msg.sender == address(controller()),\n      \"The sender has to be the controller or vault\");\n    _;\n  }\n\n  event D(string);\n\n  constructor(\n    address _storage,\n    address _underlying,\n    address _ctoken,\n    address _vault,\n    address _comptroller,\n    address _comp,\n    address _uniswap\n  )\n  ProfitNotifier(_storage, _underlying)\n  CompoundInteractor(_underlying, _ctoken, _comptroller) public {\n    require(_underlying == address(_weth), \"Weth strategy needs to have WETH as underlying\");\n    comptroller = ComptrollerInterface(_comptroller);\n    // CREAM: 0x2ba592F78dB6436527729929AAf6c908497cB200\n    comp = ERC20Detailed(_comp);\n    underlying = ERC20Detailed(_underlying);\n    ctoken = CompleteCToken(_ctoken);\n    vault = _vault;\n    uniswapRouterV2 = _uniswap;\n\n    // set these tokens to be not salvagable\n    unsalvagableTokens[_underlying] = true;\n    unsalvagableTokens[_ctoken] = true;\n    unsalvagableTokens[_comp] = true;\n  }\n\n  modifier updateSupplyInTheEnd() {\n    _;\n    suppliedInWETH = ctoken.balanceOfUnderlying(address(this));\n  }\n\n  function depositArbCheck() public view returns(bool) {\n    // there's no arb here.\n    return true;\n  }\n\n  /**\n  * The strategy invests by supplying the underlying as a collateral and taking\n  * a loan in the required ratio. The borrowed money is then re-supplied.\n  */\n  function investAllUnderlying() public restricted updateSupplyInTheEnd {\n    uint256 balance = underlying.balanceOf(address(this));\n    _supplyEtherInWETH(balance);\n  }\n\n  /**\n  * Exits Compound and transfers everything to the vault.\n  */\n  function withdrawAllToVault() external restricted updateSupplyInTheEnd{\n    withdrawAll();\n    IERC20(address(underlying)).safeTransfer(vault, underlying.balanceOf(address(this)));\n  }\n\n  function withdrawAll() internal {\n    claimComp();\n    liquidateComp();\n    redeemMaximum();\n  }\n\n  function withdrawToVault(uint256 amountUnderlying) external restricted updateSupplyInTheEnd {\n    if (amountUnderlying <= underlying.balanceOf(address(this))) {\n      IERC20(address(underlying)).safeTransfer(vault, amountUnderlying);\n      return;\n    }\n\n    // get some of the underlying\n    mustRedeemPartial(amountUnderlying);\n\n    // Cannot give more than what we have\n    uint256 transferBalance = Math.min(\n        amountUnderlying,\n        underlying.balanceOf(address(this))\n    );\n\n    // transfer the amount requested (or the amount we have) back to vault\n    IERC20(address(underlying)).safeTransfer(vault, transferBalance);\n\n    // invest back to cream\n    investAllUnderlying();\n  }\n\n  /**\n  * Withdraws all assets, liquidates COMP, and invests again in the required ratio.\n  */\n  function doHardWork() public restricted {\n    claimComp();\n    liquidateComp();\n    investAllUnderlying();\n  }\n\n  /**\n  * Redeems maximum that can be redeemed from Compound.\n  * Redeem the minimum of the WETH we own, and the WETH that the cToken can\n  * immediately retrieve. Ensures that `redeemMaximum` doesn't fail silently.\n  *\n  * DOES NOT ensure that the strategy crWETH balance becomes 0.\n  */\n  function redeemMaximum() internal returns (uint256) {\n    redeemMaximumWeth();\n  }\n\n  /**\n  * Redeems `amountUnderlying` or fails.\n  */\n  function mustRedeemPartial(uint256 amountUnderlying) internal returns (uint256) {\n      require(\n          ctoken.getCash() >= amountUnderlying,\n          \"market cash cannot cover liquidity\"\n      );\n      redeemUnderlyingInWeth(amountUnderlying);\n  }\n\n  /**\n  * Salvages a token.\n  */\n  function salvage(address recipient, address token, uint256 amount) public onlyGovernance {\n    // To make sure that governance cannot come in and take away the coins\n    require(!unsalvagableTokens[token], \"token is defined as not salvagable\");\n    IERC20(token).safeTransfer(recipient, amount);\n  }\n\n  function liquidateComp() internal {\n    uint256 oldBalance = underlying.balanceOf(address(this));\n    uint256 balance = comp.balanceOf(address(this));\n    if (balance > 0) {\n      // we can accept 1 as minimum as this will be called by trusted roles only\n      uint256 amountOutMin = 1;\n      IERC20(address(comp)).safeApprove(address(uniswapRouterV2), 0);\n      IERC20(address(comp)).safeApprove(address(uniswapRouterV2), balance);\n      address[] memory path = new address[](2);\n      path[0] = address(comp);\n      path[1] = IUniswapV2Router02(uniswapRouterV2).WETH();\n      IUniswapV2Router02(uniswapRouterV2).swapExactTokensForTokens(\n        balance,\n        amountOutMin,\n        path,\n        address(this),\n        block.timestamp\n      );\n    }\n\n    // give a profit share to fee forwarder, which re-distributes this to\n    // the profit sharing pools\n    notifyProfit(\n      oldBalance, underlying.balanceOf(address(this))\n    );\n  }\n\n  /**\n  * Returns the current balance. Ignores COMP that was not liquidated and invested.\n  */\n  function investedUnderlyingBalance() public view returns (uint256) {\n    // underlying in this strategy + underlying redeemable from Compound/Cream\n    uint256 assets = underlying.balanceOf(address(this)).add(suppliedInWETH);\n    return assets;\n  }\n\n}\n",
  "sourcePath": "/home/jawaher/tmp/harvest/contracts/strategies/compound/WETHCreamNoFoldStrategy.sol",
  "compiler": {
    "name": "solc",
    "version": "0.5.16+commit.9c3226ce.Emscripten.clang"
  },
  "schemaVersion": "3.2.5",
  "updatedAt": "2020-10-19T08:25:32.228Z",
  "devdoc": {
    "methods": {}
  },
  "userdoc": {
    "methods": {
      "claimComp()": {
        "notice": "Get COMP"
      },
      "doHardWork()": {
        "notice": "Withdraws all assets, liquidates COMP, and invests again in the required ratio."
      },
      "investAllUnderlying()": {
        "notice": "The strategy invests by supplying the underlying as a collateral and taking a loan in the required ratio. The borrowed money is then re-supplied."
      },
      "investedUnderlyingBalance()": {
        "notice": "Returns the current balance. Ignores COMP that was not liquidated and invested."
      },
      "salvage(address,address,uint256)": {
        "notice": "Salvages a token."
      },
      "withdrawAllToVault()": {
        "notice": "Exits Compound and transfers everything to the vault."
      }
    }
  }
}